:020000040800F2
:1000000068B7012045050408395B000833960308EA
:100010003D5B0008415B0008455B000800000000F4
:10002000000000000000000000000000495B000824
:1000300059050408000000007F950308B559000821
:100040005F0504085F0504085F0504085F050408F0
:100050005F0504085F050408495C00085D5C000852
:10006000715C0008855C0008995C00085F05040865
:100070005F0504085F0504085F0504085F050408C0
:100080005F0504085F0504085F0504085F050408B0
:100090005F0504085F0504085F050408AD5C0008FF
:1000A0005F0504085F0504085F0504085F05040890
:1000B0005F0504085F0504085F0504085F05040880
:1000C0005F0504085F0504085F0504085F05040870
:1000D0005F0504080D6300084D6300088D63000888
:1000E000DD5C00085F0504085F0504085F0504087F
:1000F0005F0504085F0504085F0504085F05040840
:100100005F0504085F0504085F0504085F0504082F
:100110005F0504085F0504085F0504085F0504081F
:100120005F0504085F0504085F0504085F0504080F
:100130005F0504085F0504085F0504085F050408FF
:100140005F0504085F0504085F050408B96D000831
:100150005F0504085F0504085F0504085F050408DF
:100160005F0504085F0504085F0504085F050408CF
:100170005F0504085F0504085F050408000000002F
:100180005F0504085F0504085F0504085F050408AF
:100190005F0504085F0504085F0504085F0504089F
:1001A00000000000000000005F05040800F002F8F5
:1001B00000F0BBF80AA090E8000C82448344AAF146
:1001C0000107DA4501D100F0B0F8AFF2090EBAE844
:1001D0000F0013F0010F18BFFB1A43F0010318477B
:1001E000B43E0600D43E06000A444FF0000C10F85E
:1001F000013B13F0070408BF10F8014B1D1108BFA5
:1002000010F8015B641E05D010F8016B641E01F844
:10021000016BF9D113F0080F1EBF10F8014BAD1C94
:100220000C1B09D16D1E58BF01F801CBFAD505E0B2
:1002300014F8016B01F8016B6D1EF9D59142D6D30C
:10024000704700000023002400250026103A28BF34
:1002500078C1FBD8520728BF30C148BF0B60704738
:100260006E290EF0C3A270290EF00DA4662918F0B5
:1002700057A1652918F054A1672918F051A16129E7
:1002800018F050A103681B0A28BF41F080016929BA
:100290000DF00EA664290DF00BA675290DF008A629
:1002A0006F290EF09BA378290EF0D9A3E9290EF04F
:1002B00035A3E4290EF032A3F5290EF02FA3EF2980
:1002C0000EF098A3F8290EF0D8A30368DB0928BF25
:1002D00041F0800163290FF05FA073290FF064A043
:1002E000E3290FF06FA0F3290FF074A000207047EE
:1002F0001FB558F0DCF89DE803004EF021F94FF0EF
:1003000049F904000020002157F05EF9401C6060AC
:100310000020002157F06EF9E0604EF0DFF81FBDBD
:1003200010B500204FF0CDF810BD4FF00DF911467B
:10033000FFF7DEFF39F01EFA4FF0F0F903B4FFF7D4
:10034000EFFF03BC4EF01CFC2DE9F04FA9B00320D9
:1003500000210AF009FD59A039F0A6FA47F2201150
:100360000028C2F200018B46086000F0A180032142
:1003700039F0DCFB42F210703FF0A2FC4AF690200C
:10038000C0F6050001F030FA05464AF6D020C0F666
:10039000050001F029FA04460DF10F07CDE90145EA
:1003A0000CE000BF03200AF025FDB0FA80F04109FF
:1003B00003200AF0FBFC64203FF082FC0EF0D0FE2C
:1003C000002039468DF80F00284601F001FC9DF809
:1003D0000F00002853D04AF6902016AE2946C0F6EA
:1003E0000500324601F0E2FADBF800000021324657
:1003F000482339F0ABFC1DA8054695ED000A95EDA4
:10040000011A20EE000A01EE010A10EE100A57F060
:100410004DFF06461C98884657F048FF48EC106B85
:1004200081468A4656F014FBB0EE401AF0EE601A90
:100430004AEC109B55F0C0FA15ED010A95ED011A32
:1004400020EE000A01EE010A10EE100A57F02EFF0E
:1004500081461D980C4657F029FF44EC109B019CE7
:100460003E4605460F4656F0F3FAB0EE401AF0EE5F
:10047000601A47EC105B029D374655F09DFA204606
:10048000394601F0A5FB9DF80F0000288AD04AF6F6
:10049000D02004AE2146C0F60500324601F086FAAF
:1004A000DBF8000000213246482339F04FFC79E7A1
:1004B0004FF0FF3029B0BDE8F08F00BF76636F6D5D
:1004C000000000000020704700207047F0B591B098
:1004D00041F2304745F250660546D1E90001C2F2CB
:1004E0000007C2F200063C467963314644F8300FFB
:1004F00001A80EF03BFD01AB07F1440C0FCB8CE8DB
:100500000F000EA805A99DED010A9DED021A9DEDB3
:10051000032A9DED043A21EE014A20EE005A20EE16
:10052000036A60EE021A61EE030A21EE027A20EEFF
:10053000010A22EE031A22EE022A75EE042A35EE93
:10054000444A37EE465A37EE066A31EE407A30EECC
:10055000010A71EEA03A70EEE10A23EE031A32EEC0
:10056000C23A74EE021A34EE422A35EE054A33EEF0
:10057000A35A36EE066A37EE077A70EEA00A30EE1E
:10058000000A33EE413A71EEC11A32EE011A8DEDD6
:10059000064A8DED075A8DED086A8DED0A7ACDED8C
:1005A0000B0A8DED0C0A8DED053ACDED091A8DED96
:1005B0000D1A51F019FF9DED010A9DED021A9DEDF6
:1005C000032A9DED043A0EA805A921EE014A20EE6A
:1005D000005A20EE036A60EE021A61EE030A21EE71
:1005E000027A20EE010A22EE031A22EE022A75EEAA
:1005F000042A35EE444A37EE465A37EE066A31EEA3
:10060000407A30EE010A71EEA03A70EEE10A23EE74
:10061000031A32EEC23A74EE021A34EE422A35EE72
:10062000054A33EEA35A36EE066A37EE077A70EEC5
:10063000A00A30EE000A33EE413A71EEC11A32EEF2
:10064000011A8DED064A8DED075A8DED086A8DED84
:100650000A7ACDED0B0A8DED0C0A8DED053ACDED44
:10066000091A8DED0D1A51F0BFFE9DED010A9DEDA9
:10067000021A9DED032A9DED043A0EA805A921EE6C
:10068000014A20EE005A20EE036A60EE021A61EE83
:10069000030A21EE027A20EE010A22EE031A22EE6C
:1006A000022A75EE042A35EE444A37EE465A37EEF2
:1006B000066A31EE407A30EE010A71EEA03A70EE31
:1006C000E10A23EE031A32EEC23A74EE021A34EE55
:1006D000422A35EE054A33EEA35A36EE066A37EE65
:1006E000077A70EEA00A30EE000A33EE413A71EE5E
:1006F000C11A32EE011A8DED064A8DED075A8DEDC5
:10070000086A8DED0A7ACDED0B0A8DED0C0A8DEDA0
:10071000053ACDED091A8DED0D1A51F065FE05A9CA
:10072000304616F07FFE95ED020A9DED051A9DED0F
:10073000062A9DED073A4AF6D0302246C0F605005B
:1007400030EE410A87ED0E0A95ED030A30EE420ABB
:1007500087ED0F0A95ED040A30EE430A87ED100A83
:10076000396800F021FF012011B0F0BD2DE9F04FF4
:1007700081B02DED0E8B96B04AF6B020C0F6050084
:1007800001F032F841F23046C2F2000670604AF6DB
:10079000E020C0F6050001F027F8B0604AF6A0207E
:1007A000C0F6050001F020F8F0604AF6D03006F1FE
:1007B0003001C0F6050000F049FE306008A841F69F
:1007C000400A45F2506B40F2E0299FEDBC8A9FED54
:1007D000BC9A9FEDBCAA0DF15705B7EE00BA2030C8
:1007E000C2F2000AC2F2000BC2F20009029006F146
:1007F0001000019003E000BF01203FF061FA0020EB
:1008000029468DF85700706801F0E2F99DF857000D
:100810000028F1D04AF6B02071685246C0F60500B3
:1008200001F0C4F80EF09CFC0246CDE912210298BA
:10083000CDE903129AED053A9AED074A9AED085A66
:100840009AED096A9AED0A7A9AED020A9AED031A6C
:100850009AED042AC0E90021584608A923EE083A77
:1008600024EE094A27EE087A25EE095A26EE096A8F
:1008700023EE011A23EE000A23EE022A27EE044A91
:1008800027EE055A27EE066A8DED0E3A8DED0F7AAA
:100890008DED091A8DED080A8DED0A2A8DED0B4AB2
:1008A0008DED0C5A8DED0D6A0FF0AAFF504612A97E
:1008B000FFF70CFEB068294601F08AF99DF8570051
:1008C00000287AD041F200644AF6E020B168C2F212
:1008D0000004C0F60500224601F068F8A16A99F804
:1008E000000019B1C72805D8013001E010B1013866
:1008F00089F8000041F2006199F8010099ED0E0AB3
:1009000099ED0F1A99ED102A4FF47A720023C2F272
:10091000000191ED043A91ED054A91ED065A441C0F
:10092000D1E9000189F8014033EE00CA34EE01EA52
:1009300035EE02DA89ED0ECA89ED0FEA89ED10DA9B
:100940004DF00EFAD9F82820E4B200238018D9F827
:100950002C20C9F8280051412246C9F82C104DF02E
:10096000FFF90746D9F80400381A062825DB00EEFF
:10097000104A05A8B8EE400A00904FF47A708BEE4A
:10098000000A87FB0023584620EE0E1A20EE0C2AA0
:1009900020EE0D0A8DED061A8DED052A8DED070A64
:1009A00010F022FA0020C9E90A00C9F8047089F899
:1009B0000100C9E90E00C9F84000F068294601F0BD
:1009C00007F99DF8570000284BD04AF6A020F1689F
:1009D000019AC0F6050000F0E9FF99F8020099EDD0
:1009E000020A96ED091A4FF47A720023441CD6E9E4
:1009F000040131EE00CA89F8024089ED02CA4DF0C7
:100A0000AFF9D9F830205FFA84F800238018D9F8BC
:100A10003420C9F8300051414246C9F834104DF035
:100A20009FF90746D9F80C00381A062819D396ED15
:100A3000080A01EE108A4FF47A715846B8EE411A4E
:100A4000A7FB012320EE0A0A80EDBC0A8CEE010A06
:100A500010F0CAFC0020C9E90C0089F80200C9E9BD
:100A6000020758460CF04CFCD9E9067457EA04001A
:100A700018D0D9E904019AED05CA57F0A2FC00EE9E
:100A8000100A3CEE000A10EE100A57F01BFD049A03
:100A9000039BC9E90401D21BA341101A63EB0101B6
:100AA00006E000BFDDE90310C9E9060100200021CE
:100AB0000DF15705C9E908019EE600BFBD3786352F
:100AC0000AE81C415157473780B584B044F24C6363
:100AD000012004214FF48052C2F20003CDE900321C
:100AE000CDE9021047F6F0104CF6907140F26D72AD
:100AF0000023C2F20000C0F60501C0F600023EF07D
:100B000091FD00281CBF04B080BD47F6F010C2F272
:100B1000000004B0BDE880403EF036BE80B584B031
:100B2000022820DB486816A14DF096FCD8B944F2A3
:100B30004C63012004214FF48052C2F20003CDE93E
:100B40000032CDE9021047F6F0104CF6907140F2F9
:100B50006D720023C2F20000C0F60501C0F600026B
:100B60003EF060FD10B1002004B080BD47F6F010EB
:100B7000C2F200003EF008FE002004B080BD00BFBD
:100B8000737461727400000070B547F2F00045F2B2
:100B900050640025C2F20000C2F20004C0E9005512
:100BA00020464FF0D7FC4AF25C104DF20A7184F8EF
:100BB000CC55C4F8C8554FF07E5604F5BF62C0F658
:100BC0000500C3F623410830206041F26F20C4F8CD
:100BD000D055C4F8D455C4F8D855C4F8DC55C4F879
:100BE000E055C4F8E455C4F8E865C4F8EC55C4F819
:100BF000F055C4F8F455C3F6034043C204F2046050
:100C00006321C4F868564DF0D4FB04F5D960212166
:100C1000C4F86C66C4F87056C4F87456C4F87866A4
:100C200084F87C5684F89456C4F88056C4F88456E8
:100C3000C4F88856C4F88C56C4F89056C4F8985630
:100C4000C4F89C56C4F8A056C4F8A466C4F8A856C4
:100C5000C4F8AC56C4F8B056C4F8B466C4F8B85674
:100C6000C4F8BC56C4F8C056C4F8C4664DF0A1FB25
:100C700004F5DE604C214DF09CFB04F5E860242176
:100C80004DF097FB04F2C47040F6CD11C4F86467D0
:100C9000C4F86857C4F86C57C4F87057C4F8746740
:100CA000C4F87857C4F87C57C4F88057C4F8A057E4
:100CB000C4F8A45784F8A857A4F89857C4F88467D0
:100CC000C4F88857C4F88C57C4F89057C4F89457A0
:100CD00084F8BA57A4F8B857C4F8B057C4F8B45752
:100CE00084F8C257A4F8C057C4F8BC574DF061FB54
:100CF00041F294103C2120444DF05BFB41F2D010B6
:100D00004821265041F2D41020444DF052FB41F2CC
:100D10002C2049F28061255041F22820C0F2980130
:100D2000255041F2242025504FF49150255041F296
:100D30003020265041F23420215041F238202D211C
:100D4000255441F25820255041F25420255041F2BB
:100D50005020255041F24C20255041F2482025508A
:100D600041F2442025504FF49250255004F5935001
:100D70004DF01FFB41F29020312120444DF019FB32
:100D800041F2C420255441F2C220215A01F47C4191
:100D9000215241F2C820242120444DF00AFB44F2A4
:100DA000000141F23430255041F2EC20C4F21C61C4
:100DB000215041F238301F21255041F23C3025505E
:100DC0004FF49850255441F2FC20255041F2F82070
:100DD000255041F2F420255041F2F020255041F2F7
:100DE0001030255441F20C30255041F20830255086
:100DF00041F20430255041F2143020444DF0D9FA2C
:100E000040F6ED3040F200022146C0F60500C0F683
:100E10000002BDE870404DF058B900002DE9F04FD8
:100E200081B02DED088B88B00EF09AF980468B4684
:100E300006F0FAFF20B106A804A907F009F8B0B33C
:100E400009F08EF9002800F0E180684609F09EF96B
:100E5000002840F0DB800EF083F941F24062062763
:100E600041F69003C2F20002C2F2000342F8300FD2
:100E700097625160DDE90017DDE90265C2E9047699
:100E800095615162C3E90B0740F23030C3E90D654B
:100E9000C2F2000081684AF6E020C0F6050000F0CA
:100EA00083FB09F04FFC002840F0B480F6E00EF020
:100EB00057F940F270770122BDF91A30BDF91C6074
:100EC00041F6900440F6200A40F2303902259FEDA9
:100ED0007F3AB0EE084A9FED7E8A9FED7E9AC2F27D
:100EE0000007C2F20004C2F2000AC2F20009FA636B
:100EF000BDF9182000EE103A02EE106AC7E90001B1
:100F0000CAF83C50A061CAE90001D9E9060101EE26
:100F1000102AA7F84020A7F84230A7F84460B8EE9E
:100F2000C22AB8EB0000B8EEC11AB8EEC00ABDF98B
:100F3000122022EE032ABDF910506BEB010121EEC5
:100F4000031A20EE030A22EE042AAAF8422003EE36
:100F5000102ABDF9142021EE041A20EE040AAAF882
:100F6000405084ED071A84ED080A84ED092A04EE46
:100F7000102AAAF84420B8EEC44AB8EEC33A87ED66
:100F8000061A87ED070A87ED082A24EE084A23EEA1
:100F9000083A84EE09AA83EE09BA57F012FA01EE74
:100FA000105A9FED4D0A3A46B8EEC11AC9E9068BB0
:100FB000A06221EE081A8AEE002AD9F8001081EE0C
:100FC000091A81EE001A8BEE000A84ED021A84EDF4
:100FD000030A84ED042A60614AF690208AED061A1D
:100FE0008AED070A8AED082AC0F6050000F0DCFA4F
:100FF0004AF6D020D9F804105246C0F6050000F099
:10100000D3FA09F0ADF800287FF41FAF09F09AFB7E
:10101000002843D040F23036C2F2000606F1380014
:1010200006F1300109F0A2FBC0BB0EF099F89FED6C
:101030002B0A96ED0C1A9FED2A2ADFED2B0A0746A4
:101040000C4621EE000A9FED271A20EE020A80EEE0
:10105000010A55F09FF89FED251A9FED252A9FED77
:10106000253A46F8207F072141F690007460F1612F
:10107000C2F20000324600EE012AC76382EE030A84
:1010800086ED050A80ED100AB16941644AF6A02098
:1010900056F8141CC0F6050000F086FA40F2303015
:1010A00041F69002C2F20000C2F2000201694AF663
:1010B000B020C2E9008BC0F6050000F075FA08B058
:1010C000BDEC088B01B0BDE8F08F00BF0000003818
:1010D000CDCC744100007A44CDCC64420000C842BB
:1010E0006F12833A67A6CA4285DC423E33139043AF
:1010F000331390C3F4FDD4BBB0B584B0002041F6E7
:10110000900103904AF6B020C2F20001C0F605003B
:1011100000F09CF940F23034C2F2000420614AF63B
:10112000A02004F12001C0F6050000F08FF940F284
:101130007071E0604AF69020C0F60500C2F200012E
:1011400000F084F940F6200120604AF6D020C0F675
:101150000500C2F2000100F079F941F240656060DB
:101160004AF6E020C2F20005C0F6050005F13001A4
:1011700000F06CF9A060403414A10022204639F040
:10118000DDFD41F2ED12062001210023CDE9001022
:1011900012A1C0F6000228463EF0CAFE28463EF0E4
:1011A000D5FF03AD02E000BFFFF738FE2046012166
:1011B00006224FF0FF33009539F09EFF0028F5D14D
:1011C0009DF80C00C007F1D0EEE700BF73656E73A9
:1011D0006F727570646174610000000073656E73F6
:1011E0006F725F636F6C6C656374000040F2303047
:1011F0000121C2F20000403039F0FCBE80B584B05D
:1012000047F6F023012003214FF40062C2F20003ED
:10121000CDE90032CDE9021047F670204FF22D6182
:1012200041F2F9020023C2F20000C0F60501C0F647
:1012300000023EF0F7F900281CBF04B080BD47F65D
:101240007020C2F2000004B0BDE880403EF09CBABD
:1012500080B584B0022820DB486816A14DF0FCF868
:10126000D8B947F6F023012003214FF40062C2F2FF
:101270000003CDE90032CDE9021047F670204FF2AD
:101280002D6141F2F9020023C2F20000C0F605010F
:10129000C0F600023EF0C6F910B1002004B080BDD7
:1012A00047F67020C2F200003EF06EFA002004B053
:1012B00080BD00BF7374617274000000002070472D
:1012C00080B5022804DB486803A14DF0C5F808B1D9
:1012D000002080BD00F004F8737461727400000097
:1012E00080B500BF4FF4FA703EF0EAFCFAE7000068
:1012F00010B54AF2A84E4FF0000C002BC0F6050EB8
:101300000EF108040EF11C0EC0E90041C0E9022CE8
:10131000C0E904CEC0F818C01EBF5968816158608A
:1013200010BD00BF10B504460A46216921B16068AE
:10133000BDE8104000F038B9A068002801DD206148
:1013400010BD6068114600F081F8002818BF2061C8
:1013500010BD00BF4AF298434FF0000CC0F60503E1
:101360000833C0E90031C0E9022CC0F810C0704752
:1013700010B504464AF29840C0F6050008302060D7
:10138000206900F0E7F8204610BD52F0DDFC00BFF8
:1013900010B504464AF29840C0F6050008302060B7
:1013A000206900F0D7F82046BDE8104052F07DBC1F
:1013B00052F0CAFC40F29030C2F2000000780028DF
:1013C0000CBF4FF0FF3038F0C3B87047411C08BF66
:1013D000704740F29031C2F20001097809B138F04B
:1013E000BBB8704710B50446DCB140F29030C2F291
:1013F00000000078002808BF10BD206A4FF0FF31C0
:1014000038F0D6FF022809D84FF6F871C0F2FF0174
:1014100001EAC000012121FA00F000E0002084F878
:10142000240010BD10B50446002C08BF10BD40F2CA
:101430009030C2F20000007838B1206A39F096F896
:10144000002804BF002084F8240010BD2DE9F047D7
:1014500006468A46306801F025FF0446601C51D0DC
:1014600047F28C2940F29038C2F20009C2F200081B
:1014700059F8245098F80000002D18BF002845D1D5
:101480000021002829775DD038F062F859F82450FF
:1014900007462868766830B9304652F00FFC28605D
:1014A00059F824000068514632464CF0D9FE781CA9
:1014B00005D098F8000010B1384638F04DF859F8CA
:1014C0002450AC600DF04CFE59F824200123137712
:1014D000C2E90A013EF0A0F859F824402821FF2271
:1014E000606B4CF03CFF54B198F8000038B1206AB2
:1014F00039F03CF8002804BF002084F82400284676
:10150000BDE8F08700252846BDE8F087286A4FF03F
:10151000FF3138F04DFF022809D84FF6F871C0F2BC
:10152000FF0101EAC000012121FA00F000E00020E3
:1015300085F8240059F8245098F80000002100286C
:101540002977A1D14FF0FF37286876680028AAD103
:10155000A2E700BF00207047F0B581B00D460746F6
:101560001C461646286828B13846324601B0BDE808
:10157000F04019E0386801F095FE01F0D7F908B1A4
:10158000286808E038463146FFF760FF002C2860E5
:101590001CBF002121600021002808BF4FF0FF314F
:1015A000084601B0F0BD00BF2DE9F047064692465F
:1015B000306801F077FE0446601C04BF4FF0FF3036
:1015C000BDE8F08747F28C2940F29038C2F200095A
:1015D000C2F2000859F8245098F80000002D18BFF6
:1015E000002809D100210028297721D037F0B0FF49
:1015F00059F8245007461DE0286A4FF0FF3138F0B3
:10160000D7FE022809D84FF6F871C0F2FF0101EAAF
:10161000C000012121FA00F000E0002085F824003C
:1016200059F8245098F80000002100282977DDD1CE
:101630004FF0FF377268286851464CF011FE781C55
:1016400005D098F8000010B1384637F085FF59F8FA
:10165000240084600DF084FD59F8242001231377C1
:10166000C2E90A012821506BFF224CF078FE47F2B4
:1016700068612001C2F200010A68B2EB041F1CD0AD
:101680000A69824219D00A6A824216D00A6B8242E3
:1016900013D00A6C824210D00A6D82420DD00A6EBD
:1016A00082420AD00A6F824207D0D1F8802082425B
:1016B00003D0D1F89010814202D1012100F016F838
:1016C00059F824400020002C08BFBDE8F08798F8A6
:1016D000001041B1206A38F049FF0146002000297E
:1016E00008BF84F82400BDE8F08700BF2DE9F04171
:1016F00040F2903806460C46C2F2000898F8000006
:1017000018B137F025FF054601E04FF0FF3547F2ED
:101710006867C2F200073868B04204D1B86810B1F7
:1017200038F024FFFC803869B04204D1B86910B1A8
:1017300038F01CFFFC82386AB04204D1B86A10B19C
:1017400038F014FFFC84386BB04204D1B86B10B190
:1017500038F00CFFFC86386CB04205D1B86C18B17B
:1017600038F004FFA7F84640386DB04205D1B86D97
:1017700018B138F0FBFEA7F85640386EB04205D1DC
:10178000B86E18B138F0F2FEA7F86640386FB04274
:1017900005D1B86F18B138F0E9FEA7F87640D7F850
:1017A0008000B04206D1D7F8880018B138F0DEFECC
:1017B000A7F88640D7F89000B04206D1D7F8980035
:1017C00018B138F0D3FEA7F89640681C08BFBDE8F2
:1017D000F08198F8000020B12846BDE8F04137F0CC
:1017E000BBBEBDE8F08100BF70B5002865D00068C1
:1017F000002862D001F056FD04466C2C5DD83DF007
:101800000BFF40F290360546C2F200063078002801
:101810000CBF4FF0FF3037F09BFE47F28C21C2F235
:10182000000151F82410096B0A68AA424BD001321A
:1018300047D00A4652F8043FAB4244D0013341D06E
:101840000A4652F8083FAB423DD001333AD00A462F
:1018500052F80C3FAB4236D0013333D00A4652F82F
:10186000103FAB422FD001332CD00A4652F8143F20
:10187000AB4228D0013325D00A4652F8183FAB427C
:1018800021D001331ED00A4652F81C3FAB421AD079
:10189000013317D00A4652F8203FAB4213D0013330
:1018A00010D051F8242FAA420DD001320A4609D097
:1018B0004FF0FF34411C09D10CE04FF0FF342046BB
:1018C00070BD0A4615602401411C03D0317809B16E
:1018D00037F042FE204670BD70B500281CDB0609BB
:1018E0006C2E19D83DF098FE40F290350446C2F2B5
:1018F0000005287800280CBF4FF0FF3037F028FE95
:1019000047F28C21C2F2000151F82610096B0A68D7
:10191000A24205D10A4630E04FF0FF31084670BDC3
:101920000A4652F8043FA34227D00A4652F8083F1D
:10193000A34222D00A4652F80C3FA3421DD00A46C9
:1019400052F8103FA34218D00A4652F8143FA3425F
:1019500013D00A4652F8183FA3420ED00A4652F856
:101960001C3FA34209D00A4652F8203FA34204D0AC
:1019700051F8242FA2420A460DD14FF0FF311160D9
:10198000411C4FF000010FD02A786AB137F0E4FD16
:101990000021084670BD411C4FF0000104D02A7898
:1019A00012B137F0D9FD0021084670BD2DE9F04F86
:1019B00081B0064690460D46306801F073FC04463F
:1019C0004FF0FF3B601C00F0FF802811844240F084
:1019D000FB8047F28C2A40F29039C2F2000AC2F230
:1019E00000095AF82450C5B199F80000A8B1286A36
:1019F0004FF0FF3138F0DCFC022809D84FF6F871BF
:101A0000C0F2FF0101EAC000012121FA00F000E06C
:101A1000002085F824005AF824502868D8B33DF0F7
:101A2000FBFD5AF824104A6B1368013349D0134662
:101A300053F8047F01371EBF134653F8087F17F190
:101A400001073FD0134653F80C7F01371EBF1346E2
:101A500053F8107F17F1010734D0134653F8147F61
:101A600001371EBF134653F8187F17F1010729D01D
:101A7000134653F81C7F01371EBF134653F8207FCF
:101A800017F101071ED052F8243F0133134619D035
:101A90004FF0FF3B33E04FF0FF3B002D00F0948010
:101AA00099F80000002800F08F80286A38F05EFD69
:101AB000002804BF002085F82400584601B0BDE886
:101AC000F08F1346186099F8000028B137F040FDF8
:101AD0005AF82410054601E04FF0FF357268096896
:101AE00040464CF0BDFB681C4FF0000B07D099F846
:101AF000000020B1284637F02FFD4FF0000B5AF8B8
:101B00002450D5E90C2092E84A0002F10C0E9EE820
:101B10001054D2F81C804F1C591C18BF0121002FF3
:101B200018BF0131731C18BF0131631C18BF01318C
:101B30001AF1010318BF01311CF1010318BF013173
:101B40001EF1010300F10C0E18BF013118F1010361
:101B500018BF0131D2E90832013318BF0131013217
:101B600018BF013190E88C009EE84054D0F81C80EA
:101B7000541C5A1C18BF0122002C18BF01327B1CB8
:101B800018BF0132731C18BF01321AF1010318BFCC
:101B900001321CF1010318BF01321EF1010318BF0D
:101BA000013218F1010318BF0132D0E908300133C6
:101BB00018BF0132013018BF01328A42A4BF002091
:101BC0002877002D7FF46CAF584601B0BDE8F08F48
:101BD0002DE9F0410C46B0F1FF3F02DDB0F5DA6FC0
:101BE00005D3002020704FF0FF30BDE8F08147F2B0
:101BF0008C27060940F29038C2F20007C2F20008B2
:101C000057F82650B5B198F8000098B1286A4FF0FF
:101C1000FF3138F0CDFB022809D84FF6F871C0F239
:101C2000FF0101EAC000012121FA00F000E00020DC
:101C300085F824003DF0F0FC57F82660716B0A68C7
:101C4000824232D04A6882422FD08A6882422CD0A7
:101C5000CA68824229D00A69824226D04A698242F1
:101C600023D08A69824220D0CA6982421DD00A6A82
:101C700082421AD0496A814217D0307FA8B1012030
:101C8000207098F80000002804BF0020BDE8F08113
:101C9000306A38F06BFC01460020002904BF86F84A
:101CA0002400BDE8F081BDE8F0810020002E207006
:101CB0004FF0FF3008BFBDE8F08198F8001069B11F
:101CC000306A38F053FC00281CBF4FF0FF30BDE8ED
:101CD000F081002086F824004FF0FF30BDE8F0814D
:101CE00002464FF0FF3013116C2B13D802F00F0295
:101CF000062A88BF704747F28C20C2EBC202C2F2AC
:101D0000000050F8230000EBC200D0E90A02C1E94C
:101D100000020020704700BFB0B500680C4601F01B
:101D2000C1FA05466C2D05D8284600F0FFFD012CB0
:101D300003DB10B94FF0FF30B0BD47F28C20C4EB8D
:101D4000C401C2F2000050F8250050F83120002AEA
:101D50001FBF00EBC100806810F10100002018BF18
:101D6000B0BD4FF0FF30B0BD70B50546286801F03A
:101D700099FA04466C2C0FD8204600F0D7FD47F2A4
:101D80008C20C2F2000050F82400016821B1806864
:101D9000441C18BF012400E00024286801F082FAE6
:101DA00006466C2E0FD8304600F0C0FD58B147F201
:101DB0008C20C2F2000050F82600816B19B1006C33
:101DC000013018BF0134286801F06CFA06466C2E09
:101DD0000FD8304600F0AAFD58B147F28C20C2F26D
:101DE000000050F82600016F19B1806F013018BF54
:101DF0000134286801F056FA06466C2E11D8304698
:101E000000F094FD68B147F28C20C2F2000050F857
:101E10002600D0F8A81021B1D0F8B000013018BFCA
:101E20000134286801F03EFA06466C2E11D830467F
:101E300000F07CFD68B147F28C20C2F2000050F83F
:101E40002600D0F8E01021B1D0F8E800013018BF2A
:101E50000134286801F026FA06466C2E11D8304667
:101E600000F064FD68B147F28C20C2F2000050F827
:101E70002600D0F8181121B1D0F82001013018BF88
:101E80000134286801F00EFA05466C2D11D8284659
:101E900000F04CFD68B147F28C20C2F2000050F80F
:101EA0002500D0F8501121B1D0F85801013018BFE9
:101EB0000134204670BD00BF02464FF0FF301311C1
:101EC0006C2B11D802F00F02062A88BF704747F228
:101ED0008C20C2EBC202C2F2000050F8230000EBDB
:101EE000C200406808600020704700BF02464FF003
:101EF000FF3013116C2B11D802F00F02062A88BF95
:101F0000704747F28C20C2EBC202C2F2000050F8C8
:101F1000230000EBC2020020C2E90410704700BF9A
:101F200002464FF0FF3013116C2B11D802F00F0254
:101F3000062A88BF704747F28C20C2EBC202C2F269
:101F4000000050F8230000EBC20000690860002088
:101F5000704700BF70B582B040F290354CF6957175
:101F600038204FF0805241F68C13C2F200050090E9
:101F7000C0F60501281D3CF0A1FA04464CB14CF610
:101F80009A702146C0F605003BF048F9204602B0A1
:101F900070BD41F2B0604CF6B27141F68C12282649
:101FA00041F2BC23C2F20000C0F60501C1F20002FA
:101FB00000963CF083FA4CF6AE7142F6484205F1C9
:101FC0003C0041F2BC230096C0F60501C1F20002BC
:101FD0003CF074FA204602B070BD00BF2DE9F04F0E
:101FE00087B040F2903A00214FF0805241F68C13B6
:101FF000C2F2000A504600F8041B382100914CF64A
:102000009571C0F605013CF059FA014649B14CF60C
:102010009A70C0F605003BF001F9C8A03BF0FEF84D
:1020200020E041F2B0604CF6B27141F68C122825E6
:1020300041F2BC23C2F20000C0F60501C1F2000269
:1020400000953CF03BFA4CF6AE7142F648420AF17C
:102050003C0041F2BC230095C0F60501C1F200022C
:102060003CF02CFA4CF6AB7747F2686546F670798F
:102070000DF106044FF0FF384FF0000B0022C0F6C0
:102080000507C2F20005C6F66C4920463946C5F878
:102090000080CDE905BBCDF810904BF0F3FE04AE07
:1020A000214630464CF0D0F830460021002238F06E
:1020B000BBF8A860204639460122A5F806B0C5F84D
:1020C0001080ADF818B0CDE9049B4BF0DBFE304634
:1020D00021464CF0B9F830460021002238F0A4F82F
:1020E000A861204639460222A5F816B0C5F820801E
:1020F000ADF818B0CDE9049B4BF0C4FE3046214644
:102100004CF0A2F830460021002238F08DF8A86289
:10211000204639460322A5F826B0C5F83080ADF830
:1021200018B0CDE9049B4BF0ADFE304621464CF093
:102130008BF830460021002238F076F8A86320465C
:1021400039460422A5F836B0C5F84080ADF818B07D
:10215000CDE9049B4BF096FE304621464CF074F8D6
:1021600030460021002238F05FF8A8642046394646
:102170000522A5F846B0C5F85080ADF818B0CDE9F5
:10218000049B4BF07FFE304621464CF05DF8304614
:102190000021002238F048F8A8652046394606227A
:1021A000A5F856B0C5F86080ADF818B0CDE9049B2D
:1021B0004BF068FE304621464CF046F83046002190
:1021C000002238F031F8A866204639460722A5F8E3
:1021D00066B0C5F87080ADF818B0CDE9049B4BF03F
:1021E00051FE304621464CF02FF8304600210022A7
:1021F00038F01AF8A867204639460822A5F876B0C4
:10220000C5F88080ADF818B0CDE9049B4BF03AFEDC
:10221000304621464CF018F830460021002238F0B4
:1022200003F8C5F88800204639460922A5F886B08B
:10223000C5F89080ADF818B0CDE9049B4BF022FEB4
:10224000304621464CF000F830460021002237F09D
:10225000EBFF47F28C2841F2B064C5F89800A5F86E
:1022600096B00AF104070AF13C050026C2F2000804
:10227000C2F20004384601213CF050FB48F8260029
:102280003046002102F04EFA58F826100DF10609EA
:10229000324608604B2158F8260041604FF0FF316C
:1022A0008160C0E904BBC0F818B04CF6AB7158F8B7
:1022B0002600C0F6050180F81CB046F27350CDE947
:1022C00005BBC0F26D00049048464BF0DBFD0DF1FC
:1022D000100A494650464BF0B7FF504601210022F4
:1022E00037F0A2FF58F826100862012158F826009E
:1022F000C0E90ABB80F824B028463CF00FFB58F830
:1023000026100863204601213CF008FB58F82610EF
:10231000FF224863282158F82600006B4CF01FF874
:1023200058F826002821FF22406B4CF018F801369F
:102330006D2E9FD1002007B0BDE8F08F63636D72F2
:10234000616D20696E6974206661696C6564000066
:102350002DE9F04F81B041F6E00040F21047002433
:102360003021C2F20000C2F200072830C7E9004461
:10237000C7E902444CF01DF840F6D0605021C2F28B
:1023800000004CF016F840F620705021C2F2000018
:102390004CF00FF840F660383821C2F20008404691
:1023A0004CF007F840F2C07641F250393021C2F2C9
:1023B0000006C2F200093046C9E90644C9E90844EA
:1023C000C9E90A44C9E90C444BF0F3FF06F13000B7
:1023D00030214BF0EEFF41F668204FF46E71C9E9F1
:1023E0000E44C9E91044C9E91244C9E91444C7E9D3
:1023F0000444C7E90644C7E90844C7E90A44C2F2ED
:1024000000004BF0D6FF41F2904B41F62060E021F6
:10241000C7E90C44C7E90E44C2F2000BC2F2000047
:10242000CBE90044CBE90244CBE90444CBE90644C0
:10243000C9E91644C9E91844C9E91A44C9E91C4460
:102440004BF0B7FF41F600709021C2F200004BF054
:10245000B0FF41F69070E021C2F200004BF0A9FFFE
:1024600040F6700640F640453021C2F20006C2F246
:1024700000053046C5E91444C5E91644C5E91844C9
:102480004BF097FF42F270004FF4C871C2F20000A7
:102490004BF08FFF42F2002040F68801C2F20000AC
:1024A0004BF087FF42F688204FF48871C2F200009B
:1024B0004BF07FFF06F1300040F6D0763021C7E9BF
:1024C0001044C7E91244C2F20006C6E90044C6E956
:1024D0000244C6E904444BF06CFF08F1380038218F
:1024E0004BF067FF40F6D0383821C2F20008404672
:1024F0004BF05FFF40F670705821C6E90644C6E90C
:102500000844C6E90A44C7E91444C7E91644C2F2BC
:1025100000004BF04EFF42F69830C021C2F200009E
:102520004BF047FF42F658404FF4E871C2F200000A
:102530004BF03FFF08F1380038214BF03AFF40F6EE
:10254000E0504821C2F200004BF033FF42F6286011
:102550008821C7E91844C7E91A44C2F200004BF0C9
:1025600028FF40F620504021C2F200004BF021FF2E
:1025700040F660504021C2F200004BF01AFF40F6D6
:10258000B0403821C6E90C44C6E90E44C6E91044FF
:10259000C2F200004BF00DFF41F2F0602821C6E9C5
:1025A0001A44C6E91C44C6E91244C6E91444C6E903
:1025B0001644C6E91844C2F200004BF0FAFE40F699
:1025C000D00741F2F01840F2007A3021C2F2000741
:1025D000C2F20008C2F2000A3846C8E90044C8E95D
:1025E0000244C8E90444CAE90044CAE90244CAE909
:1025F0000444CAE906444BF0DCFE07F13000302108
:102600004BF0D7FE41F210106821CAE90844CAE92C
:102610000A44C2F200004BF0CCFE42F6B0604FF428
:10262000A471C2F200004BF0C4FE42F6F8704FF401
:10263000D071C8E90644C8E90844C8E90A44C2F2AE
:1026400000004BF0B6FE43F298108021C2F2000069
:102650004BF0AFFE43F218208021C2F200004BF095
:10266000A8FE41F280107021CAE90C44CAE90E4468
:10267000C2F200004BF09DFE43F298204FF4FC7133
:10268000C2F200004BF095FE43F29040E021C2F20E
:1026900000004BF08EFE43F270504FF4FC71C2F21A
:1026A00000004BF086FE43F26870C021C2F20000C9
:1026B0004BF07FFE43F628004FF4FC71C2F200009D
:1026C0004BF077FE43F620204FF4C471C2F20000B5
:1026D0004BF06FFE40F630604821C8E91444C8E969
:1026E0001644CAE91044CAE91244CAE91444CAE9C2
:1026F0001644C8E90C44C8E90E44C8E91044C8E9C6
:102700001244CBE90844CBE90A44CBE90C44CBE9B9
:102710000E44C2F200004BF04CFE43F6A8304FF4DA
:102720008C71C2F200004BF044FE40F6A0504021F4
:10273000CAE91844CAE91A44C5E90044C5E9024493
:10274000C2F200004BF035FE40F630173021C2F2E5
:10275000000738464BF02DFE07F1300030214BF0DA
:1027600028FE43F6C0404FF48471C2F200004BF0E3
:1027700020FE43F6C8504FF48C71C5E90444C5E906
:102780000644C2F200004BF014FE40F6B04038217F
:10279000C2F2000038304BF00CFE40F68060482159
:1027A000C5E90844C5E90A44C2F200004BF001FE45
:1027B00043F6E0604FF42871CBE91044CBE91244B2
:1027C000CBE91444CBE91644C8E91844C8E91A44D3
:1027D000C8E91C44C2F200004BF0EBFD41F2702747
:1027E00041F250006021C2F20007C2F20000C7E9C6
:1027F0000044C7E90244C7E904444BF0DAFD44F25F
:1028000008204FF46E71C5E90C44C5E90E44C2F2CC
:1028100000004BF0CEFD40F690163021C2F20006CB
:1028200030464BF0C6FD41F2F0682821C7E9064466
:10283000C7E90844C7E90A44C2F2000808F12800C1
:102840004BF0B7FD06F1300030214BF0B2FD40F601
:10285000F0163021C5E91044C5E91244C7E9144413
:10286000C7E91644C7E90C44C7E90E44C7E9104458
:10287000C7E91244C2F2000630464BF09AFD06F159
:10288000300030214BF095FD40F6A0263021C2F2F9
:10289000000630464BF08DFD06F1300030214BF044
:1028A00088FD40F600363021C2F2000630464BF07B
:1028B00080FD06F1300030214BF07BFD44F28010AA
:1028C0008821C7E91844C7E91A44C7E91C44C9E983
:1028D0000044C9E90244C9E90444C2F200004BF0D3
:1028E00068FD44F2C0508821C2F200004BF061FD47
:1028F00041F2B0006021C2F200004BF05AFD08F135
:10290000500028214BF055FD41F6E0002821C2F28D
:1029100000004BF04EFD01B0BDE8F08F40F290306A
:102920000121C2F200000170704700BFA0F10B014D
:102930004D2900F22B800120DFE801F0272828280C
:102940002728282828282728282828282828282809
:1029500028282828282828282828282828282828F7
:1029600028282828282828282828282727272827EB
:1029700027282828282828272828282828282827DA
:10298000282828282827282728277047002070472C
:1029900006288EBF4FF0FF3001A151F8200070478C
:1029A0000100000019000000320000004B00000090
:1029B000640000007D000000FF0000004A280CDDDC
:1029C0007C2819DC4B2804BF03207047642804BF0F
:1029D000042070474FF0FF307047012804BF0020EB
:1029E0007047192804BF01207047322804BF022015
:1029F00070474FF0FF3070477D2804BF05207047B7
:102A0000FF2804BF062070474FF0FF30704700BF1B
:102A10006C2800F27880DFE810F06D007900820009
:102A20008B0094009D00A600AF00B800C100CA0052
:102A3000D300DC00E500EE00F700000109011201FF
:102A40001B0124012D0136013F01480151015A01AA
:102A500063016C0175017E01870190019901A2015A
:102A6000AB01B401BD01C601CF01D801E101EA010A
:102A7000F301FC0105020E021702200229023202B4
:102A80003B0244024D0256025F02680271027A0262
:102A900083028C0295029E02A702B002B902C20212
:102AA000CB02D402DD02E602EF02F80201030A03C0
:102AB00013031C0325032E0337034003490352036A
:102AC0005B0364036D0376037F03880391039A031A
:102AD000A303AC03B503BE03C703D003D903E203CA
:102AE000EB03F403FD0306040F04180421042A0475
:102AF00033043C044AF27060C0F6050002680846E0
:102B000011464BF013BB0020087070474AF28060FA
:102B1000C0F605000268084611464BF007BB4AF2B2
:102B2000F060C0F605000268084611464BF0FEBA98
:102B30004AF20070C0F605000268084611464BF0E4
:102B4000F5BA4AF21070C0F6050002680846114650
:102B50004BF0ECBA4AF22070C0F605000268084655
:102B600011464BF0E3BA4AF23070C0F60500026835
:102B7000084611464BF0DABA4AF24070C0F605003A
:102B80000268084611464BF0D1BA4AF25070C0F6BE
:102B900005000268084611464BF0C8BA4AF2707048
:102BA000C0F605000268084611464BF0BFBA4AF26B
:102BB0006070C0F605000268084611464BF0B6BAD0
:102BC0004AF28070C0F605000268084611464BF0D4
:102BD000ADBA4AF29070C0F6050002680846114688
:102BE0004BF0A4BA4AF2A070C0F60500026808468D
:102BF00011464BF09BBA4AF2B070C0F6050002686D
:102C0000084611464BF092BA4AF2C070C0F6050071
:102C10000268084611464BF089BA4AF2D070C0F6F5
:102C200005000268084611464BF080BA4AF2E0708F
:102C3000C0F605000268084611464BF077BA4AF222
:102C4000F070C0F605000268084611464BF06EBAF7
:102C50004AF60000C0F605000268084611464BF02F
:102C600065BA4AF61000C0F605000268084611462B
:102C70004BF05CBA4AF62000C0F605000268084630
:102C800011464BF053BA4AF63000C0F60500026810
:102C9000084611464BF04ABA4AF64000C0F6050015
:102CA0000268084611464BF041BA4AF65000C0F699
:102CB00005000268084611464BF038BA4AF6600033
:102CC000C0F605000268084611464BF02FBA4AF6D6
:102CD0007000C0F605000268084611464BF026BA9F
:102CE0004AF68000C0F605000268084611464BF01F
:102CF0001DBA4AF69000C0F6050002680846114663
:102D00004BF014BA4AF6A000C0F605000268084667
:102D100011464BF00BBA4AF6B000C0F60500026847
:102D2000084611464BF002BA4AF6C000C0F605004C
:102D30000268084611464BF0F9B94AF6D000C0F6D1
:102D400005000268084611464BF0F0B94AF6E0006B
:102D5000C0F605000268084611464BF0E7B94AF68E
:102D6000F000C0F605000268084611464BF0DEB9D7
:102D70004AF60010C0F605000268084611464BF0FE
:102D8000D5B94AF61010C0F605000268084611468B
:102D90004BF0CCB94AF62010C0F605000268084690
:102DA00011464BF0C3B94AF63010C0F60500026870
:102DB000084611464BF0BAB94AF64010C0F6050075
:102DC0000268084611464BF0B1B94AF65010C0F6F9
:102DD00005000268084611464BF0A8B94AF6601093
:102DE000C0F605000268084611464BF09FB94AF646
:102DF0007010C0F605000268084611464BF096B9FF
:102E00004AF68010C0F605000268084611464BF0ED
:102E10008DB94AF69010C0F60500026808461146C2
:102E20004BF084B94AF6A010C0F6050002680846C7
:102E300011464BF07BB94AF6B010C0F605000268A7
:102E4000084611464BF072B94AF6E010C0F605008C
:102E50000268084611464BF069B94AF6F010C0F610
:102E600005000268084611464BF060B94AF600209A
:102E7000C0F605000268084611464BF057B94AF6FD
:102E80001020C0F605000268084611464BF04EB906
:102E90004AF62020C0F605000268084611464BF0AD
:102EA00045B94AF63020C0F60500026808461146CA
:102EB0004BF03CB94AF64020C0F6050002680846CF
:102EC00011464BF033B94AF65020C0F605000268AF
:102ED000084611464BF02AB94AF66020C0F60500B4
:102EE0000268084611464BF021B94AF67020C0F638
:102EF00005000268084611464BF018B94AF68020D2
:102F0000C0F605000268084611464BF00FB94AF6B4
:102F10009020C0F605000268084611464BF006B93D
:102F20004AF6A020C0F605000268084611464BF09C
:102F3000FDB84AF6B020C0F6050002680846114602
:102F40004BF0F4B84AF6C020C0F605000268084607
:102F500011464BF0EBB84AF6D020C0F605000268E7
:102F6000084611464BF0E2B84AF6E020C0F60500EC
:102F70000268084611464BF0D9B84AF6F020C0F670
:102F800005000268084611464BF0D0B84AF60030FA
:102F9000C0F605000268084611464BF0C7B84AF66D
:102FA0001030C0F605000268084611464BF0BEB866
:102FB0004AF62030C0F605000268084611464BF07C
:102FC000B5B84AF63030C0F605000268084611462A
:102FD0004BF0ACB84AF64030C0F60500026808462F
:102FE00011464BF0A3B84AF65030C0F6050002680F
:102FF000084611464BF09AB84AF66030C0F6050014
:103000000268084611464BF091B84AF67030C0F697
:1030100005000268084611464BF088B84AF6803031
:10302000C0F605000268084611464BF07FB84AF624
:103030009030C0F605000268084611464BF076B89D
:103040004AF6A030C0F605000268084611464BF06B
:103050006DB84AF6B030C0F6050002680846114661
:103060004BF064B84AF6C030C0F605000268084666
:1030700011464BF05BB84AF6D030C0F60500026846
:10308000084611464BF052B84AF6F030C0F605003B
:103090000268084611464BF049B84AF61040C0F69F
:1030A00005000268084611464BF040B84AF6004059
:1030B000C0F605000268084611464BF037B84AF6DC
:1030C0002040C0F605000268084611464BF02EB8B5
:1030D0004AF63040C0F605000268084611464BF03B
:1030E00025B84AF64040C0F6050002680846114679
:1030F0004BF01CB84AF66040C0F60500026808466E
:1031000011464BF013B84AF67040C0F6050002684D
:10311000084611464BF00AB84AF68040C0F6050052
:103120000268084611464BF001B84AF69040C0F6D6
:1031300005000268084611464AF0F8BF4AF6B0405A
:10314000C0F605000268084611464AF0EFBF4AF68D
:10315000C040C0F605000268084611464AF0E6BFC6
:103160004AF6D040C0F605000268084611464AF00B
:10317000DDBF4AF6E040C0F6050002680846114689
:103180004AF0D4BF4AF6F040C0F60500026808468F
:1031900011464AF0CBBF4AF62050C0F6050002683F
:1031A000084611464AF0C2BF4AF63050C0F6050044
:1031B0000268084611464AF0B9BF4AF29060C0F66C
:1031C00005000268084611464AF0B0BF4AF2A06006
:1031D000C0F605000268084611464AF0A7BF4AF249
:1031E000B060C0F605000268084611464AF09EBF6E
:1031F0004AF2C060C0F605000268084611464AF06F
:1032000095BF4AF2D060C0F6050002680846114634
:103210004AF08CBF4AF2E060C0F60500026808463A
:1032200011464AF083BF4AF6C010C0F60500026896
:10323000084611464AF07ABF4AF6D010C0F605009B
:103240000268084611464AF071BF4AF6A040C0F62F
:1032500005000268084611464AF068BF4AF6105059
:10326000C0F605000268084611464AF05FBF4AF6FC
:103270005040C0F605000268084611464AF056BFA5
:103280004AF6E030C0F605000268084611464AF0EA
:103290004DBF4AF60050C0F60500026808461146C8
:1032A0004AF044BF10B504464AF27060C0F605000B
:1032B000016820464BF0D0F8002804BF002010BD64
:1032C0004AF28060C0F60500016820464BF0C4F861
:1032D000002804BF012010BD4AF2F060C0F60500CE
:1032E000016820464BF0B8F8002804BF022010BD4A
:1032F0004AF20070C0F60500016820464BF0ACF8B9
:10330000002804BF032010BD4AF21070C0F605006B
:10331000016820464BF0A0F8002804BF042010BD2F
:103320004AF22070C0F60500016820464BF094F880
:10333000002804BF052010BD4AF23070C0F6050019
:10334000016820464BF088F8002804BF062010BD15
:103350004AF24070C0F60500016820464BF07CF848
:10336000002804BF072010BD4AF25070C0F60500C7
:10337000016820464BF070F8002804BF082010BDFB
:103380004AF27070C0F60500016820464BF064F800
:10339000002804BF092010BD4AF26070C0F6050085
:1033A000016820464BF058F8002804BF0A2010BDE1
:1033B0004AF28070C0F60500016820464BF04CF8D8
:1033C000002804BF0B2010BD4AF29070C0F6050023
:1033D000016820464BF040F8002804BF0C2010BDC7
:1033E0004AF2A070C0F60500016820464BF034F8A0
:1033F000002804BF0D2010BD4AF2B070C0F60500D1
:10340000016820464BF028F8002804BF0E2010BDAC
:103410004AF2C070C0F60500016820464BF01CF867
:10342000002804BF0F2010BD4AF2D070C0F605007E
:10343000016820464BF010F8002804BF102010BD92
:103440004AF2E070C0F60500016820464BF004F82F
:10345000002804BF112010BD4AF2F070C0F605002C
:10346000016820464AF0F8FF002804BF122010BD72
:103470004AF60000C0F60500016820464AF0ECFF5D
:10348000002804BF132010BD4AF61000C0F6050046
:10349000016820464AF0E0FF002804BF142010BD58
:1034A0004AF62000C0F60500016820464AF0D4FF25
:1034B000002804BF152010BD4AF63000C0F60500F4
:1034C000016820464AF0C8FF002804BF162010BD3E
:1034D0004AF64000C0F60500016820464AF0BCFFED
:1034E000002804BF172010BD4AF65000C0F60500A2
:1034F000016820464AF0B0FF002804BF182010BD24
:103500004AF66000C0F60500016820464AF0A4FFB4
:10351000002804BF192010BD4AF67000C0F605004F
:10352000016820464AF098FF002804BF1A2010BD09
:103530004AF68000C0F60500016820464AF08CFF7C
:10354000002804BF1B2010BD4AF69000C0F60500FD
:10355000016820464AF080FF002804BF1C2010BDEF
:103560004AF6A000C0F60500016820464AF074FF44
:10357000002804BF1D2010BD4AF6B000C0F60500AB
:10358000016820464AF068FF002804BF1E2010BDD5
:103590004AF6C000C0F60500016820464AF05CFF0C
:1035A000002804BF1F2010BD4AF6D000C0F6050059
:1035B000016820464AF050FF002804BF202010BDBB
:1035C0004AF6E000C0F60500016820464AF044FFD4
:1035D000002804BF212010BD4AF6F000C0F6050007
:1035E000016820464AF038FF002804BF222010BDA1
:1035F0004AF60010C0F60500016820464AF02CFF8C
:10360000002804BF232010BD4AF61010C0F60500A4
:10361000016820464AF020FF002804BF242010BD86
:103620004AF62010C0F60500016820464AF014FF53
:10363000002804BF252010BD4AF63010C0F6050052
:10364000016820464AF008FF002804BF262010BD6C
:103650004AF64010C0F60500016820464AF0FCFE1C
:10366000002804BF272010BD4AF65010C0F6050000
:10367000016820464AF0F0FE002804BF282010BD53
:103680004AF66010C0F60500016820464AF0E4FEE4
:10369000002804BF292010BD4AF67010C0F60500AE
:1036A000016820464AF0D8FE002804BF2A2010BD39
:1036B0004AF68010C0F60500016820464AF0CCFEAC
:1036C000002804BF2B2010BD4AF69010C0F605005C
:1036D000016820464AF0C0FE002804BF2C2010BD1F
:1036E0004AF6A010C0F60500016820464AF0B4FE74
:1036F000002804BF2D2010BD4AF6B010C0F605000A
:10370000016820464AF0A8FE002804BF2E2010BD04
:103710004AF6E010C0F60500016820464AF09CFE1B
:10372000002804BF2F2010BD4AF6F010C0F6050097
:10373000016820464AF090FE002804BF302010BDEA
:103740004AF60020C0F60500016820464AF084FED3
:10375000002804BF312010BD4AF61020C0F6050035
:10376000016820464AF078FE002804BF322010BDD0
:103770004AF62020C0F60500016820464AF06CFE9B
:10378000002804BF332010BD4AF63020C0F60500E3
:10379000016820464AF060FE002804BF342010BDB6
:1037A0004AF64020C0F60500016820464AF054FE63
:1037B000002804BF352010BD4AF65020C0F6050091
:1037C000016820464AF048FE002804BF362010BD9C
:1037D0004AF66020C0F60500016820464AF03CFE2B
:1037E000002804BF372010BD4AF67020C0F605003F
:1037F000016820464AF030FE002804BF382010BD82
:103800004AF68020C0F60500016820464AF024FEF2
:10381000002804BF392010BD4AF69020C0F60500EC
:10382000016820464AF018FE002804BF3A2010BD67
:103830004AF6A020C0F60500016820464AF00CFEBA
:10384000002804BF3B2010BD4AF6B020C0F605009A
:10385000016820464AF000FE002804BF3C2010BD4D
:103860004AF6C020C0F60500016820464AF0F4FD83
:10387000002804BF3D2010BD4AF6D020C0F6050048
:10388000016820464AF0E8FD002804BF3E2010BD34
:103890004AF6E020C0F60500016820464AF0DCFD4B
:1038A000002804BF3F2010BD4AF6F020C0F60500F6
:1038B000016820464AF0D0FD002804BF402010BD1A
:1038C0004AF60030C0F60500016820464AF0C4FD03
:1038D000002804BF412010BD4AF61030C0F6050094
:1038E000016820464AF0B8FD002804BF422010BD00
:1038F0004AF62030C0F60500016820464AF0ACFDCB
:10390000002804BF432010BD4AF63030C0F6050041
:10391000016820464AF0A0FD002804BF442010BDE5
:103920004AF64030C0F60500016820464AF094FD92
:10393000002804BF452010BD4AF65030C0F60500EF
:10394000016820464AF088FD002804BF462010BDCB
:103950004AF66030C0F60500016820464AF07CFD5A
:10396000002804BF472010BD4AF67030C0F605009D
:10397000016820464AF070FD002804BF482010BDB1
:103980004AF68030C0F60500016820464AF064FD22
:10399000002804BF492010BD4AF69030C0F605004B
:1039A000016820464AF058FD002804BF4A2010BD97
:1039B0004AF6A030C0F60500016820464AF04CFDEA
:1039C000002804BF4B2010BD4AF6B030C0F60500F9
:1039D000016820464AF040FD002804BF4C2010BD7D
:1039E0004AF6C030C0F60500016820464AF034FDB2
:1039F000002804BF4D2010BD4AF6D030C0F60500A7
:103A0000016820464AF028FD002804BF4E2010BD62
:103A10004AF6F030C0F60500016820464AF01CFD69
:103A2000002804BF4F2010BD4AF61040C0F6050024
:103A3000016820464AF010FD002804BF502010BD48
:103A40004AF60040C0F60500016820464AF004FD31
:103A5000002804BF512010BD4AF62040C0F60500E2
:103A6000016820464AF0F8FC002804BF522010BD2F
:103A70004AF63040C0F60500016820464AF0ECFCEA
:103A8000002804BF532010BD4AF64040C0F6050090
:103A9000016820464AF0E0FC002804BF542010BD15
:103AA0004AF66040C0F60500016820464AF0D4FCA2
:103AB000002804BF552010BD4AF67040C0F605002E
:103AC000016820464AF0C8FC002804BF562010BDFB
:103AD0004AF68040C0F60500016820464AF0BCFC6A
:103AE000002804BF572010BD4AF69040C0F60500DC
:103AF000016820464AF0B0FC002804BF582010BDE1
:103B00004AF6B040C0F60500016820464AF0A4FC21
:103B1000002804BF592010BD4AF6C040C0F6050079
:103B2000016820464AF098FC002804BF5A2010BDC6
:103B30004AF6D040C0F60500016820464AF08CFCE9
:103B4000002804BF5B2010BD4AF6E040C0F6050027
:103B5000016820464AF080FC002804BF5C2010BDAC
:103B60004AF6F040C0F60500016820464AF074FCB1
:103B7000002804BF5D2010BD4AF62050C0F60500A5
:103B8000016820464AF068FC002804BF5E2010BD92
:103B90004AF63050C0F60500016820464AF05CFC49
:103BA000002804BF5F2010BD4AF29060C0F60500F7
:103BB000016820464AF050FC002804BF602010BD78
:103BC0004AF2A060C0F60500016820464AF044FCB5
:103BD000002804BF612010BD4AF2B060C0F60500A5
:103BE000016820464AF038FC002804BF622010BD5E
:103BF0004AF2C060C0F60500016820464AF02CFC7D
:103C0000002804BF632010BD4AF2D060C0F6050052
:103C1000016820464AF020FC002804BF642010BD43
:103C20004AF2E060C0F60500016820464AF014FC44
:103C3000002804BF652010BD4AF6C010C0F605007C
:103C4000016820464AF008FC002804BF662010BD29
:103C50004AF6D010C0F60500016820464AF0FCFB89
:103C6000002804BF672010BD4AF6A040C0F605003A
:103C7000016820464AF0F0FB002804BF682010BD10
:103C80004AF61050C0F60500016820464AF0E4FBF1
:103C9000002804BF692010BD4AF65040C0F6050058
:103CA000016820464AF0D8FB002804BF6A2010BDF6
:103CB0004AF6E030C0F60500016820464AF0CCFB29
:103CC000002804BF6B2010BD4AF60050C0F6050066
:103CD000016820464AF0C0FB4FF0FF31002808BFC2
:103CE0006C21084610BD00BF10B58EB00DF1060165
:103CF000FEF78EFE9DF80600002800F00F854AF2C0
:103D000070640DF10600C0F6050421684AF0A4FBBA
:103D1000002800F004854AF280640DF10600C0F628
:103D2000050421684AF098FB002800F0F8844AF264
:103D3000F0640DF10600C0F6050421684AF08CFB22
:103D4000002800F0EC844AF200740DF10600C0F681
:103D5000050421684AF080FB002800F0E0844AF264
:103D600010740DF10600C0F6050421684AF074FBDA
:103D7000002800F0D4844AF220740DF10600C0F649
:103D8000050421684AF068FB002800F0C8844AF264
:103D900030740DF10600C0F6050421684AF05CFBA2
:103DA000002800F0BC844AF240740DF10600C0F611
:103DB000050421684AF050FB002800F0B0844AF264
:103DC00050740DF10600C0F6050421684AF044FB6A
:103DD000002800F0A4844AF270740DF10600C0F6C9
:103DE000050421684AF038FB002800F098844AF264
:103DF00060740DF10600C0F6050421684AF02CFB42
:103E0000002800F08C844AF280740DF10600C0F6A0
:103E1000050421684AF020FB002800F080844AF263
:103E200090740DF10600C0F6050421684AF014FBF9
:103E3000002800F074844AF2A0740DF10600C0F668
:103E4000050421684AF008FB002800F068844AF263
:103E5000B0740DF10600C0F6050421684AF0FCFAC2
:103E6000002800F05C844AF2C0740DF10600C0F630
:103E7000050421684AF0F0FA002800F050844AF264
:103E8000D0740DF10600C0F6050421684AF0E4FA8A
:103E9000002800F044844AF2E0740DF10600C0F6F8
:103EA000050421684AF0D8FA002800F038844AF264
:103EB000F0740DF10600C0F6050421684AF0CCFA52
:103EC000002800F02C844AF600040DF10600C0F62C
:103ED000050421684AF0C0FA002800F020844AF660
:103EE00010040DF10600C0F6050421684AF0B4FA8A
:103EF000002800F014844AF620040DF10600C0F6F4
:103F0000050421684AF0A8FA002800F008844AF65F
:103F100030040DF10600C0F6050421684AF09CFA51
:103F2000002800F0FC834AF640040DF10600C0F6BC
:103F3000050421684AF090FA002800F0F0834AF660
:103F400050040DF10600C0F6050421684AF084FA19
:103F5000002800F0E4834AF660040DF10600C0F684
:103F6000050421684AF078FA002800F0D8834AF660
:103F700070040DF10600C0F6050421684AF06CFAE1
:103F8000002800F0CC834AF680040DF10600C0F64C
:103F9000050421684AF060FA002800F0C0834AF660
:103FA00090040DF10600C0F6050421684AF054FAA9
:103FB000002800F0B4834AF6A0040DF10600C0F614
:103FC000050421684AF048FA002800F0A8834AF660
:103FD000B0040DF10600C0F6050421684AF03CFA71
:103FE000002800F09C834AF6C0040DF10600C0F6DC
:103FF000050421684AF030FA002800F090834AF660
:10400000D0040DF10600C0F6050421684AF024FA38
:10401000002800F084834AF6E0040DF10600C0F6A3
:10402000050421684AF018FA002800F078834AF65F
:10403000F0040DF10600C0F6050421684AF00CFA00
:10404000002800F06C834AF600140DF10600C0F65B
:10405000050421684AF000FA002800F060834AF65F
:1040600010140DF10600C0F6050421684AF0F4F9B9
:10407000002800F054834AF620140DF10600C0F623
:10408000050421684AF0E8F9002800F048834AF660
:1040900030140DF10600C0F6050421684AF0DCF981
:1040A000002800F03C834AF640140DF10600C0F6EB
:1040B000050421684AF0D0F9002800F030834AF660
:1040C00050140DF10600C0F6050421684AF0C4F949
:1040D000002800F024834AF660140DF10600C0F6B3
:1040E000050421684AF0B8F9002800F018834AF660
:1040F00070140DF10600C0F6050421684AF0ACF911
:10410000002800F00C834AF680140DF10600C0F67A
:10411000050421684AF0A0F9002800F000834AF65F
:1041200090140DF10600C0F6050421684AF094F9D8
:10413000002800F0F4824AF6A0140DF10600C0F643
:10414000050421684AF088F9002800F0E8824AF660
:10415000B0140DF10600C0F6050421684AF07CF9A0
:10416000002800F0DC824AF6E0140DF10600C0F6EB
:10417000050421684AF070F9002800F0D0824AF660
:10418000F0140DF10600C0F6050421684AF064F948
:10419000002800F0C4824AF600240DF10600C0F6A3
:1041A000050421684AF058F9002800F0B8824AF660
:1041B00010240DF10600C0F6050421684AF04CF900
:1041C000002800F0AC824AF620240DF10600C0F66B
:1041D000050421684AF040F9002800F0A0824AF660
:1041E00030240DF10600C0F6050421684AF034F9C8
:1041F000002800F094824AF640240DF10600C0F633
:10420000050421684AF028F9002800F088824AF65F
:1042100050240DF10600C0F6050421684AF01CF98F
:10422000002800F07C824AF660240DF10600C0F6FA
:10423000050421684AF010F9002800F070824AF65F
:1042400070240DF10600C0F6050421684AF004F957
:10425000002800F064824AF680240DF10600C0F6C2
:10426000050421684AF0F8F8002800F058824AF660
:1042700090240DF10600C0F6050421684AF0ECF820
:10428000002800F04C824AF6A0240DF10600C0F68A
:10429000050421684AF0E0F8002800F040824AF660
:1042A000B0240DF10600C0F6050421684AF0D4F8E8
:1042B000002800F034824AF6C0240DF10600C0F652
:1042C000050421684AF0C8F8002800F028824AF660
:1042D000D0240DF10600C0F6050421684AF0BCF8B0
:1042E000002800F01C824AF6E0240DF10600C0F61A
:1042F000050421684AF0B0F8002800F010824AF660
:10430000F0240DF10600C0F6050421684AF0A4F877
:10431000002800F004824AF600340DF10600C0F6D1
:10432000050421684AF098F8002800F0F8814AF660
:1043300010340DF10600C0F6050421684AF08CF82F
:10434000002800F0EC814AF620340DF10600C0F69A
:10435000050421684AF080F8002800F0E0814AF660
:1043600030340DF10600C0F6050421684AF074F8F7
:10437000002800F0D4814AF640340DF10600C0F662
:10438000050421684AF068F8002800F0C8814AF660
:1043900050340DF10600C0F6050421684AF05CF8BF
:1043A000002800F0BC814AF660340DF10600C0F62A
:1043B000050421684AF050F8002800F0B0814AF660
:1043C00070340DF10600C0F6050421684AF044F887
:1043D000002800F0A4814AF680340DF10600C0F6F2
:1043E000050421684AF038F8002800F098814AF660
:1043F00090340DF10600C0F6050421684AF02CF84F
:10440000002800F08C814AF6A0340DF10600C0F6B9
:10441000050421684AF020F8002800F080814AF65F
:10442000B0340DF10600C0F6050421684AF014F816
:10443000002800F074814AF6C0340DF10600C0F681
:10444000050421684AF008F8002800F068814AF65F
:10445000D0340DF10600C0F60504216849F0FCFFD8
:10446000002800F05C814AF6F0340DF10600C0F639
:104470000504216849F0F0FF002800F050814AF659
:1044800010440DF10600C0F60504216849F0E4FF70
:10449000002800F044814AF600440DF10600C0F601
:1044A0000504216849F0D8FF002800F038814AF659
:1044B00020440DF10600C0F60504216849F0CCFF48
:1044C000002800F02C814AF630440DF10600C0F6B9
:1044D0000504216849F0C0FF002800F020814AF659
:1044E00040440DF10600C0F60504216849F0B4FF10
:1044F000002800F014814AF660440DF10600C0F671
:104500000504216849F0A8FF002800F008814AF658
:1045100070440DF10600C0F60504216849F09CFFC7
:10452000002800F0FC804AF680440DF10600C0F639
:104530000504216849F090FF002800F0F0804AF659
:1045400090440DF10600C0F60504216849F084FF8F
:10455000002800F0E4804AF6B0440DF10600C0F6F1
:104560000504216849F078FF002800F0D8804AF659
:10457000C0440DF10600C0F60504216849F06CFF47
:10458000002800F0CC804AF6D0440DF10600C0F6B9
:104590000504216849F060FF002800F0C0804AF659
:1045A000E0440DF10600C0F60504216849F054FF0F
:1045B000002800F0B4804AF6F0440DF10600C0F681
:1045C0000504216849F048FF002800F0A8804AF659
:1045D00020540DF10600C0F60504216849F03CFFA7
:1045E000002800F09C804AF630540DF10600C0F619
:1045F0000504216849F030FF002800F090804AF25D
:1046000090640DF10600C0F60504216849F024FF0E
:10461000002800F084804AF2A0640DF10600C0F684
:104620000504216849F018FF002878D04AF2B064E8
:104630000DF10600C0F60504216849F00DFF0028C1
:104640006DD04AF2C0640DF10600C0F60504216881
:1046500049F002FF002862D04AF2D0640DF1060052
:10466000C0F60504216849F0F7FE002857D04AF249
:10467000E0640DF10600C0F60504216849F0ECFE87
:1046800000284CD04AF6C0140DF10600C0F605040F
:10469000216849F0E1FE002841D04AF6D0140DF11E
:1046A0000600C0F60504216849F0D6FEB8B34AF604
:1046B000A0440DF10600C0F60504216849F0CCFEC7
:1046C00068B34AF610540DF10600C0F605042168DF
:1046D00049F0C2FE18B34AF650440DF10600C0F688
:1046E0000504216849F0B8FEC8B14AF6E0340DF17E
:1046F0000600C0F60504216849F0AEFE78B14AF61E
:1047000000540DF10600C0F60504216849F0A4FE2E
:10471000002818BF002420460EB010BD00242046FB
:104720000EB010BD2DE9F0438DB00C460DF1020125
:104730000546FEF76DF92846FEF7F8F80546012C08
:1047400085F0010005DB20B1002630460DB0BDE844
:10475000F083B4FA84F1490901EA0007012F40F01F
:104760008F804AF27060C0F6050001680DF102000A
:1047700049F072FE40F210460028C2F20006E4D072
:104780004AF28060C0F6050001680DF1020049F0B0
:1047900063FE002800F069854AF2F060C0F605006B
:1047A00001680DF1020049F057FE002800F07D85F8
:1047B0004AF20070C0F6050001680DF1020049F0F0
:1047C0004BFE002800F08D854AF21070C0F60500FF
:1047D00001680DF1020049F03FFE002800F09985C4
:1047E0004AF22070C0F6050001680DF1020049F0A0
:1047F00033FE41F250380028C2F2000800F0A585CF
:104800004AF23070C0F6050001680DF1020049F06F
:1048100023FE40F2C0790028C2F2000900F0AD8505
:104820004AF24070C0F6050001680DF1020049F03F
:1048300013FE002800F0C0854AF25070C0F6050053
:1048400001680DF1020049F007FE002800F0D48550
:104850004AF27070C0F6050001680DF1020049F0DF
:10486000FBFD002800F0F4854AF26070C0F60500F8
:1048700001680DF1020049F0EFFD002800F0088604
:104880005DB14AF28070C0F6050001680DF10200CA
:1048900049F0E2FD002800F0F2841FB34AF2907064
:1048A000C0F6050001680DF1020049F0D5FD0028B1
:1048B00000F0F1844AF2A070C0F6050001680DF125
:1048C000020049F0C9FD002800F0F7844AF2B070F8
:1048D000C0F6050001680DF1020049F0BDFD002899
:1048E00000F00F855DB14AF2C070C0F605000168A6
:1048F0000DF1020049F0B0FD002800F0E884DFB3BC
:104900004AF2D070C0F6050001680DF1020049F0CE
:10491000A3FD002800F0ED844AF2E070C0F6050027
:1049200001680DF1020049F097FD002800F0F984BC
:104930004AF2F070C0F6050001680DF1020049F07E
:104940008BFD002800F00F854AF60000C0F6050038
:1049500001680DF1020049F07FFD002800F0188584
:104960004AF61000C0F6050001680DF1020049F09A
:1049700073FD002800F026855DB14AF62000C0F6E0
:10498000050001680DF1020049F066FD002800F005
:10499000D084002F00F0C8814AF63000C0F6050030
:1049A00001680DF1020049F057FD002800F0D384A2
:1049B0004AF64000C0F6050001680DF1020049F01A
:1049C0004BFD40F210480028C2F2000800F0DA84E3
:1049D0004AF65000C0F6050001680DF1020049F0EA
:1049E0003BFD40F6D0760028C2F200063FF4ADAEA3
:1049F0004AF66000C0F6050001680DF1020049F0BA
:104A00002BFD002800F009854AF67000C0F605006D
:104A100001680DF1020049F01FFD002800F0298512
:104A20004AF68000C0F6050001680DF1020049F069
:104A300013FD40F6D0390028C2F2000900F02E859F
:104A40004AF69000C0F6050001680DF1020049F039
:104A500003FD002800F042854AF6A000C0F60500DC
:104A600001680DF1020049F0F7FC002800F04C85C8
:104A70004AF6B000C0F6050001680DF1020049F0E9
:104A8000EBFC002800F062854AF6C000C0F6050085
:104A900001680DF1020049F0DFFC002800F081857B
:104AA0004AF6D000C0F6050001680DF1020049F099
:104AB000D3FC002800F093854AF6E000C0F605001C
:104AC00001680DF1020049F0C7FC002800F0B5852F
:104AD0004AF6F000C0F6050001680DF1020049F049
:104AE000BBFC002800F0CE854AF60010C0F6050099
:104AF00001680DF1020049F0AFFC002800F0D085FC
:104B00004AF61010C0F6050001680DF1020049F0E8
:104B1000A3FC002800F0CF854AF62010C0F605005F
:104B200001680DF1020049F097FC002800F0D585DE
:104B30004AF63010C0F6050001680DF1020049F098
:104B40008BFC002800F0D7854AF64010C0F605001F
:104B500001680DF1020049F07FFC002800F0D985C2
:104B60004AF65010C0F6050001680DF1020049F048
:104B700073FC002800F0D2854AF66010C0F60500EC
:104B800001680DF1020049F067FC002800F0D385B0
:104B90004AF67010C0F6050001680DF1020049F0F8
:104BA0005BFC002800F0CC854AF68010C0F60500BA
:104BB00001680DF1020049F04FFC002800F0CA85A1
:104BC0004AF69010C0F6050001680DF1020049F0A8
:104BD00043FC41F2F0160028C2F200063FF4B5ADE6
:104BE0004AF6A010C0F6050001680DF1020049F078
:104BF00033FC40F200780028C2F2000800F0B785CC
:104C00004AF6B010C0F6050001680DF1020049F047
:104C100023FC002800F0B6854AF6E010C0F6050037
:104C200001680DF1020049F017FC40F6D009002898
:104C3000C2F2000900F0B4854AF6F010C0F6050093
:104C400001680DF1020049F007FC002800F0B5856D
:104C50004AF60020C0F6050001680DF1020049F097
:104C6000FBFB002800F0B7854AF61020C0F60500CF
:104C700001680DF1020049F0EFFB002800F0B98552
:104C80004AF62020C0F6050001680DF1020049F047
:104C9000E3FB002800F0BB854AF63020C0F6050093
:104CA00001680DF1020049F0D7FB002800F0BF8534
:104CB0004AF64020C0F6050001680DF1020049F0F7
:104CC000CBFB002800F0B8854AF65020C0F605005E
:104CD00001680DF1020049F0BFFB002800F0B48527
:104CE0004AF66020C0F6050001680DF1020049F0A7
:104CF000B3FB002800F0B0854AF67020C0F605002E
:104D000001680DF1020049F0A7FB002800F0AC8516
:104D10004AF68020C0F6050001680DF1020049F056
:104D20009BFB002800F0A6851DB34AF69020C0F634
:104D3000050001680DF1020049F08EFB002800F02B
:104D40002F834AF6A020C0F6050001680DF102008D
:104D500049F082FB002800F03D834AF6B020C0F6FF
:104D6000050001680DF1020049F076FB002800F013
:104D70005E835FB14AF6C020C0F6050001680DF100
:104D8000020049F069FB002800F02E83BDB14AF60D
:104D9000D020C0F6050001680DF1020049F05CFB6F
:104DA000002800F02E834AF6E020C0F605000168D6
:104DB0000DF1020049F050FB002800F04E83002F57
:104DC0004FD04AF6F020C0F6050001680DF1020050
:104DD00049F042FB40F200760028C2F2000600F0E3
:104DE00032834AF60030C0F6050001680DF102007A
:104DF00049F032FB002800F046834AF61030C0F636
:104E0000050001680DF1020049F026FB41F2F016A1
:104E10000028C2F2000600F05C834AF62030C0F69B
:104E2000050001680DF1020049F016FB002800F0B2
:104E30005A834AF63030C0F6050001680DF10200D1
:104E400049F00AFB002800F077834AF64030C0F6AC
:104E5000050001680DF1020049F0FEFA002800F09B
:104E600098835DB14AF65030C0F6050001680DF137
:104E7000020049F0F1FA002800F01583002F5BD002
:104E80004AF66030C0F6050001680DF1020049F0F5
:104E9000E3FA002800F013834AF67030C0F60500EC
:104EA00001680DF1020049F0D7FA40F640460028AB
:104EB000C2F200063FF449AC4AF68030C0F6050065
:104EC00001680DF1020049F0C7FA002800F02C83B8
:104ED0004AF69030C0F6050001680DF1020049F075
:104EE000BBFA40F630180028C2F2000800F04083F8
:104EF0004AF6A030C0F6050001680DF1020049F045
:104F0000ABFA002800F065834AF6B030C0F6050021
:104F100001680DF1020049F09FFA002800F0858336
:104F20004AF6C030C0F6050001680DF1020049F0F4
:104F300093FA002800F09B835DB14AF6D030C0F6AA
:104F4000050001680DF1020049F086FA002800F022
:104F5000CF82DFB34AF6F030C0F6050001680DF1EC
:104F6000020049F079FA002800F0D4824AF6104095
:104F7000C0F6050001680DF1020049F06DFA002845
:104F800000F0EC824AF60040C0F6050001680DF121
:104F9000020049F061FA002800F013834AF620402D
:104FA000C0F6050001680DF1020049F055FA00282D
:104FB00000F031834AF63040C0F6050001680DF17B
:104FC000020049F049FA002800F047835DB14AF633
:104FD0004040C0F6050001680DF1020049F03CFABE
:104FE000002800F0CA821FB34AF66040C0F60500F0
:104FF00001680DF1020049F02FFA002800F0D98273
:105000004AF67040C0F6050001680DF1020049F053
:1050100023FA002800F0EB824AF68040C0F6050033
:1050200001680DF1020049F017FA002800F00B8327
:105030005DB14AF69040C0F6050001680DF102002E
:1050400049F00AFA002800F0DA82002F00F0088107
:105050004AF6B040C0F6050001680DF1020049F0C3
:10506000FBF940F690160028C2F200063FF46DAB43
:105070004AF6C040C0F6050001680DF1020049F093
:10508000EBF941F270250028C2F2000500F0F4822D
:105090004AF6D040C0F6050001680DF1020049F063
:1050A000DBF941F2F0640028C2F2000400F0F28261
:1050B0004AF6E040C0F6050001680DF1020049F033
:1050C000CBF9002800F0F2824AF6F040C0F6050065
:1050D00001680DF1020049F0BFF9002800F0F382E9
:1050E0004AF62050C0F6050001680DF1020049F0B3
:1050F000B3F9002800F0F9824AF63050C0F60500F6
:1051000001680DF1020049F0A7F9002800F0FB82C8
:105110004AF29060C0F6050001680DF1020049F006
:105120009BF940F6F0160028C2F200063FF40DABE2
:105130004AF2A060C0F6050001680DF1020049F0D6
:105140008BF9002800F0F2824AF2B060C0F6050048
:1051500001680DF1020049F07FF940F6A026002811
:10516000C2F200063FF4F1AA4AF2C060C0F60500A0
:1051700001680DF1020049F06FF9002800F0E582A6
:105180004AF2D060C0F6050001680DF1020049F056
:1051900063F940F600360028C2F200063FF4D5AAB3
:1051A0004AF2E060C0F6050001680DF1020049F026
:1051B00053F9002800F0D6824AF6C010C0F6050068
:1051C00001680DF1020049F047F9002800F0D4828F
:1051D0004AF6D010C0F6050001680DF1020049F052
:1051E0003BF9002800F0D4824AF6A040C0F6050042
:1051F00001680DF1020049F02FF9002800F0D58276
:105200004AF61050C0F6050001680DF1020049F0A1
:1052100023F9002800F0D7824AF65040C0F6050076
:1052200001680DF1020049F017F9002800F0D98259
:105230004AF6E030C0F6050001680DF1020049F0C1
:105240000BF9002800F0DD824AF60050C0F6050098
:1052500001680DF1020049F0FFF8002800F0DF823C
:10526000002630460DB0BDE8F08341F6E000C2F202
:10527000000000F1280630460DB0BDE8F08341F68D
:10528000682104EB0410C2F2000101EBC0063046B5
:105290000DB0BDE8F08340F21040C2F2000000F112
:1052A000300630460DB0BDE8F08340F6D066C2F25D
:1052B000000630460DB0BDE8F08341F25030C2F236
:1052C000000000F1580630460DB0BDE8F08341F60D
:1052D0002060C2F2000000EB441630460DB0BDE87D
:1052E000F08340F62076C2F2000630460DB0BDE8ED
:1052F000F08341F60076C2F2000630460DB0BDE8FC
:10530000F08341F29046C2F2000630460DB0BDE88F
:10531000F08340F66036C2F2000630460DB0BDE8BC
:10532000F08341F69076C2F2000630460DB0BDE83B
:10533000F08342F200204FF49C71C2F2000004FBA3
:10534000010630460DB0BDE8F08308F1180630467E
:105350000DB0BDE8F08342F68826C2F20006304662
:105360000DB0BDE8F08340F64040C2F2000000F10D
:10537000500630460DB0BDE8F0834E4630460DB0C5
:10538000BDE8F08308F1400630460DB0BDE8F0837B
:1053900040F67006C2F2000630460DB0BDE8F0835C
:1053A00043F2982104EBC400C2F2000101EBC006F5
:1053B00030460DB0BDE8F08309F1300630460DB03F
:1053C000BDE8F08342F27006C2F2000630460DB02E
:1053D000BDE8F08343F29040C2F2000000EB4416B7
:1053E00030460DB0BDE8F08343F26876C2F20006A5
:1053F00030460DB0BDE8F083103630460DB0BDE844
:10540000F08343F6280104EBC400C2F2000101EB73
:10541000C00630460DB0BDE8F08340F67000C2F221
:10542000000000F1300630460DB0BDE8F08343F2D5
:10543000705104EBC400C2F2000101EBC00630461B
:105440000DB0BDE8F083403630460DB0BDE8F083C6
:10545000203630460DB0BDE8F08343F62021C4EB82
:10546000C400C2F2000101EBC00630460DB0BDE839
:10547000F08340F66030C2F2000000F1380630469A
:105480000DB0BDE8F083503630460DB0BDE8F08376
:1054900008F1380630460DB0BDE8F0834E46304680
:1054A0000DB0BDE8F08343F6A83104EB8400C2F2EE
:1054B000000101EBC00630460DB0BDE8F08340F2BC
:1054C0000070C2F2000000F1600630460DB0BDE889
:1054D000F083303630460DB0BDE8F08318363046E4
:1054E0000DB0BDE8F083483630460DB0BDE8F0831E
:1054F00043F6C85104EB8400C2F2000101EBC00680
:1055000030460DB0BDE8F08308F1500630460DB0CE
:10551000BDE8F08340F6B040C2F2000000F138066A
:1055200030460DB0BDE8F08340F6A056C2F200064A
:1055300030460DB0BDE8F08341F29040C2F2000069
:1055400000F1200630460DB0BDE8F08340F67076DD
:10555000C2F2000630460DB0BDE8F08340F6404090
:10556000C2F2000000F1200630460DB0BDE8F08325
:10557000464630460DB0BDE8F08343F6E06104EBEB
:105580004400C2F2000101EB401630460DB0BDE808
:10559000F08340F63066C2F2000630460DB0BDE83A
:1055A000F08342F69836C2F2000630460DB0BDE8F0
:1055B000F08341F27026C2F2000630460DB0BDE81D
:1055C000F08340F68066C2F2000630460DB0BDE8BA
:1055D000F08308F1300630460DB0BDE8F08342F6A6
:1055E0005846C2F2000630460DB0BDE8F08341F2E5
:1055F0005006C2F2000630460DB0BDE8F08344F21A
:10560000082104EB0410C2F2000101EBC006304691
:105610000DB0BDE8F08341F29040C2F2000000F10D
:10562000400630460DB0BDE8F08343F6C046C2F2F6
:10563000000630460DB0BDE8F08309F1380630466B
:105640000DB0BDE8F08340F64040C2F2000000F12A
:10565000300630460DB0BDE8F08341F2F010C2F2E2
:10566000000000F1600630460DB0BDE8F083103652
:1056700030460DB0BDE8F08305F1180630460DB098
:10568000BDE8F08340F6E056C2F2000630460DB0A9
:10569000BDE8F08304F1280630460DB0BDE8F08384
:1056A00008F1600630460DB0BDE8F0833036304674
:1056B0000DB0BDE8F08342F62866C2F2000630461F
:1056C0000DB0BDE8F08340F64040C2F2000000F1AA
:1056D000400630460DB0BDE8F08340F62056C2F2D9
:1056E000000630460DB0BDE8F08305F130063046C7
:1056F0000DB0BDE8F08340F66056C2F200063046B9
:105700000DB0BDE8F08305F1480630460DB0BDE8A8
:10571000F083303630460DB0BDE8F08340F6B04639
:10572000C2F2000630460DB0BDE8F0833036304698
:105730000DB0BDE8F083483630460DB0BDE8F083CB
:10574000603630460DB0BDE8F083303630460DB0DF
:10575000BDE8F08341F2F066C2F2000630460DB0BB
:10576000BDE8F083303630460DB0BDE8F0834646E4
:1057700030460DB0BDE8F08305F1600630460DB04F
:10578000BDE8F08308F1100630460DB0BDE8F083A7
:1057900041F25036C2F2000630460DB0BDE8F0834B
:1057A0004E4630460DB0BDE8F08344F28016C2F29A
:1057B000000630460DB0BDE8F08309F130063046F2
:1057C0000DB0BDE8F08344F2C056C2F20006304688
:1057D0000DB0BDE8F08308F1200630460DB0BDE8FD
:1057E000F08341F2B006C2F2000630460DB0BDE8CB
:1057F000F08341F21016C2F2000630460DB0BDE84B
:10580000F08304F1500630460DB0BDE8F08342F657
:10581000B066C2F2000630460DB0BDE8F08341F636
:10582000E006C2F2000630460DB0BDE8F08318363F
:1058300030460DB0BDE8F08342F6F876C2F20006BD
:1058400030460DB0BDE8F08343F29816C2F2000670
:1058500030460DB0BDE8F08343F21826C2F20006D0
:1058600030460DB0BDE8F08308F1300630460DB08B
:10587000BDE8F08341F28016C2F2000630460DB05A
:10588000BDE8F0832DE9F0412DED028B40F280461A
:105890004FF07E50C2F200067061FDF73FF84AF605
:1058A000F03806F10804C0F6050821464046FBF72B
:1058B000CDFD0127B7EE008A002530604FF47A70E5
:1058C0003AF0FEF996ED050A01EE107AB8EE411AAB
:1058D00030EE080A86ED081A86ED050A09F056FC36
:1058E000C6E90205404622463168FBF75DFE0137F6
:1058F000E4E700BF2DE9F04182B0052009F07EFC0D
:105900004AF6F038C0F605084046FBF76DFF41F651
:105910003027054600240DF10706C2F2000704E017
:10592000404629463A46FCF741F84FF47A703AF07F
:10593000C7F9284631468DF80740FCF749F99DF82C
:1059400007000028ECD1F0E770B582B045F6F5010C
:105950000A25192611A000224FF48063C0F6000129
:10596000CDE900653AF044F818B139F00DFF002494
:1059700000E0012445F685010BA000224FF480636E
:10598000CDE90065C0F600013AF032F800280CBFFE
:10599000012439F0F9FE204602B070BD754F524225
:1059A0005F53554200000000754F52425F50554210
:1059B0000000000080B536F0B9FE3AF031FE33F059
:1059C00077FE46F6B030C2F200000168C2681144AA
:1059D0000160BDE8804036F0C1BE00BF10B504468E
:1059E0003DF09CF844F6D351C1F26201A0FB0101E5
:1059F00088093AF035FF4FF0FF30214600223AF097
:105A0000CDFE002010BD00BF81B00090009801B015
:105A10003AF050B9704700BF704700BF80B503200F
:105A20003AF0ACFE6FF00B00002100223AF0B6FE17
:105A30006FF00A00002100223AF0B0FE6FF009007A
:105A4000002100223AF0AAFE6FF00400002100229B
:105A50003AF0A4FE6FF00300002100223AF09EFE0F
:105A60006FF001000F2100223AF098FE4FF0FF3056
:105A70000F210022BDE880403AF090BEB0B592B050
:105A800043F64000002402250694C4F20200016897
:105A900041F080510160006800F080500690069847
:105AA000069447F20000C4F20000016841F440414E
:105AB0000160006800F44040069006984FF4803082
:105AC0000790012006904FF480000C950D900C205B
:105AD0000E904FF4A8700F90042010900E2011909B
