:020000040800F2
:1000000040B801202D070408595B00081B9803081D
:100010005D5B0008615B0008655B00080000000094
:10002000000000000000000000000000695B000804
:10003000410704080000000067970308D55900082D
:100040004707040847070408470704084707040848
:100050004707040847070408695C00087D5C00083E
:10006000915C0008A55C0008B95C0008470704081B
:100070004707040847070408470704084707040818
:100080004707040847070408470704084707040808
:10009000470704084707040847070408CD5C000821
:1000A00047070408470704084707040847070408E8
:1000B00047070408470704084707040847070408D8
:1000C00047070408470704084707040847070408C8
:1000D000470704082D6300086D630008AD6300083E
:1000E000FD5C0008470704084707040847070408A1
:1000F0004707040847070408470704084707040898
:100100004707040847070408470704084707040887
:100110004707040847070408470704084707040877
:100120004707040847070408470704084707040867
:100130004707040847070408470704084707040857
:10014000470704084707040847070408D96D000853
:100150004707040847070408470704084707040837
:100160004707040847070408470704084707040827
:100170004707040847070408470704080000000071
:100180004707040847070408470704084707040807
:1001900047070408470704084707040847070408F7
:1001A00000000000000000004707040800F002F80B
:1001B00000F0BBF80AA090E8000C82448344AAF146
:1001C0000107DA4501D100F0B0F8AFF2090EBAE844
:1001D0000F0013F0010F18BFFB1A43F0010318477B
:1001E00070430600904306000A444FF0000C10F8DC
:1001F000013B13F0070408BF10F8014B1D1108BFA5
:1002000010F8015B641E05D010F8016B641E01F844
:10021000016BF9D113F0080F1EBF10F8014BAD1C94
:100220000C1B09D16D1E58BF01F801CBFAD505E0B2
:1002300014F8016B01F8016B6D1EF9D59142D6D30C
:10024000704700000023002400250026103A28BF34
:1002500078C1FBD8520728BF30C148BF0B60704738
:100260006E290EF0EBA470290EF035A6662918F061
:100270007FA3652918F07CA3672918F079A3612969
:1002800018F078A303681B0A28BF41F08001692990
:100290000EF034A064290EF031A075290EF02EA0C6
:1002A0006F290EF0C3A578290EF001A6E9290EF0FA
:1002B0005DA5E4290EF05AA5F5290EF057A5EF2902
:1002C0000EF0C0A5F8290EF000A60368DB0928BFD0
:1002D00041F0800163290FF087A273290FF08CA2EF
:1002E000E3290FF097A2F3290FF09CA2002070479A
:1002F0001FB558F004FB9DE803004EF049FB4FF09A
:1003000071FB04000020002157F086FB401C606058
:100310000020002157F096FBE0604EF007FB1FBD68
:1003200010B500204FF0F5FA10BD4FF035FB114627
:10033000FFF7DEFF39F012FB4FF018FC03B4FFF7B4
:10034000EFFF03BC4EF044FE2DE9F04FA9B00320AF
:1003500000210AF0FDFD5CA039F09AFB47F2002174
:100360000028C2F200018B46086000F0A78003213C
:1003700039F0D0FC42F210703FF096FD4AF6E06092
:10038000C0F6050001F040FA05464AF62070C0F6B6
:10039000050001F039FA04464AF60070C0F605007F
:1003A00001F032FA0DF10F07CDE901450CE000BF75
:1003B00003200AF013FEB0FA80F0410903200AF08E
:1003C000E9FD64203FF070FD0EF0BEFF00203946CD
:1003D0008DF80F00284601F00BFC9DF80F00002857
:1003E00053D04AF6E06016AE2946C0F60500324604
:1003F00001F0ECFADBF8000000213246482339F026
:1004000099FD1DA8054695ED000A95ED011A20EE0F
:10041000000A01EE010A10EE100A58F06FF90646C4
:100420001C98884658F06AF948EC106B81468A4659
:1004300056F036FDB0EE401AF0EE601A4AEC109B12
:1004400055F0E2FC15ED010A95ED011A20EE000AC7
:1004500001EE010A10EE100A58F050F981461D987D
:100460000C4658F04BF944EC109B019C3E46054667
:100470000F4656F015FDB0EE401AF0EE601A47EC4C
:10048000105B029D374655F0BFFC2046394601F00F
:10049000AFFB9DF80F0000288AD04AF6207004AE0A
:1004A0002146C0F60500324601F090FADBF8000064
:1004B00000213246482339F03DFD79E74FF0FF3007
:1004C00029B0BDE8F08F00BF76636F6D00000000BB
:1004D0000020704700207047F0B591B041F2C0474E
:1004E00045F230760546D1E90001C2F20007C2F2BA
:1004F00000063C467963314644F8300F01A80EF0FF
:1005000029FE01AB07F1440C0FCB8CE80F000EA8BD
:1005100005A99DED010A9DED021A9DED032A9DEDB1
:10052000043A21EE014A20EE005A20EE036A60EE02
:10053000021A61EE030A21EE027A20EE010A22EE8F
:10054000031A22EE022A75EE042A35EE444A37EEEB
:10055000465A37EE066A31EE407A30EE010A71EE05
:10056000A03A70EEE10A23EE031A32EEC23A74EEBC
:10057000021A34EE422A35EE054A33EEA35A36EE1D
:10058000066A37EE077A70EEA00A30EE000A33EE04
:10059000413A71EEC11A32EE011A8DED064A8DED27
:1005A000075A8DED086A8DED0A7ACDED0B0A8DEDB7
:1005B0000C0A8DED053ACDED091A8DED0D1A52F0AC
:1005C0003BF99DED010A9DED021A9DED032A9DED7B
:1005D000043A0EA805A921EE014A20EE005A20EEA9
:1005E000036A60EE021A61EE030A21EE027A20EE3F
:1005F000010A22EE031A22EE022A75EE042A35EED3
:10060000444A37EE465A37EE066A31EE407A30EE0B
:10061000010A71EEA03A70EEE10A23EE031A32EEFF
:10062000C23A74EE021A34EE422A35EE054A33EE2F
:10063000A35A36EE066A37EE077A70EEA00A30EE5D
:10064000000A33EE413A71EEC11A32EE011A8DED15
:10065000064A8DED075A8DED086A8DED0A7ACDEDCB
:100660000B0A8DED0C0A8DED053ACDED091A8DEDD5
:100670000D1A52F0E1F89DED010A9DED021A9DED73
:10068000032A9DED043A0EA805A921EE014A20EEA9
:10069000005A20EE036A60EE021A61EE030A21EEB0
:1006A000027A20EE010A22EE031A22EE022A75EEE9
:1006B000042A35EE444A37EE465A37EE066A31EEE2
:1006C000407A30EE010A71EEA03A70EEE10A23EEB4
:1006D000031A32EEC23A74EE021A34EE422A35EEB2
:1006E000054A33EEA35A36EE066A37EE077A70EE05
:1006F000A00A30EE000A33EE413A71EEC11A32EE32
:10070000011A8DED064A8DED075A8DED086A8DEDC3
:100710000A7ACDED0B0A8DED0C0A8DED053ACDED83
:10072000091A8DED0D1A52F087F805A9304616F01A
:100730006DFF95ED020A9DED051A9DED062A9DEDD2
:10074000073A4BF220002246C0F6050030EE410A7F
:1007500087ED0E0A95ED030A30EE420A87ED0F0A87
:1007600095ED040A30EE430A87ED100A396800F06F
:100770002BFF012011B0F0BD2DE9F04F81B02DED20
:100780000E8B96B04AF60070C0F6050001F03CF8FA
:1007900041F2C046C2F2000670604AF63070C0F600
:1007A000050001F031F8B0604AF6F060C0F60500CF
:1007B00001F02AF8F0604BF2200006F13001C0F69B
:1007C000050000F053FE306008A841F6D00A45F25B
:1007D000307B40F2E0299FEDBC8A9FEDBC9A9FEDF3
:1007E000BCAA0DF15705B7EE00BA2030C2F2000ADC
:1007F000C2F2000BC2F20009029006F11000019053
:1008000003E000BF01203FF04FFB002029468DF898
:100810005700706801F0ECF99DF857000028F1D0FE
:100820004AF6007071685246C0F6050001F0CEF835
:100830000EF08AFD0246CDE912210298CDE903129D
:100840009AED053A9AED074A9AED085A9AED096A27
:100850009AED0A7A9AED020A9AED031A9AED042AA1
:10086000C0E90021584608A923EE083A24EE094AB7
:1008700027EE087A25EE095A26EE096A23EE011AB8
:1008800023EE000A23EE022A27EE044A27EE055A39
:1008900027EE066A8DED0E3A8DED0F7A8DED091A71
:1008A0008DED080A8DED0A2A8DED0B4A8DED0C5A5F
:1008B0008DED0D6A10F098F8504612A9FFF70CFE66
:1008C000B068294601F094F99DF8570000287AD0C5
:1008D00041F290644AF63070B168C2F20004C0F68A
:1008E0000500224601F072F8A16A99F8000019B1DA
:1008F000C72805D8013001E010B1013889F800009F
:1009000041F2906199F8010099ED0E0A99ED0F1AE4
:1009100099ED102A4FF47A720023C2F2000191ED92
:10092000043A91ED054A91ED065A441CD1E90001C3
:1009300089F8014033EE00CA34EE01EA35EE02DAFE
:1009400089ED0ECA89ED0FEA89ED10DA4DF02EFC23
:10095000D9F82820E4B200238018D9F82C20C9F84F
:10096000280051412246C9F82C104DF01FFC0746C3
:10097000D9F80400381A062825DB00EE104A05A82D
:10098000B8EE400A00904FF47A708BEE000A87FBB5
:100990000023584620EE0E1A20EE0C2A20EE0D0AF7
:1009A0008DED061A8DED052A8DED070A10F010FB6E
:1009B0000020C9E90A00C9F8047089F80100C9E9F2
:1009C0000E00C9F84000F068294601F011F99DF8C1
:1009D000570000284BD04AF6F060F168019AC0F643
:1009E000050000F0F3FF99F8020099ED020A96ED78
:1009F000091A4FF47A720023441CD6E9040131EE3F
:100A000000CA89F8024089ED02CA4DF0CFFBD9F83F
:100A100030205FFA84F800238018D9F83420C9F810
:100A2000300051414246C9F834104DF0BFFB074633
:100A3000D9F80C00381A062819D396ED080A01EEE9
:100A4000108A4FF47A715846B8EE411AA7FB012379
:100A500020EE0A0A80EDBC0A8CEE010A10F0B8FD07
:100A60000020C9E90C0089F80200C9E902075846CC
:100A70000CF03AFDD9E9067457EA040018D0D9E918
:100A800004019AED05CA57F0C4FE00EE100A3CEED0
:100A9000000A10EE100A57F03DFF049A039BC9E9C3
:100AA0000401D21BA341101A63EB010106E000BF51
:100AB000DDE90310C9E90601002000210DF1570509
:100AC000C9E908019EE600BFBD3786350AE81C412A
:100AD0005157473780B584B044F22C73012004216C
:100AE0004FF48052C2F20003CDE90032CDE902108A
:100AF00047F6CC204DF2E03140F279720023C2F289
:100B00000000C0F60501C0F600023EF07FFE00289E
:100B10001CBF04B080BD47F6CC20C2F2000004B078
:100B2000BDE880403EF024BF80B584B0022820DBC1
:100B3000486816A14DF0B8FED8B944F22C730120D4
:100B400004214FF48052C2F20003CDE90032CDE916
:100B5000021047F6CC204DF2E03140F279720023CA
:100B6000C2F20000C0F60501C0F600023EF04EFEE3
:100B700010B1002004B080BD47F6CC20C2F20000C6
:100B80003EF0F6FE002004B080BD00BF73746172B9
:100B90007400000070B547F2D01045F230740025A3
:100BA000C2F20000C2F20004C0E9005520464FF036
:100BB000F9FE4AF2AC504DF20A7184F8CC55C4F8F3
:100BC000C8554FF07E5604F5BF62C0F60500C3F667
:100BD00023410830206041F26F20C4F8D055C4F89A
:100BE000D455C4F8D855C4F8DC55C4F8E055C4F859
:100BF000E455C4F8E865C4F8EC55C4F8F055C4F8F9
:100C0000F455C3F6034043C204F204606321C4F800
:100C100068564DF0F4FD04F5D9602121C4F86C66E6
:100C2000C4F87056C4F87456C4F8786684F87C56D4
:100C300084F89456C4F88056C4F88456C4F888568C
:100C4000C4F88C56C4F89056C4F89856C4F89C560C
:100C5000C4F8A056C4F8A466C4F8A856C4F8AC56A4
:100C6000C4F8B056C4F8B466C4F8B856C4F8BC5654
:100C7000C4F8C056C4F8C4664DF0C1FD04F5DE608A
:100C80004C214DF0BCFD04F5E86024214DF0B7FD8A
:100C900004F2C47040F6CD11C4F86467C4F8685714
:100CA000C4F86C57C4F87057C4F87467C4F8785720
:100CB000C4F87C57C4F88057C4F8A057C4F8A457A8
:100CC00084F8A857A4F89857C4F88467C4F88857DC
:100CD000C4F88C57C4F89057C4F8945784F8BA579E
:100CE000A4F8B857C4F8B057C4F8B45784F8C2573A
:100CF000A4F8C057C4F8BC574DF081FD41F29410E0
:100D00003C2120444DF07BFD41F2D010482126507B
:100D100041F2D41020444DF072FD41F22C2049F2F2
:100D20008061255041F22820C0F29801255041F2FF
:100D3000242025504FF49150255041F23020265068
:100D400041F23420215041F238202D21255441F226
:100D50005820255041F25420255041F25020255072
:100D600041F24C20255041F24820255041F24420C8
:100D700025504FF49250255004F593504DF03FFD0F
:100D800041F29020312120444DF039FD41F2C42040
:100D9000255441F2C220215A01F47C41215241F2F2
:100DA000C820242120444DF02AFD44F2000141F2E4
:100DB0003430255041F2EC20C4F21C61215041F244
:100DC00038301F21255041F23C3025504FF49850C7
:100DD000255441F2FC20255041F2F820255041F2E3
:100DE000F420255041F2F020255041F210302554D6
:100DF00041F20C30255041F20830255041F20430C8
:100E0000255041F2143020444DF0F9FC41F23D00F0
:100E100040F200022146C0F60500C0F60002BDE81F
:100E200070404DF078BB00002DE9F04F81B02DED02
:100E3000088B88B00EF088FA80460D4607F08EF8D1
:100E400020B106A804A907F09DF8B0B309F022FA72
:100E5000002800F0EA80684609F032FA002840F0E5
:100E6000E4800EF071FA41F2D062062741F62013B9
:100E7000C2F20002C2F2000342F8300F97625160E2
:100E8000DDE90017DDE90264C2E90476946151628C
:100E9000C3E90B0740F23030C3E90D64C2F2000031
:100EA00081684AF63070C0F6050000F08DFB09F04D
:100EB0003DFD002840F0BD80FFE00EF045FA40F215
:100EC000B07B0122BDF91A30BDF91C6041F6201437
:100ED00040F6B00A40F2303902279FED833AB0EE77
:100EE000084A9FED825A9FED828A9FED829AC2F254
:100EF000000BC2F20004C2F2000AC2F20009CBF8F1
:100F00003C20BDF9182000EE103A02EE106ACBE941
:100F10000001CAF83C70A061CAE90001D9E90601E4
:100F200001EE102AABF84020ABF84230ABF8446039
:100F3000B8EEC22AB8EB0000B8EEC11AB8EEC00A8B
:100F4000BDF9122022EE032ABDF9106065EB010104
:100F500021EE031A20EE030A22EE042AAAF8422008
:100F600003EE102ABDF9142021EE041A20EE040A23
:100F700022EE052AAAF8406021EE051A20EE050AA5
:100F800004EE102A84ED071A84ED080A84ED092A7C
:100F9000AAF84420B8EEC44AB8EEC33A8BED061A5C
:100FA0008BED070A8BED082A24EE084A23EE083A57
:100FB00084EE09AA83EE09BA57F02BFC01EE106A01
:100FC0009FED4D0A5A46B8EEC11AC9E90685A062DE
:100FD00021EE081A8AEE002AD9F8001081EE091ACB
:100FE00081EE001A8BEE000A84ED021A84ED030AEA
:100FF00084ED042A60614AF6E0608AED061A8AED03
:10100000070A8AED082AC0F6050000F0DDFA4AF664
:101010002070D9F804105246C0F6050000F0D4FA4A
:1010200009F038F900287FF416AF09F07FFC00289A
:1010300043D040F23036C2F2000606F1380006F125
:10104000300109F087FCC0BB0EF07EF99FED2B0A42
:1010500096ED0C1A9FED2A2ADFED2B0A07460C4667
:1010600021EE000A9FED271A20EE020A80EE010A07
:1010700055F0B8FA9FED251A9FED252A9FED253AE8
:1010800046F8207F072141F620107460F161C2F21A
:101090000000324600EE012AC76382EE030A86EDA5
:1010A000050A80ED100AB16941644AF6F06056F80D
:1010B000141CC0F6050000F087FA40F2303041F60B
:1010C0002012C2F20000C2F2000201694AF600706A
:1010D000C2E90085C0F6050000F076FA08B0BDEC64
:1010E000088B01B0BDE8F08F000000380AE81C4111
:1010F000CDCC744100007A44CDCC64420000C8429B
:101100006F12833A67A6CA4285DC423E331390438E
:10111000331390C3F4FDD4BBB0B584B0002041F6C6
:10112000201103904AF60070C2F20001C0F60500DB
:1011300000F09CF940F23034C2F2000420614AF61B
:10114000F06004F12001C0F6050000F08FF940F2D4
:10115000B071E0604AF6E060C0F60500C2F200013E
:1011600000F084F940F6B00120604AF62070C0F625
:101170000500C2F2000100F079F941F2D06560602B
:101180004AF63070C2F20005C0F6050005F13001E4
:1011900000F06CF9A060403414A10022204639F020
:1011A000C1FE41F20D22062001210023CDE90010ED
:1011B00012A1C0F6000228463EF0AEFF28463FF0DE
:1011C000B9F803AD02E000BFFFF72EFE2046012173
:1011D00006224FF0FF3300953AF082F80028F5D14F
:1011E0009DF80C00C007F1D0EEE700BF73656E7389
:1011F0006F727570646174610000000073656E73D6
:101200006F725F636F6C6C656374000040F2303026
:101210000121C2F20000403039F0E0BF80B584B057
:1012200047F6CC33012003214FF40062C2F20003E1
:10123000CDE90032CDE9021047F64C304FF6982147
:1012400041F219120023C2F20000C0F60501C0F6F7
:1012500000023EF0DBFA00281CBF04B080BD47F658
:101260004C30C2F2000004B0BDE880403EF080BBCC
:1012700080B584B0022820DB486816A14DF014FB2D
:10128000D8B947F6CC33012003214FF40062C2F2F3
:101290000003CDE90032CDE9021047F64C304FF69D
:1012A000982141F219120023C2F20000C0F6050194
:1012B000C0F600023EF0AAFA10B1002004B080BDD2
:1012C00047F64C30C2F200003EF052FB002004B062
:1012D00080BD00BF7374617274000000002070470D
:1012E00080B5022804DB486803A14DF0DDFA08B19F
:1012F000002080BD00F004F8737461727400000077
:1013000080B500BF4FF4FA703EF0CEFDFAE7000062
:1013100010B54AF6F80E4FF0000C002BC0F6050E83
:101320000EF108040EF11C0EC0E90041C0E9022CC8
:10133000C0E904CEC0F818C01EBF5968816158606A
:1013400010BD00BF10B504460A46216921B160688E
:10135000BDE8104000F038B9A068002801DD206128
:1013600010BD6068114600F081F8002818BF2061A8
:1013700010BD00BF4AF6E8034FF0000CC0F60503AD
:101380000833C0E90031C0E9022CC0F810C0704732
:1013900010B504464AF6E800C0F6050008302060A3
:1013A000206900F0E7F8204610BD52F0F5FE00BFBE
:1013B00010B504464AF6E800C0F605000830206083
:1013C000206900F0D7F82046BDE8104052F095BEE5
:1013D00052F0E2FE40F29030C2F2000000780028A5
:1013E0000CBF4FF0FF3038F0A7B97047411C08BF61
:1013F000704740F29031C2F20001097809B138F02B
:101400009FB9704710B50446DCB140F29030C2F28B
:1014100000000078002808BF10BD206A4FF0FF319F
:1014200039F0BAF8022809D84FF6F871C0F2FF0176
:1014300001EAC000012121FA00F000E0002084F858
:10144000240010BD10B50446002C08BF10BD40F2AA
:101450009030C2F20000007838B1206A39F07AF991
:10146000002804BF002084F8240010BD2DE9F047B7
:1014700006468A46306801F025FF0446601C51D0BC
:1014800047F26C3940F29038C2F20009C2F200080B
:1014900059F8245098F80000002D18BF002845D1B5
:1014A0000021002829775DD038F046F959F82450FA
:1014B00007462868766830B9304652F027FE286023
:1014C00059F824000068514632464DF0EFF8781C78
:1014D00005D098F8000010B1384638F031F959F8C5
:1014E0002450AC600DF030FF59F82420012313770D
:1014F000C2E90A013EF084F959F824402821FF226C
:10150000606B4DF052F954B198F8000038B1206A80
:1015100039F020F9002804BF002084F82400284670
:10152000BDE8F08700252846BDE8F087286A4FF01F
:10153000FF3139F031F8022809D84FF6F871C0F2BE
:10154000FF0101EAC000012121FA00F000E00020C3
:1015500085F8240059F8245098F80000002100284C
:101560002977A1D14FF0FF37286876680028AAD1E3
:10157000A2E700BF00207047F0B581B00D460746D6
:101580001C461646286828B13846324601B0BDE8E8
:10159000F04019E0386801F095FE01F0D7F908B184
:1015A000286808E038463146FFF760FF002C2860C5
:1015B0001CBF002121600021002808BF4FF0FF312F
:1015C000084601B0F0BD00BF2DE9F047064692463F
:1015D000306801F077FE0446601C04BF4FF0FF3016
:1015E000BDE8F08747F26C3940F29038C2F200094A
:1015F000C2F2000859F8245098F80000002D18BFD6
:10160000002809D100210028297721D038F094F84A
:1016100059F8245007461DE0286A4FF0FF3138F092
:10162000BBFF022809D84FF6F871C0F2FF0101EAAA
:10163000C000012121FA00F000E0002085F824001C
:1016400059F8245098F80000002100282977DDD1AE
:101650004FF0FF377268286851464DF027F8781C24
:1016600005D098F8000010B1384638F069F859F8FC
:10167000240084600DF068FE59F8242001231377BC
:10168000C2E90A012821506BFF224DF08EF847F283
:1016900048712001C2F200010A68B2EB041F1CD09D
:1016A0000A69824219D00A6A824216D00A6B8242C3
:1016B00013D00A6C824210D00A6D82420DD00A6E9D
:1016C00082420AD00A6F824207D0D1F8802082423B
:1016D00003D0D1F89010814202D1012100F016F818
:1016E00059F824400020002C08BFBDE8F08798F886
:1016F000001041B1206A39F02DF801460020002980
:1017000008BF84F82400BDE8F08700BF2DE9F04150
:1017100040F2903806460C46C2F2000898F80000E5
:1017200018B138F009F8054601E04FF0FF3547F2EF
:101730004877C2F200073868B04204D1B86810B1E7
:1017400039F008F8FC803869B04204D1B86910B1AA
:1017500039F000F8FC82386AB04204D1B86A10B19E
:1017600038F0F8FFFC84386BB04204D1B86B10B18C
:1017700038F0F0FFFC86386CB04205D1B86C18B177
:1017800038F0E8FFA7F84640386DB04205D1B86D93
:1017900018B138F0DFFFA7F85640386EB04205D1D7
:1017A000B86E18B138F0D6FFA7F86640386FB0426F
:1017B00005D1B86F18B138F0CDFFA7F87640D7F84B
:1017C0008000B04206D1D7F8880018B138F0C2FFC7
:1017D000A7F88640D7F89000B04206D1D7F8980015
:1017E00018B138F0B7FFA7F89640681C08BFBDE8ED
:1017F000F08198F8000020B12846BDE8F04137F0AC
:101800009FBFBDE8F08100BF70B5002865D00068BB
:10181000002862D001F056FD04466C2C5DD83DF0E6
:10182000EFFF40F290360546C2F2000630780028FD
:101830000CBF4FF0FF3037F07FFF47F26C31C2F240
:10184000000151F82410096B0A68AA424BD00132FA
:1018500047D00A4652F8043FAB4244D0013341D04E
:101860000A4652F8083FAB423DD001333AD00A460F
:1018700052F80C3FAB4236D0013333D00A4652F80F
:10188000103FAB422FD001332CD00A4652F8143F00
:10189000AB4228D0013325D00A4652F8183FAB425C
:1018A00021D001331ED00A4652F81C3FAB421AD059
:1018B000013317D00A4652F8203FAB4213D0013310
:1018C00010D051F8242FAA420DD001320A4609D077
:1018D0004FF0FF34411C09D10CE04FF0FF3420469B
:1018E00070BD0A4615602401411C03D0317809B14E
:1018F00037F026FF204670BD70B500281CDB0609B6
:101900006C2E19D83DF07CFF40F290350446C2F2AF
:101910000005287800280CBF4FF0FF3037F00CFF8F
:1019200047F26C31C2F2000151F82610096B0A68C7
:10193000A24205D10A4630E04FF0FF31084670BDA3
:101940000A4652F8043FA34227D00A4652F8083FFD
:10195000A34222D00A4652F80C3FA3421DD00A46A9
:1019600052F8103FA34218D00A4652F8143FA3423F
:1019700013D00A4652F8183FA3420ED00A4652F836
:101980001C3FA34209D00A4652F8203FA34204D08C
:1019900051F8242FA2420A460DD14FF0FF311160B9
:1019A000411C4FF000010FD02A786AB137F0C8FE11
:1019B0000021084670BD411C4FF0000104D02A7878
:1019C00012B137F0BDFE0021084670BD2DE9F04F81
:1019D00081B0064690460D46306801F073FC04461F
:1019E0004FF0FF3B601C00F0FF802811844240F064
:1019F000FB8047F26C3A40F29039C2F2000AC2F220
:101A000000095AF82450C5B199F80000A8B1286A15
:101A10004FF0FF3138F0C0FD022809D84FF6F871B9
:101A2000C0F2FF0101EAC000012121FA00F000E04C
:101A3000002085F824005AF824502868D8B33DF0D7
:101A4000DFFE5AF824104A6B1368013349D013465D
:101A500053F8047F01371EBF134653F8087F17F170
:101A600001073FD0134653F80C7F01371EBF1346C2
:101A700053F8107F17F1010734D0134653F8147F41
:101A800001371EBF134653F8187F17F1010729D0FD
:101A9000134653F81C7F01371EBF134653F8207FAF
:101AA00017F101071ED052F8243F0133134619D015
:101AB0004FF0FF3B33E04FF0FF3B002D00F09480F0
:101AC00099F80000002800F08F80286A38F042FE64
:101AD000002804BF002085F82400584601B0BDE866
:101AE000F08F1346186099F8000028B137F024FEF3
:101AF0005AF82410054601E04FF0FF357268096876
:101B000040464CF0D3FD681C4FF0000B07D099F80D
:101B1000000020B1284637F013FE4FF0000B5AF8B2
:101B20002450D5E90C2092E84A0002F10C0E9EE800
:101B30001054D2F81C804F1C591C18BF0121002FD3
:101B400018BF0131731C18BF0131631C18BF01316C
:101B50001AF1010318BF01311CF1010318BF013153
:101B60001EF1010300F10C0E18BF013118F1010341
:101B700018BF0131D2E90832013318BF01310132F7
:101B800018BF013190E88C009EE84054D0F81C80CA
:101B9000541C5A1C18BF0122002C18BF01327B1C98
:101BA00018BF0132731C18BF01321AF1010318BFAC
:101BB00001321CF1010318BF01321EF1010318BFED
:101BC000013218F1010318BF0132D0E908300133A6
:101BD00018BF0132013018BF01328A42A4BF002071
:101BE0002877002D7FF46CAF584601B0BDE8F08F28
:101BF0002DE9F0410C46B0F1FF3F02DDB0F5DA6FA0
:101C000005D3002020704FF0FF30BDE8F08147F28F
:101C10006C37060940F29038C2F20007C2F20008A1
:101C200057F82650B5B198F8000098B1286A4FF0DF
:101C3000FF3138F0B1FC022809D84FF6F871C0F234
:101C4000FF0101EAC000012121FA00F000E00020BC
:101C500085F824003DF0D4FD57F82660716B0A68C2
:101C6000824232D04A6882422FD08A6882422CD087
:101C7000CA68824229D00A69824226D04A698242D1
:101C800023D08A69824220D0CA6982421DD00A6A62
:101C900082421AD0496A814217D0307FA8B1012010
:101CA000207098F80000002804BF0020BDE8F081F3
:101CB000306A38F04FFD01460020002904BF86F845
:101CC0002400BDE8F081BDE8F0810020002E2070E6
:101CD0004FF0FF3008BFBDE8F08198F8001069B1FF
:101CE000306A38F037FD00281CBF4FF0FF30BDE8E8
:101CF000F081002086F824004FF0FF30BDE8F0812D
:101D000002464FF0FF3013116C2B13D802F00F0274
:101D1000062A88BF704747F26C30C2EBC202C2F29B
:101D2000000050F8230000EBC200D0E90A02C1E92C
:101D300000020020704700BFB0B500680C4601F0FB
:101D4000C1FA05466C2D05D8284600F0FFFD012C90
:101D500003DB10B94FF0FF30B0BD47F26C30C4EB7D
:101D6000C401C2F2000050F8250050F83120002ACA
:101D70001FBF00EBC100806810F10100002018BFF8
:101D8000B0BD4FF0FF30B0BD70B50546286801F01A
:101D900099FA04466C2C0FD8204600F0D7FD47F284
:101DA0006C30C2F2000050F82400016821B1806854
:101DB000441C18BF012400E00024286801F082FAC6
:101DC00006466C2E0FD8304600F0C0FD58B147F2E1
:101DD0006C30C2F2000050F82600816B19B1006C23
:101DE000013018BF0134286801F06CFA06466C2EE9
:101DF0000FD8304600F0AAFD58B147F26C30C2F25D
:101E0000000050F82600016F19B1806F013018BF33
:101E10000134286801F056FA06466C2E11D8304677
:101E200000F094FD68B147F26C30C2F2000050F847
:101E30002600D0F8A81021B1D0F8B000013018BFAA
:101E40000134286801F03EFA06466C2E11D830465F
:101E500000F07CFD68B147F26C30C2F2000050F82F
:101E60002600D0F8E01021B1D0F8E800013018BF0A
:101E70000134286801F026FA06466C2E11D8304647
:101E800000F064FD68B147F26C30C2F2000050F817
:101E90002600D0F8181121B1D0F82001013018BF68
:101EA0000134286801F00EFA05466C2D11D8284639
:101EB00000F04CFD68B147F26C30C2F2000050F8FF
:101EC0002500D0F8501121B1D0F85801013018BFC9
:101ED0000134204670BD00BF02464FF0FF301311A1
:101EE0006C2B11D802F00F02062A88BF704747F208
:101EF0006C30C2EBC202C2F2000050F8230000EBCB
:101F0000C200406808600020704700BF02464FF0E2
:101F1000FF3013116C2B11D802F00F02062A88BF74
:101F2000704747F26C30C2EBC202C2F2000050F8B8
:101F3000230000EBC2020020C2E90410704700BF7A
:101F400002464FF0FF3013116C2B11D802F00F0234
:101F5000062A88BF704747F26C30C2EBC202C2F259
:101F6000000050F8230000EBC20000690860002068
:101F7000704700BF70B582B040F290354DF2E53148
:101F800038204FF0805241F68C13C2F200050090C9
:101F9000C0F60501281D3CF085FB04464CB14DF20E
:101FA000EA302146C0F605003BF02CFA204602B08C
:101FB00070BD41F240704DF2024141F68C1228266C
:101FC00041F2BC23C2F20000C0F60501C1F20002DA
:101FD00000963CF067FB4DF2FE3142F6484205F1B7
:101FE0003C0041F2BC230096C0F60501C1F200029C
:101FF0003CF058FB204602B070BD00BF2DE9F04F09
:1020000087B040F2903A00214FF0805241F68C1395
:10201000C2F2000A504600F8041B382100914DF22C
:10202000E531C0F605013CF03DFB014649B14DF2FA
:10203000EA30C0F605003BF0E5F9C8A03BF0E2F954
:1020400020E041F240704DF2024141F68C12282509
:1020500041F2BC23C2F20000C0F60501C1F2000249
:1020600000953CF01FFB4DF2FE3142F648420AF16A
:102070003C0041F2BC230095C0F60501C1F200020C
:102080003CF010FB4DF2FB3747F2487546F670798D
:102090000DF106044FF0FF384FF0000B0022C0F6A0
:1020A0000507C2F20005C6F66C4920463946C5F858
:1020B0000080CDE905BBCDF810904CF009F904AED5
:1020C000214630464CF0E6FA30460021002238F036
:1020D0009FF9A860204639460122A5F806B0C5F848
:1020E0001080ADF818B0CDE9049B4CF0F1F8304603
:1020F00021464CF0CFFA30460021002238F088F912
:10210000A861204639460222A5F816B0C5F82080FD
:10211000ADF818B0CDE9049B4CF0DAF83046214612
:102120004CF0B8FA30460021002238F071F9A8626C
:10213000204639460322A5F826B0C5F83080ADF810
:1021400018B0CDE9049B4CF0C3F8304621464CF062
:10215000A1FA30460021002238F05AF9A86320463F
:1021600039460422A5F836B0C5F84080ADF818B05D
:10217000CDE9049B4CF0ACF8304621464CF08AFA8D
:1021800030460021002238F043F9A8642046394641
:102190000522A5F846B0C5F85080ADF818B0CDE9D5
:1021A000049B4CF095F8304621464CF073FA3046CB
:1021B0000021002238F02CF9A86520463946062275
:1021C000A5F856B0C5F86080ADF818B0CDE9049B0D
:1021D0004CF07EF8304621464CF05CFA3046002147
:1021E000002238F015F9A866204639460722A5F8DE
:1021F00066B0C5F87080ADF818B0CDE9049B4CF01E
:1022000067F8304621464CF045FA3046002100225E
:1022100038F0FEF8A867204639460822A5F876B0BF
:10222000C5F88080ADF818B0CDE9049B4CF050F8AB
:10223000304621464CF02EFA30460021002238F07C
:10224000E7F8C5F88800204639460922A5F886B087
:10225000C5F89080ADF818B0CDE9049B4CF038F883
:10226000304621464CF016FA30460021002238F064
:10227000CFF847F26C3841F24074C5F89800A5F8E1
:1022800096B00AF104070AF13C050026C2F20008E4
:10229000C2F20004384601213CF034FC48F8260024
:1022A0003046002102F04EFA58F826100DF10609CA
:1022B000324608604B2158F8260041604FF0FF314C
:1022C0008160C0E904BBC0F818B04DF2FB3158F88A
:1022D0002600C0F6050180F81CB046F27350CDE927
:1022E00005BBC0F26D00049048464BF0F1FF0DF1C4
:1022F000100A494650464CF0CDF9504601210022C3
:1023000038F086F858F826100862012158F826009F
:10231000C0E90ABB80F824B028463CF0F3FB58F82B
:1023200026100863204601213CF0ECFB58F82610EB
:10233000FF224863282158F82600006B4CF035FA3C
:1023400058F826002821FF22406B4CF02EFA013667
:102350006D2E9FD1002007B0BDE8F08F63636D72D2
:10236000616D20696E6974206661696C6564000046
:102370002DE9F04F81B041F6701040F21047002473
:102380003021C2F20000C2F200072830C7E9004441
:10239000C7E902444CF033FA40F660705021C2F2B3
:1023A00000004CF02CFA40F6B0705021C2F2000050
:1023B0004CF025FA40F6F0383821C2F200084046C9
:1023C0004CF01DFA40F6000641F2E0393021C2F22D
:1023D0000006C2F200093046C9E90644C9E90844CA
:1023E000C9E90A44C9E90C444CF009FA06F1300085
:1023F00030214CF004FA41F648304FF46E71C9E9CF
:102400000E44C9E91044C9E91244C9E91444C7E9B2
:102410000444C7E90644C7E90844C7E90A44C2F2CC
:1024200000004CF0ECF941F2205B41F60070E02135
:10243000C7E90C44C7E90E44C2F2000BC2F2000027
:10244000CBE90044CBE90244CBE90444CBE90644A0
:10245000C9E91644C9E91844C9E91A44C9E91C4440
:102460004CF0CDF941F6E0709021C2F200004CF042
:10247000C6F942F27000E021C2F200004CF0BFF950
:1024800040F6001640F6D0453021C2F20006C2F2F6
:1024900000053046C5E91444C5E91644C5E91844A9
:1024A0004CF0ADF942F250104FF4C871C2F2000086
:1024B0004CF0A5F942F2E02040F68801C2F200009B
:1024C0004CF09DF942F668304FF48871C2F200007A
:1024D0004CF095F906F1300041F260063021C7E971
:1024E0001044C7E91244C2F20006C6E90044C6E936
:1024F0000244C6E904444CF082F908F1380038215E
:102500004CF07DF940F660483821C2F200084046A0
:102510004CF075F941F200005821C6E90644C6E9BD
:102520000844C6E90A44C7E91444C7E91644C2F29C
:1025300000004CF064F942F67840C021C2F200007D
:102540004CF05DF942F638504FF4E871C2F20000E9
:102550004CF055F908F1380038214CF050F940F6AC
:1025600070604821C2F200004CF049F942F6087050
:102570008821C7E91844C7E91A44C2F200004CF0A8
:102580003EF940F6B0504021C2F200004CF037F95D
:1025900040F6F0504021C2F200004CF030F940F615
:1025A00040503821C6E90C44C6E90E44C6E910443F
:1025B000C2F200004CF023F941F280702821C6E9F4
:1025C0001A44C6E91C44C6E91244C6E91444C6E9E3
:1025D0001644C6E91844C2F200004CF010F940F667
:1025E000601741F2802840F2407A3021C2F20007A1
:1025F000C2F20008C2F2000A3846C8E90044C8E93D
:102600000244C8E90444CAE90044CAE90244CAE9E8
:102610000444CAE906444CF0F2F807F130003021D6
:102620004CF0EDF841F2A0106821CAE90844CAE96B
:102630000A44C2F200004CF0E2F842F690704FF407
:10264000A471C2F200004CF0DAF843F2D8004FF463
:10265000D071C8E90644C8E90844C8E90A44C2F28E
:1026600000004CF0CCF843F278208021C2F2000048
:102670004CF0C5F843F2F8208021C2F200004CF083
:10268000BEF841F210207021CAE90C44CAE90E4498
:10269000C2F200004CF0B3F843F278304FF4FC7112
:1026A000C2F200004CF0ABF843F27050E021C2F2ED
:1026B00000004CF0A4F843F250604FF4FC71C2F2F9
:1026C00000004CF09CF843F64800C021C2F2000024
:1026D0004CF095F843F608104FF4FC71C2F200007C
:1026E0004CF08DF843F600304FF4C471C2F2000094
:1026F0004CF085F840F6C0604821C8E91444C8E9A8
:102700001644CAE91044CAE91244CAE91444CAE9A1
:102710001644C8E90C44C8E90E44C8E91044C8E9A5
:102720001244CBE90844CBE90A44CBE90C44CBE999
:102730000E44C2F200004CF062F843F688404FF4B9
:102740008C71C2F200004CF05AF840F63060402123
:10275000CAE91844CAE91A44C5E90044C5E9024473
:10276000C2F200004CF04BF840F6C0173021C2F224
:10277000000738464CF043F807F1300030214CF0A8
:102780003EF843F6A0504FF48471C2F200004CF0C2
:1027900036F843F6A8604FF48C71C5E90444C5E9E6
:1027A0000644C2F200004CF02AF840F640503821AE
:1027B000C2F2000038304CF022F840F61070482188
:1027C000C5E90844C5E90A44C2F200004CF017F814
:1027D00043F6C0704FF42871CBE91044CBE91244A2
:1027E000CBE91444CBE91644C8E91844C8E91A44B3
:1027F000C8E91C44C2F200004CF001F841F2003775
:1028000041F2E0006021C2F20007C2F20000C7E915
:102810000044C7E90244C7E904444BF0F0FF44F226
:10282000E8204FF46E71C5E90C44C5E90E44C2F2CC
:1028300000004BF0E4FF40F620263021C2F20006F3
:1028400030464BF0DCFF41F280782821C7E906448E
:10285000C7E90844C7E90A44C2F2000808F12800A1
:102860004BF0CDFF06F1300030214BF0C8FF40F6B1
:1028700080263021C5E91044C5E91244C7E9144453
:10288000C7E91644C7E90C44C7E90E44C7E9104438
:10289000C7E91244C2F2000630464BF0B0FF06F121
:1028A000300030214BF0ABFF40F630363021C2F221
:1028B000000630464BF0A3FF06F1300030214BF00C
:1028C0009EFF40F690363021C2F2000630464BF0B3
:1028D00096FF06F1300030214BF091FF44F260206A
:1028E0008821C7E91844C7E91A44C7E91C44C9E963
:1028F0000044C9E90244C9E90444C2F200004BF0B3
:102900007EFF44F2A0608821C2F200004BF077FF06
:1029100041F240106021C2F200004BF070FF08F15C
:10292000500028214BF06BFF41F670102821C2F2B5
:1029300000004BF064FF01B0BDE8F08F40F2903032
:102940000121C2F200000170704700BFA0F10B012D
:102950004D2900F22B800120DFE801F027282828EC
:1029600027282828282827282828282828282828E9
:1029700028282828282828282828282828282828D7
:1029800028282828282828282828282727272827CB
:1029900027282828282828272828282828282827BA
:1029A000282828282827282728277047002070470C
:1029B00006288EBF4FF0FF3001A151F8200070476C
:1029C0000100000019000000320000004B00000070
:1029D000640000007D000000FF0000004A280CDDBC
:1029E0007C2819DC4B2804BF03207047642804BFEF
:1029F000042070474FF0FF307047012804BF0020CB
:102A00007047192804BF01207047322804BF0220F4
:102A100070474FF0FF3070477D2804BF0520704796
:102A2000FF2804BF062070474FF0FF30704700BFFB
:102A30006C2800F27880DFE810F06D0079008200E9
:102A40008B0094009D00A600AF00B800C100CA0032
:102A5000D300DC00E500EE00F700000109011201DF
:102A60001B0124012D0136013F01480151015A018A
:102A700063016C0175017E01870190019901A2013A
:102A8000AB01B401BD01C601CF01D801E101EA01EA
:102A9000F301FC0105020E02170220022902320294
:102AA0003B0244024D0256025F02680271027A0242
:102AB00083028C0295029E02A702B002B902C202F2
:102AC000CB02D402DD02E602EF02F80201030A03A0
:102AD00013031C0325032E0337034003490352034A
:102AE0005B0364036D0376037F03880391039A03FA
:102AF000A303AC03B503BE03C703D003D903E203AA
:102B0000EB03F403FD0306040F04180421042A0454
:102B100033043C044AF6C020C0F6050002680846AB
:102B200011464BF029BD0020087070474AF6D020AE
:102B3000C0F605000268084611464BF01DBD4AF676
:102B40004030C0F605000268084611464BF014BD3F
:102B50004AF65030C0F605000268084611464BF0B0
:102B60000BBD4AF66030C0F6050002680846114603
:102B70004BF002BD4AF67030C0F605000268084608
:102B800011464BF0F9BC4AF68030C0F605000268E9
:102B9000084611464BF0F0BC4AF69030C0F60500EE
:102BA0000268084611464BF0E7BC4AF6A030C0F672
:102BB00005000268084611464BF0DEBC4AF6C030FC
:102BC000C0F605000268084611464BF0D5BC4AF62F
:102BD000B030C0F605000268084611464BF0CCBC88
:102BE0004AF6D030C0F605000268084611464BF0A0
:102BF000C3BC4AF6E030C0F605000268084611463C
:102C00004BF0BABC4AF6F030C0F605000268084640
:102C100011464BF0B1BC4AF60040C0F60500026810
:102C2000084611464BF0A8BC4AF61040C0F6050015
:102C30000268084611464BF09FBC4AF62040C0F699
:102C400005000268084611464BF096BC4AF6304033
:102C5000C0F605000268084611464BF08DBC4AF6E6
:102C60004040C0F605000268084611464BF084BC9F
:102C70004AF65040C0F605000268084611464BF07F
:102C80007BBC4AF66040C0F6050002680846114663
:102C90004BF072BC4AF67040C0F605000268084668
:102CA00011464BF069BC4AF68040C0F60500026848
:102CB000084611464BF060BC4AF69040C0F605004D
:102CC0000268084611464BF057BC4AF6A040C0F6D1
:102CD00005000268084611464BF04EBC4AF6B0406B
:102CE000C0F605000268084611464BF045BC4AF69E
:102CF000C040C0F605000268084611464BF03CBCD7
:102D00004AF6D040C0F605000268084611464BF06E
:102D100033BC4AF6E040C0F605000268084611469A
:102D20004BF02ABC4AF6F040C0F60500026808469F
:102D300011464BF021BC4AF60050C0F6050002686F
:102D4000084611464BF018BC4AF61050C0F6050074
:102D50000268084611464BF00FBC4AF62050C0F6F8
:102D600005000268084611464BF006BC4AF6305092
:102D7000C0F605000268084611464BF0FDBB4AF656
:102D80004050C0F605000268084611464BF0F4BBFF
:102D90004AF65050C0F605000268084611464BF04E
:102DA000EBBB4AF66050C0F60500026808461146C3
:102DB0004BF0E2BB4AF67050C0F6050002680846C8
:102DC00011464BF0D9BB4AF68050C0F605000268A8
:102DD000084611464BF0D0BB4AF69050C0F60500AD
:102DE0000268084611464BF0C7BB4AF6A050C0F631
:102DF00005000268084611464BF0BEBB4AF6B050CB
:102E0000C0F605000268084611464BF0B5BB4AF60D
:102E1000C050C0F605000268084611464BF0ACBB36
:102E20004AF6D050C0F605000268084611464BF03D
:102E3000A3BB4AF6E050C0F60500026808461146FA
:102E40004BF09ABB4AF6F050C0F6050002680846FF
:102E500011464BF091BB4AF60060C0F605000268CF
:102E6000084611464BF088BB4AF63060C0F60500B4
:102E70000268084611464BF07FBB4AF64060C0F638
:102E800005000268084611464BF076BB4AF65060D2
:102E9000C0F605000268084611464BF06DBB4AF6C5
:102EA0006060C0F605000268084611464BF064BB3E
:102EB0004AF67060C0F605000268084611464BF0FD
:102EC0005BBB4AF68060C0F6050002680846114602
:102ED0004BF052BB4AF69060C0F605000268084607
:102EE00011464BF049BB4AF6A060C0F605000268E7
:102EF000084611464BF040BB4AF6B060C0F60500EC
:102F00000268084611464BF037BB4AF6C060C0F66F
:102F100005000268084611464BF02EBB4AF6D06009
:102F2000C0F605000268084611464BF025BB4AF67C
:102F3000E060C0F605000268084611464BF01CBB75
:102F40004AF6F060C0F605000268084611464BF0EC
:102F500013BB4AF60070C0F6050002680846114629
:102F60004BF00ABB4AF61070C0F60500026808462E
:102F700011464BF001BB4AF62070C0F6050002680E
:102F8000084611464BF0F8BA4AF63070C0F6050014
:102F90000268084611464BF0EFBA4AF64070C0F698
:102FA00005000268084611464BF0E6BA4AF6507032
:102FB000C0F605000268084611464BF0DDBA4AF635
:102FC0006070C0F605000268084611464BF0D4BA9E
:102FD0004AF67070C0F605000268084611464BF0CC
:102FE000CBBA4AF68070C0F6050002680846114662
:102FF0004BF0C2BA4AF69070C0F605000268084667
:1030000011464BF0B9BA4AF6A070C0F60500026846
:10301000084611464BF0B0BA4AF6B070C0F605004B
:103020000268084611464BF0A7BA4AF6C070C0F6CF
:1030300005000268084611464BF09EBA4AF6D07069
:10304000C0F605000268084611464BF095BA4AF6EC
:10305000E070C0F605000268084611464BF08CBAD5
:103060004AF6F070C0F605000268084611464BF0BB
:1030700083BA4BF20000C0F605000268084611460C
:103080004BF07ABA4BF21000C0F605000268084611
:1030900011464BF071BA4BF22000C0F605000268F1
:1030A000084611464BF068BA4BF24000C0F60500E6
:1030B0000268084611464BF05FBA4BF26000C0F65A
:1030C00005000268084611464BF056BA4BF2500014
:1030D000C0F605000268084611464BF04DBA4BF2A7
:1030E0007000C0F605000268084611464BF044BA6D
:1030F0004BF28000C0F605000268084611464BF00E
:103100003BBA4BF29000C0F6050002680846114633
:103110004BF032BA4BF2B000C0F605000268084628
:1031200011464BF029BA4BF2C000C0F60500026808
:10313000084611464BF020BA4BF2D000C0F605000D
:103140000268084611464BF017BA4BF2E000C0F691
:1031500005000268084611464BF00EBA4BF200100B
:10316000C0F605000268084611464BF005BA4BF25E
:103170001010C0F605000268084611464BF0FCB975
:103180004BF22010C0F605000268084611464BF0CD
:10319000F3B94BF23010C0F605000268084611463C
:1031A0004BF0EAB94BF24010C0F605000268084641
:1031B00011464BF0E1B94BF27010C0F60500026801
:1031C000084611464BF0D8B94BF28010C0F6050006
:1031D0000268084611464BF0CFB94AF6E020C0F627
:1031E00005000268084611464BF0C6B94AF6F020C1
:1031F000C0F605000268084611464BF0BDB94AF614
:103200000030C0F605000268084611464BF0B4B91C
:103210004AF61030C0F605000268084611464BF029
:10322000ABB94AF62030C0F60500026808461146E0
:103230004BF0A2B94AF63030C0F6050002680846E5
:1032400011464BF099B94AF61060C0F605000268C5
:10325000084611464BF090B94AF62060C0F60500CA
:103260000268084611464BF087B94BF2F000C0F6F1
:1032700005000268084611464BF07EB94BF260101B
:10328000C0F605000268084611464BF075B94BF2CE
:10329000A000C0F605000268084611464BF06CB964
:1032A0004BF23000C0F605000268084611464BF0AC
:1032B00063B94BF25010C0F605000268084611468B
:1032C0004BF05AB910B504464AF6C020C0F60500C6
:1032D000016820464BF0E8FA002804BF002010BD2A
:1032E0004AF6D020C0F60500016820464BF0DCFA13
:1032F000002804BF012010BD4AF64030C0F605008A
:10330000016820464BF0D0FA002804BF022010BD0F
:103310004AF65030C0F60500016820464BF0C4FA6A
:10332000002804BF032010BD4AF66030C0F6050037
:10333000016820464BF0B8FA002804BF042010BDF5
:103340004AF67030C0F60500016820464BF0ACFA32
:10335000002804BF052010BD4AF68030C0F60500E5
:10336000016820464BF0A0FA002804BF062010BDDB
:103370004AF69030C0F60500016820464BF094FAFA
:10338000002804BF072010BD4AF6A030C0F6050093
:10339000016820464BF088FA002804BF082010BDC1
:1033A0004AF6C030C0F60500016820464BF07CFAB2
:1033B000002804BF092010BD4AF6B030C0F6050051
:1033C000016820464BF070FA002804BF0A2010BDA7
:1033D0004AF6D030C0F60500016820464BF064FA8A
:1033E000002804BF0B2010BD4AF6E030C0F60500EF
:1033F000016820464BF058FA002804BF0C2010BD8D
:103400004AF6F030C0F60500016820464BF04CFA51
:10341000002804BF0D2010BD4AF60040C0F605008C
:10342000016820464BF040FA002804BF0E2010BD72
:103430004AF61040C0F60500016820464BF034FA09
:10344000002804BF0F2010BD4AF62040C0F605003A
:10345000016820464BF028FA002804BF102010BD58
:103460004AF63040C0F60500016820464BF01CFAD1
:10347000002804BF112010BD4AF64040C0F60500E8
:10348000016820464BF010FA002804BF122010BD3E
:103490004AF65040C0F60500016820464BF004FA99
:1034A000002804BF132010BD4AF66040C0F6050096
:1034B000016820464BF0F8F9002804BF142010BD25
:1034C0004AF67040C0F60500016820464BF0ECF962
:1034D000002804BF152010BD4AF68040C0F6050044
:1034E000016820464BF0E0F9002804BF162010BD0B
:1034F0004AF69040C0F60500016820464BF0D4F92A
:10350000002804BF172010BD4AF6A040C0F60500F1
:10351000016820464BF0C8F9002804BF182010BDF0
:103520004AF6B040C0F60500016820464BF0BCF9F1
:10353000002804BF192010BD4AF6C040C0F605009F
:10354000016820464BF0B0F9002804BF1A2010BDD6
:103550004AF6D040C0F60500016820464BF0A4F9B9
:10356000002804BF1B2010BD4AF6E040C0F605004D
:10357000016820464BF098F9002804BF1C2010BDBC
:103580004AF6F040C0F60500016820464BF08CF981
:10359000002804BF1D2010BD4AF60050C0F60500EB
:1035A000016820464BF080F9002804BF1E2010BDA2
:1035B0004AF61050C0F60500016820464BF074F939
:1035C000002804BF1F2010BD4AF62050C0F6050099
:1035D000016820464BF068F9002804BF202010BD88
:1035E0004AF63050C0F60500016820464BF05CF901
:1035F000002804BF212010BD4AF64050C0F6050047
:10360000016820464BF050F9002804BF222010BD6D
:103610004AF65050C0F60500016820464BF044F9C8
:10362000002804BF232010BD4AF66050C0F60500F4
:10363000016820464BF038F9002804BF242010BD53
:103640004AF67050C0F60500016820464BF02CF990
:10365000002804BF252010BD4AF68050C0F60500A2
:10366000016820464BF020F9002804BF262010BD39
:103670004AF69050C0F60500016820464BF014F958
:10368000002804BF272010BD4AF6A050C0F6050050
:10369000016820464BF008F9002804BF282010BD1F
:1036A0004AF6B050C0F60500016820464BF0FCF821
:1036B000002804BF292010BD4AF6C050C0F60500FE
:1036C000016820464BF0F0F8002804BF2A2010BD06
:1036D0004AF6D050C0F60500016820464BF0E4F8E9
:1036E000002804BF2B2010BD4AF6E050C0F60500AC
:1036F000016820464BF0D8F8002804BF2C2010BDEC
:103700004AF6F050C0F60500016820464BF0CCF8B0
:10371000002804BF2D2010BD4AF60060C0F6050049
:10372000016820464BF0C0F8002804BF2E2010BDD1
:103730004AF63060C0F60500016820464BF0B4F848
:10374000002804BF2F2010BD4AF64060C0F60500D7
:10375000016820464BF0A8F8002804BF302010BDB7
:103760004AF65060C0F60500016820464BF09CF810
:10377000002804BF312010BD4AF66060C0F6050085
:10378000016820464BF090F8002804BF322010BD9D
:103790004AF67060C0F60500016820464BF084F8D8
:1037A000002804BF332010BD4AF68060C0F6050033
:1037B000016820464BF078F8002804BF342010BD83
:1037C0004AF69060C0F60500016820464BF06CF8A0
:1037D000002804BF352010BD4AF6A060C0F60500E1
:1037E000016820464BF060F8002804BF362010BD69
:1037F0004AF6B060C0F60500016820464BF054F868
:10380000002804BF372010BD4AF6C060C0F605008E
:10381000016820464BF048F8002804BF382010BD4E
:103820004AF6D060C0F60500016820464BF03CF82F
:10383000002804BF392010BD4AF6E060C0F605003C
:10384000016820464BF030F8002804BF3A2010BD34
:103850004AF6F060C0F60500016820464BF024F8F7
:10386000002804BF3B2010BD4AF60070C0F60500DA
:10387000016820464BF018F8002804BF3C2010BD1A
:103880004AF61070C0F60500016820464BF00CF8AF
:10389000002804BF3D2010BD4AF62070C0F6050088
:1038A000016820464BF000F8002804BF3E2010BD00
:1038B0004AF63070C0F60500016820464AF0F4FF71
:1038C000002804BF3F2010BD4AF64070C0F6050036
:1038D000016820464AF0E8FF002804BF402010BDE0
:1038E0004AF65070C0F60500016820464AF0DCFF39
:1038F000002804BF412010BD4AF66070C0F60500E4
:10390000016820464AF0D0FF002804BF422010BDC5
:103910004AF67070C0F60500016820464AF0C4FF00
:10392000002804BF432010BD4AF68070C0F6050091
:10393000016820464AF0B8FF002804BF442010BDAB
:103940004AF69070C0F60500016820464AF0ACFFC8
:10395000002804BF452010BD4AF6A070C0F605003F
:10396000016820464AF0A0FF002804BF462010BD91
:103970004AF6B070C0F60500016820464AF094FF90
:10398000002804BF472010BD4AF6C070C0F60500ED
:10399000016820464AF088FF002804BF482010BD77
:1039A0004AF6D070C0F60500016820464AF07CFF58
:1039B000002804BF492010BD4AF6E070C0F605009B
:1039C000016820464AF070FF002804BF4A2010BD5D
:1039D0004AF6F070C0F60500016820464AF064FF20
:1039E000002804BF4B2010BD4BF20000C0F60500BC
:1039F000016820464AF058FF002804BF4C2010BD43
:103A00004BF21000C0F60500016820464AF04CFF5A
:103A1000002804BF4D2010BD4BF22000C0F6050069
:103A2000016820464AF040FF002804BF4E2010BD28
:103A30004BF24000C0F60500016820464AF034FF12
:103A4000002804BF4F2010BD4BF26000C0F60500F7
:103A5000016820464AF028FF002804BF502010BD0E
:103A60004BF25000C0F60500016820464AF01CFFEA
:103A7000002804BF512010BD4BF27000C0F60500B5
:103A8000016820464AF010FF002804BF522010BDF4
:103A90004BF28000C0F60500016820464AF004FFA2
:103AA000002804BF532010BD4BF29000C0F6050063
:103AB000016820464AF0F8FE002804BF542010BDDB
:103AC0004BF2B000C0F60500016820464AF0ECFE5B
:103AD000002804BF552010BD4BF2C000C0F6050001
:103AE000016820464AF0E0FE002804BF562010BDC1
:103AF0004BF2D000C0F60500016820464AF0D4FE23
:103B0000002804BF572010BD4BF2E000C0F60500AE
:103B1000016820464AF0C8FE002804BF582010BDA6
:103B20004BF20010C0F60500016820464AF0BCFECA
:103B3000002804BF592010BD4BF21010C0F605003C
:103B4000016820464AF0B0FE002804BF5A2010BD8C
:103B50004BF22010C0F60500016820464AF0A4FE92
:103B6000002804BF5B2010BD4BF23010C0F60500EA
:103B7000016820464AF098FE002804BF5C2010BD72
:103B80004BF24010C0F60500016820464AF08CFE5A
:103B9000002804BF5D2010BD4BF27010C0F6050078
:103BA000016820464AF080FE002804BF5E2010BD58
:103BB0004BF28010C0F60500016820464AF074FE02
:103BC000002804BF5F2010BD4AF6E020C0F60500C3
:103BD000016820464AF068FE002804BF602010BD3E
:103BE0004AF6F020C0F60500016820464AF05CFE67
:103BF000002804BF612010BD4AF60030C0F6050061
:103C0000016820464AF050FE002804BF622010BD23
:103C10004AF61030C0F60500016820464AF044FE1E
:103C2000002804BF632010BD4AF62030C0F605000E
:103C3000016820464AF038FE002804BF642010BD09
:103C40004AF63030C0F60500016820464AF02CFEE6
:103C5000002804BF652010BD4AF61060C0F60500BC
:103C6000016820464AF020FE002804BF662010BDEF
:103C70004AF62060C0F60500016820464AF014FEAE
:103C8000002804BF672010BD4BF2F000C0F605000D
:103C9000016820464AF008FE002804BF682010BDD5
:103CA0004BF26010C0F60500016820464AF0FCFDAA
:103CB000002804BF692010BD4BF2A000C0F605002B
:103CC000016820464AF0F0FD002804BF6A2010BDBC
:103CD0004BF23000C0F60500016820464AF0E4FDD2
:103CE000002804BF6B2010BD4BF25010C0F6050039
:103CF000016820464AF0D8FD4FF0FF31002808BF88
:103D00006C21084610BD00BF10B58EB00DF1060144
:103D1000FEF78EFE9DF80600002800F00F854AF69B
:103D2000C0240DF10600C0F6050421684AF0BCFD70
:103D3000002800F004854AF6D0240DF10600C0F6F4
:103D4000050421684AF0B0FD002800F0F8844AF626
:103D500040340DF10600C0F6050421684AF0A4FDC8
:103D6000002800F0EC844AF650340DF10600C0F64D
:103D7000050421684AF098FD002800F0E0844AF626
:103D800060340DF10600C0F6050421684AF08CFD90
:103D9000002800F0D4844AF670340DF10600C0F615
:103DA000050421684AF080FD002800F0C8844AF626
:103DB00080340DF10600C0F6050421684AF074FD58
:103DC000002800F0BC844AF690340DF10600C0F6DD
:103DD000050421684AF068FD002800F0B0844AF626
:103DE000A0340DF10600C0F6050421684AF05CFD20
:103DF000002800F0A4844AF6C0340DF10600C0F695
:103E0000050421684AF050FD002800F098844AF625
:103E1000B0340DF10600C0F6050421684AF044FDF7
:103E2000002800F08C844AF6D0340DF10600C0F66C
:103E3000050421684AF038FD002800F080844AF625
:103E4000E0340DF10600C0F6050421684AF02CFDAF
:103E5000002800F074844AF6F0340DF10600C0F634
:103E6000050421684AF020FD002800F068844AF625
:103E700000440DF10600C0F6050421684AF014FD67
:103E8000002800F05C844AF610440DF10600C0F6EC
:103E9000050421684AF008FD002800F050844AF625
:103EA00020440DF10600C0F6050421684AF0FCFC30
:103EB000002800F044844AF630440DF10600C0F6B4
:103EC000050421684AF0F0FC002800F038844AF626
:103ED00040440DF10600C0F6050421684AF0E4FCF8
:103EE000002800F02C844AF650440DF10600C0F67C
:103EF000050421684AF0D8FC002800F020844AF626
:103F000060440DF10600C0F6050421684AF0CCFCBF
:103F1000002800F014844AF670440DF10600C0F643
:103F2000050421684AF0C0FC002800F008844AF625
:103F300080440DF10600C0F6050421684AF0B4FC87
:103F4000002800F0FC834AF690440DF10600C0F60C
:103F5000050421684AF0A8FC002800F0F0834AF626
:103F6000A0440DF10600C0F6050421684AF09CFC4F
:103F7000002800F0E4834AF6B0440DF10600C0F6D4
:103F8000050421684AF090FC002800F0D8834AF626
:103F9000C0440DF10600C0F6050421684AF084FC17
:103FA000002800F0CC834AF6D0440DF10600C0F69C
:103FB000050421684AF078FC002800F0C0834AF626
:103FC000E0440DF10600C0F6050421684AF06CFCDF
:103FD000002800F0B4834AF6F0440DF10600C0F664
:103FE000050421684AF060FC002800F0A8834AF626
:103FF00000540DF10600C0F6050421684AF054FC97
:10400000002800F09C834AF610540DF10600C0F61B
:10401000050421684AF048FC002800F090834AF625
:1040200020540DF10600C0F6050421684AF03CFC5E
:10403000002800F084834AF630540DF10600C0F6E3
:10404000050421684AF030FC002800F078834AF625
:1040500040540DF10600C0F6050421684AF024FC26
:10406000002800F06C834AF650540DF10600C0F6AB
:10407000050421684AF018FC002800F060834AF625
:1040800060540DF10600C0F6050421684AF00CFCEE
:10409000002800F054834AF670540DF10600C0F673
:1040A000050421684AF000FC002800F048834AF625
:1040B00080540DF10600C0F6050421684AF0F4FBB7
:1040C000002800F03C834AF690540DF10600C0F63B
:1040D000050421684AF0E8FB002800F030834AF626
:1040E000A0540DF10600C0F6050421684AF0DCFB7F
:1040F000002800F024834AF6B0540DF10600C0F603
:10410000050421684AF0D0FB002800F018834AF625
:10411000C0540DF10600C0F6050421684AF0C4FB46
:10412000002800F00C834AF6D0540DF10600C0F6CA
:10413000050421684AF0B8FB002800F000834AF625
:10414000E0540DF10600C0F6050421684AF0ACFB0E
:10415000002800F0F4824AF6F0540DF10600C0F693
:10416000050421684AF0A0FB002800F0E8824AF626
:1041700000640DF10600C0F6050421684AF094FBC6
:10418000002800F0DC824AF630640DF10600C0F62B
:10419000050421684AF088FB002800F0D0824AF626
:1041A00040640DF10600C0F6050421684AF07CFB6E
:1041B000002800F0C4824AF650640DF10600C0F6F3
:1041C000050421684AF070FB002800F0B8824AF626
:1041D00060640DF10600C0F6050421684AF064FB36
:1041E000002800F0AC824AF670640DF10600C0F6BB
:1041F000050421684AF058FB002800F0A0824AF626
:1042000080640DF10600C0F6050421684AF04CFBFD
:10421000002800F094824AF690640DF10600C0F682
:10422000050421684AF040FB002800F088824AF625
:10423000A0640DF10600C0F6050421684AF034FBC5
:10424000002800F07C824AF6B0640DF10600C0F64A
:10425000050421684AF028FB002800F070824AF625
:10426000C0640DF10600C0F6050421684AF01CFB8D
:10427000002800F064824AF6D0640DF10600C0F612
:10428000050421684AF010FB002800F058824AF625
:10429000E0640DF10600C0F6050421684AF004FB55
:1042A000002800F04C824AF6F0640DF10600C0F6DA
:1042B000050421684AF0F8FA002800F040824AF626
:1042C00000740DF10600C0F6050421684AF0ECFA0E
:1042D000002800F034824AF610740DF10600C0F692
:1042E000050421684AF0E0FA002800F028824AF626
:1042F00020740DF10600C0F6050421684AF0D4FAD6
:10430000002800F01C824AF630740DF10600C0F659
:10431000050421684AF0C8FA002800F010824AF625
:1043200040740DF10600C0F6050421684AF0BCFA9D
:10433000002800F004824AF650740DF10600C0F621
:10434000050421684AF0B0FA002800F0F8814AF626
:1043500060740DF10600C0F6050421684AF0A4FA65
:10436000002800F0EC814AF670740DF10600C0F6EA
:10437000050421684AF098FA002800F0E0814AF626
:1043800080740DF10600C0F6050421684AF08CFA2D
:10439000002800F0D4814AF690740DF10600C0F6B2
:1043A000050421684AF080FA002800F0C8814AF626
:1043B000A0740DF10600C0F6050421684AF074FAF5
:1043C000002800F0BC814AF6B0740DF10600C0F67A
:1043D000050421684AF068FA002800F0B0814AF626
:1043E000C0740DF10600C0F6050421684AF05CFABD
:1043F000002800F0A4814AF6D0740DF10600C0F642
:10440000050421684AF050FA002800F098814AF625
:10441000E0740DF10600C0F6050421684AF044FA84
:10442000002800F08C814AF6F0740DF10600C0F609
:10443000050421684AF038FA002800F080814BF228
:1044400000040DF10600C0F6050421684AF02CFABC
:10445000002800F074814BF210040DF10600C0F644
:10446000050421684AF020FA002800F068814BF228
:1044700020040DF10600C0F6050421684AF014FA84
:10448000002800F05C814BF240040DF10600C0F6FC
:10449000050421684AF008FA002800F050814BF228
:1044A00060040DF10600C0F6050421684AF0FCF92D
:1044B000002800F044814BF250040DF10600C0F6D4
:1044C000050421684AF0F0F9002800F038814BF229
:1044D00070040DF10600C0F6050421684AF0E4F905
:1044E000002800F02C814BF280040DF10600C0F68C
:1044F000050421684AF0D8F9002800F020814BF229
:1045000090040DF10600C0F6050421684AF0CCF9CC
:10451000002800F014814BF2B0040DF10600C0F643
:10452000050421684AF0C0F9002800F008814BF228
:10453000C0040DF10600C0F6050421684AF0B4F984
:10454000002800F0FC804BF2D0040DF10600C0F60C
:10455000050421684AF0A8F9002800F0F0804BF229
:10456000E0040DF10600C0F6050421684AF09CF94C
:10457000002800F0E4804BF200140DF10600C0F6B4
:10458000050421684AF090F9002800F0D8804BF229
:1045900010140DF10600C0F6050421684AF084F9F4
:1045A000002800F0CC804BF220140DF10600C0F67C
:1045B000050421684AF078F9002800F0C0804BF229
:1045C00030140DF10600C0F6050421684AF06CF9BC
:1045D000002800F0B4804BF240140DF10600C0F644
:1045E000050421684AF060F9002800F0A8804BF229
:1045F00070140DF10600C0F6050421684AF054F964
:10460000002800F09C804BF280140DF10600C0F6EB
:10461000050421684AF048F9002800F090804AF625
:10462000E0240DF10600C0F6050421684AF03CF9CB
:10463000002800F084804AF6F0240DF10600C0F650
:10464000050421684AF030F9002878D04AF6003491
:104650000DF10600C0F6050421684AF025F900288E
:104660006DD04AF610340DF10600C0F6050421683D
:104670004AF01AF9002862D04AF620340DF10600FB
:10468000C0F6050421684AF00FF9002857D04AF611
:1046900030340DF10600C0F6050421684AF004F933
:1046A00000284CD04AF610640DF10600C0F605044F
:1046B00021684AF0F9F8002841D04AF620640DF14B
:1046C0000600C0F6050421684AF0EEF8B8B34BF2D4
:1046D000F0040DF10600C0F6050421684AF0E4F884
:1046E00068B34BF260140DF10600C0F605042168B2
:1046F0004AF0DAF818B34BF2A0040DF10600C0F648
:10470000050421684AF0D0F8C8B14BF230040DF12D
:104710000600C0F6050421684AF0C6F878B14BF2ED
:1047200050140DF10600C0F6050421684AF0BCF8EB
:10473000002818BF002420460EB010BD00242046DB
:104740000EB010BD2DE9F0438DB00C460DF1020105
:104750000546FEF76DF92846FEF7F8F80546012CE8
:1047600085F0010005DB20B1002630460DB0BDE824
:10477000F083B4FA84F1490901EA0007012F40F0FF
:104780008F804AF6C020C0F6050001680DF10200D6
:104790004AF08AF840F210460028C2F20006E4D03F
:1047A0004AF6D020C0F6050001680DF102004AF07B
:1047B0007BF8002800F069854AF64030C0F6050015
:1047C00001680DF102004AF06FF8002800F07D85C5
:1047D0004AF65030C0F6050001680DF102004AF0BB
:1047E00063F8002800F08D854AF66030C0F60500B9
:1047F00001680DF102004AF057F8002800F0998591
:104800004AF67030C0F6050001680DF102004AF06A
:104810004BF841F2E0380028C2F2000800F0A5850C
:104820004AF68030C0F6050001680DF102004AF03A
:104830003BF840F600090028C2F2000900F0AD85FF
:104840004AF69030C0F6050001680DF102004AF00A
:104850002BF8002800F0C0854AF6A030C0F605000D
:1048600001680DF102004AF01FF8002800F0D4851D
:104870004AF6C030C0F6050001680DF102004AF0AA
:1048800013F8002800F0F4854AF6B030C0F60500B1
:1048900001680DF102004AF007F8002800F00886D0
:1048A0005DB14AF6D030C0F6050001680DF1020096
:1048B00049F0FAFF002800F0F2841FB34AF6E03016
:1048C000C0F6050001680DF1020049F0EDFF002877
:1048D00000F0F1844AF6F030C0F6050001680DF1F1
:1048E000020049F0E1FF002800F0F7844AF600409A
:1048F000C0F6050001680DF1020049F0D5FF00285F
:1049000000F00F855DB14AF61040C0F60500016861
:104910000DF1020049F0C8FF002800F0E884DFB381
:104920004AF62040C0F6050001680DF1020049F08A
:10493000BBFF002800F0ED844AF63040C0F60500C9
:1049400001680DF1020049F0AFFF002800F0F98482
:104950004AF64040C0F6050001680DF1020049F03A
:10496000A3FF002800F00F854AF65040C0F605006E
:1049700001680DF1020049F097FF002800F018854A
:104980004AF66040C0F6050001680DF1020049F0EA
:104990008BFF002800F026855DB14AF67040C0F616
:1049A000050001680DF1020049F07EFF002800F0CB
:1049B000D084002F00F0C8814AF68040C0F6050080
:1049C00001680DF1020049F06FFF002800F0D38468
:1049D0004AF69040C0F6050001680DF1020049F06A
:1049E00063FF40F210480028C2F2000800F0DA84A9
:1049F0004AF6A040C0F6050001680DF1020049F03A
:104A000053FF41F260060028C2F200063FF4ADAE4B
:104A10004AF6B040C0F6050001680DF1020049F009
:104A200043FF002800F009854AF6C040C0F60500A3
:104A300001680DF1020049F037FF002800F02985D8
:104A40004AF6D040C0F6050001680DF1020049F0B9
:104A50002BFF40F660490028C2F2000900F02E85C5
:104A60004AF6E040C0F6050001680DF1020049F089
:104A70001BFF002800F042854AF6F040C0F6050012
:104A800001680DF1020049F00FFF002800F04C858D
:104A90004AF60050C0F6050001680DF1020049F029
:104AA00003FF002800F062854AF61050C0F60500AA
:104AB00001680DF1020049F0F7FE002800F0818541
:104AC0004AF62050C0F6050001680DF1020049F0D9
:104AD000EBFE002800F093854AF63050C0F6050042
:104AE00001680DF1020049F0DFFE002800F0B585F5
:104AF0004AF64050C0F6050001680DF1020049F089
:104B0000D3FE002800F0CE854AF65050C0F60500CE
:104B100001680DF1020049F0C7FE002800F0D085C1
:104B20004AF66050C0F6050001680DF1020049F038
:104B3000BBFE002800F0CF854AF67050C0F6050095
:104B400001680DF1020049F0AFFE002800F0D585A4
:104B50004AF68050C0F6050001680DF1020049F0E8
:104B6000A3FE002800F0D7854AF69050C0F6050055
:104B700001680DF1020049F097FE002800F0D98588
:104B80004AF6A050C0F6050001680DF1020049F098
:104B90008BFE002800F0D2854AF6B050C0F6050022
:104BA00001680DF1020049F07FFE002800F0D38576
:104BB0004AF6C050C0F6050001680DF1020049F048
:104BC00073FE002800F0CC854AF6D050C0F60500F0
:104BD00001680DF1020049F067FE002800F0CA8567
:104BE0004AF6E050C0F6050001680DF1020049F0F8
:104BF0005BFE41F280260028C2F200063FF4B5AD0C
:104C00004AF6F050C0F6050001680DF1020049F0C7
:104C10004BFE40F240780028C2F2000800F0B78551
:104C20004AF60060C0F6050001680DF1020049F087
:104C30003BFE002800F0B6854AF63060C0F605005D
:104C400001680DF1020049F02FFE40F660190028BE
:104C5000C2F2000900F0B4854AF64060C0F60500D3
:104C600001680DF1020049F01FFE002800F0B58533
:104C70004AF65060C0F6050001680DF1020049F0E7
:104C800013FE002800F0B7854AF66060C0F6050004
:104C900001680DF1020049F007FE002800F0B98517
:104CA0004AF67060C0F6050001680DF1020049F097
:104CB000FBFD002800F0BB854AF68060C0F60500C9
:104CC00001680DF1020049F0EFFD002800F0BF85FA
:104CD0004AF69060C0F6050001680DF1020049F047
:104CE000E3FD002800F0B8854AF6A060C0F6050094
:104CF00001680DF1020049F0D7FD002800F0B485ED
:104D00004AF6B060C0F6050001680DF1020049F0F6
:104D1000CBFD002800F0B0854AF6C060C0F6050063
:104D200001680DF1020049F0BFFD002800F0AC85DC
:104D30004AF6D060C0F6050001680DF1020049F0A6
:104D4000B3FD002800F0A6851DB34AF6E060C0F66A
:104D5000050001680DF1020049F0A6FD002800F0F1
:104D60002F834AF6F060C0F6050001680DF10200DD
:104D700049F09AFD002800F03D834AF60070C0F625
:104D8000050001680DF1020049F08EFD002800F0D9
:104D90005E835FB14AF61070C0F6050001680DF140
:104DA000020049F081FD002800F02E83BDB14AF6D3
:104DB0002070C0F6050001680DF1020049F074FD95
:104DC000002800F02E834AF63070C0F60500016816
:104DD0000DF1020049F068FD002800F04E83002F1D
:104DE0004FD04AF64070C0F6050001680DF1020090
:104DF00049F05AFD40F240760028C2F2000600F069
:104E000032834AF65070C0F6050001680DF10200C9
:104E100049F04AFD002800F046834AF66070C0F66B
:104E2000050001680DF1020049F03EFD41F28026C7
:104E30000028C2F2000600F05C834AF67070C0F6EB
:104E4000050001680DF1020049F02EFD002800F078
:104E50005A834AF68070C0F6050001680DF1020021
:104E600049F022FD002800F077834AF69070C0F6E2
:104E7000050001680DF1020049F016FD002800F060
:104E800098835DB14AF6A070C0F6050001680DF187
:104E9000020049F009FD002800F01583002F5BD0C7
:104EA0004AF6B070C0F6050001680DF1020049F045
:104EB000FBFC002800F013834AF6C070C0F6050022
:104EC00001680DF1020049F0EFFC40F6D0460028E1
:104ED000C2F200063FF449AC4AF6D070C0F60500B5
:104EE00001680DF1020049F0DFFC002800F02C837E
:104EF0004AF6E070C0F6050001680DF1020049F0C5
:104F0000D3FC40F6C0180028C2F2000800F040832D
:104F10004AF6F070C0F6050001680DF1020049F094
:104F2000C3FC002800F065834BF20000C0F60500CA
:104F300001680DF1020049F0B7FC002800F08583FC
:104F40004BF21000C0F6050001680DF1020049F0B7
:104F5000ABFC002800F09B835DB14BF22000C0F653
:104F6000050001680DF1020049F09EFC002800F0E8
:104F7000CF82DFB34BF24000C0F6050001680DF1AF
:104F8000020049F091FC002800F0D4824BF260004E
:104F9000C0F6050001680DF1020049F085FC00280B
:104FA00000F0EC824BF25000C0F6050001680DF1F4
:104FB000020049F079FC002800F013834BF27000E6
:104FC000C0F6050001680DF1020049F06DFC0028F3
:104FD00000F031834BF28000C0F6050001680DF14E
:104FE000020049F061FC002800F047835DB14BF2FC
:104FF0009000C0F6050001680DF1020049F054FC74
:10500000002800F0CA821FB34BF2B000C0F60500C2
:1050100001680DF1020049F047FC002800F0D98238
:105020004BF2C000C0F6050001680DF1020049F026
:105030003BFC002800F0EB824BF2D000C0F60500EC
:1050400001680DF1020049F02FFC002800F00B83ED
:105050005DB14BF2E000C0F6050001680DF1020001
:1050600049F022FC002800F0DA82002F00F00881CD
:105070004BF20010C0F6050001680DF1020049F086
:1050800013FC40F620260028C2F200063FF46DAB68
:105090004BF21010C0F6050001680DF1020049F056
:1050A00003FC41F200350028C2F2000500F0F48252
:1050B0004BF22010C0F6050001680DF1020049F026
:1050C000F3FB41F280740028C2F2000400F0F28287
:1050D0004BF23010C0F6050001680DF1020049F0F6
:1050E000E3FB002800F0F2824BF24010C0F605000E
:1050F00001680DF1020049F0D7FB002800F0F382AF
:105100004BF27010C0F6050001680DF1020049F085
:10511000CBFB002800F0F9824BF28010C0F60500AE
:1051200001680DF1020049F0BFFB002800F0FB828E
:105130004AF6E020C0F6050001680DF1020049F0D2
:10514000B3FB40F680260028C2F200063FF40DAB08
:105150004AF6F020C0F6050001680DF1020049F0A2
:10516000A3FB002800F0F2824AF60030C0F60500EA
:1051700001680DF1020049F097FB40F63036002837
:10518000C2F200063FF4F1AA4AF61030C0F605005C
:1051900001680DF1020049F087FB002800F0E5826C
:1051A0004AF62030C0F6050001680DF1020049F012
:1051B0007BFB40F690360028C2F200063FF4D5AAE9
:1051C0004AF63030C0F6050001680DF1020049F0E2
:1051D0006BFB002800F0D6824AF61060C0F605008E
:1051E00001680DF1020049F05FFB002800F0D48255
:1051F0004AF62060C0F6050001680DF1020049F092
:1052000053FB002800F0D4824BF2F000C0F60500FA
:1052100001680DF1020049F047FB002800F0D5823B
:105220004BF26010C0F6050001680DF1020049F074
:105230003BFB002800F0D7824BF2A000C0F605002F
:1052400001680DF1020049F02FFB002800F0D9821F
:105250004BF23000C0F6050001680DF1020049F084
:1052600023FB002800F0DD824BF25010C0F6050051
:1052700001680DF1020049F017FB002800F0DF8201
:10528000002630460DB0BDE8F08341F67010C2F242
:10529000000000F1280630460DB0BDE8F08341F66D
:1052A000483104EB0410C2F2000101EBC0063046A5
:1052B0000DB0BDE8F08340F21040C2F2000000F1F2
:1052C000300630460DB0BDE8F08340F66076C2F29D
:1052D000000630460DB0BDE8F08341F2E030C2F286
:1052E000000000F1580630460DB0BDE8F08341F6ED
:1052F0000070C2F2000000EB441630460DB0BDE86D
:10530000F08340F6B076C2F2000630460DB0BDE83C
:10531000F08341F6E076C2F2000630460DB0BDE8FB
:10532000F08341F22056C2F2000630460DB0BDE8CF
:10533000F08340F6F036C2F2000630460DB0BDE80C
:10534000F08342F27006C2F2000630460DB0BDE8AE
:10535000F08342F2E0204FF49C71C2F2000004FBA3
:10536000010630460DB0BDE8F08308F1180630465E
:105370000DB0BDE8F08342F66836C2F20006304652
:105380000DB0BDE8F08340F6D040C2F2000000F15D
:10539000500630460DB0BDE8F0834E4630460DB0A5
:1053A000BDE8F08308F1400630460DB0BDE8F0835B
:1053B00040F60016C2F2000630460DB0BDE8F0839C
:1053C00043F2783104EBC400C2F2000101EBC006E5
:1053D00030460DB0BDE8F08309F1300630460DB01F
:1053E000BDE8F08342F25016C2F2000630460DB01E
:1053F000BDE8F08343F27050C2F2000000EB4416A7
:1054000030460DB0BDE8F08343F64806C2F2000610
:1054100030460DB0BDE8F083103630460DB0BDE823
:10542000F08343F6081104EBC400C2F2000101EB63
:10543000C00630460DB0BDE8F08340F60010C2F261
:10544000000000F1300630460DB0BDE8F08343F2B5
:10545000506104EBC400C2F2000101EBC00630460B
:105460000DB0BDE8F083403630460DB0BDE8F083A6
:10547000203630460DB0BDE8F08343F60031C4EB72
:10548000C400C2F2000101EBC00630460DB0BDE819
:10549000F08340F6F030C2F2000000F138063046EA
:1054A0000DB0BDE8F083503630460DB0BDE8F08356
:1054B00008F1380630460DB0BDE8F0834E46304660
:1054C0000DB0BDE8F08343F6884104EB8400C2F2DE
:1054D000000101EBC00630460DB0BDE8F08340F29C
:1054E0004070C2F2000000F1600630460DB0BDE829
:1054F000F083303630460DB0BDE8F08318363046C4
:105500000DB0BDE8F083483630460DB0BDE8F083FD
:1055100043F6A86104EB8400C2F2000101EBC0066F
:1055200030460DB0BDE8F08308F1500630460DB0AE
:10553000BDE8F08340F64050C2F2000000F13806AA
:1055400030460DB0BDE8F08340F63066C2F200068A
:1055500030460DB0BDE8F08341F22050C2F20000A9
:1055600000F1200630460DB0BDE8F08341F20006A0
:10557000C2F2000630460DB0BDE8F08340F6D040E0
:10558000C2F2000000F1200630460DB0BDE8F08305
:10559000464630460DB0BDE8F08343F6C07104EBDB
:1055A0004400C2F2000101EB401630460DB0BDE8E8
:1055B000F08340F6C066C2F2000630460DB0BDE88A
:1055C000F08342F67846C2F2000630460DB0BDE8E0
:1055D000F08341F20036C2F2000630460DB0BDE85D
:1055E000F08340F61076C2F2000630460DB0BDE8FA
:1055F000F08308F1300630460DB0BDE8F08342F686
:105600003856C2F2000630460DB0BDE8F08341F2D4
:10561000E006C2F2000630460DB0BDE8F08344F269
:10562000E82104EB0410C2F2000101EBC006304691
:105630000DB0BDE8F08341F22050C2F2000000F14D
:10564000400630460DB0BDE8F08343F6A056C2F2E6
:10565000000630460DB0BDE8F08309F1380630464B
:105660000DB0BDE8F08340F6D040C2F2000000F17A
:10567000300630460DB0BDE8F08341F28020C2F222
:10568000000000F1600630460DB0BDE8F083103632
:1056900030460DB0BDE8F08305F1180630460DB078
:1056A000BDE8F08340F67066C2F2000630460DB0E9
:1056B000BDE8F08304F1280630460DB0BDE8F08364
:1056C00008F1600630460DB0BDE8F0833036304654
:1056D0000DB0BDE8F08342F60876C2F2000630460F
:1056E0000DB0BDE8F08340F6D040C2F2000000F1FA
:1056F000400630460DB0BDE8F08340F6B056C2F229
:10570000000630460DB0BDE8F08305F130063046A6
:105710000DB0BDE8F08340F6F056C2F20006304608
:105720000DB0BDE8F08305F1480630460DB0BDE888
:10573000F083303630460DB0BDE8F08340F6405679
:10574000C2F2000630460DB0BDE8F0833036304678
:105750000DB0BDE8F083483630460DB0BDE8F083AB
:10576000603630460DB0BDE8F083303630460DB0BF
:10577000BDE8F08341F28076C2F2000630460DB0FB
:10578000BDE8F083303630460DB0BDE8F0834646C4
:1057900030460DB0BDE8F08305F1600630460DB02F
:1057A000BDE8F08308F1100630460DB0BDE8F08387
:1057B00041F2E036C2F2000630460DB0BDE8F0839B
:1057C0004E4630460DB0BDE8F08344F26026C2F28A
:1057D000000630460DB0BDE8F08309F130063046D2
:1057E0000DB0BDE8F08344F2A066C2F20006304678
:1057F0000DB0BDE8F08308F1200630460DB0BDE8DD
:10580000F08341F24016C2F2000630460DB0BDE80A
:10581000F08341F2A016C2F2000630460DB0BDE89A
:10582000F08304F1500630460DB0BDE8F08342F637
:105830009076C2F2000630460DB0BDE8F08341F626
:105840007016C2F2000630460DB0BDE8F08318367F
:1058500030460DB0BDE8F08343F2D806C2F2000630
:1058600030460DB0BDE8F08343F27826C2F2000660
:1058700030460DB0BDE8F08343F2F826C2F20006D0
:1058800030460DB0BDE8F08308F1300630460DB06B
:10589000BDE8F08341F21026C2F2000630460DB09A
:1058A000BDE8F0832DE9F0412DED028B40F28046FA
:1058B0004FF07E50C2F200067061FDF73FF84BF2E8
:1058C000400806F10804C0F6050821464046FBF7EB
:1058D000CDFD0127B7EE008A002530604FF47A70C5
:1058E0003AF0E2FA96ED050A01EE107AB8EE411AA6
:1058F00030EE080A86ED081A86ED050A09F03AFD31
:10590000C6E90205404622463168FBF75DFE0137D5
:10591000E4E700BF2DE9F04182B0052009F062FD07
:105920004BF24008C0F605084046FBF76DFF41F614
:105930001037054600240DF10706C2F2000704E007
:10594000404629463A46FCF741F84FF47A703AF05F
:10595000ABFA284631468DF80740FCF749F99DF827
:1059600007000028ECD1F0E770B582B045F61511BC
:105970000A25192611A000224FF48063C0F6000109
:10598000CDE900653AF028F918B139F0F1FF0024AB
:1059900000E0012445F6A5010BA000224FF480632E
:1059A000CDE90065C0F600013AF016F900280CBFF9
:1059B000012439F0DDFF204602B070BD754F524220
:1059C0005F53554200000000754F52425F505542F0
:1059D0000000000080B536F09DFF3AF015FF33F06F
:1059E0005BFF46F69040C2F200000168C2681144B5
:1059F0000160BDE8804036F0A5BF00BF10B5044689
:105A00003DF080F944F6D351C1F26201A0FB0101DF
:105A100088093BF019F84FF0FF30214600223AF098
:105A2000B1FF002010BD00BF81B00090009801B010
:105A30003AF034BA704700BF704700BF80B503200A
:105A40003AF090FF6FF00B00002100223AF09AFF2D
:105A50006FF00A00002100223AF094FF6FF0090075
:105A6000002100223AF08EFF6FF004000021002296
:105A70003AF088FF6FF00300002100223AF082FF25
:105A80006FF001000F2100223AF07CFF4FF0FF3051
:105A90000F210022BDE880403AF074BFB0B592B04B
:105AA00043F64000002402250694C4F20200016877
:105AB00041F080510160006800F080500690069827
:105AC000069447F20000C4F20000016841F440412E
:105AD0000160006800F44040069006984FF4803062
