:020000040800F2
:1000000000BE012019AD0408415B0008FB3D040857
:10001000455B0008495B00084D5B000800000000DC
:10002000000000000000000000000000515B00081C
:100030002DAD040800000000473D0408BD5900082C
:1000400033AD040833AD040833AD040833AD040800
:1000500033AD040833AD0408515C0008655C00084A
:10006000795C00088D5C0008A15C000833AD0408D1
:1000700033AD040833AD040833AD040833AD0408D0
:1000800033AD040833AD040833AD040833AD0408C0
:1000900033AD040833AD040833AD0408B55C000883
:1000A00033AD040833AD040833AD040833AD0408A0
:1000B00033AD040833AD040833AD040833AD040890
:1000C00033AD040833AD040833AD040833AD040880
:1000D00033AD0408156300085563000895630008F4
:1000E000E55C000833AD040833AD040833AD040803
:1000F00033AD040833AD040833AD040833AD040850
:1001000033AD040833AD040833AD040833AD04083F
:1001100033AD040833AD040833AD040833AD04082F
:1001200033AD040833AD040833AD040833AD04081F
:1001300033AD040833AD040833AD040833AD04080F
:1001400033AD040833AD040833AD0408C16D0008B5
:1001500033AD040833AD040833AD040833AD0408EF
:1001600033AD040833AD040833AD040833AD0408DF
:1001700033AD040833AD040833AD040800000000BB
:1001800033AD040833AD040833AD040833AD0408BF
:1001900033AD040833AD040833AD040833AD0408AF
:1001A000000000000000000033AD040800F002F879
:1001B00000F0BFF80AA090E8000C82448344AAF142
:1001C0000107DA4501D100F0B4F8AFF2090EBAE840
:1001D0000F0013F0010F18BFFB1A43F0010318477B
:1001E000D0070700F00707000A444FF0000C10F892
:1001F000013B13F0070408BF10F8014B1D1108BFA5
:1002000010F8015B641E05D010F8016B641E01F844
:10021000016BF9D113F0080F1EBF10F8014BAD1C94
:100220000C1B09D16D1E58BF01F801CBFAD505E0B2
:1002300014F8016B01F8016B6D1EF9D59142D6D30C
:10024000704700000023002400250026103A28BF34
:1002500078C1FBD8520728BF30C148BF0B60704738
:100260006E2919F074A0702919F0D5A1662923F020
:10027000B3A3652923F0B0A3672923F0ADA36129B7
:1002800023F0ACA303681B0A28BF41F08001692951
:1002900018F030A3642918F02DA3752918F02AA3AB
:1002A0006F2919F063A1782919F0A1A1E92919F0A2
:1002B000FDA0E42919F0FAA0F52919F0F7A0EF291B
:1002C00019F060A1F82919F0A0A10368DB0928BF83
:1002D00041F08001632919F07EA0732919F083A0F1
:1002E000E32919F049A7F32919F04EA70020704718
:1002F0001FB563F038FB9DE8030059F02BFB5AF063
:10030000FFF904000020002162F0BAFB401C60608D
:100310000020002162F0CAFBE06059F0BFF958F0FC
:1003200007FF1FBD10B500205AF082F959F01FFADF
:1003300010BD5AF0C0F91146FFF7DAFF43F0FEFD99
:100340005AF0CEFB03B4FFF7EDFF03BC58F09CF965
:100350002DE9F04FA9B0032000210AF08DFC59A02F
:1003600043F08CFE47F2E0310028C2F200018B46D8
:10037000086000F0A180032143F0C2FF42F2107038
:100380004AF088F846F26000C0F6060001F030FA44
:10039000054646F2A000C0F6060001F029FA044620
:1003A0000DF10F07CDE901450CE000BF03200AF075
:1003B000A9FCB0FA80F0410903200AF07FFC642018
:1003C0004AF068F811F04CFA002039468DF80F0019
:1003D000284601F001FC9DF80F00002853D046F29A
:1003E000600016AE2946C0F60600324601F0E2FA79
:1003F000DBF8000000213246482344F091F81DA8A4
:10040000054695ED000A95ED011A20EE000A01EE71
:10041000010A10EE100A63F0A5F906461C988846FA
:1004200063F0A0F948EC106B81468A4661F060FDEC
:10043000B0EE401AF0EE601A4AEC109B60F00CFD32
:1004400015ED010A95ED011A20EE000A01EE010AF0
:1004500010EE100A63F086F981461D980C4663F091
:1004600081F944EC109B019C3E4605460F4661F025
:100470003FFDB0EE401AF0EE601A47EC105B029DB3
:10048000374660F0E9FC2046394601F0A5FB9DF8AF
:100490000F0000288AD046F2A00004AE2146C0F624
:1004A0000600324601F086FADBF8000000213246F1
:1004B000482344F035F879E74FF0FF3029B0BDE824
:1004C000F08F00BF76636F6D000000000020704762
:1004D00000207047F0B591B041F2C06745F26076F8
:1004E0000546D1E90001C2F20007C2F200063C460F
:1004F0007963314644F8300F01A811F0B7F801AB29
:1005000007F1440C0FCB8CE80F000EA805A99DED58
:10051000010A9DED021A9DED032A9DED043A21EE9C
:10052000014A20EE005A20EE036A60EE021A61EEE4
:10053000030A21EE027A20EE010A22EE031A22EECD
:10054000022A75EE042A35EE444A37EE465A37EE53
:10055000066A31EE407A30EE010A71EEA03A70EE92
:10056000E10A23EE031A32EEC23A74EE021A34EEB6
:10057000422A35EE054A33EEA35A36EE066A37EEC6
:10058000077A70EEA00A30EE000A33EE413A71EEBF
:10059000C11A32EE011A8DED064A8DED075A8DED26
:1005A000086A8DED0A7ACDED0B0A8DED0C0A8DED02
:1005B000053ACDED091A8DED0D1A5DF065F99DED49
:1005C000010A9DED021A9DED032A9DED043A0EA845
:1005D00005A921EE014A20EE005A20EE036A60EEE2
:1005E000021A61EE030A21EE027A20EE010A22EEDF
:1005F000031A22EE022A75EE042A35EE444A37EE3B
:10060000465A37EE066A31EE407A30EE010A71EE54
:10061000A03A70EEE10A23EE031A32EEC23A74EE0B
:10062000021A34EE422A35EE054A33EEA35A36EE6C
:10063000066A37EE077A70EEA00A30EE000A33EE53
:10064000413A71EEC11A32EE011A8DED064A8DED76
:10065000075A8DED086A8DED0A7ACDED0B0A8DED06
:100660000C0A8DED053ACDED091A8DED0D1A5DF0F0
:100670000BF99DED010A9DED021A9DED032A9DEDFA
:10068000043A0EA805A921EE014A20EE005A20EEF8
:10069000036A60EE021A61EE030A21EE027A20EE8E
:1006A000010A22EE031A22EE022A75EE042A35EE22
:1006B000444A37EE465A37EE066A31EE407A30EE5B
:1006C000010A71EEA03A70EEE10A23EE031A32EE4F
:1006D000C23A74EE021A34EE422A35EE054A33EE7F
:1006E000A35A36EE066A37EE077A70EEA00A30EEAD
:1006F000000A33EE413A71EEC11A32EE011A8DED65
:10070000064A8DED075A8DED086A8DED0A7ACDED1A
:100710000B0A8DED0C0A8DED053ACDED091A8DED24
:100720000D1A5DF0B1F805A9304619F0FBF995ED09
:10073000020A9DED051A9DED062A9DED073A46F247
:10074000A0102246C0F6060030EE410A87ED0E0AE0
:1007500095ED030A30EE420A87ED0F0A95ED040A83
:1007600030EE430A87ED100A396800F021FF0120BE
:1007700011B0F0BD2DE9F04F81B02DED0E8B96B08C
:1007800046F28000C0F6060001F032F841F2C06681
:10079000C2F20006706046F2B000C0F6060001F03A
:1007A00027F8B06046F27000C0F6060001F020F8AD
:1007B000F06046F2A01006F13001C0F6060000F02D
:1007C00049FE306008A841F6D01A45F2607B40F23D
:1007D00020599FEDBC8A9FEDBC9A9FEDBCAA0DF1FC
:1007E0005705B7EE00BA2030C2F2000AC2F2000B81
:1007F000C2F20009029006F11000019003E000BF70
:10080000012049F047FE002029468DF85700706806
:1008100001F0E2F99DF857000028F1D046F280007F
:1008200071685246C0F6060001F0C4F811F018F8DD
:100830000246CDE912210298CDE903129AED053A5C
:100840009AED074A9AED085A9AED096A9AED0A7AE2
:100850009AED020A9AED031A9AED042AC0E90021E2
:10086000584608A923EE083A24EE094A27EE087AEA
:1008700025EE095A26EE096A23EE011A23EE000A34
:1008800023EE022A27EE044A27EE055A27EE066ACF
:100890008DED0E3A8DED0F7A8DED091A8DED080A6A
:1008A0008DED0A2A8DED0B4A8DED0C5A8DED0D6AFA
:1008B00012F026FB504612A9FFF70CFEB06829463D
:1008C00001F08AF99DF8570000287AD041F610040B
:1008D00046F2B000B168C2F20004C0F6060022463B
:1008E00001F068F8A16A99F8000019B1C72805D885
:1008F000013001E010B1013889F8000041F6100123
:1009000099F8010099ED0E0A99ED0F1A99ED102A48
:100910004FF47A720023C2F2000191ED043A91ED96
:10092000054A91ED065A441CD1E9000189F80140BD
:1009300033EE00CA34EE01EA35EE02DA89ED0ECA72
:1009400089ED0FEA89ED10DA57F0E7FED9F8282093
:10095000E4B200238018D9F82C20C9F828005141AE
:100960002246C9F82C1057F0D8FE0746D9F80400E3
:10097000381A062825DB00EE104A05A8B8EE400A12
:1009800000904FF47A708BEE000A87FB00235846E4
:1009900020EE0E1A20EE0C2A20EE0D0A8DED061A1E
:1009A0008DED052A8DED070A12F09EFD0020C9E9A4
:1009B0000A00C9F8047089F80100C9E90E00C9F8F5
:1009C0004000F068294601F007F99DF8570000281B
:1009D0004BD046F27000F168019AC0F6060000F0B4
:1009E000E9FF99F8020099ED020A96ED091A4FF411
:1009F0007A720023441CD6E9040131EE00CA89F85A
:100A0000024089ED02CA57F088FED9F830205FFA1B
:100A100084F800238018D9F83420C9F830005141F7
:100A20004246C9F8341057F078FE0746D9F80C0052
:100A3000381A062819D396ED080A01EE108A4FF4E9
:100A40007A715846B8EE411AA7FB012320EE0A0A34
:100A500080EDBC0A8CEE010A13F046F80020C9E9CB
:100A60000C0089F80200C9E9020758460EF0C8FFD9
:100A7000D9E9067457EA040018D0D9E904019AEDBF
:100A800005CA62F0FAFE00EE100A3CEE000A10EE13
:100A9000100A62F073FF049A039BC9E90401D21B98
:100AA000A341101A63EB010106E000BFDDE903106A
:100AB000C9E90601002000210DF15705C9E9080127
:100AC0009EE600BFBD3786350AE81C4151574737BF
:100AD00080B584B044F25C73012004214FF480524D
:100AE000C2F20003CDE90032CDE9021048F28800DD
:100AF00048F6DC2140F275720023C2F20000C0F615
:100B00000601C0F6000249F077F900281CBF04B0C6
:100B100080BD48F28800C2F2000004B0BDE8804009
:100B200049F01CBA80B584B0022820DB486816A1C1
:100B300058F0E2F9D8B944F25C73012004214FF473
:100B40008052C2F20003CDE90032CDE9021048F232
:100B5000880048F6DC2140F275720023C2F20000E2
:100B6000C0F60601C0F6000249F046F910B10020B7
:100B700004B080BD48F28800C2F2000049F0EEF9EE
:100B8000002004B080BD00BF737461727400000067
:100B900070B547F2B03045F260740025C2F2000033
:100BA000C2F20004C0E9005520465AF023FF45F286
:100BB0002C704DF20A7184F8CC55C4F8C8554FF02A
:100BC0007E5604F5BF62C0F60600C3F62341083026
:100BD000206041F26F20C4F8D055C4F8D455C4F851
:100BE000D855C4F8DC55C4F8E055C4F8E455C4F849
:100BF000E865C4F8EC55C4F8F055C4F8F455C3F6EC
:100C0000034043C204F204606321C4F8685658F0FC
:100C10001EF904F5D9602121C4F86C66C4F8705639
:100C2000C4F87456C4F8786684F87C5684F89456F0
:100C3000C4F88056C4F88456C4F88856C4F88C5654
:100C4000C4F89056C4F89856C4F89C56C4F8A056F8
:100C5000C4F8A466C4F8A856C4F8AC56C4F8B05694
:100C6000C4F8B466C4F8B856C4F8BC56C4F8C05644
:100C7000C4F8C46658F0EBF804F5DE604C2158F077
:100C8000E6F804F5E860242158F0E1F804F2C470B5
:100C900040F6CD11C4F86467C4F86857C4F86C57BF
:100CA000C4F87057C4F87467C4F87857C4F87C5710
:100CB000C4F88057C4F8A057C4F8A45784F8A857BC
:100CC000A4F89857C4F88467C4F88857C4F88C57B8
:100CD000C4F89057C4F8945784F8BA57A4F8B85792
:100CE000C4F8B057C4F8B45784F8C257A4F8C05732
:100CF000C4F8BC5758F0ABF841F294103C212044A2
:100D000058F0A5F841F2D0104821265041F2D410F5
:100D1000204458F09CF841F22C2049F28061255083
:100D200041F22820C0F29801255041F2242025509C
:100D30004FF49150255041F23020265041F234209A
:100D4000215041F238202D21255441F258202550C0
:100D500041F25420255041F25020255041F24C20C0
:100D6000255041F24820255041F2442025504FF4AF
:100D70009250255004F5935058F069F841F29020B4
:100D80003121204458F063F841F2C420255441F247
:100D9000C220215A01F47C41215241F2C820242171
:100DA000204458F054F844F2000141F23430255008
:100DB00041F2EC20C4F21C61215041F238301F2175
:100DC000255041F23C3025504FF49850255441F2C3
:100DD000FC20255041F2F820255041F2F420255006
:100DE00041F2F020255041F21030255441F20C30F0
:100DF000255041F20830255041F20430255041F28F
:100E00001430204458F023F84CF28D0040F20002D8
:100E10002146C0F60500C0F60002BDE8704057F05C
:100E200085BE00002DE9F04F81B02DED088B88B014
:100E300010F016FD80468B4606F07EFF20B106A816
:100E400004A906F08DFFB0B309F012F9002800F0F4
:100E5000E180684609F022F9002840F0DB8010F0BC
:100E6000FFFC41F65002062741F62023C2F20002A1
:100E7000C2F2000342F8300F97625160DDE90017BB
:100E8000DDE90265C2E9047695615162C3E90B07A9
:100E900040F27050C3E90D65C2F20000816846F26D
:100EA000B000C0F6060000F083FB09F0D3FB002879
:100EB00040F0B480F6E010F0D3FC40F6E0170122D9
:100EC000BDF91A30BDF91C6041F6202440F6902A85
:100ED00040F2705902259FED7F3AB0EE084A9FED2F
:100EE0007E8A9FED7E9AC2F20007C2F20004C2F22F
:100EF000000AC2F20009FA63BDF9182000EE103AA8
:100F000002EE106AC7E90001CAF83C50A061CAE9C4
:100F10000001D9E9060101EE102AA7F84020A7F840
:100F20004230A7F84460B8EEC22AB8EB0000B8EE31
:100F3000C11AB8EEC00ABDF9122022EE032ABDF98B
:100F400010506BEB010121EE031A20EE030A22EE92
:100F5000042AAAF8422003EE102ABDF9142021EE3B
:100F6000041A20EE040AAAF8405084ED071A84ED12
:100F7000080A84ED092A04EE102AAAF84420B8EEE3
:100F8000C44AB8EEC33A87ED061A87ED070A87ED23
:100F9000082A24EE084A23EE083A84EE09AA83EED2
:100FA00009BA62F06AFC01EE105A9FED4D0A3A460A
:100FB000B8EEC11AC9E9068BA06221EE081A8AEEC2
:100FC000002AD9F8001081EE091A81EE001A8BEE82
:100FD000000A84ED021A84ED030A84ED042A60619C
:100FE00046F260008AED061A8AED070A8AED082AA1
:100FF000C0F6060000F0DCFA46F2A000D9F80410B2
:101000005246C0F6060000F0D3FA09F031F8002885
:101010007FF41FAF09F01EFB002843D040F270564A
:10102000C2F2000606F1380006F1300109F026FB95
:10103000C0BB10F015FC9FED2B0A96ED0C1A9FED2E
:101040002A2ADFED2B0A07460C4621EE000A9FED07
:10105000271A20EE020A80EE010A60F0EBFA9FEDFB
:10106000251A9FED252A9FED253A46F8207F072176
:1010700041F620207460F161C2F20000324600EEB9
:10108000012AC76382EE030A86ED050A80ED100A85
:10109000B169416446F2700056F8141CC0F60600AF
:1010A00000F086FA40F2705041F62022C2F20000B1
:1010B000C2F20002016946F28000C2E9008BC0F66C
:1010C000060000F075FA08B0BDEC088B01B0BDE871
:1010D000F08F00BF00000038CDCC744100007A448E
:1010E000CDCC64420000C8426F12833A67A6CA4260
:1010F00085DC423E33139043331390C3F4FDD4BBDD
:10110000B0B584B0002041F62021039046F2800063
:10111000C2F20001C0F6060000F09CF940F27054E3
:10112000C2F20004206146F2700004F12001C0F612
:10113000060000F08FF940F6E011E06046F2600032
:10114000C0F60600C2F2000100F084F940F69021DA
:10115000206046F2A000C0F60600C2F2000100F0D6
:1011600079F941F65005606046F2B000C2F2000520
:10117000C0F6060005F1300100F06CF9A0604034C3
:1011800014A10022204644F0C3F941F2F5120620D2
:1011900001210023CDE9001012A1C0F6000228466B
:1011A00049F0B0FA284649F0BBFB03AD02E000BFAE
:1011B000FFF738FE2046012106224FF0FF3300954D
:1011C00044F084FB0028F5D19DF80C00C007F1D055
:1011D000EEE700BF73656E736F7275706461746162
:1011E0000000000073656E736F725F636F6C6C65F7
:1011F0006374000040F270500121C2F200004030E0
:1012000044F0E2BA80B584B048F28813012003218B
:101210004FF40062C2F20003CDE90032CDE90210C2
:1012200048F208104BF6B54141F201120023C2F218
:101230000000C0F60601C0F6000248F0DDFD0028FF
:101240001CBF04B080BD48F20810C2F2000004B018
:10125000BDE8804048F082BE80B584B0022820DB23
:10126000486816A157F048FED8B948F28813012003
:1012700003214FF40062C2F20003CDE90032CDE950
:10128000021048F208104BF6B54141F2011200235A
:10129000C2F20000C0F60601C0F6000248F0ACFD44
:1012A00010B1002004B080BD48F20810C2F2000066
:1012B00048F054FE002004B080BD00BF737461721A
:1012C000740000000020704780B5022804DB4868E5
:1012D00003A157F011FE08B1002080BD00F004F812
:1012E000737461727400000080B500BF4FF4FA702F
:1012F00049F0D0F8FAE7000010B545F6782E4FF027
:10130000000C002BC0F6060E0EF108040EF11C0EA8
:10131000C0E90041C0E9022CC0E904CEC0F818C001
:101320001EBF59688161586010BD00BF10B50446EA
:101330000A46216921B16068BDE8104000F038B963
:10134000A068002801DD206110BD6068114600F032
:1013500081F8002818BF206110BD00BF45F6682342
:101360004FF0000CC0F606030833C0E90031C0E9B5
:10137000022CC0F810C0704710B5044645F668202E
:10138000C0F6060008302060206900F0E7F820462B
:1013900010BD5DF029FF00BF10B5044645F668207A
:1013A000C0F6060008302060206900F0D7F820461B
:1013B000BDE810405DF0C9BE5DF016FF40F2D050B0
:1013C000C2F20000007800280CBF4FF0FF3042F05E
:1013D000A3BC7047411C08BF704740F2D051C2F215
:1013E0000001097809B142F09BBC704710B5044672
:1013F000DCB140F2D050C2F200000078002808BFF3
:1014000010BD206A4FF0FF3143F0BCFB022809D821
:101410004FF6F871C0F2FF0101EAC000012121FA84
:1014200000F000E0002084F8240010BD10B5044650
:10143000002C08BF10BD40F2D050C2F2000000786E
:1014400038B1206A43F07CFC002804BF002084F8F7
:10145000240010BD2DE9F04706468A46306801F0A9
:1014600025FF0446601C51D047F2BC7940F2D058A9
:10147000C2F20009C2F2000859F8245098F800009E
:10148000002D18BF002845D10021002829775DD004
:1014900042F042FC59F8245007462868766830B973
:1014A00030465DF05BFE286059F824000068514624
:1014B000324657F023FC781C05D098F8000010B194
:1014C000384642F02DFC59F82450AC6010F0C8F9B1
:1014D00059F8242001231377C2E90A0148F086FC59
:1014E00059F824402821FF22606B57F086FC54B144
:1014F00098F8000038B1206A43F022FC002804BFAD
:10150000002084F824002846BDE8F08700252846FE
:10151000BDE8F087286A4FF0FF3143F033FB022823
:1015200009D84FF6F871C0F2FF0101EAC0000121AD
:1015300021FA00F000E0002085F8240059F824503A
:1015400098F80000002100282977A1D14FF0FF373B
:10155000286876680028AAD1A2E700BF002070475B
:10156000F0B581B00D4607461C461646286828B1DE
:101570003846324601B0BDE8F04019E0386801F065
:1015800095FE01F0D7F908B1286808E038463146E1
:10159000FFF760FF002C28601CBF002121600021A4
:1015A000002808BF4FF0FF31084601B0F0BD00BF72
:1015B0002DE9F04706469246306801F077FE044672
:1015C000601C04BF4FF0FF30BDE8F08747F2BC79E4
:1015D00040F2D058C2F20009C2F2000859F8245073
:1015E00098F80000002D18BF002809D1002100281C
:1015F000297721D042F090FB59F8245007461DE08E
:10160000286A4FF0FF3143F0BDFA022809D84FF69F
:10161000F871C0F2FF0101EAC000012121FA00F0D7
:1016200000E0002085F8240059F8245098F80000C4
:10163000002100282977DDD14FF0FF377268286834
:10164000514657F05BFB781C05D098F8000010B1AC
:10165000384642F065FB59F82400846010F000F928
:1016600059F8242001231377C2E90A012821506B7D
:10167000FF2257F0C2FB47F600512001C2F20001E1
:101680000A68B2EB041F1CD00A69824219D00A6AA8
:10169000824216D00A6B824213D00A6C824210D06A
:1016A0000A6D82420DD00A6E82420AD00A6F8242CF
:1016B00007D0D1F88020824203D0D1F89010814227
:1016C00002D1012100F016F859F824400020002C26
:1016D00008BFBDE8F08798F8001041B1206A43F0D8
:1016E0002FFB01460020002908BF84F82400BDE834
:1016F000F08700BF2DE9F04140F2D05806460C4675
:10170000C2F2000898F8000018B142F005FB054647
:1017100001E04FF0FF3547F60057C2F20007386886
:10172000B04204D1B86810B143F00AFBFC803869BC
:10173000B04204D1B86910B143F002FBFC82386AB0
:10174000B04204D1B86A10B143F0FAFAFC84386BA5
:10175000B04204D1B86B10B143F0F2FAFC86386C99
:10176000B04205D1B86C18B143F0EAFAA7F8464088
:10177000386DB04205D1B86D18B143F0E1FAA7F861
:101780005640386EB04205D1B86E18B143F0D8FA61
:10179000A7F86640386FB04205D1B86F18B143F072
:1017A000CFFAA7F87640D7F88000B04206D1D7F834
:1017B000880018B143F0C4FAA7F88640D7F8900023
:1017C000B04206D1D7F8980018B143F0B9FAA7F89B
:1017D0009640681C08BFBDE8F08198F8000020B171
:1017E0002846BDE8F04142F09BBABDE8F08100BF59
:1017F00070B5002865D00068002862D001F056FD61
:1018000004466C2C5DD848F0F1FA40F2D0560546FB
:10181000C2F20006307800280CBF4FF0FF3042F0D3
:101820007BFA47F2BC71C2F2000151F82410096B37
:101830000A68AA424BD0013247D00A4652F8043F08
:10184000AB4244D0013341D00A4652F8083FAB4284
:101850003DD001333AD00A4652F80C3FAB4236D065
:10186000013333D00A4652F8103FAB422FD0013338
:101870002CD00A4652F8143FAB4228D0013325D071
:101880000A4652F8183FAB4221D001331ED00A4617
:1018900052F81C3FAB421AD0013317D00A4652F817
:1018A000203FAB4213D0013310D051F8242FAA426D
:1018B0000DD001320A4609D04FF0FF34411C09D146
:1018C0000CE04FF0FF34204670BD0A46156024013D
:1018D000411C03D0317809B142F022FA204670BD94
:1018E00070B500281CDB06096C2E19D848F07EFA6A
:1018F00040F2D0550446C2F20005287800280CBFFB
:101900004FF0FF3042F008FA47F2BC71C2F200011A
:1019100051F82610096B0A68A24205D10A4630E048
:101920004FF0FF31084670BD0A4652F8043FA3420B
:1019300027D00A4652F8083FA34222D00A4652F85E
:101940000C3FA3421DD00A4652F8103FA34218D0C4
:101950000A4652F8143FA34213D00A4652F8183FE1
:10196000A3420ED00A4652F81C3FA34209D00A46B1
:1019700052F8203FA34204D051F8242FA2420A4635
:101980000DD14FF0FF311160411C4FF000010FD01D
:101990002A786AB142F0C4F90021084670BD411CA2
:1019A0004FF0000104D02A7812B142F0B9F90021B9
:1019B000084670BD2DE9F04F81B0064690460D46B1
:1019C000306801F073FC04464FF0FF3B601C00F0F0
:1019D000FF802811844240F0FB8047F2BC7A40F23D
:1019E000D059C2F2000AC2F200095AF82450C5B117
:1019F00099F80000A8B1286A4FF0FF3143F0C2F80F
:101A0000022809D84FF6F871C0F2FF0101EAC000C0
:101A1000012121FA00F000E0002085F824005AF8A6
:101A200024502868D8B348F0E1F95AF824104A6BDA
:101A30001368013349D0134653F8047F01371EBFA2
:101A4000134653F8087F17F101073FD0134653F8A8
:101A50000C7F01371EBF134653F8107F17F10107A3
:101A600034D0134653F8147F01371EBF134653F882
:101A7000187F17F1010729D0134653F81C7F01374F
:101A80001EBF134653F8207F17F101071ED052F8EE
:101A9000243F0133134619D04FF0FF3B33E04FF0A2
:101AA000FF3B002D00F0948099F80000002800F022
:101AB0008F80286A43F044F9002804BF002085F88D
:101AC0002400584601B0BDE8F08F1346186099F81D
:101AD000000028B142F020F95AF82410054601E030
:101AE0004FF0FF3572680968404657F007F9681CE7
:101AF0004FF0000B07D099F8000020B1284642F0C3
:101B00000FF94FF0000B5AF82450D5E90C2092E859
:101B10004A0002F10C0E9EE81054D2F81C804F1CB3
:101B2000591C18BF0121002F18BF0131731C18BFA9
:101B30000131631C18BF01311AF1010318BF0131D3
:101B40001CF1010318BF01311EF1010300F10C0E5D
:101B500018BF013118F1010318BF0131D2E9083271
:101B6000013318BF0131013218BF013190E88C00F8
:101B70009EE84054D0F81C80541C5A1C18BF012207
:101B8000002C18BF01327B1C18BF0132731C18BF18
:101B900001321AF1010318BF01321CF1010318BF11
:101BA00001321EF1010318BF013218F1010318BF01
:101BB0000132D0E90830013318BF0132013018BFBB
:101BC00001328A42A4BF00202877002D7FF46CAF39
:101BD000584601B0BDE8F08F2DE9F0410C46B0F158
:101BE000FF3F02DDB0F5DA6F05D3002020704FF023
:101BF000FF30BDE8F08147F2BC77060940F2D058CB
:101C0000C2F20007C2F2000857F82650B5B198F8A2
:101C1000000098B1286A4FF0FF3142F0B3FF02286C
:101C200009D84FF6F871C0F2FF0101EAC0000121A6
:101C300021FA00F000E0002085F8240048F0D6F8F2
:101C400057F82660716B0A68824232D04A68824235
:101C50002FD08A6882422CD0CA68824229D00A6971
:101C6000824226D04A69824223D08A69824220D0A9
:101C7000CA6982421DD00A6A82421AD0496A8142E8
:101C800017D0307FA8B10120207098F800000028FC
:101C900004BF0020BDE8F081306A43F051F80146EE
:101CA0000020002904BF86F82400BDE8F081BDE8CB
:101CB000F0810020002E20704FF0FF3008BFBDE8FB
:101CC000F08198F8001069B1306A43F039F80028C3
:101CD0001CBF4FF0FF30BDE8F081002086F82400E3
:101CE0004FF0FF30BDE8F08102464FF0FF30131196
:101CF0006C2B13D802F00F02062A88BF704747F2F8
:101D0000BC70C2EBC202C2F2000050F8230000EB2C
:101D1000C200D0E90A02C1E900020020704700BFFA
:101D2000B0B500680C4601F0C1FA05466C2D05D827
:101D3000284600F0FFFD012C03DB10B94FF0FF3007
:101D4000B0BD47F2BC70C4EBC401C2F2000050F851
:101D5000250050F83120002A1FBF00EBC100806829
:101D600010F10100002018BFB0BD4FF0FF30B0BD32
:101D700070B50546286801F099FA04466C2C0FD816
:101D8000204600F0D7FD47F2BC70C2F2000050F8C8
:101D90002400016821B18068441C18BF012400E0C0
:101DA0000024286801F082FA06466C2E0FD83046CF
:101DB00000F0C0FD58B147F2BC70C2F2000050F80C
:101DC0002600816B19B1006C013018BF01342868FE
:101DD00001F06CFA06466C2E0FD8304600F0AAFDD2
:101DE00058B147F2BC70C2F2000050F82600016FF3
:101DF00019B1806F013018BF0134286801F056FA1C
:101E000006466C2E11D8304600F094FD68B147F2BA
:101E1000BC70C2F2000050F82600D0F8A81021B122
:101E2000D0F8B000013018BF0134286801F03EFA44
:101E300006466C2E11D8304600F07CFD68B147F2A2
:101E4000BC70C2F2000050F82600D0F8E01021B1BA
:101E5000D0F8E800013018BF0134286801F026FAF4
:101E600006466C2E11D8304600F064FD68B147F28A
:101E7000BC70C2F2000050F82600D0F8181121B151
:101E8000D0F82001013018BF0134286801F00EFAA3
:101E900005466C2D11D8284600F04CFD68B147F27C
:101EA000BC70C2F2000050F82500D0F8501121B1EA
:101EB000D0F85801013018BF0134204670BD00BF72
:101EC00002464FF0FF3013116C2B11D802F00F02B5
:101ED000062A88BF704747F2BC70C2EBC202C2F24A
:101EE000000050F8230000EBC200406808600020AA
:101EF000704700BF02464FF0FF3013116C2B11D812
:101F000002F00F02062A88BF704747F2BC70C2EB8E
:101F1000C202C2F2000050F8230000EBC20200200F
:101F2000C2E90410704700BF02464FF0FF301311A2
:101F30006C2B11D802F00F02062A88BF704747F2B7
:101F4000BC70C2EBC202C2F2000050F8230000EBEA
:101F5000C200006908600020704700BF70B582B001
:101F600040F2D05548F6E12138204FF0805241F63A
:101F70008C13C2F200050090C0F60601281D46F041
:101F800087FE04464CB148F6E6202146C0F606001E
:101F900045F02EFD204602B070BD41F6C00048F667
:101FA000FE2141F68C12282641F2BC23C2F2000029
:101FB000C0F60601C1F20002009646F069FE48F63E
:101FC000FA2142F6484205F13C0041F2BC2300965A
:101FD000C0F60601C1F2000246F05AFE204602B0E9
:101FE00070BD00BF2DE9F04F87B040F2D05A0021FC
:101FF0004FF0805241F68C13C2F2000A504600F8AE
:10200000041B3821009148F6E121C0F6060146F094
:102010003FFE014649B148F6E620C0F6060045F00D
:10202000E7FCC8A045F0E4FC20E041F6C00048F61B
:10203000FE2141F68C12282541F2BC23C2F2000099
:10204000C0F60601C1F20002009546F021FE48F6F6
:10205000FA2142F648420AF13C0041F2BC230095C5
:10206000C0F60601C1F2000246F012FE48F6F7275C
:1020700047F6005546F670790DF106044FF0FF382B
:102080004FF0000B0022C0F60607C2F20005C6F6AC
:102090006C4920463946C5F80080CDE905BBCDF82E
:1020A000109056F0CBFB04AE2146304656F01AFE97
:1020B00030460021002242F0A1FCA86020463946AB
:1020C0000122A5F806B0C5F81080ADF818B0CDE92A
:1020D000049B56F0B3FB3046214656F003FE3046D3
:1020E0000021002242F08AFCA861204639460222E3
:1020F000A5F816B0C5F82080ADF818B0CDE9049B5E
:1021000056F09CFB3046214656F0ECFD304600214F
:10211000002242F073FCA862204639460322A5F84B
:1021200026B0C5F83080ADF818B0CDE9049B56F064
:1021300085FB3046214656F0D5FD30460021002271
:1021400042F05CFCA863204639460422A5F836B06C
:10215000C5F84080ADF818B0CDE9049B56F06EFB91
:102160003046214656F0BEFD30460021002242F0A6
:1021700045FCA864204639460522A5F846B0C5F8B6
:102180005080ADF818B0CDE9049B56F057FB3046AF
:10219000214656F0A7FD30460021002242F02EFCD9
:1021A000A865204639460622A5F856B0C5F86080D5
:1021B000ADF818B0CDE9049B56F040FB30462146FF
:1021C00056F090FD30460021002242F017FCA86630
:1021D000204639460722A5F866B0C5F87080ADF8EC
:1021E00018B0CDE9049B56F029FB3046214656F045
:1021F00079FD30460021002242F000FCA86720460D
:1022000039460822A5F876B0C5F88080ADF818B038
:10221000CDE9049B56F012FB3046214656F062FD94
:1022200030460021002242F0E9FBC5F88800204634
:1022300039460922A5F886B0C5F89080ADF818B0E7
:10224000CDE9049B56F0FAFA3046214656F04AFD95
:1022500030460021002242F0D1FB47F2BC7841F623
:10226000C004C5F89800A5F896B00AF104070AF171
:102270003C050026C2F20008C2F2000438460121E3
:1022800046F036FF48F826003046002102F04EFAAC
:1022900058F826100DF10609324608604B2158F80F
:1022A000260041604FF0FF318160C0E904BBC0F8F7
:1022B00018B048F6F72158F82600C0F6060180F855
:1022C0001CB046F27350CDE905BBC0F26D0004901E
:1022D000484656F0B3FA0DF1100A4946504656F0FA
:1022E00001FD50460121002242F088FB58F82610DB
:1022F0000862012158F82600C0E90ABB80F824B022
:10230000284646F0F5FE58F82610086320460121BD
:1023100046F0EEFE58F82610FF224863282158F8B0
:102320002600006B56F069FD58F826002821FF2290
:10233000406B56F062FD01366D2E9FD1002007B034
:10234000BDE8F08F63636D72616D20696E69742002
:102350006661696C656400002DE9F04F81B041F65B
:10236000702040F2506700243021C2F20000C2F217
:1023700000072830C7E90044C7E9024456F067FD6A
:1023800041F240105021C2F2000056F060FD41F2CF
:1023900090105021C2F2000056F059FD40F6D0587E
:1023A0003821C2F20008404656F051FD40F6302672
:1023B00041F2D0593021C2F20006C2F20009304683
:1023C000C9E90644C9E90844C9E90A44C9E90C4411
:1023D00056F03DFD06F13000302156F038FD41F653
:1023E00078304FF46E71C9E90E44C9E91044C9E967
:1023F0001244C9E91444C7E90444C7E90644C7E9DB
:102400000844C7E90A44C2F2000056F020FD41F238
:10241000207B41F63070E021C7E90C44C7E90E4447
:10242000C2F2000BC2F20000CBE90044CBE9024447
:10243000CBE90444CBE90644C9E91644C9E9184488
:10244000C9E91A44C9E91C4456F001FD42F21000E2
:102450009021C2F2000056F0FAFC42F2A000E02106
:10246000C2F2000056F0F3FC40F6E02640F6B065FC
:102470003021C2F20006C2F200053046C5E914441C
:10248000C5E91644C5E9184456F0E1FC42F2801053
:102490004FF4C871C2F2000056F0D9FC42F210307D
:1024A00040F68801C2F2000056F0D1FC42F69830A6
:1024B0004FF48871C2F2000056F0C9FC06F13000FA
:1024C00041F240263021C7E91044C7E91244C2F264
:1024D0000006C6E90044C6E90244C6E9044456F0D1
:1024E000B6FC08F13800382156F0B1FC40F64068DF
:1024F0003821C2F20008404656F0A9FC41F2E01033
:102500005821C6E90644C6E90844C6E90A44C7E9B1
:102510001444C7E91644C2F2000056F098FC42F693
:10252000A840C021C2F2000056F091FC42F668506B
:102530004FF4E871C2F2000056F089FC08F138004F
:10254000382156F084FC41F250004821C2F20000CC
:1025500056F07DFC42F638708821C7E91844C7E977
:102560001A44C2F2000056F072FC40F6907040210E
:10257000C2F2000056F06BFC40F6D0704021C2F26F
:10258000000056F064FC40F620703821C6E90C4487
:10259000C6E90E44C6E91044C2F2000056F057FCEA
:1025A00041F600102821C6E91A44C6E91C44C6E9D0
:1025B0001244C6E91444C6E91644C6E91844C2F2F6
:1025C000000056F044FC40F6403741F2604840F6C7
:1025D000701A3021C2F20007C2F20008C2F2000AEB
:1025E0003846C8E90044C8E90244C8E90444CAE9D5
:1025F0000044CAE90244CAE90444CAE9064456F060
:1026000026FC07F13000302156F021FC41F28030E9
:102610006821CAE90844CAE90A44C2F2000056F037
:1026200016FC42F6C0704FF4A471C2F2000056F0DE
:102630000EFC43F208104FF4D071C8E90644C8E913
:102640000844C8E90A44C2F2000056F000FC43F214
:10265000A8208021C2F2000056F0F9FB43F2283096
:102660008021C2F2000056F0F2FB41F2F0307021FE
:10267000CAE90C44CAE90E44C2F2000056F0E7FB76
:1026800043F2A8304FF4FC71C2F2000056F0DFFBB9
:1026900043F2A050E021C2F2000056F0D8FB43F212
:1026A00080604FF4FC71C2F2000056F0D0FB43F69C
:1026B0007800C021C2F2000056F0C9FB43F6381082
:1026C0004FF4FC71C2F2000056F0C1FB43F630300B
:1026D0004FF4C471C2F2000056F0B9FB41F2A00001
:1026E0004821C8E91444C8E91644CAE91044CAE9B3
:1026F0001244CAE91444CAE91644C8E90C44C8E9BA
:102700000E44C8E91044C8E91244CBE90844CBE9B7
:102710000A44CBE90C44CBE90E44C2F2000056F067
:1027200096FB43F6B8404FF48C71C2F2000056F0AD
:102730008EFB41F210004021CAE91844CAE91A444C
:10274000C5E90044C5E90244C2F2000056F07FFB2F
:1027500040F6A0373021C2F20007384656F077FB2A
:1027600007F13000302156F072FB43F6D0504FF4A1
:102770008471C2F2000056F06AFB43F6D8604FF451
:102780008C71C5E90444C5E90644C2F2000056F064
:102790005EFB40F620703821C2F20000383056F05F
:1027A00056FB41F2F0004821C5E90844C5E90A4456
:1027B000C2F2000056F04BFB43F6F0704FF4287164
:1027C000CBE91044CBE91244CBE91444CBE91644DD
:1027D000C8E91844C8E91A44C8E91C44C2F2000018
:1027E00056F035FB41F2E04741F2C0206021C2F2D1
:1027F0000007C2F20000C7E90044C7E90244C7E984
:10280000044456F024FB44F218304FF46E71C5E9CD
:102810000C44C5E90E44C2F2000056F018FB40F625
:1028200000463021C2F20006304656F010FB41F659
:1028300000182821C7E90644C7E90844C7E90A4443
:10284000C2F2000808F1280056F001FB06F1300042
:10285000302156F0FCFA40F660463021C5E91044BC
:10286000C5E91244C7E91444C7E91644C7E90C4452
:10287000C7E90E44C7E91044C7E91244C2F2000692
:10288000304656F0E4FA06F13000302156F0DFFA17
:1028900040F610563021C2F20006304656F0D7FA04
:1028A00006F13000302156F0D2FA40F67056302151
:1028B000C2F20006304656F0CAFA06F13000302166
:1028C00056F0C5FA44F290208821C7E91844C7E9B8
:1028D0001A44C7E91C44C9E90044C9E90244C9E9EA
:1028E0000444C2F2000056F0B2FA44F2D0608821EB
:1028F000C2F2000056F0ABFA41F220306021C2F281
:10290000000056F0A4FA08F15000282156F09FFA72
:1029100041F670202821C2F2000056F098FA01B06A
:10292000BDE8F08F40F2D0500121C2F200000170EA
:10293000704700BFA0F10B014D2900F22B80012050
:10294000DFE801F0272828282728282828282728F2
:1029500028282828282828282828282828282828F7
:1029600028282828282828282828282828282828E7
:1029700028282827272728272728282828282827DD
:1029800028282828282828272828282828272827CA
:10299000282770470020704706288EBF4FF0FF3071
:1029A00001A151F82000704701000000190000004B
:1029B000320000004B000000640000007D000000B9
:1029C000FF0000004A280CDD7C2819DC4B2804BFDE
:1029D00003207047642804BF042070474FF0FF3085
:1029E0007047012804BF00207047192804BF012048
:1029F0007047322804BF022070474FF0FF30704705
:102A00007D2804BF05207047FF2804BF06207047BB
:102A10004FF0FF30704700BF6C2800F27880DFE88D
:102A200010F06D00790082008B0094009D00A600DC
:102A3000AF00B800C100CA00D300DC00E500EE0022
:102A4000F7000001090112011B0124012D013601CB
:102A50003F01480151015A0163016C0175017E017A
:102A6000870190019901A201AB01B401BD01C6012A
:102A7000CF01D801E101EA01F301FC0105020E02D8
:102A800017022002290232023B0244024D02560282
:102A90005F02680271027A0283028C0295029E0232
:102AA000A702B002B902C202CB02D402DD02E602E2
:102AB000EF02F80201030A0313031C0325032E038C
:102AC00037034003490352035B0364036D0376033A
:102AD0007F03880391039A03A303AC03B503BE03EA
:102AE000C703D003D903E203EB03F403FD03060499
:102AF0000F04180421042A0433043C0445F6404022
:102B0000C0F6060002680846114656F052B800208A
:102B10000870704745F65040C0F606000268084647
:102B2000114656F046B845F6C040C0F606000268A9
:102B30000846114656F03DB845F6D040C0F60600AE
:102B400002680846114656F034B845F6E040C0F633
:102B5000060002680846114656F02BB845F6F040CC
:102B6000C0F6060002680846114656F022B845F63F
:102B70000050C0F6060002680846114656F019B823
:102B800045F61050C0F6060002680846114656F099
:102B900010B845F62050C0F60600026808461146F7
:102BA00056F007B845F64050C0F6060002680846E1
:102BB000114655F0FEBF45F63050C0F606000268DB
:102BC0000846114655F0F5BF45F65050C0F60600D0
:102BD00002680846114655F0ECBF45F66050C0F655
:102BE000060002680846114655F0E3BF45F67050EE
:102BF000C0F6060002680846114655F0DABF45F6F1
:102C00008050C0F6060002680846114655F0D1BF54
:102C100045F69050C0F6060002680846114655F089
:102C2000C8BF45F6A050C0F6060002680846114627
:102C300055F0BFBF45F6B050C0F606000268084622
:102C4000114655F0B6BF45F6C050C0F60600026802
:102C50000846114655F0ADBF45F6D050C0F6060007
:102C600002680846114655F0A4BF45F6E050C0F68C
:102C7000060002680846114655F09BBF45F6F05025
:102C8000C0F6060002680846114655F092BF45F6A8
:102C90000060C0F6060002680846114655F089BF7C
:102CA00045F61060C0F6060002680846114655F069
:102CB00080BF45F62060C0F606000268084611464F
:102CC00055F077BF45F63060C0F60600026808464A
:102CD000114655F06EBF45F64060C0F6060002682A
:102CE0000846114655F065BF45F65060C0F606002F
:102CF00002680846114655F05CBF45F66060C0F6B4
:102D0000060002680846114655F053BF45F670604C
:102D1000C0F6060002680846114655F04ABF45F65F
:102D20008060C0F6060002680846114655F041BFB3
:102D300045F69060C0F6060002680846114655F058
:102D400038BF45F6A060C0F6060002680846114686
:102D500055F02FBF45F6B060C0F606000268084681
:102D6000114655F026BF45F6C060C0F60600026861
:102D70000846114655F01DBF45F6D060C0F6060066
:102D800002680846114655F014BF45F6E060C0F6EB
:102D9000060002680846114655F00BBF45F6F06084
:102DA000C0F6060002680846114655F002BF45F617
:102DB0000070C0F6060002680846114655F0F9BEDC
:102DC00045F61070C0F6060002680846114655F038
:102DD000F0BE45F62070C0F60600026808461146AF
:102DE00055F0E7BE45F63070C0F6060002680846AA
:102DF000114655F0DEBE45F64070C0F6060002688A
:102E00000846114655F0D5BE45F65070C0F606008E
:102E100002680846114655F0CCBE45F66070C0F613
:102E2000060002680846114655F0C3BE45F67070AC
:102E3000C0F6060002680846114655F0BABE45F6CF
:102E40008070C0F6060002680846114655F0B1BE13
:102E500045F6B070C0F6060002680846114655F007
:102E6000A8BE45F6C070C0F60600026808461146C6
:102E700055F09FBE45F6D070C0F6060002680846C1
:102E8000114655F096BE45F6E070C0F606000268A1
:102E90000846114655F08DBE45F6F070C0F60600A6
:102EA00002680846114655F084BE46F20000C0F69E
:102EB000060002680846114655F07BBE46F2100037
:102EC000C0F6060002680846114655F072BE46F28A
:102ED0002000C0F6060002680846114655F069BE9B
:102EE00046F23000C0F6060002680846114655F06A
:102EF00060BE46F24000C0F6060002680846114671
:102F000055F057BE46F25000C0F60600026808466B
:102F1000114655F04EBE46F26000C0F6060002684B
:102F20000846114655F045BE46F27000C0F6060050
:102F300002680846114655F03CBE46F28000C0F6D5
:102F4000060002680846114655F033BE46F290006E
:102F5000C0F6060002680846114655F02ABE46F241
:102F6000A000C0F6060002680846114655F021BED2
:102F700046F2B000C0F6060002680846114655F059
:102F800018BE46F2C000C0F60600026808461146A8
:102F900055F00FBE46F2D000C0F6060002680846A3
:102FA000114655F006BE46F2E000C0F60600026883
:102FB0000846114655F0FDBD46F2F000C0F6060089
:102FC00002680846114655F0F4BD46F20010C0F6FE
:102FD000060002680846114655F0EBBD46F2101097
:102FE000C0F6060002680846114655F0E2BD46F2FA
:102FF0002010C0F6060002680846114655F0D9BDFB
:1030000046F23010C0F6060002680846114655F038
:10301000D0BD46F24010C0F60600026808461146D0
:1030200055F0C7BD46F25010C0F6060002680846CB
:10303000114655F0BEBD46F26010C0F606000268AB
:103040000846114655F0B5BD46F27010C0F60600B0
:1030500002680846114655F0ACBD46F28010C0F635
:10306000060002680846114655F0A3BD46F29010CE
:10307000C0F6060002680846114655F09ABD46F2B1
:10308000A010C0F6060002680846114655F091BD32
:1030900046F2C010C0F6060002680846114655F018
:1030A00088BD46F2E010C0F60600026808461146E8
:1030B00055F07FBD46F2D010C0F606000268084603
:1030C000114655F076BD46F2F010C0F606000268D3
:1030D0000846114655F06DBD46F20020C0F60600C8
:1030E00002680846114655F064BD46F21020C0F64D
:1030F000060002680846114655F05BBD46F23020D6
:10310000C0F6060002680846114655F052BD46F268
:103110004020C0F6060002680846114655F049BD39
:1031200046F25020C0F6060002680846114655F0E7
:1031300040BD46F26020C0F606000268084611460F
:1031400055F037BD46F28020C0F6060002680846FA
:10315000114655F02EBD46F29020C0F606000268DA
:103160000846114655F025BD46F2A020C0F60600DF
:1031700002680846114655F01CBD46F2B020C0F664
:10318000060002680846114655F013BD46F2C020FD
:10319000C0F6060002680846114655F00ABD46F220
:1031A000F020C0F6060002680846114655F001BD41
:1031B00046F20030C0F6060002680846114655F097
:1031C000F8BC45F66040C0F60600026808461146A5
:1031D00055F0EFBC45F67040C0F6060002680846A0
:1031E000114655F0E6BC45F68040C0F60600026880
:1031F0000846114655F0DDBC45F69040C0F6060085
:1032000002680846114655F0D4BC45F6A040C0F609
:10321000060002680846114655F0CBBC45F6B040A2
:10322000C0F6060002680846114655F0C2BC45F6D5
:103230009070C0F6060002680846114655F0B9BC09
:1032400045F6A070C0F6060002680846114655F023
:10325000B0BC46F27020C0F606000268084611466F
:1032600055F0A7BC46F2E020C0F60600026808460A
:10327000114655F09EBC46F22020C0F606000268BA
:103280000846114655F095BC46F2B010C0F606004F
:1032900002680846114655F08CBC46F2D020C0F6B4
:1032A000060002680846114655F083BC10B5044676
:1032B00045F64040C0F606000168204655F01CFE69
:1032C000002804BF002010BD45F65040C0F606009F
:1032D0000168204655F010FE002804BF012010BDF3
:1032E00045F6C040C0F606000168204655F004FED1
:1032F000002804BF022010BD45F6D040C0F60600ED
:103300000168204655F0F8FD002804BF032010BDD9
:1033100045F6E040C0F606000168204655F0ECFD99
:10332000002804BF042010BD45F6F040C0F606009A
:103330000168204655F0E0FD002804BF052010BDBF
:1033400045F60050C0F606000168204655F0D4FD51
:10335000002804BF062010BD45F61050C0F6060038
:103360000168204655F0C8FD002804BF072010BDA5
:1033700045F62050C0F606000168204655F0BCFD19
:10338000002804BF082010BD45F64050C0F60600D6
:103390000168204655F0B0FD002804BF092010BD8B
:1033A00045F63050C0F606000168204655F0A4FDF1
:1033B000002804BF0A2010BD45F65050C0F6060094
:1033C0000168204655F098FD002804BF0B2010BD71
:1033D00045F66050C0F606000168204655F08CFDA9
:1033E000002804BF0C2010BD45F67050C0F6060042
:1033F0000168204655F080FD002804BF0D2010BD57
:1034000045F68050C0F606000168204655F074FD70
:10341000002804BF0E2010BD45F69050C0F60600EF
:103420000168204655F068FD002804BF0F2010BD3C
:1034300045F6A050C0F606000168204655F05CFD38
:10344000002804BF102010BD45F6B050C0F606009D
:103450000168204655F050FD002804BF112010BD22
:1034600045F6C050C0F606000168204655F044FD00
:10347000002804BF122010BD45F6D050C0F606004B
:103480000168204655F038FD002804BF132010BD08
:1034900045F6E050C0F606000168204655F02CFDC8
:1034A000002804BF142010BD45F6F050C0F60600F9
:1034B0000168204655F020FD002804BF152010BDEE
:1034C00045F60060C0F606000168204655F014FD80
:1034D000002804BF162010BD45F61060C0F6060097
:1034E0000168204655F008FD002804BF172010BDD4
:1034F00045F62060C0F606000168204655F0FCFC49
:10350000002804BF182010BD45F63060C0F6060044
:103510000168204655F0F0FC002804BF192010BDBA
:1035200045F64060C0F606000168204655F0E4FC10
:10353000002804BF1A2010BD45F65060C0F60600F2
:103540000168204655F0D8FC002804BF1B2010BDA0
:1035500045F66060C0F606000168204655F0CCFCD8
:10356000002804BF1C2010BD45F67060C0F60600A0
:103570000168204655F0C0FC002804BF1D2010BD86
:1035800045F68060C0F606000168204655F0B4FCA0
:10359000002804BF1E2010BD45F69060C0F606004E
:1035A0000168204655F0A8FC002804BF1F2010BD6C
:1035B00045F6A060C0F606000168204655F09CFC68
:1035C000002804BF202010BD45F6B060C0F60600FC
:1035D0000168204655F090FC002804BF212010BD52
:1035E00045F6C060C0F606000168204655F084FC30
:1035F000002804BF222010BD45F6D060C0F60600AA
:103600000168204655F078FC002804BF232010BD37
:1036100045F6E060C0F606000168204655F06CFCF7
:10362000002804BF242010BD45F6F060C0F6060057
:103630000168204655F060FC002804BF252010BD1D
:1036400045F60070C0F606000168204655F054FCAF
:10365000002804BF262010BD45F61070C0F60600F5
:103660000168204655F048FC002804BF272010BD03
:1036700045F62070C0F606000168204655F03CFC77
:10368000002804BF282010BD45F63070C0F60600A3
:103690000168204655F030FC002804BF292010BDE9
:1036A00045F64070C0F606000168204655F024FC3F
:1036B000002804BF2A2010BD45F65070C0F6060051
:1036C0000168204655F018FC002804BF2B2010BDCF
:1036D00045F66070C0F606000168204655F00CFC07
:1036E000002804BF2C2010BD45F67070C0F60600FF
:1036F0000168204655F000FC002804BF2D2010BDB5
:1037000045F68070C0F606000168204655F0F4FBCF
:10371000002804BF2E2010BD45F6B070C0F606008C
:103720000168204655F0E8FB002804BF2F2010BD9B
:1037300045F6C070C0F606000168204655F0DCFB77
:10374000002804BF302010BD45F6D070C0F606003A
:103750000168204655F0D0FB002804BF312010BD81
:1037600045F6E070C0F606000168204655F0C4FB3F
:10377000002804BF322010BD45F6F070C0F60600E8
:103780000168204655F0B8FB002804BF332010BD67
:1037900046F20000C0F606000168204655F0ACFB7A
:1037A000002804BF342010BD46F21000C0F6060009
:1037B0000168204655F0A0FB002804BF352010BD4D
:1037C00046F22000C0F606000168204655F094FB42
:1037D000002804BF362010BD46F23000C0F60600B7
:1037E0000168204655F088FB002804BF372010BD33
:1037F00046F24000C0F606000168204655F07CFB0A
:10380000002804BF382010BD46F25000C0F6060064
:103810000168204655F070FB002804BF392010BD18
:1038200046F26000C0F606000168204655F064FBD1
:10383000002804BF3A2010BD46F27000C0F6060012
:103840000168204655F058FB002804BF3B2010BDFE
:1038500046F28000C0F606000168204655F04CFB99
:10386000002804BF3C2010BD46F29000C0F60600C0
:103870000168204655F040FB002804BF3D2010BDE4
:1038800046F2A000C0F606000168204655F034FB61
:10389000002804BF3E2010BD46F2B000C0F606006E
:1038A0000168204655F028FB002804BF3F2010BDCA
:1038B00046F2C000C0F606000168204655F01CFB29
:1038C000002804BF402010BD46F2D000C0F606001C
:1038D0000168204655F010FB002804BF412010BDB0
:1038E00046F2E000C0F606000168204655F004FBF1
:1038F000002804BF422010BD46F2F000C0F60600CA
:103900000168204655F0F8FA002804BF432010BD96
:1039100046F20010C0F606000168204655F0ECFAA9
:10392000002804BF442010BD46F21010C0F6060067
:103930000168204655F0E0FA002804BF452010BD7C
:1039400046F22010C0F606000168204655F0D4FA71
:10395000002804BF462010BD46F23010C0F6060015
:103960000168204655F0C8FA002804BF472010BD62
:1039700046F24010C0F606000168204655F0BCFA39
:10398000002804BF482010BD46F25010C0F60600C3
:103990000168204655F0B0FA002804BF492010BD48
:1039A00046F26010C0F606000168204655F0A4FA01
:1039B000002804BF4A2010BD46F27010C0F6060071
:1039C0000168204655F098FA002804BF4B2010BD2E
:1039D00046F28010C0F606000168204655F08CFAC9
:1039E000002804BF4C2010BD46F29010C0F606001F
:1039F0000168204655F080FA002804BF4D2010BD14
:103A000046F2A010C0F606000168204655F074FA90
:103A1000002804BF4E2010BD46F2C010C0F60600BC
:103A20000168204655F068FA002804BF4F2010BDF9
:103A300046F2E010C0F606000168204655F05CFA38
:103A4000002804BF502010BD46F2D010C0F606007A
:103A50000168204655F050FA002804BF512010BDDF
:103A600046F2F010C0F606000168204655F044FA10
:103A7000002804BF522010BD46F20020C0F6060008
:103A80000168204655F038FA002804BF532010BDC5
:103A900046F21020C0F606000168204655F02CFAC8
:103AA000002804BF542010BD46F23020C0F60600A6
:103AB0000168204655F020FA002804BF552010BDAB
:103AC00046F24020C0F606000168204655F014FA80
:103AD000002804BF562010BD46F25020C0F6060054
:103AE0000168204655F008FA002804BF572010BD91
:103AF00046F26020C0F606000168204655F0FCF949
:103B0000002804BF582010BD46F28020C0F60600F1
:103B10000168204655F0F0F9002804BF592010BD77
:103B200046F29020C0F606000168204655F0E4F900
:103B3000002804BF5A2010BD46F2A020C0F606009F
:103B40000168204655F0D8F9002804BF5B2010BD5D
:103B500046F2B020C0F606000168204655F0CCF9C8
:103B6000002804BF5C2010BD46F2C020C0F606004D
:103B70000168204655F0C0F9002804BF5D2010BD43
:103B800046F2F020C0F606000168204655F0B4F970
:103B9000002804BF5E2010BD46F20030C0F60600CB
:103BA0000168204655F0A8F9002804BF5F2010BD29
:103BB00045F66040C0F606000168204655F09CF9C5
:103BC000002804BF602010BD45F67040C0F6060016
:103BD0000168204655F090F9002804BF612010BD0F
:103BE00045F68040C0F606000168204655F084F98D
:103BF000002804BF622010BD45F69040C0F60600C4
:103C00000168204655F078F9002804BF632010BDF4
:103C100045F6A040C0F606000168204655F06CF954
:103C2000002804BF642010BD45F6B040C0F6060071
:103C30000168204655F060F9002804BF652010BDDA
:103C400045F69070C0F606000168204655F054F91C
:103C5000002804BF662010BD45F6A070C0F606001F
:103C60000168204655F048F9002804BF672010BDC0
:103C700046F27020C0F606000168204655F03CF977
:103C8000002804BF682010BD46F2E020C0F6060000
:103C90000168204655F030F9002804BF692010BDA6
:103CA00046F22020C0F606000168204655F024F9AF
:103CB000002804BF6A2010BD46F2B010C0F606000E
:103CC0000168204655F018F9002804BF6B2010BD8C
:103CD00046F2D020C0F606000168204655F00CF9E7
:103CE0004FF0FF31002808BF6C21084610BD00BF0F
:103CF00010B58EB00DF10601FEF78EFE9DF80600A0
:103D0000002800F00F8545F640440DF10600C0F68E
:103D10000604216855F0F0F8002800F0048545F607
:103D200050440DF10600C0F60604216855F0E4F891
:103D3000002800F0F88445F6C0440DF10600C0F6F6
:103D40000604216855F0D8F8002800F0EC8445F608
:103D5000D0440DF10600C0F60604216855F0CCF8F9
:103D6000002800F0E08445F6E0440DF10600C0F6BE
:103D70000604216855F0C0F8002800F0D48445F608
:103D8000F0440DF10600C0F60604216855F0B4F8C1
:103D9000002800F0C88445F600540DF10600C0F676
:103DA0000604216855F0A8F8002800F0BC8445F608
:103DB00010540DF10600C0F60604216855F09CF879
:103DC000002800F0B08445F620540DF10600C0F63E
:103DD0000604216855F090F8002800F0A48445F608
:103DE00040540DF10600C0F60604216855F084F831
:103DF000002800F0988445F630540DF10600C0F616
:103E00000604216855F078F8002800F08C8445F607
:103E100050540DF10600C0F60604216855F06CF808
:103E2000002800F0808445F660540DF10600C0F6CD
:103E30000604216855F060F8002800F0748445F607
:103E400070540DF10600C0F60604216855F054F8D0
:103E5000002800F0688445F680540DF10600C0F695
:103E60000604216855F048F8002800F05C8445F607
:103E700090540DF10600C0F60604216855F03CF898
:103E8000002800F0508445F6A0540DF10600C0F65D
:103E90000604216855F030F8002800F0448445F607
:103EA000B0540DF10600C0F60604216855F024F860
:103EB000002800F0388445F6C0540DF10600C0F625
:103EC0000604216855F018F8002800F02C8445F607
:103ED000D0540DF10600C0F60604216855F00CF828
:103EE000002800F0208445F6E0540DF10600C0F6ED
:103EF0000604216855F000F8002800F0148445F607
:103F0000F0540DF10600C0F60604216854F0F4FFE9
:103F1000002800F0088445F600640DF10600C0F6A4
:103F20000604216854F0E8FF002800F0FC8345F601
:103F300010640DF10600C0F60604216854F0DCFFA1
:103F4000002800F0F08345F620640DF10600C0F66D
:103F50000604216854F0D0FF002800F0E48345F601
:103F600030640DF10600C0F60604216854F0C4FF69
:103F7000002800F0D88345F640640DF10600C0F635
:103F80000604216854F0B8FF002800F0CC8345F601
:103F900050640DF10600C0F60604216854F0ACFF31
:103FA000002800F0C08345F660640DF10600C0F6FD
:103FB0000604216854F0A0FF002800F0B48345F601
:103FC00070640DF10600C0F60604216854F094FFF9
:103FD000002800F0A88345F680640DF10600C0F6C5
:103FE0000604216854F088FF002800F09C8345F601
:103FF00090640DF10600C0F60604216854F07CFFC1
:10400000002800F0908345F6A0640DF10600C0F68C
:104010000604216854F070FF002800F0848345F600
:10402000B0640DF10600C0F60604216854F064FF88
:10403000002800F0788345F6C0640DF10600C0F654
:104040000604216854F058FF002800F06C8345F600
:10405000D0640DF10600C0F60604216854F04CFF50
:10406000002800F0608345F6E0640DF10600C0F61C
:104070000604216854F040FF002800F0548345F600
:10408000F0640DF10600C0F60604216854F034FF18
:10409000002800F0488345F600740DF10600C0F6D4
:1040A0000604216854F028FF002800F03C8345F600
:1040B00010740DF10600C0F60604216854F01CFFD0
:1040C000002800F0308345F620740DF10600C0F69C
:1040D0000604216854F010FF002800F0248345F600
:1040E00030740DF10600C0F60604216854F004FF98
:1040F000002800F0188345F640740DF10600C0F664
:104100000604216854F0F8FE002800F00C8345F600
:1041100050740DF10600C0F60604216854F0ECFE60
:10412000002800F0008345F660740DF10600C0F62B
:104130000604216854F0E0FE002800F0F48245F601
:1041400070740DF10600C0F60604216854F0D4FE28
:10415000002800F0E88245F680740DF10600C0F6F4
:104160000604216854F0C8FE002800F0DC8245F601
:10417000B0740DF10600C0F60604216854F0BCFED0
:10418000002800F0D08245F6C0740DF10600C0F69C
:104190000604216854F0B0FE002800F0C48245F601
:1041A000D0740DF10600C0F60604216854F0A4FE98
:1041B000002800F0B88245F6E0740DF10600C0F664
:1041C0000604216854F098FE002800F0AC8245F601
:1041D000F0740DF10600C0F60604216854F08CFE60
:1041E000002800F0A08246F200040DF10600C0F69F
:1041F0000604216854F080FE002800F0948246F204
:1042000010040DF10600C0F60604216854F074FE97
:10421000002800F0888246F220040DF10600C0F666
:104220000604216854F068FE002800F07C8246F203
:1042300030040DF10600C0F60604216854F05CFE5F
:10424000002800F0708246F240040DF10600C0F62E
:104250000604216854F050FE002800F0648246F203
:1042600050040DF10600C0F60604216854F044FE27
:10427000002800F0588246F260040DF10600C0F6F6
:104280000604216854F038FE002800F04C8246F203
:1042900070040DF10600C0F60604216854F02CFEEF
:1042A000002800F0408246F280040DF10600C0F6BE
:1042B0000604216854F020FE002800F0348246F203
:1042C00090040DF10600C0F60604216854F014FEB7
:1042D000002800F0288246F2A0040DF10600C0F686
:1042E0000604216854F008FE002800F01C8246F203
:1042F000B0040DF10600C0F60604216854F0FCFD80
:10430000002800F0108246F2C0040DF10600C0F64D
:104310000604216854F0F0FD002800F0048246F203
:10432000D0040DF10600C0F60604216854F0E4FD47
:10433000002800F0F88146F2E0040DF10600C0F616
:104340000604216854F0D8FD002800F0EC8146F204
:10435000F0040DF10600C0F60604216854F0CCFD0F
:10436000002800F0E08146F200140DF10600C0F6CE
:104370000604216854F0C0FD002800F0D48146F204
:1043800010140DF10600C0F60604216854F0B4FDC7
:10439000002800F0C88146F220140DF10600C0F696
:1043A0000604216854F0A8FD002800F0BC8146F204
:1043B00030140DF10600C0F60604216854F09CFD8F
:1043C000002800F0B08146F240140DF10600C0F65E
:1043D0000604216854F090FD002800F0A48146F204
:1043E00050140DF10600C0F60604216854F084FD57
:1043F000002800F0988146F260140DF10600C0F626
:104400000604216854F078FD002800F08C8146F203
:1044100070140DF10600C0F60604216854F06CFD1E
:10442000002800F0808146F280140DF10600C0F6ED
:104430000604216854F060FD002800F0748146F203
:1044400090140DF10600C0F60604216854F054FDE6
:10445000002800F0688146F2A0140DF10600C0F6B5
:104460000604216854F048FD002800F05C8146F203
:10447000C0140DF10600C0F60604216854F03CFD9E
:10448000002800F0508146F2E0140DF10600C0F65D
:104490000604216854F030FD002800F0448146F203
:1044A000D0140DF10600C0F60604216854F024FD76
:1044B000002800F0388146F2F0140DF10600C0F635
:1044C0000604216854F018FD002800F02C8146F203
:1044D00000240DF10600C0F60604216854F00CFD1E
:1044E000002800F0208146F210240DF10600C0F6ED
:1044F0000604216854F000FD002800F0148146F203
:1045000030240DF10600C0F60604216854F0F4FCD6
:10451000002800F0088146F240240DF10600C0F6A4
:104520000604216854F0E8FC002800F0FC8046F204
:1045300050240DF10600C0F60604216854F0DCFC9E
:10454000002800F0F08046F260240DF10600C0F66D
:104550000604216854F0D0FC002800F0E48046F204
:1045600080240DF10600C0F60604216854F0C4FC56
:10457000002800F0D88046F290240DF10600C0F625
:104580000604216854F0B8FC002800F0CC8046F204
:10459000A0240DF10600C0F60604216854F0ACFC1E
:1045A000002800F0C08046F2B0240DF10600C0F6ED
:1045B0000604216854F0A0FC002800F0B48046F204
:1045C000C0240DF10600C0F60604216854F094FCE6
:1045D000002800F0A88046F2F0240DF10600C0F695
:1045E0000604216854F088FC002800F09C8046F204
:1045F00000340DF10600C0F60604216854F07CFC7E
:10460000002800F0908045F660440DF10600C0F6E9
:104610000604216854F070FC002800F0848045F600
:1046200070440DF10600C0F60604216854F064FCE5
:10463000002878D045F680440DF10600C0F6060447
:10464000216854F059FC00286DD045F690440DF1D6
:104650000600C0F60604216854F04EFC002862D023
:1046600045F6A0440DF10600C0F60604216854F09A
:1046700043FC002857D045F6B0440DF10600C0F6C3
:104680000604216854F038FC00284CD045F690749C
:104690000DF10600C0F60604216854F02DFC002838
:1046A00041D045F6A0740DF10600C0F6060421685D
:1046B00054F022FCB8B346F270240DF10600C0F6A7
:1046C0000604216854F018FC68B346F2E0240DF1AA
:1046D0000600C0F60604216854F00EFC18B346F23A
:1046E00020240DF10600C0F60604216854F004FCF5
:1046F000C8B146F2B0140DF10600C0F606042168F8
:1047000054F0FAFB78B146F2D0240DF10600C0F661
:104710000604216854F0F0FB002818BF002420464E
:104720000EB010BD002420460EB010BD2DE9F043A0
:104730008DB00C460DF102010546FEF76DF92846D5
:10474000FEF7F8F80546012C85F0010005DB20B1E5
:10475000002630460DB0BDE8F083B4FA84F1490973
:1047600001EA0007012F40F08F8045F64040C0F677
:10477000060001680DF1020054F0BEFB40F25066E5
:104780000028C2F20006E4D045F65040C0F606000C
:1047900001680DF1020054F0AFFB002800F06985BC
:1047A00045F6C040C0F6060001680DF1020054F065
:1047B000A3FB002800F07D8545F6D040C0F606003A
:1047C00001680DF1020054F097FB002800F08D8580
:1047D00045F6E040C0F6060001680DF1020054F015
:1047E0008BFB002800F0998545F6F040C0F60600E6
:1047F00001680DF1020054F07FFB41F2D05800280F
:10480000C2F2000800F0A58545F60050C0F606008B
:1048100001680DF1020054F06FFB40F630290028CA
:10482000C2F2000900F0AD8545F61050C0F6060052
:1048300001680DF1020054F05FFB002800F0C08514
:1048400045F62050C0F6060001680DF1020054F054
:1048500053FB002800F0D48545F64050C0F6060012
:1048600001680DF1020054F047FB002800F0F485C8
:1048700045F63050C0F6060001680DF1020054F014
:104880003BFB002800F008865DB145F65050C0F6AD
:10489000060001680DF1020054F02EFB002800F024
:1048A000F2841FB345F66050C0F6060001680DF1B2
:1048B000020054F021FB002800F0F18445F670500E
:1048C000C0F6060001680DF1020054F015FB002847
:1048D00000F0F78445F68050C0F6060001680DF13F
:1048E000020054F009FB002800F00F855DB145F689
:1048F0009050C0F6060001680DF1020054F0FCFA79
:10490000002800F0E884DFB345F6A050C0F60600AA
:1049100001680DF1020054F0EFFA002800F0ED8478
:1049200045F6B050C0F6060001680DF1020054F0E3
:10493000E3FA002800F0F98445F6C050C0F60600FE
:1049400001680DF1020054F0D7FA002800F00F853D
:1049500045F6D050C0F6060001680DF1020054F093
:10496000CBFA002800F0188545F6E050C0F60600A6
:1049700001680DF1020054F0BFFA002800F026850E
:104980005DB145F6F050C0F6060001680DF1020079
:1049900054F0B2FA002800F0D084002F00F0C88153
:1049A00045F60060C0F6060001680DF1020054F003
:1049B000A3FA002800F0D38445F61060C0F6060084
:1049C00001680DF1020054F097FA40F25068002897
:1049D000C2F2000800F0DA8445F62060C0F6060056
:1049E00001680DF1020054F087FA41F240260028D8
:1049F000C2F200063FF4ADAE45F63060C0F60600E8
:104A000001680DF1020054F077FA002800F00985E2
:104A100045F64060C0F6060001680DF1020054F052
:104A20006BFA002800F0298545F65060C0F60600B4
:104A300001680DF1020054F05FFA40F64069002869
:104A4000C2F2000900F02E8545F66060C0F606004F
:104A500001680DF1020054F04FFA002800F0428581
:104A600045F67060C0F6060001680DF1020054F0D2
:104A700043FA002800F04C8545F68060C0F6060039
:104A800001680DF1020054F037FA002800F0628549
:104A900045F69060C0F6060001680DF1020054F082
:104AA0002BFA002800F0818545F6A060C0F60600CC
:104AB00001680DF1020054F01FFA002800F0938500
:104AC00045F6B060C0F6060001680DF1020054F032
:104AD00013FA002800F0B58545F6C060C0F6060060
:104AE00001680DF1020054F007FA002800F0CE85AD
:104AF00045F6D060C0F6060001680DF1020054F0E2
:104B0000FBF9002800F0D08545F6E060C0F606000D
:104B100001680DF1020054F0EFF9002800F0CF8594
:104B200045F6F060C0F6060001680DF1020054F091
:104B3000E3F9002800F0D58545F60070C0F60600C0
:104B400001680DF1020054F0D7F9002800F0D78574
:104B500045F61070C0F6060001680DF1020054F031
:104B6000CBF9002800F0D98545F62070C0F6060084
:104B700001680DF1020054F0BFF9002800F0D28561
:104B800045F63070C0F6060001680DF1020054F0E1
:104B9000B3F9002800F0D38545F64070C0F6060052
:104BA00001680DF1020054F0A7F9002800F0CC854F
:104BB00045F65070C0F6060001680DF1020054F091
:104BC0009BF9002800F0CA8545F66070C0F6060023
:104BD00001680DF1020054F08FF941F2604600289F
:104BE000C2F200063FF4B5AD45F67070C0F606009F
:104BF00001680DF1020054F07FF940F670180028AA
:104C0000C2F2000800F0B78545F68070C0F60600D5
:104C100001680DF1020054F06FF9002800F0B6852C
:104C200045F6B070C0F6060001680DF1020054F0C0
:104C300063F940F640390028C2F2000900F0B4855B
:104C400045F6C070C0F6060001680DF1020054F090
:104C500053F9002800F0B58545F6D070C0F606007F
:104C600001680DF1020054F047F9002800F0B78503
:104C700045F6E070C0F6060001680DF1020054F040
:104C80003BF9002800F0B98545F6F070C0F6060043
:104C900001680DF1020054F02FF9002800F0BB85E7
:104CA00046F20000C0F6060001680DF1020054F063
:104CB00023F9002800F0BF8546F21000C0F6060078
:104CC00001680DF1020054F017F9002800F0B885D2
:104CD00046F22000C0F6060001680DF1020054F013
:104CE0000BF9002800F0B48546F23000C0F606004B
:104CF00001680DF1020054F0FFF8002800F0B085C3
:104D000046F24000C0F6060001680DF1020054F0C2
:104D1000F3F8002800F0AC8546F25000C0F606001B
:104D200001680DF1020054F0E7F8002800F0A685B4
:104D30001DB346F26000C0F6060001680DF10200E6
:104D400054F0DAF8002800F02F8346F27000C0F625
:104D5000060001680DF1020054F0CEF8002800F0C2
:104D60003D8346F28000C0F6060001680DF10200A6
:104D700054F0C2F8002800F05E835FB146F2900064
:104D8000C0F6060001680DF1020054F0B5F80028E5
:104D900000F02E83BDB146F2A000C0F60600016807
:104DA0000DF1020054F0A8F8002800F02E8346F21E
:104DB000B000C0F6060001680DF1020054F09CF846
:104DC000002800F04E83002F4FD046F2C000C0F6FE
:104DD000060001680DF1020054F08EF840F67016DE
:104DE0000028C2F2000600F0328346F2D000C0F67E
:104DF000060001680DF1020054F07EF8002800F072
:104E0000468346F2E000C0F6060001680DF102009C
:104E100054F072F841F260460028C2F2000600F039
:104E20005C8346F2F000C0F6060001680DF1020056
:104E300054F062F8002800F05A8346F20010C0F6E1
:104E4000060001680DF1020054F056F8002800F049
:104E5000778346F21010C0F6060001680DF10200DB
:104E600054F04AF8002800F098835DB146F2201013
:104E7000C0F6060001680DF1020054F03DF800286C
:104E800000F01583002F5BD046F23010C0F606000C
:104E900001680DF1020054F02FF8002800F0138390
:104EA00046F24010C0F6060001680DF1020054F011
:104EB00023F840F6B0660028C2F200063FF449AC81
:104EC00046F25010C0F6060001680DF1020054F0E1
:104ED00013F8002800F02C8346F26010C0F606009C
:104EE00001680DF1020054F007F840F6A0380028E0
:104EF000C2F2000800F0408346F27010C0F60600CF
:104F000001680DF1020053F0F7FF002800F06583FF
:104F100046F28010C0F6060001680DF1020053F061
:104F2000EBFF002800F0858346F29010C0F60600E3
:104F300001680DF1020053F0DFFF002800F09B83B1
:104F40005DB146F2A010C0F6060001680DF1020046
:104F500053F0D2FF002800F0CF82DFB346F2C0103A
:104F6000C0F6060001680DF1020053F0C5FF0028ED
:104F700000F0D48246F2E010C0F6060001680DF1A0
:104F8000020053F0B9FF002800F0EC8246F2D01086
:104F9000C0F6060001680DF1020053F0ADFF0028D5
:104FA00000F0138346F2F010C0F6060001680DF120
:104FB000020053F0A1FF002800F0318346F20020E8
:104FC000C0F6060001680DF1020053F095FF0028BD
:104FD00000F047835DB146F21020C0F6060001687C
:104FE0000DF1020053F088FF002800F0CA821FB3C1
:104FF00046F23020C0F6060001680DF1020053F0C1
:105000007BFF002800F0D98246F24020C0F606005F
:1050100001680DF1020053F06FFF002800F0EB82F1
:1050200046F25020C0F6060001680DF1020053F070
:1050300063FF002800F00B835DB146F26020C0F6EC
:10504000060001680DF1020053F056FF002800F041
:10505000DA82002F00F0088146F28020C0F60600B8
:1050600001680DF1020053F047FF40F600460028AA
:10507000C2F200063FF46DAB46F29020C0F6060087
:1050800001680DF1020053F037FF41F2E0450028BE
:10509000C2F2000500F0F48246F2A020C0F606003D
:1050A00001680DF1020053F027FF41F600140028BB
:1050B000C2F2000400F0F28246F2B020C0F6060010
:1050C00001680DF1020053F017FF002800F0F28292
:1050D00046F2C020C0F6060001680DF1020053F050
:1050E0000BFF002800F0F38246F2F020C0F6060025
:1050F00001680DF1020053F0FFFE002800F0F98274
:1051000046F20030C0F6060001680DF1020053F0CF
:10511000F3FE002800F0FB8245F66040C0F6060072
:1051200001680DF1020053F0E7FE40F660460028EA
:10513000C2F200063FF40DAB45F67040C0F6060023
:1051400001680DF1020053F0D7FE002800F0F28252
:1051500045F68040C0F6060001680DF1020053F0EC
:10516000CBFE40F610560028C2F200063FF4F1AA2A
:1051700045F69040C0F6060001680DF1020053F0BC
:10518000BBFE002800F0E58245F6A040C0F6060010
:1051900001680DF1020053F0AFFE40F67056002892
:1051A000C2F200063FF4D5AA45F6B040C0F60600AC
:1051B00001680DF1020053F09FFE002800F0D68236
:1051C00045F69070C0F6060001680DF1020053F03C
:1051D00093FE002800F0D48245F6A070C0F60600C9
:1051E00001680DF1020053F087FE002800F0D48220
:1051F00046F27020C0F6060001680DF1020053F07F
:105200007BFE002800F0D58246F2E020C0F60600C2
:1052100001680DF1020053F06FFE002800F0D78204
:1052200046F22020C0F6060001680DF1020053F09E
:1052300063FE002800F0D98246F2B010C0F60600E6
:1052400001680DF1020053F057FE002800F0DD82E6
:1052500046F2D020C0F6060001680DF1020053F0BE
:105260004BFE002800F0DF82002630460DB0BDE87E
:10527000F08341F67020C2F2000000F128063046AB
:105280000DB0BDE8F08341F6783104EB0410C2F2B2
:10529000000101EBC00630460DB0BDE8F08340F2DE
:1052A0005060C2F2000000F1300630460DB0BDE89B
:1052B000F08341F24016C2F2000630460DB0BDE860
:1052C000F08341F2D050C2F2000000F1580630469F
:1052D0000DB0BDE8F08341F63070C2F2000000EB83
:1052E000441630460DB0BDE8F08341F29016C2F28C
:1052F000000630460DB0BDE8F08342F21006C2F25F
:10530000000630460DB0BDE8F08341F22076C2F2CF
:10531000000630460DB0BDE8F08340F6D056C2F22C
:10532000000630460DB0BDE8F08342F2A006C2F29E
:10533000000630460DB0BDE8F08342F210304FF465
:105340009C71C2F2000004FB010630460DB0BDE8BE
:10535000F08308F1180630460DB0BDE8F08342F640
:105360009836C2F2000630460DB0BDE8F08340F634
:10537000B060C2F2000000F1500630460DB0BDE84A
:10538000F0834E4630460DB0BDE8F08308F140068C
:1053900030460DB0BDE8F08340F6E026C2F20006CC
:1053A00030460DB0BDE8F08343F2A83104EBC400F1
:1053B000C2F2000101EBC00630460DB0BDE8F0833B
:1053C00009F1300630460DB0BDE8F08342F2801698
:1053D000C2F2000630460DB0BDE8F08343F2A050A3
:1053E000C2F2000000EB441630460DB0BDE8F08379
:1053F00043F67806C2F2000630460DB0BDE8F083F1
:10540000103630460DB0BDE8F08343F6381104EB9A
:10541000C400C2F2000101EBC00630460DB0BDE889
:10542000F08340F6E020C2F2000000F13006304682
:105430000DB0BDE8F08343F2806104EBC400C2F21A
:10544000000101EBC00630460DB0BDE8F0834036E8
:1054500030460DB0BDE8F083203630460DB0BDE8D3
:10546000F08343F63031C4EBC400C2F2000101EB1B
:10547000C00630460DB0BDE8F08340F6D050C2F211
:10548000000000F1380630460DB0BDE8F08350361C
:1054900030460DB0BDE8F08308F1380630460DB057
:1054A000BDE8F0834E4630460DB0BDE8F08343F6CC
:1054B000B84104EB8400C2F2000101EBC0063046A3
:1054C0000DB0BDE8F08340F67010C2F2000000F1AC
:1054D000600630460DB0BDE8F083303630460DB082
:1054E000BDE8F083183630460DB0BDE8F08348368D
:1054F00030460DB0BDE8F08343F6D86104EB84007C
:10550000C2F2000101EBC00630460DB0BDE8F083E9
:1055100008F1500630460DB0BDE8F08340F620702B
:10552000C2F2000000F1380630460DB0BDE8F0834D
:1055300041F21006C2F2000630460DB0BDE8F0831D
:1055400041F22070C2F2000000F1200630460DB09A
:10555000BDE8F08341F2E016C2F2000630460DB01D
:10556000BDE8F08340F6B060C2F2000000F1200612
:1055700030460DB0BDE8F083464630460DB0BDE87C
:10558000F08343F6F07104EB4400C2F2000101EB3A
:10559000401630460DB0BDE8F08341F2A006C2F2DD
:1055A000000630460DB0BDE8F08342F6A846C2F2D0
:1055B000000630460DB0BDE8F08341F2E046C2F28D
:1055C000000630460DB0BDE8F08341F2F006C2F2AD
:1055D000000630460DB0BDE8F08308F130063046D5
:1055E0000DB0BDE8F08342F66856C2F200063046C0
:1055F0000DB0BDE8F08341F2C026C2F2000630468D
:105600000DB0BDE8F08344F2183104EB0410C2F28F
:10561000000101EBC00630460DB0BDE8F08341F259
:105620002070C2F2000000F1400630460DB0BDE827
:10563000F08343F6D056C2F2000630460DB0BDE806
:10564000F08309F1380630460DB0BDE8F08340F62E
:10565000B060C2F2000000F1300630460DB0BDE887
:10566000F08341F26040C2F2000000F16006304673
:105670000DB0BDE8F083103630460DB0BDE8F083C4
:1056800005F1180630460DB0BDE8F08341F2500632
:10569000C2F2000630460DB0BDE8F08304F12806E2
:1056A00030460DB0BDE8F08308F1600630460DB01D
:1056B000BDE8F083303630460DB0BDE8F08342F6E9
:1056C0003876C2F2000630460DB0BDE8F08340F6F1
:1056D000B060C2F2000000F1400630460DB0BDE8F7
:1056E000F08340F69076C2F2000630460DB0BDE879
:1056F000F08305F1300630460DB0BDE8F08340F68A
:10570000D076C2F2000630460DB0BDE8F08305F158
:10571000480630460DB0BDE8F083303630460DB057
:10572000BDE8F08340F62076C2F2000630460DB0A8
:10573000BDE8F083303630460DB0BDE8F083483622
:1057400030460DB0BDE8F083603630460DB0BDE8A0
:10575000F083303630460DB0BDE8F08341F60016D8
:10576000C2F2000630460DB0BDE8F0833036304658
:105770000DB0BDE8F083464630460DB0BDE8F0837D
:1057800005F1600630460DB0BDE8F08308F1100663
:1057900030460DB0BDE8F08341F2D056C2F20006AB
:1057A00030460DB0BDE8F0834E4630460DB0BDE842
:1057B000F08344F29026C2F2000630460DB0BDE8F8
:1057C000F08309F1300630460DB0BDE8F08344F2B5
:1057D000D066C2F2000630460DB0BDE8F08308F195
:1057E000200630460DB0BDE8F08341F22036C2F20B
:1057F000000630460DB0BDE8F08341F28036C2F2BB
:10580000000630460DB0BDE8F08304F15006304686
:105810000DB0BDE8F08342F6C076C2F20006304615
:105820000DB0BDE8F08341F67026C2F200063046A6
:105830000DB0BDE8F083183630460DB0BDE8F083FA
:1058400043F20816C2F2000630460DB0BDE8F08300
:1058500043F2A826C2F2000630460DB0BDE8F08340
:1058600043F22836C2F2000630460DB0BDE8F083A0
:1058700008F1300630460DB0BDE8F08341F2F03655
:10588000C2F2000630460DB0BDE8F0832DE9F041CC
:105890002DED028B40F2C0664FF07E50C2F2000642
:1058A0007061FDF73FF846F2C01806F10804C0F633
:1058B000060821464046FBF7CDFD0127B7EE008ADA
:1058C000002530604FF47A7044F0E4FD96ED050A4F
:1058D00001EE107AB8EE411A30EE080A86ED081A89
:1058E00086ED050A0BF0D2FFC6E9020540462246C6
:1058F0003168FBF75DFE0137E4E700BF2DE9F041B9
:1059000082B005200BF0FAFF46F2C018C0F6060878
:105910004046FBF76DFF41F64037054600240DF188
:105920000706C2F2000704E0404629463A46FCF763
:1059300041F84FF47A7044F0ADFD284631468DF8B9
:105940000740FCF749F99DF807000028ECD1F0E783
:1059500070B582B045F6FD010A25192611A0002276
:105960004FF48063C0F60001CDE9006544F02AFCE5
:1059700018B144F0F3FA002400E0012445F68D014B
:105980000BA000224FF48063CDE90065C0F6000152
:1059900044F018FC00280CBF012444F0DFFA204634
:1059A00002B070BD754F52425F5355420000000077
:1059B000754F52425F5055420000000080B541F0E3
:1059C0009FFA45F017FA3EF057FA46F6C040C2F289
:1059D00000000168C26811440160BDE8804041F0E8
:1059E000A7BA00BF10B5044647F082FC44F6D35175
:1059F000C1F26201A0FB0101880945F01BFB4FF0D9
:105A0000FF302146002245F0B3FA002010BD00BF50
:105A100081B00090009801B044F036BD704700BFDF
:105A2000704700BF80B5032045F092FA6FF00B007D
:105A30000021002245F09CFA6FF00A0000210022AC
:105A400045F096FA6FF009000021002245F090FA27
:105A50006FF004000021002245F08AFA6FF0030085
:105A60000021002245F084FA6FF001000F2100228E
:105A700045F07EFA4FF0FF300F210022BDE8804054
:105A800045F076BAB0B592B043F640000024022546
:105A90000694C4F20200016841F080510160006880
:105AA00000F0805006900698069447F20000C4F279
:105AB0000000016841F440410160006800F440408A
:105AC000069006984FF480300790012006904FF41E
:105AD00080000C950D900C200E904FF4A8700F9044
