:020000040800F2
:10000000186F0020A9430108113D000877F6000889
:10001000133D0008153D0008173D000800000000D2
:10002000000000000000000000000000193D000872
:10003000BD43010800000000C3F50008A93B00080B
:10004000C3430108C3430108C3430108C343010874
:10005000C3430108C3430108613D0008753D000822
:10006000893D00089D3D0008B13D0008C3430108DB
:10007000C3430108C3430108C3430108C343010844
:10008000C3430108C3430108C3430108C343010834
:10009000C3430108C3430108C3430108C53D000829
:1000A000C3430108C3430108C3430108C343010814
:1000B000C3430108C3430108C3430108C343010804
:1000C000C3430108C3430108C3430108C3430108F4
:1000D000C34301084542000881420008BD420008B0
:1000E000F13D0008C3430108C3430108C3430108AD
:1000F000C3430108C3430108C3430108C3430108C4
:10010000C3430108C3430108C3430108C3430108B3
:10011000C3430108C3430108C3430108C3430108A3
:10012000C3430108C3430108C3430108C343010893
:10013000C3430108C3430108C3430108C343010883
:10014000C3430108C3430108C34301086D4B0008C2
:10015000C3430108C3430108C3430108C343010863
:10016000C3430108C3430108C3430108C343010853
:10017000C3430108C3430108C34301080000000052
:10018000C3430108C3430108C3430108C343010833
:10019000C3430108C3430108C3430108C343010823
:1001A0000000000000000000C343010800F002F856
:1001B00000F0B6F80AA090E8000C82448344AAF14B
:1001C0000107DA4501D100F0ABF8AFF2090EBAE849
:1001D0000F0013F0010F18BFFB1A43F0010318477B
:1001E00020B0020040B002000A444FF0000C10F8AA
:1001F000013B13F0070408BF10F8014B1D1108BFA5
:1002000010F8015B641E05D010F8016B641E01F844
:10021000016BF9D113F0080F1EBF10F8014BAD1C94
:100220000C1B09D16D1E58BF01F801CBFAD505E0B2
:1002300014F8016B01F8016B6D1EF9D59142D6D30C
:10024000704700000023002400250026103A28BF34
:1002500078C1FBD8520728BF30C148BF0B60704738
:100260006E291CF0D68070291CF02182662921F0AD
:100270009C80652921F09980672921F09680612969
:1002800021F0958003681B0A28BF41F0800169298D
:100290001BF0228464291BF01F8475291BF01C8429
:1002A0006F291CF0AF8178291CF0ED81E9291CF041
:1002B0004981E4291CF04681F5291CF04381EF298E
:1002C0001CF0AC81F8291CF0EC810368DB0928BF25
:1002D00041F0800163291CF05F8673291CF064865D
:1002E000E3291CF06F86F3291CF074860020704708
:1002F0001FB521F050F89DE803001BF017FF1CF01C
:1003000029FF04000020002120F00EFB401C60604B
:100310000020002120F01EFBE0601FBD10B510BDC5
:100320001CF0F2FE1146FFF7E3FF0FF029FA1CF074
:10033000D5FF03B4FFF7F2FF03BC1CF01FFA000067
:100340002DE9F04FABB00320002108F081FA49A05D
:100350000FF088FA49490028086000F086800321E0
:100360000FF07EFB42F2107013F085FC444800F061
:100370004BFA0746434800F047FA834600200DF148
:1003800017018DF81700384600F016FB9DF817008E
:1003900058B318AC3A483946224600F087FA374835
:1003A00000212246482300680FF028FC0DF1780A4E
:1003B0009AE8010620F054FF804648465D468B4689
:1003C00020F04EFF064650460C4620F049FF41EC17
:1003D000100B44EC116B5B462BA04246AB468DEDF7
:1003E000001B8DED020B0AF027FC58460DF117019A
:1003F00000F0E2FA9DF8170048B306AC21485946D0
:10040000224600F053FA1D48002122464823006886
:100410000FF0F4FB0DF1300A9AE8110420F020FFF0
:1004200080462046894620F01BFF044650460D4674
:1004300020F016FF41EC100B45EC114B1DA042467D
:100440004B468DED001B8DED020B0AF0F5FB0320F2
:1004500008F03CFAB0FA80F04109032008F016FADF
:100460004FF47A7013F007FC88E74FF0FF302BB0A1
:10047000BDE8F08F76636F6D00000000184C00201F
:10048000C0220208002302085F616363656C5F7825
:100490003A256620205F616363656C5F793A256663
:1004A0002020205F616363656C5F7A3A25662020B7
:1004B0000A0000005F6779726F783A256620205F36
:1004C0006779726F793A25662020205F6779726FAD
:1004D0007A3A256620200A000020704780B502285D
:1004E00004DB486803A11BF0BFFD08B1002080BDFC
:1004F00000F004F8737461727400000080B54FF46A
:10050000FA7013F0B8FBFAE710B5DFF82CE0002B17
:100510004FF0000C0EF108040EF11C0EC0E9004172
:10052000C0E9022CC0E904CEC0F818C002D0596856
:100530008161586010BD00BFD81C020810B5044688
:100540000A46216921B16068BDE8104000F0EAB8B0
:10055000A068002801DD206110BD6068114600F030
:100560006FF8002818BF206110BD00BF054B4FF089
:10057000000C0833C0E90031C0E9022CC0F810C0FB
:10058000704700BFC81C020810B504460448083074
:100590002060206900F09EF8204610BD1FF084F90D
:1005A000C81C020880B5FFF7EFFFBDE880401FF0D0
:1005B0002CB900000448007800280CBF4FF0FF3031
:1005C0000EF0E8BF704700BFA0040020411C08BF28
:1005D00070470349097809B10EF0E0BF704700BFCA
:1005E000A004002010B504469CB10A48007880B1F0
:1005F000206A4FF0FF310FF07FFD022806D8064930
:1006000001EAC000012121FA00F000E0002084F896
:10061000240010BDA0040020F8FFFF0010B5044620
:1006200034B10648007818B1206A0FF021FE00B1FD
:1006300010BD002084F8240010BD00BFA0040020DD
:100640002DE9F84307468846386801F0A1F80446CA
:100650000025601C38D01E4E56F82400FFF7C2FF5C
:1006600056F824000577FFF7A5FF56F82450814679
:100670007F68286830B938461FF0D0F8286056F8EF
:100680002400006841463A461BF0F9FB4846FFF754
:100690009DFF56F82450AC600AF082F856F82420EA
:1006A00001231377C2E90A0113F01EF856F824005B
:1006B00000214FF0FF3203E0436B43F8212001316A
:1006C0000A29F9D1FFF7AAFF284601B0BDE8F08357
:1006D0006C4D002000207047F8B50D4607461C46BB
:1006E0001646286820B138463246BDE8F84019E081
:1006F000386801F04DF800F0C1FD08B1286808E045
:1007000038463146FFF79CFF002C286001D00021BD
:1007100021600021002808BF4FF0FF31084601B0DA
:10072000F0BD00BF2DE9F04707469046386801F05C
:100730002FF804464FF0FF35601C3FD0DFF884905F
:1007400059F82400FFF74EFF59F8240000260677D9
:10075000FFF730FF824659F824007A684146006866
:100760001BF08DFB5046FFF731FF59F824008460E1
:100770000AF016F8024659F8240001230377C0E96D
:100780000A2103E0416B41F8265001360A2EF9D1C7
:100790000D4B21014FF0FF320132092A0BD803F132
:1007A00010071B688B423B46F6D10846012100F03A
:1007B0000DF859F82400FFF731FF00252846BDE861
:1007C000F08700BF6C4D0020204F00202DE9F8433A
:1007D000894605460027FFF7EDFE0A4E80460AE0EF
:1007E000F059A84206D1F419A06818B10FF040FDE5
:1007F000A4F806901037A02FF2D14046BDE8F84388
:10080000E4E600BF204F002070B5F8B10068E8B101
:1008100000F0BEFF04466C2C18D812F065FF0546A8
:100820000026FFF7C7FE0E49092E13D851F82420E1
:10083000126B52F82630AB4206D001360133F3D1A9
:1008400002EB860141F8045C240105E04FF0FF341F
:10085000204670BD4FF0FF34FFF7B8FEF8E700BF49
:100860006C4D002070B505096C2D84BF4FF0FF3032
:1008700070BD12F039FF04460026FFF79BFE0A49BF
:10088000092E0DD851F82520126B52F8263001366A
:10089000A342F5D102EB86014FF0FF3241F8042C60
:1008A000FFF794FE002070BD6C4D00202DE9F0474D
:1008B000814690460E46D9F8000000F069FF0446D4
:1008C0004FF0FF3A601C71D0301184426ED1394F25
:1008D00006F00F05C5EBC50657F8240000EBC6006F
:1008E000FFF780FE2DB1204600F0C8FC70B3062D46
:1008F00029D857F8240050F8360020B3002512F00C
:10090000F3FE092D2BD857F8241001EBC601496BD3
:1009100051F8252001350132F3D101EB850141F871
:10092000040CFFF747FE054657F82400D9F80420C9
:1009300050F8361040461BF0A2FA2846FFF746FE54
:100940004FF0000A0DE04FF0FF3A29E057F824007D
:1009500000EBC600FFF762FE4FF0FF3A26E04FF0D3
:10096000FF3A00200021002210E057F8243003EB6A
:10097000C603D3E90C3555F82250013518BF0131B3
:1009800053F822300132013318BF01300A2AECD16A
:10099000814205DB57F82400002100EBC6000177F7
:1009A00057F8240000EBC600FFF738FE5046BDE8BC
:1009B000F08700BF6C4D002070B50C46B0F1FF3FD2
:1009C00002DDB0F5DA6F02D30020207020E012497A
:1009D000124E01EA90057059FFF704FE12F084FEF2
:1009E000014670590022092A06D8436B53F8223079
:1009F00001328B42F7D107E0017F29B1012121703B
:100A0000FFF70CFE002070BD00212170FFF706FEED
:100A10004FF0FF3070BD00BFFCFFFF3F6C4D00206A
:100A200002464FF0FF3013116C2B10D802F00F026A
:100A3000062A88BF70470648C2EBC20250F823005E
:100A400000EBC200D0E90A02C1E9000200207047B1
:100A50006C4D0020B0B500680C4600F099FE0546CC
:100A60006C2D14D8284600F009FC012C00DB70B175
:100A70000848C4EBC40150F8250050F8312032B1C9
:100A800000EBC100806801301CBF0020B0BD4FF0FA
:100A9000FF30B0BD6C4D002070B505460024002627
:100AA000072E04BF204670BD28463146FFF7D2FF0F
:100AB000002806F1010608BF0134F1E702464FF0B5
:100AC000FF3013116C2B0ED802F00F02062A88BFDC
:100AD00070470548C2EBC20250F8230000EBC20089
:100AE00040680860002070476C4D002002464FF0BF
:100AF000FF3013116C2B0ED802F00F02062A88BFAC
:100B000070470548C2EBC20250F8230000EBC20256
:100B10000020C2E9041070476C4D002002464FF0DF
:100B2000FF3013116C2B0ED802F00F02062A88BF7B
:100B300070470548C2EBC20250F8230000EBC20028
:100B400000690860002070476C4D00207CB5134D93
:100B5000382013A14FF0805241F68C130090281DCD
:100B600011F0E2FF044624B10FA0214611F04EF926
:100B700011E01248124A282612A141F2BC23009625
:100B800011F0D2FF114A05F13C0011A141F2BC2342
:100B9000009611F0C9FF204602B070BDA0040020ED
:100BA000756F726200000000756F726220616C6C7C
:100BB0006F63206572726F723A256400C015002061
:100BC0008C1900106175746800000000482C00103A
:100BD000726567002DE9F04F87B052484FF000086A
:100BE00080F80080FFF7B2FF10B14FA011F00EF9AE
:100BF0005248DFF858914FF0FF3A0FF2441B0DF1C5
:100C0000060504AE002700F108041DE0DBF804002F
:100C100049463A4644F808AC059049480490BBF868
:100C20000800ADF8180028461AF040FF3046294663
:100C30001BF019F93046002100220FF0CBF920609B
:100C400024F8028C103401370A2FDFD13548DFF841
:100C50000081DFF8009100260FF2FC0A0DF1060B6F
:100C600004AF00240146081D01F13C05009053E04B
:100C700000980121C04749F824002046002101F0D6
:100C8000FDFF59F82410224608604B2159F8240032
:100C900041604FF0FF318160C0E9046686612B49F5
:100CA00059F824000677DAF8040005902A480490E1
:100CB000BAF80800ADF8180058461AF0F7FE3846A2
:100CC00059461BF0D0F83846012100220FF082F976
:100CD00059F824100862012159F82400C0E90A6675
:100CE00080F824602846C04759F8241008631D483E
:100CF0000121C04759F82410FF224863282159F8E0
:100D00002400006B1BF032F959F824002821FF223F
:100D1000406B1BF02BF901346D2CA9D1002007B0DA
:100D2000BDE8F08FA004002063636D72616D2069DF
:100D30006E6974206661696C65640000204F002054
:100D4000706F6C6C0000000000000000F0460208AC
:100D5000DD2D01086C4D002073656D000000000062
:100D600000000000C01500202DE9F84FDFF8100446
:100D7000DFF80864002430212830C6E90044C6E9C1
:100D800002441BF01DF9DFF8FC0350211BF018F999
:100D9000DFF8F40350211BF013F9DFF8F0B338212A
:100DA00058461BF00DF9DFF8E81301F118000F4663
:100DB00020211BF005F9DFF8DC53302128461BF019
:100DC000FFF805F1300030211BF0FAF807F1380088
:100DD0002021C6E90444C6E90644C6E90844C6E938
:100DE0000A441BF0EDF8DFF8B0034FF46E711BF00E
:100DF000E7F807F158002021C6E90C44C6E90E4483
:100E00001BF0DEF8DFF894A3202150461BF0D8F841
:100E1000E348E0211BF0D4F8E24890211BF0D0F821
:100E2000E148E0211BF0CCF8DFF88083182108F1BD
:100E300050001BF0C5F8DE4F302138461BF0C0F8DB
:100E4000DC484FF4C8711BF0BBF8DB4840F6880162
:100E50001BF0B6F8D9484FF488711BF0B1F8D84DA3
:100E60001821C6E91044C6E9124428461BF0A8F828
:100E700007F1300030211BF0A3F80BF138003821C6
:100E80001BF09EF8CF4F382138461BF099F805F13A
:100E9000180018211BF094F8CB485821C6E91444D7
:100EA000C6E916441BF08CF8C848C0211BF088F82E
:100EB000C7484FF4E8711BF083F807F13800382178
:100EC0001BF07EF8C34848211BF07AF8C2488821FD
:100ED000C6E91844C6E91A441BF072F8BF4840211D
:100EE0001BF06EF8BE4840211BF06AF805F1300097
:100EF00018211BF065F8BB4F382138461BF060F80D
:100F000005F1480018211BF05BF805F1600018217D
:100F10001BF056F8DFF8D0B2282158461BF050F8E5
:100F2000B24D182128461BF04BF8B24EDFF8C092A4
:100F300030213046C9E90044C9E90244C9E9044402
:100F4000C9E906441BF03CF806F1300030211BF0E3
:100F500037F8A9486821C9E90844C9E90A441BF0DF
:100F60002FF8A6484FF4A4711BF02AF805F11800D9
:100F700018211BF025F8A2484FF4D0711BF020F87F
:100F8000A04880211BF01CF89F4880211BF018F816
:100F90009E487021C9E90C44C9E90E441BF010F8C1
:100FA0009B484FF4FC711BF00BF89A48E0211BF0B2
:100FB00007F899484FF4FC711BF002F89748C021DC
:100FC0001AF0FEFF96484FF4FC711AF0F9FF9548AD
:100FD0004FF4C4711AF0F4FF05F130001821C9E98B
:100FE0001044C9E91244C9E91444C9E916441AF085
:100FF000E7FF05F1480018211AF0E2FF0AF120008E
:1010000020211AF0DDFF884848211AF0D9FF8748CF
:101010004FF48C711AF0D4FF85484021C9E9184477
:10102000C9E91A44C8E90044C8E902441AF0C8FFF3
:10103000804E302130461AF0C3FF06F130003021D7
:101040001AF0BEFF7C484FF484711AF0B9FF7B4858
:101050004FF48C71C8E90444C8E906441AF0B0FFA3
:1010600007F1380038211AF0ABFF75484821C8E96C
:101070000844C8E90A441AF0A3FF0AF140002021FD
:101080001AF09EFF05F1600018211AF099FF6D48D3
:101090004FF428711AF094FF6B4E182130461AF065
:1010A0008FFF6A4860211AF08BFF69484FF46E7118
:1010B000C8E90C44C8E90E441AF082FF654D30219E
:1010C00028461AF07DFF06F1180018211AF078FF63
:1010D0000BF1280028211AF073FF05F130003021B0
:1010E0001AF06EFF06F130001821C8E91044C8E973
:1010F00012441AF065FF06F1480018211AF060FF4B
:10110000554D302128461AF05BFF05F130003021A3
:101110001AF056FF514D302128461AF051FF05F1C3
:10112000300030211AF04CFF4D4D302128461AF086
:1011300047FF05F1300030211AF042FF06F1600050
:1011400018211AF03DFF124818211AF039FF4548BE
:1011500088211AF035FF444888211AF031FF4348AE
:1011600060211AF02DFF0BF1500028211AF028FF02
:10117000034828211AF024FFBDE8F88F200500203D
:1011800050170020E00E0020300F0020700B0020D0
:10119000B013002020080020B01800209014002078
:1011A000681C0020481D0020D81D0020500C002085
:1011B00080080020B81E002048200020D0280020F1
:1011C000E00F0020E00B0020800F0020E02900202D
:1011D000A02A0020F00D0020702C0020300D0020EF
:1011E000700D0020C00C00200016002050120020BE
:1011F000B0070020E008002070110020F82C00202B
:10120000402E0020E02F002060300020E011002060
:10121000E0300020D8320020B8330020B035002064
:101220007036002068380020400E0020F039002081
:10123000B00D002040090020083B0020103C002099
:10124000900E0020283D0020D0120020B010002079
:1012500050400020F0090020500A0020B00A002071
:10126000100B0020C83F002008440020101100206F
:101270000148012101707047A0040020064A0021A6
:101280000C2984BF0020704752F82130013183427D
:1012900004BF01207047F3E76C17020806288EBFD1
:1012A0004FF0FF3001A151F820007047010000000D
:1012B00019000000320000004B0000006400000034
:1012C0007D000000FF000000012804BF00207047DF
:1012D000192804BF01207047322804BF022070473C
:1012E0004B2804BF03207047642804BF04207047C4
:1012F0007D2804BF05207047FF280CBF06204FF053
:10130000FF3070476C2800F27280DFE810F06D004B
:101310007300760079007C007F00820085008800E1
:101320008B008E009100940097009A009D00A00011
:10133000A300A600A900AC00AF00B200B500B80041
:10134000BB00BD00BF00C100C300C500C700C9008D
:10135000CB00CD00CF00D100D300D500D700D900FD
:10136000DB00DD00DF00E100E300E500E700E9006D
:10137000EB00ED00EF00F100F300F500F700F900DD
:10138000FB00FD00FF000101030105010701090148
:101390000B010D010F0111011301150117011901B5
:1013A0001B011D011F012101230125012701290125
:1013B0002B012D012F013101330135013701390195
:1013C0003B013D013F014101430145014701490105
:1013D0004B014D014F015101530155015701590175
:1013E0005B015D015F016101DFF8A003F1E0002016
:1013F00008707047DFF89003EBE0DFF88803E8E05F
:10140000DFF87C03E5E0DFF87403E2E0DFF868036F
:10141000DFE0DFF86003DCE0DFF85403D9E0DFF859
:101420004C03D6E0DFF84003D3E0DFF83803D0E028
:10143000DFF82C03CDE0DFF82403CAE0DFF818035F
:10144000C7E0DFF81003C4E0DFF80403C1E0DFF811
:10145000FC02BEE0DFF8F002BBE0DFF8E802B8E033
:10146000DFF8DC02B5E0DFF8D402B2E0DFF8C80252
:10147000AFE0DFF8C002ACE0DFF8B402A9E0DFF8CB
:10148000AC02A6E0A848A4E0A648A2E0A448A0E0D8
:10149000A2489EE0A0489CE09E489AE09C4898E0C4
:1014A0009A4896E0984894E0964892E0944890E0F4
:1014B00092488EE090488CE08E488AE08C4888E024
:1014C0008A4886E0884884E0864882E0844880E054
:1014D00082487EE080487CE07E487AE07C4878E084
:1014E0007A4876E0784874E0764872E0744870E0B4
:1014F00072486EE070486CE06E486AE06C4868E0E4
:101500006A4866E0684864E0664862E0644860E013
:1015100062485EE060485CE05E485AE05C4858E043
:101520005A4856E0584854E0564852E0544850E073
:1015300052484EE050484CE04E484AE04C4848E0A3
:101540004A4846E0484844E0464842E0444840E0D3
:1015500042483EE040483CE03E483AE03C4838E003
:101560003A4836E0384834E0364832E0344830E033
:1015700032482EE030482CE02E482AE02C4828E063
:101580002A4826E0284824E0264822E0244820E093
:1015900022481EE020481CE01E481AE01C4818E0C3
:1015A0001A4816E0184814E0164812E0144810E0F3
:1015B00012480EE010480CE00E480AE00C4808E023
:1015C0000A4806E0084804E0064802E0044800E053
:1015D00002480268084611461AF0B7BB30250208D7
:1015E000102402088024020840250208D0240208A2
:1015F00000220208F0210208101F0208001F020842
:10160000F01E0208E01E0208D01E0208C01E0208DA
:10161000602502085025020820250208102502082E
:1016200000250208F0240208E0240208C024020871
:10163000B0240208A02402089024020870240208A2
:1016400060240208502402083024020840240208C2
:101650002024020800240208F0230208E0230208E4
:10166000D0230208C0230208B0230208A0230208E6
:1016700090230208802302087023020860230208D6
:1016800050230208402302083023020820230208C6
:101690001023020800230208F0220208E0220208B8
:1016A000D0220208C0220208B0220208A0220208AA
:1016B000902202088022020870220208602202089A
:1016C000502202084022020830220208202202088A
:1016D00010220208E0210208D0210208C0210208DD
:1016E000B0210208A02102089021020880210208EE
:1016F00070210208602102085021020840210208DE
:1017000030210208202102081021020800210208CD
:10171000F0200208E0200208D0200208C0200208C1
:10172000B0200208A02002089020020880200208B1
:1017300070200208602002085020020840200208A1
:101740003020020820200208102002080020020891
:10175000F01F0208E01F0208D01F0208C01F020885
:10176000B01F0208901F0208A01F0208801F020875
:10177000701F0208601F0208501F0208401F020865
:10178000301F0208201F0208B01E0208A01E020817
:1017900010B50446DFF84C09016820461AF064FCD5
:1017A000002800F0C683DFF84009016820461AF0DF
:1017B0005BFC002800F0BF83DFF830090168204699
:1017C0001AF052FC002800F0B883DFF82409016801
:1017D00020461AF049FC002800F0B183DFF8140914
:1017E000016820461AF040FC002800F0AA83DFF8C8
:1017F0000809016820461AF037FC002800F0A3838E
:10180000DFF8F808016820461AF02EFC002800F0E6
:101810009C83DFF8EC08016820461AF025FC0028BC
:1018200000F09583DFF8DC08016820461AF01CFC04
:10183000002800F08E83DFF8D008016820461AF0F7
:1018400013FC002800F08783DFF8C00801682046F9
:101850001AF00AFC002800F08083DFF8B408016861
:1018600020461AF001FC002800F07983DFF8A40874
:10187000016820461AF0F8FB002800F07283DFF8B8
:101880009808016820461AF0EFFB002800F06B83EF
:10189000DFF88808016820461AF0E6FB002800F00F
:1018A0006483DFF87C08016820461AF0DDFB00281D
:1018B00000F05D83DFF86C08016820461AF0D4FB65
:1018C000002800F05683DFF86008016820461AF00F
:1018D000CBFB002800F04F83DFF85008016820465A
:1018E0001AF0C2FB002800F04883DFF844080168C2
:1018F00020461AF0B9FB002800F04183DFF83408D5
:10190000016820461AF0B0FB002800F03A83DFF8A7
:101910002808016820461AF0A7FB002800F033834E
:10192000DFF81808016820461AF09EFB002800F036
:101930002C83DFF80C08016820461AF095FB00287C
:1019400000F02583DFF8FC07016820461AF08CFBC5
:10195000002800F01E83DFF8F007016820461AF027
:1019600083FB002800F01783DFF8E00701682046BA
:101970001AF07AFB002800F01083DFF8D407016822
:1019800020461AF071FB002800F00983DFF8C40735
:10199000016820461AF068FB002800F00283DFF897
:1019A000B807016820461AF05FFB002800F0FB82B0
:1019B000DFF8A807016820461AF056FB002800F05F
:1019C000F482DFF89C07016820461AF04DFB0028DE
:1019D00000F0ED82DFF88C07016820461AF044FB26
:1019E000002800F0E682DFF88007016820461AF040
:1019F0003BFB002800F0DF82DFF87007016820461B
:101A00001AF032FB002800F0D882DFF86407016882
:101A100020461AF029FB002800F0D182DFF8540795
:101A2000016820461AF020FB002800F0CA82DFF887
:101A30004807016820461AF017FB002800F0C3820F
:101A4000DFF83807016820461AF00EFB002800F086
:101A5000BC82DFF82C07016820461AF005FB00283D
:101A600000F0B582DFF81C07016820461AF0FCFA86
:101A7000002800F0AE82DFF81007016820461AF057
:101A8000F3FA002800F0A782DFF80007016820467B
:101A90001AF0EAFA002800F0A082DFF8F4060168E4
:101AA00020461AF0E1FA002800F09982DFF8E406F7
:101AB000016820461AF0D8FA002800F09282DFF878
:101AC000D806016820461AF0CFFA002800F08B8271
:101AD000DFF8C806016820461AF0C6FA002800F0B0
:101AE0008482DFF8BC06016820461AF0BDFA00289F
:101AF00000F07D82DFF8AC06016820461AF0B4FAE7
:101B0000002800F07682DFF8A006016820461AF06F
:101B1000ABFA002800F06F82DFF8900601682046DB
:101B20001AF0A2FA002800F06882DFF88406016843
:101B300020461AF099FA002800F06182DFF8740656
:101B4000016820461AF090FA002800F05A82DFF867
:101B50006806016820461AF087FA002800F05382D0
:101B6000DFF85806016820461AF07EFA002800F0D7
:101B70004C82DFF84C06016820461AF075FA0028FE
:101B800000F04582DFF83C06016820461AF06CFA46
:101B9000002800F03E82DFF83006016820461AF087
:101BA00063FA002800F03782DFF82006016820463B
:101BB0001AF05AFA002800F03082DFF814060168A3
:101BC00020461AF051FA002800F02982DFF80406B6
:101BD000016820461AF048FA002800F02282DFF857
:101BE000F805016820461AF03FFA002800F01B8231
:101BF000DFF8E805016820461AF036FA002800F000
:101C00001482DFF8DC05016820461AF02DFA00285E
:101C100000F00D82DFF8CC05016820461AF024FAA6
:101C2000002800F00682DFF8C005016820461AF09F
:101C30001BFA002800F0FF81DFF8B005016820469C
:101C40001AF012FA002800F0F881DFF8A405016804
:101C500020461AF009FA002800F0F181DFF8940517
:101C6000016820461AF000FA002800F0EA81DFF847
:101C70008805016820461AF0F7F9002800F0E38192
:101C8000DFF87805016820461AF0EEF9002800F028
:101C9000DC81DFF86C05016820461AF0E5F90028C0
:101CA00000F0D581DFF85C05016820461AF0DCF908
:101CB000002800F0CE81DFF85005016820461AF0B8
:101CC000D3F9002800F0C781DFF8400501682046FD
:101CD0001AF0CAF9002800F0C081DFF83405016865
:101CE00020461AF0C1F9002800F0B981DFF8240578
:101CF000016820461AF0B8F9002800F0B281DFF838
:101D00001805016820461AF0AFF9002800F0AB81F1
:101D1000DFF80805016820461AF0A6F9002800F04F
:101D2000A481DFF8FC04016820461AF09DF9002820
:101D300000F09D81DFF8EC04016820461AF094F968
:101D4000002800F09681DFF8E004016820461AF0D0
:101D50008BF9002800F08F81DFF8D004016820465D
:101D60001AF082F9002800F08881DFF8C4040168C5
:101D700020461AF079F9002800F08181DFF8B404D8
:101D8000016820461AF070F9002800F07A81DFF827
:101D9000A804016820461AF067F9002800F0738152
:101DA000DFF89804016820461AF05EF9002800F078
:101DB0006C81DFF88C04016820461AF055F9002880
:101DC00000F06581DFF87C04016820461AF04CF9C8
:101DD000002800F05E81DFF87004016820461AF0E8
:101DE00043F9002800F05781DFF8600401682046BD
:101DF0001AF03AF9002800F05081DFF85404016825
:101E000020461AF031F9002800F04981DFF8440437
:101E1000016820461AF028F9002800F04281DFF816
:101E20003804016820461AF01FF9002800F03B81B1
:101E3000DFF82804016820461AF016F9002800F09F
:101E40003481DFF81C04016820461AF00DF90028DF
:101E500000F02D81DFF80C04016820461AF004F927
:101E6000002800F02681DFF80004016820461AF0FF
:101E7000FBF8002800F01F81DFF8F003016820461E
:101E80001AF0F2F8002800F01881F948016820469D
:101E90001AF0EAF8002800F01281F648016820469E
:101EA0001AF0E2F8002800F00C81F348016820469F
:101EB0001AF0DAF8002800F00681F04801682046A0
:101EC0001AF0D2F8002800F00081ED4801682046A1
:101ED0001AF0CAF8002800F0FA80EA4801682046A3
:101EE0001AF0C2F8002800F0F480E74801682046A4
:101EF0001AF0BAF8002800F0EE80E44801682046A5
:101F00001AF0B2F8002800F0E880E14801682046A5
:101F10001AF0AAF8002800F0E280DE4801682046A6
:101F20001AF0A2F84FF0FF31002808BF6C210846D4
:101F300010BD002010BD012010BD022010BD0320E7
:101F400010BD042010BD052010BD062010BD0720C7
:101F500010BD082010BD092010BD0A2010BD0B20A7
:101F600010BD0C2010BD0D2010BD0E2010BD0F2087
:101F700010BD102010BD112010BD122010BD132067
:101F800010BD142010BD152010BD162010BD172047
:101F900010BD182010BD192010BD1A2010BD1B2027
:101FA00010BD1C2010BD1D2010BD1E2010BD1F2007
:101FB00010BD202010BD212010BD222010BD2320E7
:101FC00010BD242010BD252010BD262010BD2720C7
:101FD00010BD282010BD292010BD2A2010BD2B20A7
:101FE00010BD2C2010BD2D2010BD2E2010BD2F2087
:101FF00010BD302010BD312010BD322010BD332067
:1020000010BD342010BD352010BD362010BD372046
:1020100010BD382010BD392010BD3A2010BD3B2026
:1020200010BD3C2010BD3D2010BD3E2010BD3F2006
:1020300010BD402010BD412010BD422010BD4320E6
:1020400010BD442010BD452010BD462010BD4720C6
:1020500010BD482010BD492010BD4A2010BD4B20A6
:1020600010BD4C2010BD4D2010BD4E2010BD4F2086
:1020700010BD502010BD512010BD522010BD532066
:1020800010BD542010BD552010BD562010BD572046
:1020900010BD582010BD592010BD5A2010BD5B2026
:1020A00010BD5C2010BD5D2010BD5E2010BD5F2006
:1020B00010BD602010BD612010BD622010BD6320E6
:1020C00010BD642010BD652010BD662010BD6720C6
:1020D00010BD682010BD692010BD6A2010BD6B20A6
:1020E00010BD00BFA01E0208B01E0208201F02087B
:1020F000301F0208401F0208501F0208601F02081C
:10210000701F0208801F0208A01F0208901F02080B
:10211000B01F0208C01F0208D01F0208E01F0208FB
:10212000F01F0208002002081020020820200208E8
:1021300030200208402002085020020860200208D7
:10214000702002088020020890200208A0200208C7
:10215000B0200208C0200208D0200208E0200208B7
:10216000F0200208002102081021020820210208A4
:102170003021020840210208502102086021020893
:10218000702102088021020890210208A021020883
:10219000B0210208C0210208D0210208E021020873
:1021A00010220208202202083022020840220208DF
:1021B00050220208602202087022020880220208CF
:1021C00090220208A0220208B0220208C0220208BF
:1021D000D0220208E0220208F022020800230208AE
:1021E000102302082023020830230208402302089B
:1021F000502302086023020870230208802302088B
:1022000090230208A0230208B0230208C02302087A
:10221000D0230208E0230208F02302080024020869
:102220002024020840240208302402085024020816
:10223000602402087024020890240208A0240208E6
:10224000B0240208C0240208E0240208F024020896
:102250000025020810250208202502085025020842
:1022600060250208C01E0208D01E0208E01E0208F7
:10227000F01E0208001F0208101F0208F0210208C9
:1022800000220208D0240208402502088024020807
:10229000102402083025020810B58EB00DF1060199
:1022A000FFF730F89DF80600002800F00884DFF8FA
:1022B00018480DF10600216819F0D6FE002800F03C
:1022C000FF83DFF808480DF10600216819F0CCFE05
:1022D000002800F0F583DFF8F8470DF106002168CB
:1022E00019F0C2FE002800F0EB83DFF8E8470DF19B
:1022F0000600216819F0B8FE002800F0E183DFF83D
:10230000D8470DF10600216819F0AEFE002800F054
:10231000D783DFF8C8470DF10600216819F0A4FE45
:10232000002800F0CD83DFF8B8470DF106002168E2
:1023300019F09AFE002800F0C383DFF8A8470DF1DA
:102340000600216819F090FE002800F0B983DFF83C
:1023500098470DF10600216819F086FE002800F06C
:10236000AF83DFF888470DF10600216819F07CFE85
:10237000002800F0A583DFF878470DF106002168FA
:1023800019F072FE002800F09B83DFF868470DF11A
:102390000600216819F068FE002800F09183DFF83C
:1023A00058470DF10600216819F05EFE002800F084
:1023B0008783DFF848470DF10600216819F054FEC5
:1023C000002800F07D83DFF838470DF10600216812
:1023D00019F04AFE002800F07383DFF828470DF15A
:1023E0000600216819F040FE002800F06983DFF83C
:1023F00018470DF10600216819F036FE002800F09C
:102400005F83DFF808470DF10600216819F02CFE04
:10241000002800F05583DFF8F8460DF1060021682A
:1024200019F022FE002800F04B83DFF8E8460DF19A
:102430000600216819F018FE002800F04183DFF83B
:10244000D8460DF10600216819F00EFE002800F0B4
:102450003783DFF8C8460DF10600216819F004FE45
:10246000002800F02D83DFF8B8460DF10600216842
:1024700019F0FAFD002800F02383DFF8A8460DF1DB
:102480000600216819F0F0FD002800F01983DFF83C
:1024900098460DF10600216819F0E6FD002800F0CD
:1024A0000F83DFF888460DF10600216819F0DCFD86
:1024B000002800F00583DFF878460DF1060021685A
:1024C00019F0D2FD002800F0FB82DFF868460DF11C
:1024D0000600216819F0C8FD002800F0F182DFF83D
:1024E00058460DF10600216819F0BEFD002800F0E5
:1024F000E782DFF848460DF10600216819F0B4FDC7
:10250000002800F0DD82DFF838460DF10600216872
:1025100019F0AAFD002800F0D382DFF828460DF15B
:102520000600216819F0A0FD002800F0C982DFF83C
:1025300018460DF10600216819F096FD002800F0FC
:10254000BF82DFF808460DF10600216819F08CFD06
:10255000002800F0B582DFF8F8450DF1060021688B
:1025600019F082FD002800F0AB82DFF8E8450DF19C
:102570000600216819F078FD002800F0A182DFF83C
:10258000D8450DF10600216819F06EFD002800F015
:102590009782DFF8C8450DF10600216819F064FD47
:1025A000002800F08D82DFF8B8450DF106002168A3
:1025B00019F05AFD002800F08382DFF8A8450DF1DC
:1025C0000600216819F050FD002800F07982DFF83C
:1025D00098450DF10600216819F046FD002800F02D
:1025E0006F82DFF888450DF10600216819F03CFD87
:1025F000002800F06582DFF878450DF106002168BB
:1026000019F032FD002800F05B82DFF868450DF11B
:102610000600216819F028FD002800F05182DFF83B
:1026200058450DF10600216819F01EFD002800F044
:102630004782DFF848450DF10600216819F014FDC6
:10264000002800F03D82DFF838450DF106002168D2
:1026500019F00AFD002800F03382DFF828450DF15B
:102660000600216819F000FD002800F02982DFF83B
:1026700018450DF10600216819F0F6FC002800F05D
:102680001F82DFF808450DF10600216819F0ECFC07
:10269000002800F01582DFF8F8440DF106002168EB
:1026A00019F0E2FC002800F00B82DFF8E8440DF19D
:1026B0000600216819F0D8FC002800F00182DFF83C
:1026C000D8440DF10600216819F0CEFC002800F076
:1026D000F781DFF8C8440DF10600216819F0C4FC49
:1026E000002800F0ED81DFF8B8440DF10600216804
:1026F00019F0BAFC002800F0E381DFF8A8440DF1DE
:102700000600216819F0B0FC002800F0D981DFF83C
:1027100098440DF10600216819F0A6FC002800F08D
:10272000CF81DFF888440DF10600216819F09CFC88
:10273000002800F0C581DFF878440DF1060021681B
:1027400019F092FC002800F0BB81DFF868440DF11D
:102750000600216819F088FC002800F0B181DFF83C
:1027600058440DF10600216819F07EFC002800F0A5
:10277000A781DFF848440DF10600216819F074FCC8
:10278000002800F09D81DFF838440DF10600216833
:1027900019F06AFC002800F09381DFF828440DF15D
:1027A0000600216819F060FC002800F08981DFF83C
:1027B00018440DF10600216819F056FC002800F0BD
:1027C0007F81DFF808440DF10600216819F04CFC08
:1027D000002800F07581DFF8F8430DF1060021684C
:1027E00019F042FC002800F06B81DFF8E8430DF19E
:1027F0000600216819F038FC002800F06181DFF83C
:10280000D8430DF10600216819F02EFC002800F0D5
:102810005781DFF8C8430DF10600216819F024FC48
:10282000002800F04D81DFF8B8430DF10600216863
:1028300019F01AFC002800F04381DFF8A8430DF1DD
:102840000600216819F010FC002800F03981DFF83B
:1028500098430DF10600216819F006FC002800F0ED
:102860002F81DFF888430DF10600216819F0FCFB89
:10287000002800F02581DE4C0DF10600216819F0DA
:10288000F3FB002800F01C81DA4C0DF106002168F2
:1028900019F0EAFB002800F01381D74C0DF1060077
:1028A000216819F0E1FB002800F00A81D34C0DF1FA
:1028B0000600216819F0D8FB002800F00181D04CF7
:1028C0000DF10600216819F0CFFB002800F0F88018
:1028D000CC4C0DF10600216819F0C6FB002800F071
:1028E000EF80C94C0DF10600216819F0BDFB0028EE
:1028F00000F0E680C54C0DF10600216819F0B4FB2C
:10290000002800F0DD80C24C0DF10600216819F0AE
:10291000ABFB002800F0D480BE4C0DF1060021680E
:1029200019F0A2FB002800F0CB80BB4C0DF1060093
:10293000216819F099FB002800F0C280B74C0DF116
:102940000600216819F090FB002800F0B980B44C13
:102950000DF10600216819F087FB002800F0B08017
:10296000B04C0DF10600216819F07EFB002800F044
:10297000A780AD4C0DF10600216819F075FB002809
:1029800000F09E80A94C0DF10600216819F06CFB47
:10299000002800F09580A64C0DF10600216819F082
:1029A00063FB002800F08C80A24C0DF1060021682A
:1029B00019F05AFB002800F083809F4C0DF10600AF
:1029C000216819F051FB00287AD09C4C0DF10600CB
:1029D000216819F049FB002872D0994C0DF10600CE
:1029E000216819F041FB00286AD0964C0DF10600D1
:1029F000216819F039FB002862D0934C0DF10600D4
:102A0000216819F031FB00285AD0904C0DF10600D6
:102A1000216819F029FB002852D08D4C0DF10600D9
:102A2000216819F021FB00284AD08A4C0DF10600DC
:102A3000216819F019FB002842D0874C0DF10600DF
:102A4000216819F011FBD8B3844C0DF10600216800
:102A500019F00AFBA0B3824C0DF10600216819F0B1
:102A600003FB68B37F4C0DF10600216819F0FCFAF6
:102A700030B37D4C0DF10600216819F0F5FAF8B17C
:102A80007A4C0DF10600216819F0EEFAC0B1784CCD
:102A90000DF10600216819F0E7FA88B1754C0DF1C7
:102AA0000600216819F0E0FA50B1734C0DF10600F0
:102AB000216819F0D9FA002818BF002400E000248A
:102AC00020460EB010BD00BFA01E0208B01E0208B6
:102AD000201F0208301F0208401F0208501F020872
:102AE000601F0208701F0208801F0208A01F020852
:102AF000901F0208B01F0208C01F0208D01F020862
:102B0000E01F0208F01F020800200208102002083F
:102B1000202002083020020840200208502002082D
:102B2000602002087020020880200208902002081D
:102B3000A0200208B0200208C0200208D02002080D
:102B4000E0200208F02002080021020810210208FB
:102B500020210208302102084021020850210208E9
:102B600060210208702102088021020890210208D9
:102B7000A0210208B0210208C0210208D0210208C9
:102B8000E021020810220208202202083022020856
:102B90004022020850220208602202087022020825
:102BA0008022020890220208A0220208B022020815
:102BB000C0220208D0220208E0220208F022020805
:102BC00000230208102302082023020830230208F1
:102BD00040230208502302086023020870230208E1
:102BE0008023020890230208A0230208B0230208D1
:102BF000C0230208D0230208E0230208F0230208C1
:102C0000002402082024020840240208302402087C
:102C1000502402086024020870240208902402084C
:102C2000A0240208B0240208C0240208E0240208FC
:102C3000F0240208002502081025020820250208B9
:102C40005025020860250208C01E0208D01E020896
:102C5000E01E0208F01E0208001F0208101F0208F2
:102C6000F021020800220208D024020840250208B0
:102C70008024020810240208302502082DE9F041C2
:102C80008EB00C460DF106010546FEF73BFBDFF862
:102C90004C0B00210C2906D850F821200131AA4202
:102CA000F8D1012600E0002600210C2905D850F8B3
:102CB00021200131AA42F8D104E0002C02DD0020DD
:102CC00000F088BDB4FA84F186F00100490901EAF8
:102CD0000005012D71D1DFF8080B01680DF1060028
:102CE00019F0C2F9002800F06484DFF8FC0A0168DA
:102CF0000DF1060019F0B8F9002800F05C84DFF847
:102D0000F00A01680DF1060019F0AEF9002800F094
:102D10005F84DFF8E40A01680DF1060019F0A4F9F8
:102D2000002800F05F84DFF8D80A01680DF1060082
:102D300019F09AF9002800F05B84DFF8CC0A0168EA
:102D40000DF1060019F090F9DFF8C07A002800F0C4
:102D50005A84DFF8BC0A01680DF1060019F084F905
:102D6000002800F05B84DFF8B00A01680DF106006E
:102D700019F07AF9002800F05884DFF8A00A0168F9
:102D80000DF1060019F070F9DFF8588A002800F0FC
:102D90005884DFF88C0A01680DF1060019F064F917
:102DA000002800F05B84DFF87C0A01680DF1060062
:102DB00019F05AF9002800F05F844EB1DFF8680A74
:102DC00001680DF1060019F04FF9002800F0F683B4
:102DD000EDB1DFF8580A01680DF1060019F044F969
:102DE000002800F0F283DFF8480A01680DF10600C0
:102DF00019F03AF9002800F0ED83DFF8380A01688D
:102E00000DF1060019F030F9002800F0EF834EB103
:102E1000DFF8280A01680DF1060019F025F90028ED
:102E200000F0DB838DB3DFF8180A01680DF10600AE
:102E300019F01AF9002800F0D783DFF80C0A0168AE
:102E40000DF1060019F010F9002800F0D383DFF827
:102E5000000A01680DF1060019F006F9002800F0DB
:102E6000D783DFF8F40901680DF1060019F0FCF8CA
:102E7000002800F0D583DFF8E80901680DF10600AD
:102E800019F0F2F8002800F0D4834EB1DFF8D80929
:102E900001680DF1060019F0E7F8002800F0AC8396
:102EA000002D00F06E81DFF8C40901680DF1060005
:102EB00019F0DAF8002800F0A983DFF8B8090168F2
:102EC0000DF1060019F0D0F8DFF81879002800F0AD
:102ED000A283DFF8A40901680DF1060019F0C4F817
:102EE000002800F0A483DFF8980901680DF10600BE
:102EF00019F0BAF8002800F0AA83DFF88809016801
:102F00000DF1060019F0B0F8002800F0AF83DFF8EB
:102F1000780901680DF1060019F0A6F8002800F004
:102F2000AE83DFF86C0901680DF1060019F09CF81A
:102F3000DFF84889002800F0AD83DFF85809016800
:102F40000DF1060019F090F8002800F09283DFF8E8
:102F5000480901680DF1060019F086F8002800F014
:102F6000AC83DFF83C0901680DF1060019F07CF82C
:102F7000002800F0B283DFF8300901680DF1060087
:102F800019F072F8002800F0B083DFF82409016816
:102F90000DF1060019F068F8002800F0B483DFF89E
:102FA000140901680DF1060019F05EF8002800F020
:102FB000B683DFF8080901680DF1060019F054F82E
:102FC000002800F0B183DFF8F80801680DF1060071
:102FD00019F04AF8002800F0AC83DFF8EC0801682B
:102FE0000DF1060019F040F8002800F0A683DFF884
:102FF000E00801680DF1060019F036F8002800F02D
:10300000A183DFF8D40801680DF1060019F02CF84F
:10301000002800F09C83DFF8C40801680DF1060069
:1030200019F022F8002800F09783DFF8B80801684B
:103030000DF1060019F018F8002800F09183DFF870
:10304000A80801680DF1060019F00EF8002800F03C
:103050008C83DFF8980801680DF1060019F004F878
:10306000002800F08783DFF88C0801680DF1060066
:1030700018F0FAFF002800F08183DFF8800801686B
:103080000DF1060018F0F0FF002800F07B83DFF858
:10309000740801680DF1060018F0E6FFDFF86078AB
:1030A000002800F07483DFF8600801680DF1060065
:1030B00018F0DAFF002800F06F83DFF85408016889
:1030C0000DF1060018F0D0FF002800F06983DFF84A
:1030D000440801680DF1060018F0C6FF002800F052
:1030E0006383DFF8340801680DF1060018F0BCFFB7
:1030F000002800F05E83DFF8280801680DF1060063
:1031000018F0B2FF002800F05983DFF81C080168AE
:103110000DF1060018F0A8FF002800F05183DFF839
:103120000C0801680DF1060018F09EFF002800F061
:103130004A83DFF8000801680DF1060018F094FFDB
:10314000002800F04283DFF8F40701680DF1060063
:1031500018F08AFF002800F03A83DFF8E8070168DA
:103160000DF1060018F080FF002800F09082DFF8D3
:10317000D80701680DF1060018F076FF002800F06E
:103180002883EEB1DFF8C80701680DF1060018F0DA
:103190006BFF002800F04682DFF8B80701680DF1E8
:1031A000060018F061FF002800F04582DFF8A8074C
:1031B00001680DF1060018F057FF002800F0498261
:1031C0004DB1DFF8980701680DF1060018F04CFFCB
:1031D000002800F033829EB1DFF8880701680DF106
:1031E000060018F041FF002800F02E82DFF8780773
:1031F00001680DF1060018F037FF002800F0318259
:10320000002D3FD0DFF8640701680DF1060018F0CB
:103210002BFFDFF8EC76002800F0FD81DFF8500787
:1032200001680DF1060018F01FFF002800F0218250
:10323000DFF8400701680DF1060018F015FFDFF810
:10324000B876002800F02382DFF82C0701680DF122
:10325000060018F009FF002800F02182DFF81C07A3
:1032600001680DF1060018F0FFFE002800F023822F
:10327000DFF80C0701680DF1060018F0F5FE0028D4
:1032800000F029824EB1DFF8000701680DF1060059
:1032900018F0EAFE002800F0F481002D45D0DFF898
:1032A000EC0601680DF1060018F0DEFE002800F0C3
:1032B000EB81DFF8DC0601680DF1060018F0D4FEA2
:1032C000002800F0EA81DFF8CC0601680DF1060065
:1032D00018F0CAFE002800F0EC81DFF8C006016893
:1032E0000DF1060018F0C0FE002800F0EB81DFF8B9
:1032F000B40601680DF1060018F0B6FE002800F0D3
:10330000F281DFF8A40601680DF1060018F0ACFEAA
:10331000002800F0F481DFF8980601680DF106003E
:1033200018F0A2FE002800F0F4814EB1DFF8840608
:1033300001680DF1060018F097FE002800F0B28138
:103340008DB3DFF8F40701680DF1060018F08CFE6C
:10335000002800F0AC81DFF8600601680DF106007E
:1033600018F082FE002800F0AA81DFF850060168FC
:103370000DF1060018F078FE002800F0B281DFF8A9
:10338000440601680DF1060018F06EFE002800F0FA
:10339000B381DFF8340601680DF1060018F064FE11
:1033A000002800F0B4814EB1DFF8200601680DF16D
:1033B000060018F059FE002800F08681EDB1DFF814
:1033C000100601680DF1060018F04EFE002800F00E
:1033D0008681DFF8040601680DF1060018F044FE4E
:1033E000002800F08481DFF8F80501680DF106007F
:1033F00018F03AFE002800F088814EB1DFF8E405AD
:1034000001680DF1060018F02FFE002800F0718110
:10341000002D3FF454ACDFF8D00501680DF1060033
:1034200018F022FE002800F06C81DFF8C405016866
:103430000DF1060018F018FEDFF89855002800F08E
:103440006B81DFF8B00501680DF1060018F00CFE85
:10345000DFF89C44002800F06481DFF89C050168D7
:103460000DF1060018F000FE002800F06081DFF882
:103470008C0501680DF1060018F0F6FD002800F03B
:103480005A81DFF87C0501680DF1060018F0ECFDAB
:10349000002800F05481DFF86C0501680DF106008A
:1034A00018F0E2FD002800F04F81DFF85C050168AC
:1034B0000DF1060018F0D8FD002800F04B81DFF870
:1034C000500501680DF1060018F0CEFD002800F04F
:1034D0004581DFF8400501680DF1060018F0C4FDD4
:1034E000002800F04081DFF8340501680DF1060086
:1034F00018F0BAFD002800F03B81DFF824050168D0
:103500000DF1060018F0B0FD002800F03581DFF85D
:10351000180501680DF1060018F0A6FD002800F05E
:103520002F81DFF8080501680DF1060018F09CFDF9
:10353000002800F02981DFF8F80401680DF1060089
:1035400018F092FD002800F02581DFF8E8040168FA
:103550000DF1060018F088FD002800F01F81DFF84B
:10356000DC0401680DF1060018F07EFD002800F073
:103570001981DFF8D00401680DF1060018F074FD20
:10358000002800F01481DFF8C40401680DF1060082
:1035900018F06AFD002800F00E81DFF8B40401681D
:1035A0000DF1060018F060FD00287FF488AB8F480D
:1035B00010E18C480EE18D4828300BE1DFF8C01493
:1035C00004EB041001EBC00004E18648303001E157
:1035D0008848FFE08D485830FCE0DFF8A00400EB9D
:1035E0004410F7E08548F5E09648F3E09248F1E0B2
:1035F0008448EFE09548EDE0DFF87C044FF49C71DF
:1036000004FB0100E6E007F11800E3E09848E1E080
:1036100090485030DEE007F14000DBE07D48D9E023
:103620008E48D7E0DFF84C1415E07A48CEE793488F
:10363000D0E08C48CEE0DFF83804D0E7DFF8200394
:10364000C8E008F11000C5E0DFF81C1403E083486F
:10365000BCE7DFF8181404EBC400B3E708F120005E
:10366000B8E0DFF80014C4EBC400ABE765483830BD
:10367000B0E007F15000ADE007F13800AAE0834860
:10368000A8E0DFF8DC130FE09D486030A2E007F10E
:1036900030009FE008F118009CE06E489AE007F1C6
:1036A000480097E0DFF8B41304EB84008AE78C4805
:1036B000DDE7B9488EE0604802E078488AE0654876
:1036C000203087E0B64885E0DFF88C1304EB440037
:1036D00001EB40107EE0AB487CE072487AE0BD48E8
:1036E00078E0B74876E0AE4870E7704872E0BB48D3
:1036F00070E0DFF8601363E74F4840306AE0AB48A2
:1037000068E0BA4866E06148B1E752485EE77A4847
:10371000BBE7504810305DE005F118005AE06648FC
:1037200058E004F1280055E007F1600052E0AF488E
:103730004CE764484EE04748DFE764484AE005F15B
:10374000300047E0634845E005F1480042E008F1F9
:1037500030003FE0AD483DE061483BE0AB4835E735
:1037600008F1480036E0AC4834E008F1600031E090
:10377000A9482BE75E482DE0AA482BE05E4829E0E7
:10378000A84823E75E4825E005F1600022E007F144
:1037900010001FE01D481DE05C481BE0A64819E032
:1037A0005A4813E7A64815E007F1200012E0A648A2
:1037B00010E05A480EE004F150000BE0594809E0CF
:1037C0004D48183006E05A4804E05B4802E05C4887
:1037D00000E05E480EB0BDE8F08100BF6C17020843
:1037E000A01E020820050020B01E0208501700206D
:1037F000201F0208E00E0020301F0208300F0020BA
:10380000401F0208700B0020501F0208B013002058
:10381000601F020820080020701F0208801F020895
:10382000A01F0208901F0208B01F0208C01F020854
:10383000D01F0208E01F020890140020F01F0208A9
:1038400000200208481D002010200208D81D00207A
:1038500020200208500C00203020020880080020A0
:1038600040200208B81E00205020020860200208F4
:10387000D02800207020020880200208E00F0020DD
:1038800090200208A0200208B0200208E00B0020CF
:10389000C0200208D0200208E0200208800F00208B
:1038A000F0200208E029002000210208A02A0020C0
:1038B0001021020820210208F00D0020302102080A
:1038C00040210208702C002050210208300D0020F9
:1038D00060210208700D002070210208802102087A
:1038E000C00C002090210208A0210208B02102088B
:1038F00000160020C021020850120020D02102082A
:10390000B0070020E021020810220208E008002091
:1039100020220208302202084022020870110020F2
:1039200050220208F82C00206022020870220208AF
:10393000402E002080220208E02F00209022020862
:1039400060300020A0220208B0220208E01100200E
:10395000C0220208D0220208E0220208F022020857
:10396000B03500200023020810230208202302089B
:103970003023020840230208502302086023020873
:1039800070230208400E00208023020890230208C2
:10399000A0230208B0230208B00D0020C0230208B3
:1039A00040090020D0230208E0230208083B002041
:1039B000F0230208002402084024020830240208F0
:1039C000900E00205024020860240208702402088F
:1039D00090240208D0120020A0240208B010002079
:1039E000B0240208C0240208E0240208F0090020E4
:1039F000F0240208002502081025020820250208EC
:103A00005025020860250208C01E0208500A002046
:103A1000D01E0208E01E0208B00A0020F01E0208B4
:103A2000001F0208100B0020101F0208F0210208DE
:103A300000220208D0240208C83F002040250208C6
:103A400008440020802402081011002010240208DD
:103A50003025020850400020283D0020103C002066
:103A6000F03900206838002070360020B83300207C
:103A7000D8320020E030002048200020681C0020C0
:103A8000B01800202DE9F0412DED028B164E4FF0BD
:103A90007E507061FDF7ECFBDFF8508006F1080402
:103AA00021464046FCF7CCFD0127B7EE008A0025F1
:103AB00030604FF47A7010F0DEF896ED050A01EEF2
:103AC000107AB8EE411A30EE080A86ED081A86ED33
:103AD000050A06F079FEC6E902054046224631682D
:103AE000FCF720FE0137E4E79005002020240208BF
:103AF0002DE9FC41052006F085FEDFF83C804046BC
:103B0000FCF782FE0D4F054600240DF107064FF429
:103B10007A7010F0B0F8284631468DF80740FCF76F
:103B20004BFF9DF807000028F1D0404629463A4651
:103B3000FCF7BCFEEBE700BF202402087818002049
:103B40007CB511490A25192610A000224FF4806384
:103B5000CDE900650FF066FF18B10FF069FE002493
:103B600000E001240C490DA000224FF48063CDE950
:103B700000650FF057FF00280CBF01240FF058FE1E
:103B8000204602B070BD00BFF13A0008754F5242A6
:103B90005F53554200000000853A0008754F5242BD
:103BA0005F5055420000000080B50DF013FF10F08B
:103BB00063FC0BF09DFD04480168C268114401607C
:103BC000BDE880400DF01CBFB846002010B504468B
:103BD00012F0D2FA4FF47A71B0FBF1F010F04AFD16
:103BE0004FF0FF302146002210F0E8FC002010BD0D
:103BF00081B00090009801B010F038B8704770475D
:103C000010B5032010F0CAFC134C6FF00B0000211C
:103C10000022A0476FF00A0000210022A0476FF0A9
:103C2000090000210022A0476FF0040000210022BB
:103C3000A0476FF0030000210022A0476FF00100B1
:103C40000F210022A0474FF0FF300F210022234612
:103C5000BDE81040184700BFBD450108B0B592B09F
:103C60000024254802250694016841F08051016036
:103C7000006800F080500690069806941F4801687E
:103C800041F440410160006800F44040069006980D
:103C90004FF480300790012006904FF480000C957F
:103CA0000D900C200E904FF4A8700F9004201090EF
:103CB0000E20119006A811F0C9FF00B1FEE70F20F9
:103CC0000295052101904FF4A050039404904FF405
:103CD0008050059001A812F02FF900B1FEE710F016
:103CE00083FB074807490EF0A7FB0BF02DFD06A04C
:103CF0000EF0F0FA12B0B0BD403802400070004043
:103D0000186F0020000003207561727432000000FB
:103D10007047FEE7FEE7FEE770470000024903A098
:103D2000002204F09FBC00BFAC25020870696E0041
:103D30000A4900224FF0010C043105E00CFA02F3AD
:103D4000834206D00C3101320F2AF7D9102A08BF5E
:103D500070470A680AB1486810477047A8020020F7
:103D600080B50DF037FE012011F0ECF9BDE8804080
:103D70000DF046BE80B50DF02DFE022011F0E2F9E7
:103D8000BDE880400DF03CBE80B50DF023FE042060
:103D900011F0D8F9BDE880400DF032BE80B50DF0CD
:103DA00019FE082011F0CEF9BDE880400DF028BEC4
:103DB00080B50DF00FFE102011F0C4F9BDE8804071
:103DC0000DF01EBE10B50DF005FE084C2020A047DA
:103DD0004020A0478020A0474FF48070A0474FF4B8
:103DE0000070A047BDE810400DF00ABE4551010823
:103DF00010B50DF0EFFD0B4C4FF48060A0474FF471
:103E00000060A0474FF48050A0474FF40050A047F7
:103E10004FF48040A0474FF40040A047BDE8104059
:103E20000DF0EEBD4551010870B586B0C8B215461B
:103E300064289ABF144931F810600026304600F01B
:103E400041F90446F4B1304600F06EF9012000213A
:103E50000290039103210491F1B288400190681E01
:103E600003280BD8DFE800F006020408012000E078
:103E700002200390002000E01120029001A92046BA
:103E800010F0FCFF06B070BD5C450208B0B5C8B2CA
:103E9000144664289ABF094931F810500025284675
:103EA00000F010F948B1E9B2012202FA01F122460C
:103EB00089B2BDE8B04011F028B9B0BD5C45020838
:103EC00010B5C8B264289ABF094931F810400024DF
:103ED000204600F0F7F840B1E1B2012202FA01F108
:103EE00089B2BDE8104011F00BB9002010BD00BF31
:103EF0005C4502082DE9F0470E461C461546F0B217
:103F000064289ABF1F4931F810700027384600F026
:103F1000D9F810B1FFB20F2F02D90620BDE8F08703
:103F2000DDF82080DFF8609007EB470A0BF032FBEA
:103F300039F82A100AB2B2420CD107EB470209EB5A
:103F400082025368A34205D15388AB4202D19268E2
:103F5000424512D04FF6FF72914204D00BF01EFB87
:103F60000720BDE8F08709EB8A010E8007EB4701C7
:103F700009EB81014D80C1E901480BF00FFB0020E6
:103F8000BDE8F0875C450208A802002070B5C8B201
:103F900064289ABF154931F810400024204600F0EB
:103FA00091F810B1E4B20F2C02D90624204670BD5E
:103FB0000F4D04EB44060BF0EDFA35F826204FF6D2
:103FC000FF718A4203D10BF0E9FA0024EEE705EB1A
:103FD0008602118004EB4401002405EB81014C8032
:103FE000C1E901440BF0DAFAE0E700BF5C450208E2
:103FF000A80200202DE9F04385B0C8B21446642819
:104000009ABF2C4931F810600026304600F05AF86B
:104010000546002D49D0D4B3012C46D1F7B20F2F5D
:1040200043D807EB47040BF0B5FADFF890908046D1
:104030004FF6FF7139F82400884233D0304600F043
:1040400073F8032003900120B840009009EB84002E
:104050004088022806D8C0F102010291184901EBFC
:10406000005001906946284610F008FF12480521CB
:104070000022002500EBC7004668304610F09EFA8B
:10408000304610F0CBFA40460BF088FA0EE0F0B262
:104090000F280AD8084901EBC000406810F0CAFA9E
:1040A000002503E040460BF079FA0625284605B0C6
:1040B000BDE8F0835C450208DC440208A802002049
:1040C0000000111020F0FF00A0F58070010A0A29FD
:1040D0000BD81448DFE801F00A060B0E1114171A6A
:1040E0001D20230000F5806070470020704700F518
:1040F0000060704700F54060704700F580507047E1
:1041000000F5A050704700F5C050704700F5E05032
:10411000704700F50050704700F51050704700F5EB
:10412000205070470000024081B020F0FF00A0F551
:104130008070000A0A2800F28280DFE800F0061191
:104140001C27323D48535E69740000200090AC4843
:10415000016841F001010160006800F001006CE0BD
:1041600000200090A648016841F00201016000684B
:1041700000F0020061E000200090A148016841F0D9
:1041800004010160006800F0040056E00020009087
:104190009B48016841F008010160006800F00800D8
:1041A0004BE0002000909648016841F0100101604A
:1041B000006800F0100040E0002000909048016886
:1041C00041F020010160006800F0200035E000208F
:1041D00000908B48016841F040010160006800F0E8
:1041E00040002AE0002000908548016841F08001ED
:1041F0000160006800F080001FE00020009080480F
:10420000016841F480710160006800F4807014E07E
:10421000002000907A48016841F400710160006854
:1042200000F4007009E0002000907548016841F436
:1042300080610160006800F480600090009801B027
:10424000704700BF10B50DF0C5FB0B4C206801682E
:1042500011F0200F0BD0C06810F0200F07D00748D6
:10426000012104F059FF20686FF020010160BDE8D2
:1042700010400DF0C5BB00BFF0140020D005002099
:1042800010B50DF0A7FB0B4C2068016811F0200F52
:104290000BD0C06810F0200F07D00748012104F0B0
:1042A0003BFF20686FF020010160BDE810400DF079
:1042B000A7BB00BF801600205013002010B50DF0E2
:1042C00089FB0B4C2068016811F0200F0BD0C068EF
:1042D00010F0200F07D00748012104F01DFF2068CF
:1042E0006FF020010160BDE810400DF089BB00BFF8
:1042F000B01700203014002070B586B004463F4D42
:104300003F4E206805F54C41884225D100200190A0
:10431000716941F010017161716901F01001019141
:1043200001990190306801A940F0010030603068C7
:1043300000F0010001900198022002904FF4C0604B
:10434000019001200390032004900720059005F5BB
:10435000DE3010F093FD2068A84224D100200090A8
:10436000316941F400313161316901F4003100916A
:1043700000990090306801A940F008003060306872
:1043800000F0080000900098022002906020019048
:1043900001200390032004900720059005F5E430E8
:1043A00010F06CFD206805F58061884224D1002062
:1043B0000090316941F480213161316901F480213B
:1043C000009100990090306801A940F0020030602F
:1043D000306800F0020000900098022002904FF434
:1043E0004060019001200390032004900720059075
:1043F00005F5E03010F042FD06B070BD004400400D
:104400003038024070B50446174D184E206805F547
:104410004C4188420AD170684FF4C06120F010000E
:10442000706005F5DE3010F0F5FD2068A84209D176
:1044300030680C2120F40030306005F5DE3010F0DB
:10444000E9FD206805F58061884218BF70BD3068BD
:104450004FF4406120F48020306005F5E030BDE885
:10446000704010F0D7BD00BF00440040403802400B
:104470002DE9F0411B4B1D4C194A252117481A4FB5
:104480004FF4E1351A4E996404F54C41C0E91175B9
:10449000C264904640F20312196016A1B047174B50
:1044A000262018A140F203121C6098641448C0E949
:1044B0001175C0F84C80B047144B04F5806027217B
:1044C00040F2031218601248996412A1C0E91175F4
:1044D000C0F84C80B0470020BDE8F081D005002036
:1044E00008000100F0140020C43E0208004400400F
:1044F0000589000875617274310000008016002083
:10450000501300207561727432000000B017002053
:10451000301400207561727433000000B0B5054698
:104520000C4625B91B481C492B220DF043FF24B92A
:1045300019491AA02C220DF03DFF286C2168002299
:1045400041600C21C0E90512C261616801F00F01F0
:104550000939B1FA81F14909090381606168C1F340
:1045600001110139B1FA81F149094903C16061685A
:10457000C1F38111012908BF4FF4C062022908BFAD
:104580004FF48062026115F0A1FB002818BF0120E2
:10459000B0BD00BFF3460208054702086366672006
:1045A000213D2052545F4E554C4C0000B0B505469D
:1045B0000C4625B9154816A164220DF0FBFE286CA7
:1045C000102C12D0112C1FD1816C144B4A0901F010
:1045D0001F0103EB8202012303FA01F1C2F88010EC
:1045E0000068C16821F020010DE0816C012301F019
:1045F0001F02490903FA02F2084B43F82120006820
:10460000C16841F02001C1600020B0BDF34602083E
:104610006472765F636F6E74726F6C0000E100E02D
:10462000B0B505460C4625B9084809A17B220DF016
:10463000C1FE286C6FF040010068016044600168B1
:1046400011F0400FFBD00120B0BD00BFF3460208BF
:104650006472765F707574630000000010B50446E4
:1046600024B9084808A187220DF0A4FE206C006838
:10467000016811F0200F0EBF4FF0FF304068C0B24C
:1046800010BD00BFF34602086472765F676574630D
:1046900000000000B0B598B0406C0C46002200212C
:1046A000006C446000680190207810F0080F08BF8B
:1046B0004FF48272029200F040025202039262783A
:1046C000082A03D0102A54D14FF4006104914FF40A
:1046D0000071079100F0010100F0020006910590C1
:1046E000656811F05FFDB5EB500F27D2656811F0DA
:1046F00059FDB5EB900F23D2656811F053FDB5EB72
:10470000D00F1FD2656811F04DFDB5EB101F1BD205
:10471000656811F047FDB5EB501F17D2656811F0C1
:1047200041FDB5EB901F13D2656811F03BFD3021C0
:10473000B5EBD01F38BF382108910BE0002008E00E
:10474000082006E0102004E0182002E0202000E00D
:1047500028200890207800210722CDE90A110C9228
:104760001691802121EA4010099001A811F09CFDCA
:1047700008B1082005E00198016841F0400101609E
:10478000002018B0B0BD00BF2DE9FE4F0546894698
:1047900025B9404940A0C2220DF00CFE686C28B932
:1047A0003C4942A0C3220DF005FE686C50F8401F42
:1047B00031B9384943A0C4220DF0FCFD686C40308B
:1047C000076899F81000D5F84080C00704D0D8F8E1
:1047D0000000002104F05AF899E843004FF0000E61
:1047E0004FF0FF0B0DF1040C0DF1080A3AE050EA0E
:1047F0000102ADF808E0ADF804B036D03D68AA6813
:1048000012F0020FFBD000286346544618BF03463F
:10481000002918BF0C467A685278082A14BF1B88F2
:104820001B78EB60AB6813F0010FFBD0EB68082A34
:1048300014BF2380237041B17A685278082A4FF060
:10484000020208BF0122114400E0002140B17A6851
:104850005278082A4FF0020208BF0122104400E0FB
:104860000020013E002EC2D100263868816811F078
:10487000800FFBD199F81000800704D5D8F800000C
:10488000012104F003F8D9F80800801B03B0BDE84B
:10489000F08F00BF2F4702086465766963652021A9
:1048A0003D2052545F4E554C4C00000064657669C3
:1048B00063652D3E62757320213D2052545F4E5535
:1048C0004C4C00006465766963652D3E6275732DFE
:1048D0003E706172656E742E757365725F6461748B
:1048E0006120213D2052545F4E554C4C0000000089
:1048F0000F4A90420CD00F4A90420CD00E4A904280
:104900001CBF4FF0FF307047074A0D4B083205E0DF
:10491000054A064B02E0044A084B103210601A6444
:10492000084A184605F0B2BA3006002040150020AB
:1049300000300140003C00400038004000180020DA
:10494000D0160020E84602082DE9F0410646542022
:10495000154688460DF0E6FD07462FB9104911A00F
:104960004FF48C720DF026FD04200DF0DBFD0446A3
:104970002CB90B4911A04FF48D720DF01BFD304680
:104980000021266003F064FF3046012103F07EFF22
:104990003846294642462346BDE8F04105F08DBA27
:1049A000134702087370695F646576696365202147
:1049B0003D2052545F4E554C4C00000063735F70B5
:1049C000696E20213D2052545F4E554C4C00000032
:1049D00010B5054C05A104F57840FFF789FF05A146
:1049E0002046BDE8104083E700380040737069310D
:1049F000000000007370693200000000FEB500681E
:104A00003A49884226D03A49884247D039498842B3
:104A10006AD10020384901904A6942F480524A61C3
:104A20004A6902F480520192019A01900A6842F0A8
:104A300001020A60096801F0010101910199022156
:104A40000291E0210191039003200490052005903C
:104A50002A4846E00020284901900A6942F4804231
:104A60000A610A6902F480420192019A01900A687F
:104A700042F002020A60096801F002010191019905
:104A8000022102914FF460410191039003200490B0
:104A900005200590194800F5806022E000201649A5
:104AA00001900A6942F400420A610A6902F4004274
:104AB0000192019A01900A6842F004020A600968B2
:104AC00001F0040101910199022102914FF4E0519A
:104AD000019103900320049006200590074800F5FB
:104AE000006001A910F0CAF906B080BD003800408E
:104AF000003C0040003001403038024000000240DD
:104B00000068164988420FD01549884219D01549C6
:104B1000884218BF70471448016821F48051016031
:104B20006D48E02110F076BA6B484FF4615142585D
:104B300022F48042425000F580604FF4604110F052
:104B400069BA65484FF46151425822F4004242501C
:104B500000F500604FF4E05110F05CBA00380040FE
:104B6000003C0040003001404438024080B50CF069
:104B700031FF034810F0B4FBBDE880400CF040BFAB
:104B80005847002010B5002140220023044610F0B1
:104B900002FF204680214022002310F0FCFE024844
:104BA000BDE8104007F05CBB4C4B002000F5707175
:104BB000014807F0ABB900BF4C4B002049B1C1EB35
:104BC000C10241F0800100EB8200026D024807F053
:104BD000FBBA014807F02EBA4C4B0020014807F001
:104BE0005FBB00BF4C4B0020014807F09BBB00BFE0
:104BF0004C4B0020014807F073BB00BF4C4B00201A
:104C000041B1C1EBC10200EB8200D0F81022044890
:104C100007F000BBD0F81012014807F0B3BA00BF8C
:104C20004C4B0020704700BF0068B0F1A04F18BF88
:104C30007047B0B586B00025194C01A901952068D0
:104C400040F001002060206800F001000190019810
:104C5000022002904FF4C05001900320039504906D
:104C60000A2005900F4810F009F96068052100221C
:104C700040F0800060600095606940F480406061B1
:104C8000606900F480400090009843200FF096FC8B
:104C900043200FF0C3FC06B0BDE8B040704700BF32
:104CA00030380240000002400068B0F1A04F18BF49
:104CB000704780B50748016821F08001016006480F
:104CC0004FF4C05110F0A6F94320BDE880400FF02A
:104CD000B1BC00BF343802400000024010B50D4C9A
:104CE0000021942220460CF0DFFE09200C4900220E
:104CF00060610948A0620948C4E9100109480AA195
:104D0000C4F88C00E06720460AF096FD08F0D8F859
:104D1000002010BD4C4B0020314D000858470020AA
:104D2000C42502085402002075736264000000006C
:104D3000B0B5046C04204FF0A041C4E9001002207B
:104D40000021C4E90301C4E905102046C4E90711A4
:104D50006162C4E90B1110F001FA2046802110F0C5
:104D60006FFF0B4D204600214022A847204601211D
:104D70004022A847204602214022A847204603217E
:104D80004022A847204610F096FA0020B0BD00BF90
:104D9000F15B010880B50146024810F0EAFD0020F1
:104DA00080BD00BF584700200020704780B50146F5
:104DB000024810F08FFE002080BD00BF5847002041
:104DC00080B50146024810F0B5FE002080BD00BF4E
:104DD0005847002010B5044624B90A480A49A222BF
:104DE0000DF0E8FAA06828B908480749A3220DF099
:104DF000E1FAA06882888178C378054810F0CBFD7D
:104E0000002010BD4E470208CA9E0208374702081C
:104E10005847002010B5044624B909480949AB2277
:104E20000DF0C8FAA06828B907480649AC220DF071
:104E3000C1FAA0688178054810F0DBFD002010BDA4
:104E40004E470208D89E02083747020858470020FC
:104E500010B514460A4601460248234610F0EDFDFF
:104E6000204610BD5847002039B980B504A009A1DB
:104E7000B4220DF09FFABDE880400020704700BFCB
:104E800062756666657220213D2052545F4E554C16
:104E90004C0000005F65705F726561640000000097
:104EA00010B514460A4601460248234610F0F1FDAB
:104EB000204610BD5847002080B50448002100223C
:104EC000002310F0E6FD002080BD00BF5847002001
:104ED000002070470020704781B00068B0F1804F1B
:104EE00014D0224988421CD02149884224D021492B
:104EF00088422CD02049884235D1002000901F489C
:104F0000416841F001014160406807E000200090E5
:104F10001A48016841F001010160006800F00100D9
:104F20001FE0002000901548016841F00201016077
:104F3000006800F0020014E0002000900F480168B3
:104F400041F004010160006800F0040009E0002065
:104F500000900A48016841F008010160006800F013
:104F600008000090009801B0704700BF00040040A6
:104F700000080040000C00400000014040380240A2
:104F80000168124A104891420DD0114A91420ED048
:104F9000104A91420ED0104A91420ED0B1F1804F8A
:104FA00018BF704700E004306FF0010107E06FF0B8
:104FB000020104E06FF0040101E06FF008010268F3
:104FC00011400160704700BF4038024000000140BE
:104FD0000004004000080040000C0040F0B591B013
:104FE0005E4C5F481421254645F8040F281D16F035
:104FF000E7FF284612F066FD20B15A485A49A3221D
:105000000DF0D8F90020251D08A9CDE90800284693
:1050100014F007FE20B153485349AA220DF0CAF9F3
:1050200060200AAE18210A90301D16F0C9FF2846EC
:105030003146002213F06AFD20B14A484A49B8229D
:105040000DF0B8F90AA92846042213F05FFD20B13B
:1050500044484549BF220DF0ADF90AA92846082267
:1050600013F054FD20B13F483F49C6220DF0A2F98C
:105070000AA928460C2213F049FD20B139483A49C3
:10508000CD220DF097F901AE1421304616F098FFAD
:1050900000274FF40050314607970690284614F039
:1050A000DEFD20B12F483049DB220DF083F9284680
:1050B00000F068F8012048210DF0D2FC2BA1224617
:1050C0002B4605F06DFA2B484FF08041C0E90017E0
:1050D000C0E90277076112F0F5FC20B121482649AA
:1050E000EE220DF067F92348002401A9CDE901441F
:1050F00014F097FD20B11B481F49F5220DF05AF915
:1051000060200B940AA908220A901A480C940E9465
:1051100013F0FCFC28B1134817494FF487720DF0C7
:1051200049F914480AA90C2213F0F0FC28B10D48E3
:10513000114940F215120DF03DF90E4C204600F0D9
:1051400021F8012048210DF08BFC044A0BA12346D5
:1051500005F026FA002011B0F0BD00BF00000020CD
:1051600000000140ED4B02085C47020870776D318A
:1051700000000000601000206947020870776D325F
:10518000000000002DE9F04387B00068B0F1804FC7
:105190001CD02B4988424FD100202A4902900A682E
:1051A00042F010020A60096801F0100102910299B0
:1051B000022103914FF4D4410291CDE90400012072
:1051C00002A90690204800F5805033E000261D4FCC
:1051D0001D4C02AD4FF002084FF00109029629461E
:1051E000386840F001003860386800F00100029033
:1051F0000298CDF80C80082002902046CDE9046684
:10520000CDF818900FF03AFE01962946386840F024
:1052100002003860386800F0020001900198CDF873
:105220000C804FF48060029004F58060CDE9046644
:10523000CDF818900FF022FE07B0BDE8F08300BF54
:105240000000014030380240000002402DE9F047E4
:1052500080391446032954D8066CDFE801F0025463
:10526000084230462146012200F082F875E03D48B0
:105270003E494FF47A72002300250068B0FBF1FA32
:10528000D4E90080A0FB0A0116F07FFB4FF6FF7106
:10529000D6F800900023B0FBF1F14A1CC9F82810A1
:1052A000B0FBF2F7032F98BF0327781EC9F82C0034
:1052B000F060A068A0FB0A0116F067FB4FF47A7259
:1052C000002316F062FB874228BF0746022809EB3D
:1052D0008800A7F1010138BF01210163C9F82450FA
:1052E0003CE020686FF0030101EB80011D4802687B
:1052F0003068036803F44073B3F5807F0AD102235A
:1053000010E00A252AE0304621460022002500F060
:105310002FF823E0036803F440770123B7F5007FFB
:1053200008BF0323DA40104B4FF47A770144B2FBF5
:10533000F3F2C36A866A7B43013603F57A737343DB
:10534000B3FBF2F36360496B806A7943013001F586
:105350007A714843B0FBF2F0A06000252846BDE812
:10536000F08700BF4802002040420F0080841E00EA
:1053700009686FF00303002A03EB810101D012F0EA
:10538000D5BB12F0EBBB0000BFB505460AF06AFAC8
:105390000446A4B340F6040001A9ADF804001C487B
:1053A0000290204604F0A8FDFF200DF10F058DF8B6
:1053B0000F002046294600F05BF8042029468DF8AE
:1053C0000F00204600F054F89F2001AB294601222F
:1053D0008DF80F0009200090204604F027FE9DF86C
:1053E0000B109DF80A009DF80C20090241EA0040CC
:1053F00040EA020107A00CF009FD002005E00CA026
:1054000029460CF003FD6FF0050004B0B0BD00BFED
:10541000002D3101666D32357678782064657669C5
:1054200063652049443A256F20210D0A00000000E1
:1054300073706920646576696365202573206E6FDB
:105440007420666F756E64210D0A000010B5054C5E
:1054500005A139202246FFF777FA2046BDE8104023
:1054600092E700BF764702087370693200000000BF
:105470000022012304F03CBEE0B5944601F07F0118
:10548000009301228DF807100DF10701634604F027
:105490006BFD002002B080BDE0B5944641F0800174
:1054A000009301228DF807100DF10701634604F007
:1054B000BDFD002002B080BD10B5044600F06CFABE
:1054C00000B110BD2046BDE8104000F0D7BE00BFBF
:1054D00010B5044600F00CF800B110BD0348E061BF
:1054E0002046BDE8104000F0C1BA00BFF425020814
:1054F00050B1416A41B1816A31B1C16A00200029CD
:1055000008BF4FF0FF3070474FF0FF307047BCB519
:105510000C4605462046FFF7EBFFF8B9681EC0B2FF
:10552000022808D80220E07405F109002075C5F1B1
:1055300004002076E075204600F023FC70B9204678
:1055400000F04CFF50B905F003000DF106010122F7
:105550002346ADF80600022000F02DFB02B0B0BDDE
:10556000F8B51C46074615460E462046FFF7C0FF15
:1055700008BB4FF400604FF400510222234600EABA
:1055800057106FF3DF2701EAD6016FF35F36384318
:105590003143ADF800004FF4804000EA8530084305
:1055A0004FF4004101EA550108436946ADF8020095
:1055B000002000F000FB01B0F0BDFEB51446064629
:1055C0000D462046FFF794FF0146FF2055B34EB32A
:1055D00041BB0DF106071E2004222346394600F088
:1055E00022FBF8B9391D27200222234600F01BFBBD
:1055F000C0B99DF806009DF8071040EA01203080F0
:105600009DF808009DF8091040EA012070809DF87F
:105610000A009DF80B1040EA01202146B080284680
:1056200000F061FF40B203B0F0BDB0B50C460546D6
:1056300000F058FC58B905F10C00214600F052FC6E
:1056400028B905F11800214600F078FF00B1B0BD7F
:1056500005F124002146BDE8B04000F06FBF00BF57
:10566000BCB505460AF0FEF804461CB340F6070038
:105670006946ADF8000013480190204604F03CFC58
:105680001149284616F0F0FC48B9204600F04AF8C7
:10569000204600F047F801460CA00CF0B7FB124979
:1056A000284616F0E1FC48B9204600F03BF80146D8
:1056B0000EA001E014A029460CF0A8FB204602B081
:1056C000B0BD00BF002D310183470208626D693013
:1056D00038382061636320646576696365204944D6
:1056E0003A256F20210D0A008A470208626D693051
:1056F00038382067726F2064657669636520494495
:105700003A256F20210D0A0073706920646576695F
:105710006365202573206E6F7420666F756E64213B
:105720000D0A0000E0B580210DF1060301228DF87D
:105730000710012100910DF1070104F077FC9DF89D
:10574000060002B080BD00BF70B5174D174C072092
:1057500029462246FFF7F8F8154E12202946324610
:10576000FFF7F2F80220002103F072F80220012175
:1057700003F08CF83046FFF773FF0E4D286020468B
:10578000FFF76EFF0C490D4A0D4B0E4E686001F19C
:10579000240CACE84C002A68C1E901020846FFF776
:1057A0008BFE002070BD00BF7E47020883470208C1
:1057B0008A470208500600201C4C0020995400081B
:1057C0007954000805A8000880B5022804DB486861
:1057D00003A116F049FC08B1002080BD00F004F8D8
:1057E00073746172740000002DE9F84F2DED0E5BAB
:1057F0004F4C5048C4F81100204600F012FB2046E0
:1058000000F0BFFA4C48C4F81500204600F03DFEF9
:10581000204600F0E3FD494800F108014848FAF746
:105820000FFF494FDFF81C91059048463946FAF7BB
:1058300007FF9FED568A9FED56AA9FED56BA0DF1D0
:10584000080AEB46B0EE089A0DF1140804AE049075
:105850005046214600F017FB10B13CA00CF0D6FAE0
:105860005846214600F03FFE10B140A00CF0CEFAA1
:1058700004F096FFBDF90820BDF90C3000EE102AA7
:105880002E4AB8EEC00A20EE080A42F8080FBDF909
:105890000A0020EE090A5160414682ED060A00EE38
:1058A000103A01EE100A2648B8EEC00AB8EEC11A46
:1058B00020EE080A21EE081A20EE090A21EE091A44
:1058C00082ED080A82ED071AFAF72CFF04F068FF50
:1058D000BDF90020BDF90230BDF9045000EE102AD8
:1058E00001EE103A02EE105A3A46B8EEC00AB8EE8F
:1058F000C11AB8EEC22AC7E900014846314620EE77
:105900000A0A21EE0A1A22EE0A2A80EE0B0A81EE1A
:105910000B1A82EE0B2A87ED060A87ED071A87ED30
:10592000082AFAF7FFFE4FF4FA700EF0A4F98FE799
:105930001C4C002000000207000104045006002057
:10594000C022020800230208A0090020626D69300D
:105950003861636320676574206461746120466107
:10596000696C656420210D0A00000000626D6930D9
:105970003867726F206765742064617461204661C6
:10598000696C656420210D0A0000000000000038E9
:105990000000F44100007A44BCB5002504468DF8AF
:1059A000075000F020F8D8B92574E068012807D125
:1059B0000DF1070100200122234600F023F878B9F9
:1059C0000DF1070100200122234600F01BF838B931
:1059D0009DF807001E2811BFFD201E20207000200A
:1059E00040B202B0B0BD50B1416A41B1816A31B13B
:1059F000C16A0020002908BF4FF0FF3070474FF008
:105A0000FF3070472DE9F04703AF98460E46014638
:105A10001546154B98F810004219072010FA82F02D
:105A20001840ADEB0004A546D8F80C30D8F80400B7
:105A3000D8F824C0012B93B2224608BF41F0800160
:105A4000E04740B1FE2009E098F81000013D205CDD
:105A5000013406F8010B002DF6D10020A7F10C044B
:105A600040B2A546BDE8F087F8FF01002DE9FC41F2
:105A7000044600208DF805008DF804008DF8030021
:105A80002046FFF7B0FF002804D0FF2040B202B04C
:105A9000BDE8F081E0690028F7D094F820000028E4
:105AA00062D001A97D2001222346FFF7ABFF002829
:105AB000ECD10DF105017D200122234600F068F8AC
:105AC0000028E3D1E16A052088470DF1050159203E
:105AD0000122234600F05CF80028D7D100200DF108
