:020000040800F2
:100000000817002061690008B15500081FD40008D6
:10001000B3550008B7550008BB55000800000000A4
:10002000000000000000000000000000BF550008B4
:1000300075690008000000006BD30008E154000857
:100040007B6900087B6900087B6900087B69000800
:100050007B6900087B690008B55B0008C75B000886
:10006000D95B0008EB5B0008FD5B00087B690008BA
:100070007B6900087B6900087B6900087B690008D0
:100080007B6900087B6900087B6900087B690008C0
:100090007B6900087B6900087B6900080F5C000829
:1000A0007B6900087B6900087B6900087B690008A0
:1000B0007B6900087B6900087B6900087B69000890
:1000C0007B6900087B6900087B6900087B69000880
:1000D0007B6900087B6900081F5E00087B690008D7
:1000E0003D5C00087B6900087B6900087B690008AB
:1000F0007B6900087B6900087B6900087B69000850
:100100007B6900087B6900087B6900087B6900083F
:100110007B6900087B6900087B6900087B6900082F
:100120007B6900087B6900087B6900087B6900081F
:100130007B6900087B6900087B6900087B6900080F
:100140007B6900087B6900087B6900087B690008FF
:100150007B6900087B6900087B6900087B690008EF
:100160007B6900087B6900087B6900087B690008DF
:100170007B6900087B6900087B69000800000000BB
:100180007B6900087B6900087B6900087B690008BF
:100190007B6900087B6900087B6900087B690008AF
:1001A00000000000000000007B69000800F002F879
:1001B00000F060F80AA090E8000C82448344AAF1A1
:1001C0000107DA4501D100F055F8AFF2090EBAE89F
:1001D0000F0013F0010F18BFFB1A43F0010318477B
:1001E000C4730100E47301000A444FF0000C10F8DE
:1001F000013B13F0070408BF10F8014B1D1108BFA5
:1002000010F8015B641E05D010F8016B641E01F844
:10021000016BF9D113F0080F1EBF10F8014BAD1C94
:100220000C1B09D16D1E58BF01F801CBFAD505E0B2
:1002300014F8016B01F8016B6D1EF9D59142D6D30C
:10024000704700000023002400250026103A28BF34
:1002500078C1FBD8520728BF30C148BF0B60704738
:100260001FB514F04BFA9DE8030013F04DFD1FBDC0
:1002700010B510BD13F000FE1146FFF7F1FF00F0BE
:100280008FF813F01EFE03B4FFF7F2FF03BC13F068
:100290004FFE0000704719480068704770B504466B
:1002A0000DF04CF805461548046028460DF04AF854
:1002B00070BD10B511480068401C1049086003F07B
:1002C000BCFF0446A06C401EA064A06C18B9606C12
:1002D000A06404F094F904F062FD10BD0146002909
:1002E00002DA4FF0FF3007E064224A4302F2E732BD
:1002F0004FF47A7392FBF3F0704700000000002087
:100300000020704700207047002070470020704791
:1003100010B5274C02E020688047241D2548844200
:10032000F9D310BD10B5234C02E020688047241D8E
:1003300021488442F9D310BD10B50446FFF7F2FFFF
:1003400004F0F8FE10BD1CB514200A214FF4006320
:100350000022CDE90010AFF21F0118A004F0EDF863
:10036000044624B9CA22174917A002F0E8FE204625
:1003700004F06DF81CBD10B50CF0E0FF05F0FDF8C1
:1003800002F008FE04F0EBFD03F0B7FDFFF7DBFF22
:1003900004F0F1FD00F058FB03F0F5FD002010BD66
:1003A00010B50CF0CBFFFFF7E6FF002010BD0000FA
:1003B000F073010804740108207401086D61696E0E
:1003C000000000000647010874696420213D2052A6
:1003D000545F4E554C4C00002DE9F041064603F0A9
:1003E0002CFF08B103F095FE092003F0ADFB044695
:1003F00024B97C22F549F6A002F0A1FE656810E060
:10040000A5F10C0708223146384602F0DEFA38B969
:1004100003F013FF08B103F08AFE3846BDE8F0810F
:100420002D68201D8542EBD103F007FF08B103F0D2
:100430007EFE0020F2E770B504460D46164614B95C
:100440004FF0FF3070BD2846FFF7C6FF10B14FF0E8
:10045000FF30F7E72A460921204603F087FBE682B2
:100460000020A076208300BFECE710B5044624B935
:100470005222DD49DDA002F062FE204603F04EFC70
:10048000092804D05322D849DCA002F058FE2046A7
:1004900003F033FC20B95422D349E7A002F04FFE09
:1004A000204603F090FB002010BD002070472DE98E
:1004B000F04106460C464027E01C20F00304274488
:1004C000384602F081FF05462DB140220021284622
:1004D00002F08DF92E752846BDE8F08110B504466E
:1004E00024B9BA22DE49C1A002F029FE204603F059
:1004F00015FC092804D0BB22D949C0A002F01FFE78
:10050000204603F0FAFB20B1BC22D549D5A002F069
:1005100016FE204603F057FB204603F05AF810BDA4
:1005200070B50446002524B9D122DB49AFA002F002
:1005300006FE606A90B1A07D00F0100070B9204600
:10054000616A884705462DB12A462146D3A002F0AC
:10055000F1FC03E0E08A40F01000E082284670BD24
:1005600070B504460E46002524B9F422D9499FA04F
:1005700002F0E5FD204603F0D1FB092804D0F52266
:10058000D4499EA002F0DBFDA07D00F0100088B9E8
:10059000606A58B12046616A8847054635B12A46E7
:1005A0002146BEA002F0C6FC284670BDE08A40F09D
:1005B0001000E082A07D00F0080030B1207E00F045
:1005C000080010B16FF00600EFE7A06A28B13146CD
:1005D0002046A26A9047054603E040F60F7030407F
:1005E00020830DB1A81D70B9208B40F00800208336
:1005F000A07E401CA076A07E28B940F22312B54907
:10060000B5A002F09CFD2846CFE770B50446002552
:100610002CB940F23512B54974A002F090FD204685
:1006200003F07CFB092805D04FF49B72AF4973A0FF
:1006300002F085FDA07E10B94FF0FF3070BDA07EA6
:10064000401EA076A07E08B10020F7E7E06A18B14E
:100650002046E16A884705460DB1A81D08B900206B
:1006600020832846EAE72DE9F04104460D46164668
:100670001F462CB940F25F129D495CA002F05FFD5D
:10068000204603F04BFB092805D04FF4B07298497F
:100690005AA002F054FDA07E30B94FF0FF3002F0B6
:1006A00085F80020BDE8F081206B38B13B4632462A
:1006B00029462046D4F830C0E047F3E76FF0050044
:1006C00002F074F80020EDE72DE9F04104460D46F4
:1006D00016461F462CB94FF4C372864943A002F058
:1006E0002EFD204603F01AFB092805D040F28712A0
:1006F000804942A002F023FDA07E30B94FF0FF30C8
:1007000002F054F80020BDE8F081606B38B13B4640
:10071000324629462046D4F834C0E047F3E76FF06C
:10072000050002F043F80020EDE770B504460D46E1
:1007300016462CB940F2A7126F492CA002F0FFFC1C
:10074000204603F0EBFA092805D04FF4D4726A4929
:100750002AA002F0F4FCA06B28B1324629462046BC
:10076000A36B984770BD6FF00500FBE770B50446BA
:100770000D462CB940F2C11260491CA002F0DFFC0A
:10078000204603F0CBFA092805D04FF4E1725B490B
:100790001AA002F0D4FCE561002070BD70B50446DB
:1007A0000D462CB940F2D712554910A002F0C7FCF3
:1007B000204603F0B3FA092805D04FF4EC725049F3
:1007C0000EA002F0BCFC2562002070BD2F4701087E
:1007D000696E666F726D6174696F6E20213D205283
:1007E000545F4E554C4C00001A4701086465762052
:1007F000213D2052545F4E554C4C000072745F6F87
:10080000626A6563745F6765745F747970652826D2
:100810006465762D3E706172656E7429203D3D20C1
:1008200052545F4F626A6563745F436C6173735FB8
:10083000446576696365000072745F6F626A656320
:10084000745F69735F73797374656D6F626A6563F2
:100850007428266465762D3E706172656E74290079
:100860003E47010872745F6F626A6563745F697303
:100870005F73797374656D6F626A6563742826644B
:1008800065762D3E706172656E7429203D3D205263
:10089000545F46414C53450050470108546F20694E
:1008A0006E697469616C697A6520646576696365EF
:1008B0003A2573206661696C65642E205468652052
:1008C0006572726F7220636F64652069732025649E
:1008D0000A0000005F4701086465762D3E72656678
:1008E0005F636F756E7420213D2030006E470108F4
:1008F0007E4701088D4701089D470108AF47010861
:10090000C94701082DE9F04105466FF002070CF0D8
:1009100015FD0646002409E0644850F8240020B97B
:10092000624840F82450002702E0641C042CF3D3F2
:1009300000BF30460CF006FD3846BDE8F0812DE9D9
:10094000F04105466FF005070CF0F8FC0646002460
:100950000BE0564850F82400A84205D10020534926
:1009600041F82400002702E0641C042CF1D300BFEE
:1009700030460CF0E7FC3846BDE8F08170B54BE03E
:1009800000BF0CF0DBFC064601F0EEFE40B148492A
:1009900048A002F0CFFAA022454950A002F0CFFBB8
:1009A00030460CF0CFFC00BF0CF0C8FC054600F050
:1009B00075F818B34A480068A0F1140404F1140053
:1009C000D0E900215160D0E9001211604060006060
:1009D00000BF03F09EFBA06F10B12046A16F8847B7
:1009E000204603F08AF9012805D103F0A0FB284630
:1009F0000CF0A8FC70BD03F09AFB03E028460CF055
:100A0000A1FCF7E728460CF09DFCA06A02F0E1FD8E
:100A1000204603F046F900BF00F040F80028AFD1AF
:100A200000BFE7E70FE0002408E0204850F824006A
:100A300018B11E4951F824008047641C042CF4D3DB
:100A4000FFF79CFF00BFEEE710B586B000241CE066
:100A5000224624A104A802F0CEFA20211F22CB00B6
:100A6000224800EB0420CDE9013203910090204997
:100A700001EBC41000231F4A04A903F086FC1C49A3
:100A800001EBC41003F0E3FC641C002CE0D006B0C2
:100A900010BD0021164800EBC110704710490868CE
:100AA000884201D0012070470020FCE7F8030020B5
:100AB000E347010846756E6374696F6E5B25735D6D
:100AC000207368616C6C206E6F7420626520757392
:100AD000656420696E204953520A0000300000000E
:100AE000000100207469646C65256400F802002030
:100AF00078020020250A00084268116042684A60B6
:100B00004160086070472DE9F04105460C4690466B
:100B1000204603F02BFEB8F1000F03D0B8F1010F0F
:100B200023D105E004F114012846FFF7E5FF1CE09E
:100B30002E680FE0A6F1140794F8350097F83510E9
:100B4000884206DA04F1140107F11400FFF7D4FF1C
:100B500002E03668AE42EDD100BFAE4204D104F1EE
:100B600014012846FFF7C8FF00BF00BF0020BDE802
:100B7000F08170B505460EE00CF0E0FB06462868F3
:100B8000A0F114044FF0FF302063204603F022FC54
:100B900030460CF0D7FB284601F089FD0028EBD049
:100BA000002070BD2DE9F04104460D4616461F4653
:100BB00024B9CB22FD49FEA002F0C1FA2A46022147
:100BC000204602F0D3FF204601F079FDA68367722C
:100BD0000020BDE8F08110B5044624B9E922F849A7
:100BE000F3A002F0ACFA204603F098F8022804D0F3
:100BF000EA22F349F34802F0A2FA204603F07DF816
:100C000020B9EB22EE49F0A002F099FA04F11400A9
:100C1000FFF7AFFF204602F0D6FF002010BD2DE900
:100C2000F04105460E46174600BF0CF087FB804694
:100C300001F09AFD48B1F049F0A002F07BF940F2D2
:100C40000712ED49F7A002F07AFA40460CF07AFB61
:100C500000BF2946022002F0D5FF044614B9204601
:100C6000BDE8F081204601F02AFDA6836772204688
:100C7000F6E770B5044600BF0CF060FB054601F0D6
:100C800073FD48B1E849DDA002F054F94FF49372C6
:100C9000E549E4A002F053FA28460CF053FB00BFEC
:100CA0002CB940F22912E049C1A002F048FA2046CE
:100CB00003F034F8022805D04FF49572DA49C148A0
:100CC00002F03DFA204603F018F828B140F22B124A
:100CD000D549D6A002F033FA04F11400FFF749FF1A
:100CE000204602F0DEFF002070BD2DE9F3410546ED
:100CF0002DB940F24712DC49ADA002F020FA284697
:100D000003F00CF8022805D04FF4A472D649AD4880
:100D100002F015FA00BFD548006818B12846D3493B
:100D20000968884700BF0CF009FB064600BF00BFFA
:100D3000A88B002806DDA88B401EA88330460CF047
:100D400001FB57E0019830B930460CF0FBFA6FF028
:100D50000100BDE8FC8100BF0CF0F0FA074603F08B
:100D60006CFA48B9C049C2A002F0E4F84FF4B4727A
:100D7000BD49ACA002F0E3F900BF0CF0DFFA8046F9
:100D800001F0F2FC48B1B8499CA002F0D3F84FF44E
:100D9000B472B549A3A002F0D2F940460CF0D2FAE1
:100DA00000BF38460CF0CEFA00BF03F046FA044606
:100DB0000020206300BF00BF6A7A214605F11400BD
:100DC000FFF7A1FE019800280BDD00BF00BF01AABC
:100DD000002104F14C0003F0B1FF04F14C0003F0DA
:100DE000DDFE30460CF0AEFA03F01AF9206B08B1C4
:100DF000206BAEE700BFAC48006818B12846AA498E
:100E00000968884700BF0020A3E710B50446002109
:100E10002046FFF76AFF10BD70B504462CB94FF4A9
:100E2000DA72A24962A002F08AF9204602F076FF47
:100E3000022805D040F2B5129C49624802F07FF9C1
:100E400000BF9B48006818B1204699490968884747
:100E500000BF00250CF072FA064600BF00BF04F187
:100E6000140001F024FC28B904F1140001F02FFC57
:100E7000012502E0A08B401CA08330460CF062FAF2
:100E8000012D01D103F0CCF8002070BD2DE9F04117
:100E900004460E4615462CB940F2E512854944A099
:100EA00002F04DF9204602F039FF022805D04FF438
:100EB000F3728049434802F042F9012E10D12F46C7
:100EC0000CF03CFA804604F11400FFF752FEA783B1
:100ED00040460CF037FA03F0A3F80020BDE8F0819B
:100EE0004FF0FF30FAE770B504460D4616462CB9B0
:100EF00040F21222704971A002F021F92A46032122
:100F0000204602F033FE204601F0D9FB0120A083E9
:100F100000202062FF20A0770020E077667270BD7D
:100F200010B504462CB940F23222694963A002F0A0
:100F300006F9204602F0F2FE032805D040F23322E3
:100F40006349644802F0FBF8204602F0D6FE28B957
:100F50004FF40D725E4960A002F0F1F804F1140044
:100F6000FFF707FE204602F02EFE002010BD2DE9FF
:100F7000F04105460E4600BF0CF0E0F9074601F0CF
:100F8000F3FB48B161491DA001F0D4FF40F24F22AC
:100F90005E4924A002F0D3F838460CF0D3F900BF24
:100FA0002946032002F02EFE0446B1E0F94701086D
:100FB00073656D20213D2052545F4E554C4C00000E
:100FC00005480108506B010872745F6F626A6563BF
:100FD000745F69735F73797374656D6F626A65635B
:100FE00074282673656D2D3E706172656E742E7067
:100FF0006172656E742900001348010846756E63BE
:1010000074696F6E5B25735D207368616C6C206E14
:101010006F74206265207573656420696E20495382
:10102000520A0000300000002148010872745F6F0E
:10103000626A6563745F69735F73797374656D6FFA
:10104000626A656374282673656D2D3E70617265F2
:101050006E742E706172656E7429203D3D2052546D
:101060005F46414C534500002F480108E400002032
:1010700046756E6374696F6E5B25735D207368617E
:101080006C6C206E6F7420626520757365642062DD
:1010900065666F7265207363686564756C65722040
:1010A00073746172740A0000E80000203B48010874
:1010B000EC0000204A480108594801086D75746524
:1010C0007820213D2052545F4E554C4C00000000CA
:1010D00067480108246C010872745F6F626A656377
:1010E000745F69735F73797374656D6F626A65634A
:1010F0007428266D757465782D3E706172656E7406
:101100002E706172656E7429000000007748010836
:1011100014B92046BDE8F081204601F0D0FA012044
:10112000A08300202062FF20A0770020E077667275
:101130002046EFE770B5044600BF0CF0FFF8054607
:1011400001F012FB58B1FD49AFF2501001F0F2FE70
:101150004FF41C72F949AFF2341001F0F0FF284649
:101160000CF0F0F800BF34B940F27322F349AFF24B
:10117000B40001F0E4FF204602F0D0FD032805D0C2
:101180004FF41D72ED49EE4801F0D9FF204602F000
:10119000B4FD28B140F27522E849EAA001F0CFFF82
:1011A00004F11400FFF7E5FC204602F07AFD002070
:1011B00070BD2DE9F341044600BF0CF0BFF80746AF
:1011C00003F03BF858B9EF49AFF25C1001F0B2FE02
:1011D00040F29122EB49AFF2B41001F0B0FF00BF32
:1011E0000CF0ACF8804601F0BFFA58B1E549AFF217
:1011F000F41001F09FFE40F29122E249AFF2DC10C0
:1012000001F09DFF40460CF09DF800BF38460CF001
:1012100099F800BF34B94FF42572DA49AFF264107F
:1012200001F08DFF204602F079FD032805D040F241
:101230009522D449C24801F082FF02F0FEFF054624
:101240000CF07CF8064600BFCF48006818B1204675
:10125000CD490968884700BF00BF00BF0020286350
:10126000206AA84203D1E07F401CE0774EE000BF37
:10127000A08B00280ADDA08B401EA083256295F874
:101280003500A077E07F401CE0773FE0019848B947
:101290006FF00100286330460CF054F86FF0010045
:1012A000BDE8FC8100BF00BF95F83500216A91F8C8
:1012B0003510884205DA05F135020221206A03F073
:1012C000E8FA627A294604F11400FFF71CFC019841
:1012D00000280BDD00BF00BF01AA002105F14C0072
:1012E00003F02CFD05F14C0003F058FC30460CF0E7
:1012F00029F802F095FE286B28B1286B093000B957
:10130000B6E7286BCCE70CF019F8064630460CF02F
:1013100019F800BF9D48006818B120469B4909682C
:10132000884700BF0020BBE72DE9F047044634B9E9
:1013300040F21A329649AFF27C2001F000FF2046BD
:1013400002F0ECFC032805D040F21B3290497C48A7
:1013500001F0F5FE002600BF0BF0F0FF804602F022
:101360006CFF58B98A49AFF2F82001F0E3FD4FF461
:1013700048728749AFF2543001F0E1FE00BF0BF034
:10138000DDFF814601F0F0F958B18149AFF29430A8
:1013900001F0D0FD4FF448727D49AFF2783001F092
:1013A000CEFE48460BF0CEFF00BF40460BF0CAFF12
:1013B00000BF02F042FF05460BF0C0FF074600BF2A
:1013C00000BF00BF7348006818B120467149096822
:1013D000884700BF206AA84209D04FF0FF30286339
:1013E00038460BF0AFFF4FF0FF30BDE8F087E07FED
:1013F000401EE077E07F08BBA07F216A91F835109E
:10140000884205D004F11E020221206A03F041FA4D
:1014100004F1140001F04BF988B96069A0F11405DA
:1014200000BF00BF256295F83500A077E07F401C23
:10143000E07704F1140001F04AF9012606E0A08BE0
:10144000401CA08300202062FF20A07738460BF0CC
:1014500079FF012E01D102F0E3FD0020C5E770B550
:1014600004460D46164634B940F27D324A49AFF281
:10147000B43001F064FE204602F050FC032805D091
:1014800040F27E3244492E4801F059FE4FF0FF30C1
:1014900070BD70B504460D4616462CB940F2933225
:1014A0003E493FA001F04BFE2A460421204602F0AF
:1014B0005DFB6672204601F002F90020E06170BD1C
:1014C00010B504462CB940F2AF323A4934A001F0CD
:1014D00036FE204602F022FC042805D04FF46C7240
:1014E0003449354801F02BFE204602F006FC28B9AD
:1014F00040F2B1322F4931A001F021FE04F1140075
:10150000FFF737FB204602F05EFB002010BD2DE9FF
:10151000F04105460E4600BF0BF010FF074601F0F4
:1015200023F950B13249AFF22C5001F003FD40F2E3
:10153000CA322F49AFF214505CE05DE087480108E1
:10154000246C010872745F6F626A6563745F69730B
:101550005F73797374656D6F626A65637428266D55
:10156000757465782D3E706172656E742E7061724F
:10157000656E7429203D3D2052545F46414C5345D1
:101580000000000097480108E4000020E800002067
:10159000A5480108EC000020B6480108C74801082A
:1015A0006576656E7420213D2052545F4E554C4C3B
:1015B00000000000D5480108E06B010872745F6FFD
:1015C000626A6563745F69735F73797374656D6F65
:1015D000626A65637428266576656E742D3E706157
:1015E00072656E742E706172656E74290000000061
:1015F000E548010801F0A3FD38460BF0A3FE00BF4B
:101600002946042002F0FEFA044614B92046BDE83B
:10161000F0816672204601F052F80020E061204619
:10162000F5E770B5044634B94FF47A72F449AFF275
:10163000900001F084FD204602F070FB042805D0E4
:1016400040F2E932EE49EF4801F079FD204602F020
:1016500054FB28B140F2EA32E949EBA001F06FFDFA
:1016600000BF0BF06BFE054601F07EF858B1E4496F
:10167000AFF2786001F05EFC4FF47B72E049AFF2AC
:101680005C6001F05CFD28460BF05CFE00BF04F1DD
:101690001400FFF76EFA204602F003FB002070BD35
:1016A0002DE9F04704460F4634B940F20B42E649B3
:1016B000AFF2141001F043FD204602F02FFB042886
:1016C00005D040F20C42E049CE4801F038FD1FB988
:1016D0004FF0FF30BDE8F0874FF000080BF02EFE12
:1016E0008246E0693843E06100BFD848006818B11D
:1016F0002046D6490968884700BF04F1140000F06D
:10170000D6FFC0BB666932E0A6F114054FF0FF3981
:1017100095F8400000F0010040B1E86BE169084035
:10172000E96B884211D14FF000090EE095F84000B6
:1017300000F0020048B1E86BE169084028B1E86BAD
:10174000E1690840E8634FF000093668B9F1000F1D
:101750000DD195F8400000F0040018B1E069E96B84
:101760008843E061284602F035FE4FF0010804F19D
:1017700014008642C8D150460BF0E4FDB8F1010FC9
:1017800001D102F04DFC0020A4E72DE9FF4F81B00C
:1017900005460E461746DDF8388000BF0BF0CEFD3B
:1017A000009002F04AFD58B9A949AFF23C7001F02F
:1017B000C1FB40F26E42A649AFF2987001F0BFFC47
:1017C00000BF0BF0BBFD834600F0CEFF58B1A0492F
:1017D000AFF2D87001F0AEFB40F26E429C49AFF21E
:1017E000BC7001F0ACFC58460BF0ACFD00BF00989B
:1017F0000BF0A8FD00BF35B940F271429449AFF239
:10180000602001F09CFC284602F088FA042805D0EC
:1018100040F272428E497B4801F091FC26B94FF0AC
:10182000FF3005B0BDE8F08F4FF0FF3902F005FD45
:1018300004460021216300BF8648006818B128468D
:1018400084490968884700BF0BF078FD824607F09D
:10185000010030B1E8693040B04212D14FF00009C8
:101860000FE007F0020028B1E869304048B14FF0BE
:10187000000906E040F291427549AFF6580001F0C8
:101880005EFCB9F1000F0DD1B8F1000F03D0E8698B
:101890003040C8F8000007F0040088B3E869B0439E
:1018A000E8612DE0049818B96FF00100206327E08B
:1018B000E66384F840706A7A214605F11400FFF768
:1018C00022F90498002809DD04AA002104F14C0043
:1018D00003F034FA04F14C0003F060F950460BF0C9
:1018E00031FD02F09DFB206B08B1206B99E70BF0F6
:1018F00025FD8246B8F1000F02D0E06BC8F8000069
:1019000050460BF01FFD00BF5348006818B1284631
:1019100051490968884700BF206B82E72DE9F041F3
:1019200004460D46174634B940F2E3424B49AFF244
:10193000903001F004FC204602F0F0F9042805D0B4
:1019400040F2E44245492F4801F0F9FB012D10D146
:101950000BF0F4FC064604F11400FFF70AF900202E
:10196000E06130460BF0EEFC02F05AFB0020BDE8CF
:10197000F0814FF0FF30FAE72DE9F04104460D46C3
:1019800016461F46DDF818802CB940F21152344932
:1019900034A001F0D4FB2A460521204602F0E6F8E7
:1019A00084F80980204600F08AFEE6612784002042
:1019B0006084A084E08404F1280000F075FE00201B
:1019C000BDE8F08110B504462CB940F234522949E3
:1019D00024A001F0B4FB204602F0A0F9052805D0B0
:1019E00040F235522349244801F0A9FB204602F079
:1019F00084F918B940F236521E493FE041E0000038
:101A0000F5480108E06B010872745F6F626A6563F4
:101A1000745F69735F73797374656D6F626A656310
:101A20007428266576656E742D3E706172656E74DD
:101A30002E706172656E7429203D3D2052545F46C0
:101A4000414C53450000000005490108EC0000200E
:101A500013490108E4000020E800002021490108A2
:101A6000324901086D6220213D2052545F4E554C91
:101A70004C0000003D490108686C0108FAA001F023
:101A80005EFB04F11400FFF774F804F12800FFF77F
:101A900070F8204602F097F8002010BD2DE9F041C3
:101AA00005460E46174600BF0BF048FC804600F086
:101AB0005BFE58B1F849AFF6BC2001F03BFA40F2AA
:101AC0005252F549AFF6A42001F039FB40460BF025
:101AD00039FC00BF2946052002F094F8044614B9E9
:101AE0002046BDE8F0816772204600F0E8FD2684BC
:101AF000218C880001F068FCE061E06920B9204693
:101B000002F0CFF80020ECE700206084A084E0849D
:101B100004F1280000F0C8FD2046E2E770B5044655
:101B200000BF0BF00BFC054600F01EFE58B1DB4970
:101B3000AFF6383001F0FEF940F27D52D749AFF6EA
:101B40001C3001F0FCFA28460BF0FCFB00BF34B956
:101B50004FF4B062D149AFF2F40001F0F0FA204640
:101B600002F0DCF8052805D040F28152CB49CC4880
:101B700001F0E5FA204602F0C0F828B140F28252A6
:101B8000C649C8A001F0DBFA04F11400FEF7F1FF2A
:101B900004F12800FEF7EDFFE06901F01AFD204690
:101BA00002F07FF8002070BD2DE9F74F04460F4684
:101BB00034B94FF4B562CA49AFF2581001F0BFFA18
:101BC000204602F0ABF8052805D040F2A952C449DE
:101BD000B34801F0B4FA002602F02FFB054600BF1F
:101BE000C048006818B12046BE490968884700BF50
:101BF0000BF0A4FB8046608C218C884208D10298AF
:101C000030B940460BF09EFB6FF00200BDE8FE8F3E
:101C100069E000202863029828B940460BF092FB47
:101C20006FF00200F2E700BF0BF088FB814602F084
:101C300004FB58B9AA49AFF6C83001F07BF940F26D
:101C4000CC52A749AFF6244001F079FA00BF0BF05F
:101C500075FB824600F088FD58B1A149AFF664409B
:101C600001F068F940F2CC529D49AFF6484001F0CE
:101C700066FA50460BF066FB00BF48460BF062FB6D
:101C800000BF627A294604F12800FEF73CFF029863
:101C900000280EDDFEF7FFFA064600BF00BF02AACD
:101CA000002105F14C0003F049F805F14C0002F069
:101CB00075FF40460BF046FB02F0B2F9286B08B105
:101CC000286BA3E70BF03AFB8046029800280ADD58
:101CD000FEF7E1FA861B0298801B0290029800280A
:101CE00001DA00200290608C218C884291D0A18C76
:101CF000E06940F82170A08C401CA084A08C218C4D
:101D0000884201DB0020A084608C401C608404F1C8
:101D1000140000F0CCFC50B904F1140000F0D7FC22
:101D200040460BF00FFB02F07BF900206EE74046C7
:101D30000BF008FB002069E770B504460D46002251
:101D400029462046FFF730FF70BD2DE9F74F0446C6
:101D50000F4634B940F23A626349AFF2F82001F01D
:101D6000EEF9204601F0DAFF052805D040F23B628B
:101D70005D494B4801F0E3F9002602F05EFA0546A2
:101D800000BF5A48006818B120465849096888477A
:101D900000BF0BF0D3FA8046608C40B9029830B98E
:101DA00040460BF0CFFA6FF00100BDE8FE8FB0E0C7
:101DB00000202863029830B940460BF0C3FA6FF058
:101DC00001002863F1E700BF0BF0B8FA814602F08A
:101DD00034FA58B94449AFF6685001F0ABF84FF403
:101DE000CC624149AFF6C45001F0A9F900BF0BF035
:101DF000A5FA824600F0B8FC58B13B49AFF6046042
:101E000001F098F84FF4CC623749AFF6E85001F092
:101E100096F950460BF096FA00BF48460BF092FA3E
:101E200000BF627A294604F11400FEF76CFE0298A6
:101E300000280EDDFEF72FFA064600BF00BF02AAFB
:101E4000002105F14C0002F079FF05F14C0002F091
:101E5000A5FE40460BF076FA02F0E2F8286B08B1D6
:101E6000286BA2E744E0000072745F6F626A6563EA
:101E7000745F69735F73797374656D6F626A6563AC
:101E80007428266D622D3E706172656E742E7061CD
:101E900072656E74290000004A490108574901081B
:101EA000686C010872745F6F626A6563745F69735E
:101EB0005F73797374656D6F626A65637428266DEC
:101EC000622D3E706172656E742E706172656E7403
:101ED00029203D3D2052545F46414C5345000000AF
:101EE00064490108EC00002074490108E400002066
:101EF0000BF024FA8046029800280ADDFEF7CBF9A1
:101F0000861B0298801B02900298002801DA0020AC
:101F10000290608C00283FF44BAFE18CE06950F8F0
:101F200021003860E08C401CE084E08C218C8842E9
:101F300001DB0020E084608C401E608404F12800F6
:101F400000F0B5FB98B904F1280000F0C0FB404652
:101F50000BF0F8F900BFFA48006818B12046F849BC
:101F60000968884700BF02F05BF800201DE7404683
:101F70000BF0E8F900BFF248006818B12046F049BC
:101F80000968884700BF00200FE72DE9F0410446AB
:101F90000D46174634B94FF4D862EA49AFF23C50C7
:101FA00001F0CDF8204601F0B9FE052805D040F239
:101FB000C162E449E44801F0C2F8012D16D10BF0EA
:101FC000BDF9064604F11400FEF7D3FD04F1280024
:101FD000FEF7CFFD00206084A084E08430460BF043
:101FE000B1F902F01DF80020BDE8F0814FF0FF309C
:101FF000FAE72DE9F05F04460F4690469946DDE981
:102000000AAB2CB940F2FD62D049D1A001F097F89B
:102010003A460621204601F0A9FD84F809B0204681
:1020200000F04DFBC4F81C8009F1030020F0030010
:102030002084208C001DBAFBF0F060840020A06298
:10204000E0622063002508E0208C001DE16905FBAB
:102050000016206B306026636D1C608CA842F3DC98
:102060000020A084BDE8F09F10B504462CB940F2D2
:102070002E72BB49B6A001F062F8204601F04EFE78
:10208000062805D040F22F72B549B64801F057F83E
:10209000204601F032FE28B94FF4E662B049B2A002
:1020A00001F04DF804F11400FEF763FD204601F045
:1020B0008AFD002010BD70B5044600BF0BF03EF94C
:1020C000054600F051FB48B1B349B44800F032FF77
:1020D00040F28A72B049B2A001F031F828460BF004
:1020E00031F900BF2CB940F28D72AB4998A001F0D4
:1020F00026F8204601F012FE062805D040F28E7226
:10210000A549984801F01BF8204601F0F6FD28B1DA
:1021100040F28F72A049A3A001F011F804F114005D
:10212000FEF727FDE06901F054FA204601F0B9FD01
:10213000002070BD2DE9F05F0746884691469A461B
:1021400000BF0BF0FBF8834600F00EFB48B1A4493A
:10215000924800F0EFFE4FF4EA62A14990A000F02F
:10216000EEFF58460BF0EEF800BF3946062001F0AE
:1021700049FD044614B92046BDE8F09F84F809A043
:10218000204600F09CFA08F1030020F003002084B0
:10219000A4F82290218C091D628C01FB02F001F051
:1021A00013F9E061E06920B92046FFF784FF0020C1
:1021B000E2E70020A062E0622063002508E0208CB6
:1021C000001DE16905FB0016206B306026636D1C65
:1021D000608CA842F3DC0020A0842046CCE72DE9E7
:1021E000F04104460F4616462CB940F2AF727D49C5
:1021F00057A000F0A4FF204601F090FD062805D06E
:102200004FF4F6627749574800F099FF2FB940F232
:10221000B172744974A000F092FF2EB940F2B2720C
:10222000704976A000F08BFF208CB04203D24FF0B3
:10223000FF30BDE8F08100BF7348006818B1204648
:1022400071490968884700BF0BF078F88046256B14
:102250002DB940460BF076F86FF00200E9E72868E8
:10226000206340460BF06EF8002028603246394665
:10227000281D00F0E0FA0BF061F88046E06A08B132
:10228000E06A0560E562A06A00B9A562A08C401C06
:10229000A08404F1140000F00AFA50B904F114000B
:1022A00000F015FA40460BF04DF801F0B9FE0020A1
:1022B000BFE740460BF046F80020BAE72DE9F041B1
:1022C00004460F4616462CB940F609024F4920A095
:1022D00000F035FF204601F021FD062805D040F62C
:1022E0000A024A491F4800F02AFF2FB940F60B02A4
:1022F00046493DA000F023FF2EB940F60C024349A9
:102300003EA000F01CFF208CB04203D24FF0FF3003
:10231000BDE8F08100BF3C48006818B120463A494A
:102320000968884700BF0BF009F88046256B2DB976
:1023300040460BF007F86FF00200E9E768E00000A4
:10234000E80000207F490108686C01088D490108F8
:102350006D7120213D2052545F4E554C4C000000C1
:1023600098490108986B010872745F6F626A65632F
:10237000745F69735F73797374656D6F626A6563A7
:102380007428266D712D3E706172656E742E7061B9
:1023900072656E7429000000B2490108FC0F000844
:1023A0003000000072745F6F626A6563745F697306
:1023B0005F73797374656D6F626A65637428266DE7
:1023C000712D3E706172656E742E706172656E74EF
:1023D00029203D3D2052545F46414C5345000000AA
:1023E000A5490108BF49010862756666657220212A
:1023F0003D2052545F4E554C4C00000073697A6585
:1024000020213D2030000000EC000020CA490108D6
:102410002868206340460AF095FF32463946281D59
:1024200000F009FA0AF08AFF8046A06A2860A562D7
:10243000E06A00B9E562A08C401CA08404F114009D
:1024400000F035F950B904F1140000F040F94046AD
:102450000AF078FF01F0E4FD002059E740460AF059
:1024600071FF002054E72DE9FF4F81B004460F466D
:10247000904634B940F663029B49AFF22C1000F04D
:102480005EFE204601F04AFC062805D040F66402B4
:102490009549964800F053FE37B940F665029249D7
:1024A000AFF2BC0000F04BFEB8F1000F06D140F6D1
:1024B00066028D49AFF2BC0000F041FE4FF000090A
:1024C00001F0BBFE054600BF8948006818B12046F0
:1024D00087490968884700BF0AF030FF8246A08C10
:1024E00048B9049838B950460AF02CFF6FF0010043
:1024F00005B0BDE8F08F6BE000BF0AF01FFF009051
:1025000001F09BFE50B978497A4800F013FD40F67F
:102510007C027549AFF2781000F011FE00BF0AF09E
:102520000DFF834600F020F958B16F4971487438A7
:1025300000F000FD40F67C026B49AFF29C1000F009
:10254000FEFD58460AF0FEFE00BF00980AF0FAFEB3
:1025500000BF00202863049830B950460AF0F2FE0C
:102560006FF001002863C3E7627A294604F1140082
:10257000FEF7C9FA049800280EDDFDF78CFE8146AF
:1025800000BF00BF04AA002105F14C0002F0D6FBF9
:1025900005F14C0002F002FB50460AF0D3FE01F0B8
:1025A0003FFD286B08B1286BA2E70AF0C7FE824600
:1025B000049800280CDDFDF76EFEA0EB09090498D5
:1025C000A0EB090004900498002801DA0020049090
:1025D000A08C002890D0A66A3068A062E06AB04261
:1025E00001D10020E062A08C401EA08450460AF079
:1025F000A9FE208C404501D2208C00E040460246D6
:10260000311D384600F017F90AF098FE8246206B1B
:102610003060266350460AF095FE00BF36480068D9
:1026200018B1204634490968884700BF00205FE799
:102630002DE9F04104460E46904634B940F6EB02CF
:102640002E49AFF2F42000F07AFD204601F066FB3F
:10265000062805D040F6EC022849244800F06FFD1A
:10266000012E1ED10AF06AFE074604F11400FEF79F
:1026700080FA0AE0A56A2868A062E06AA84201D14F
:102680000020E062206B28602563A06A0028F1D159
:10269000A08438460AF056FE01F0C2FC0020BDE8D6
:1026A000F0814FF0FF30FAE740600060704701466C
:1026B0000868884201D1012070470020FCE710B56E
:1026C000044604F11400FFF7EFFF002010BD70B5C1
:1026D00004462068A0F1140500BF00BF284601F0A1
:1026E00079FE002070BD0000D7490108986B0108F1
:1026F000E400002070100008E8000020E249010812
:102700001F49086070471F490860704710B500BF37
:1027100000BF0AF013FE04461B480078401C1A490B
:10272000087000BF1648006810B11548006880475F
:1027300000BF20460AF006FE10BD10B500BF00BF66
:102740000AF0FCFD044610480078401E0E4908704F
:1027500000BF0C48006810B10A480068804700BFFD
:1027600020460AF0EFFD10BD70B50AF0E7FD054602
:102770000548047828460AF0E5FD204670BD0000B3
:1027800004000020080000200C00002010B5FFF716
:10279000EBFF10B1FB48006810BD01F04EFD044690
:1027A00014B9F8480068F7E7206BF5E770B5044600
:1027B000FFF7DAFF10B1F348046070BD01F03DFD92
:1027C000054615B9EF480460F7E72C6300BFF4E74E
:1027D00010B5FFF7C9FF08B1EA4810BD01F02DFDA3
:1027E000044614B104F13000F7E7E648F5E7F0B528
:1027F0000C460546E6B2042A15D300F0030797B944
:10280000014646EA062343EA034304E008C108C13F
:1028100008C108C1103A102AF8D201E008C1121FFD
:10282000042AFBD20D4601E005F8016B171EA2F148
:102830000102F9D1F0BD2DE9F0410F4616460446DC
:102840003D463346102B28D305F0030C04F0030853
:102850004CEA080CBCF1000F1FD121462A4610E0BB
:1028600052F804CB41F804CB52F804CB41F804CB26
:1028700052F804CB41F804CB52F804CB41F804CB16
:10288000103B102BECD204E052F804CB41F804CBFF
:102890001B1F042BF8D20C46154603E015F801CB9C
:1028A00004F801CBB3F1000CA3F10103F6D1BDE8AC
:1028B000F08170B50C46014623468B4210D29D181C
:1028C0008D420DD91144134405E05D1E2B462E7830
:1028D0004D1E29462E70151EA2F10102F5D108E009
:1028E00003E013F8015B01F8015B151EA2F1010280
:1028F000F7D170BDF0B5034600201C460D4608E038
:1029000026782F78F61B301E00D004E0641C6D1C66
:10291000521E002AF4D800BFF0BD01460A4600E06E
:10292000521C10780028FBD1501A7047F0B50646AB
:102930000F463846FFF7F1FF05460DB93046F0BDAA
:102940003046FFF7EAFF044609E0641E2A4639468E
:102950003046FFF7CFFF08B93046F0E7761CAC42AF
:10296000F3DA0020EBE730B503460C4600BF13F85E
:10297000011B14F8012B412902DB5A2900DC20310C
:10298000412A02DB5A2A00DC2032914201D100297F
:10299000EDD1881A30BD70B50346A2B118460C4679
:1029A00000BF14F8016B00F8016B3EB902E000258E
:1029B00000F8015B551E2A1EF9D102E0551E2A1EA1
:1029C000EFD100BF00BF184670BD30B503460020F0
:1029D0000BE011F8015B1C78641B64B2201E02D16D
:1029E00013F8015B05B902E0521E002AF1D100BFC5
:1029F00030BD024601E0521C491C107818B1107815
:102A00000B789842F7D010780B78C01A70470246BE
:102A10000B46114600E0491C087810B1881A98420C
:102A2000F9D3881A704770B504462046FFF775FF42
:102A3000451C284600F0C8FC06460EB9002070BDB3
:102A40002A4621463046FFF7F6FE3046F7E7704744
:102A50002DE9F04F86B00D469C46DDE910640196E5
:102A60000F9B04F04008B8F1000F02D0DFF8188186
:102A700001E0DFF81881CDF8008004F01008B8F10B
:102A8000000F01D024F0010404F00108B8F1000F98
:102A900002D04FF0300801E04FF02008C246002776
:102AA00004F00208B8F1000F11D0002A02DA2D2735
:102AB00052420CE004F00408B8F1000F01D02B27BB
:102AC00005E004F00808B8F1000F00D0202700212D
:102AD00042B94FF0300B8846491C0DF1080909F83E
:102AE00008B01DE01AE0E146B9F10A0F08D14FF035
:102AF0000A0BB2FBFBFE0BFB1E28B2FBFBF202E053
:102B000002F00F08120900BFDDF8009019F808B0B4
:102B10008846491C0DF1080909F808B0002AE2D1DD
:102B2000B14200DD0E469B1B04F01108B8F1000F06
:102B300010D117B1002B00DD5B1E06E0A84203D8C0
:102B40004FF0200880F80080401CB3F10008A3F18A
:102B50000103F3DC27B1A84201D807705B1E401CBB
:102B600004F01008B8F1000F0AD104E0A84201D81F
:102B700080F800A0401CB3F10008A3F10103F5DCCC
:102B80000DE0000010000020014B0108F04A010890
:102B9000A84203D84FF0300880F80080401CB046AF
:102BA000761E8845F4DC08E0A84205D80DF1080837
:102BB00018F8018080F80080401CB1F10008A1F1F4
:102BC000010104DDDDF80480B8F1000FECD106E06E
:102BD000A84203D84FF0200880F80080401CB3F1D1
:102BE0000008A3F10103F3DC06B0BDE8F08F014655
:102BF000002009E00B685A1C0A601A7800EB800379
:102C000002EB4302A2F130000A681278303A0A2A35
:102C1000F0D370472DE9FF4F89B0804644460A98AB
:102C20004044461E464504D24FF0FF36A6EB08004E
:102C30000A906FE10B980078252806D0B44202D89C
:102C40000B9800782070641C61E1002526E00B9849
:102C5000401C0B900B9800782D2802D145F01005F0
:102C60001CE00B9800782B2802D145F0040515E0F4
:102C70000B980078202802D145F008050EE00B984B
:102C80000078232802D145F0200507E00B98007852
:102C9000302802D145F0010500E000E0D7E700BF91
:102CA0004FF0FF370B98007830380A2804D20BA871
:102CB000FFF79DFF07460EE00B9800782A280AD1FF
:102CC0000B98401C0B900C9880C80C90002F02DAD7
:102CD0007F4245F010054FF0FF390B9800782E2801
:102CE0001CD10B98401C0B900B98007830380A28A8
:102CF00004D20BA8FFF77BFF81460AE00B9800780F
:102D00002A2806D10B98401C0B900C9850F8049B75
:102D10000C90B9F1000F01DA4FF000090020049087
:102D20000B980078682803D00B9800786C2805D1A0
:102D30000B98007804900B98401C0B900A2005908B
:102D40000B9800786F2875D00CDC632813D004DC56
:102D5000252870D058286FD18DE064286DD069285F
:102D6000F9D18FE070286AD0732825D0752878D0E3
:102D70007828F0D182E005F0100040B904E0B442B8
:102D800001D820202070641C781E071EF7DC0C98E8
:102D900010F8041B0C90C8B20790B44201D80798F1
:102DA0002070641C04E0B44201D820202070641C10
:102DB000781E071EF7DCAAE00C98006806900C98B5
:102DC000001D0C90069808B9EBA006900698FFF736
:102DD000A4FD8346B9F1000F02DDCB4500DDCB46F3
:102DE00005F0100048B904E0B44201D8202020705A
:102DF000641C38467F1E5845F6DC002008900BE026
:102E0000B44202D8069800782070641C0698401CD2
:102E100006900898401C089008985845F0DB04E09C
:102E2000B44201D820202070641C38467F1E5845CB
:102E3000F6DC6CE01CE015E028E022E0FFE7781CFF
:102E400010B9082745F00105CDE9007902950C98E5
:102E500004C8102331460C902046FFF7F9FD0446C4
:102E600055E012E0B44201D825202070641C4EE0E9
:102E7000082005901DE045F0400500BF102005909A
:102E800017E000BF45F0020500BF12E0B44201D8D0
:102E900025202070641C0B98007830B1B44202D811
:102EA0000B9800782070641C02E00B98401E0B9079
:102EB0002DE000BF04986C2807D10C9850F804ABA3
:102EC0000C9005F00200B8B116E0049868280BD108
:102ED0000C9830F8041B1FFA81FA0C9005F00200E0
:102EE00050B10FFA8AFA07E00C9850F804AB0C9036
:102EF00005F0020000B100BFCDE90079029552460D
:102F000031462046059BFFF7A3FD044600BF0B9802
:102F1000401C0B900B98007800287FF48BAEB442D5
:102F200001D8207001E000203070A4EB08000DB043
:102F3000BDE8F08F0FB438B505A800907F21904808
:102F4000009B049AFFF766FE04467F2C00D97F247D
:102F50008C48006818B98A48FFF779FD15E0894860
:102F60000068058B87480068008B40F04000854969
:102F7000096808832346824A002182480068FDF7D9
:102F8000A3FB80480068058300BF0020009038BC88
:102F90005DF814FB08B57CA0FFF7CCFF7DA0FFF720
:102FA000C9FF85A000231A460421009085A0FFF7E1
:102FB000C1FF8CA0FFF7BEFF08BD0FB4F8B50446F3
:102FC0000D4609A8009029462046009B089AFFF765
:102FD00021FE0646002000903046F8BC5DF814FB48
:102FE00037B505460C4622464FF0FF312846029B76
:102FF000FFF710FE3EBD0FB438B5044606A800909A
:103000002046009A0599FFF7EBFF05460020009047
:10301000284638BC5DF814FB5A480068704770B504
:103020000546584806682846FDF7D6F9044664B1B7
:103030005448006818B153480068FDF7E6FA432188
:103040002046FDF78DFA4F480460304670BD70B5DC
:10305000044604B970BD4B48006818B92046FFF714
:10306000F6FC19E047480068058B46480068008B6D
:1030700040F040004349096808832046FFF74DFCB3
:1030800006463346224600213E480068FDF71CFBF9
:103090003C480068058300BF00BFDBE72DE9F0472F
:1030A00080460C460426761EA01920EA060408EB8A
:1030B0000600B04300EB0409484600F085F90546D8
:1030C00065B1601E284008B92F1904E0601E28442D
:1030D000611E20EA010747F8045C3D462846BDE82A
:1030E000F08770B5044654F8045C284600F071FA85
:1030F00070BD014609B900207047C8B220B1C8B2FE
:10310000434A105C401CF7E701F47F4028B1404877
:10311000C1F30722805C0930EEE701F47F0028B19B
:103120003B48C1F30742805C1130E5E7384800EBCB
:10313000116000781930DFE7364908607047F8B54C
:1031400004460D461646002000903248006858B9E3
:1031500033462A46214630A0FFF7ECFE00BF9DF81B
:1031600000000028FBD005E0324629462046294BC6
:103170001B689847F8BD0000284E554C4C290000AC
:1031800008040020140000200A205C207C202F0A64
:10319000000000002D205254202D202020202054FB
:1031A0006872656164204F7065726174696E672032
:1031B00053797374656D0A004A756C203139203279
:1031C00030313900202F207C205C20202020202539
:1031D000642E25642E2564206275696C6420257335
:1031E0000A0000002032303036202D2032303138B5
:1031F00020436F70797269676874206279207274F5
:103200002D746872656164207465616D0A00000048
:10321000F0490108180000202825732920617373E4
:10322000657274696F6E206661696C656420617493
:103230002066756E6374696F6E3A25732C206C6915
:103240006E65206E756D6265723A2564200A000015
:10325000F04908607047F0490860704770B504464F
:10326000EE480068844204D2A122ED49EDA0FFF7A8
:1032700066FFF4480068844204D3A222E849F2A021
:10328000FFF75DFF608820B1A322E549F9A0FFF7B1
:1032900056FFE249606809684518AC4215D0688855
:1032A00098B9E848006885420FD0F6480068A842FF
:1032B00001D1F448046068686060D8480068201A4A
:1032C000D64A6968126811448860D449A0680968C0
:1032D0004618A64211D0708878B9EA480068A04222
:1032E00001D1E848066060687060CC480068301A18
:1032F000CA4A616812681144886070BD2DE9F047C0
:1033000005460E46E81C20F0030726F0030800BF20
:103310000AF014F88146FFF727FA40B1DA49DBA03A
:10332000FFF708FED222D849E2A0FFF708FF48467F
:103330000AF008F800BFB8F1180F09D9A8F1180071
:10334000B84205D3A8EB07001838DB49086006E04F
:1033500032462946D9A0FFF7EDFDBDE8F087AF481A
:10336000076000BF00BF04684FF4F5502080D248CA
:1033700000680C3060600020A0606080A749606831
:1033800009680844AF4908604FF4F550096808809F
:103390000120AC4909684880C74800680C30A94939
:1033A00009684860C44800680C30A649096888600C
:1033B00000230122D0A1D248FDF7F4FB9748006812
:1033C000B049086000BFC8E72DE9F047054615B9C8
:1033D0000020BDE8F08700BF09F0B0FF8146FFF78D
:1033E000C3F948B1C749A9A0FFF7A4FD4FF48C72F7
:1033F000C449B0A0FFF7A3FE484609F0A3FF00BFF1
:10340000E81C20F00300A84201D000BF01E000BF8B
:1034100000BFE81C20F00305A7480068854203D9D7
:1034200000BF00BF0020D4E70C2D00D20C254FF0C8
:10343000FF31B348FDF759FC9248006877490968A5
:10344000461ABBE0754800688419608800287BD163
:1034500006F10C006168081AA84275D306F10C0049
:103460006168091A05F11800814230D306F10C0099
:1034700000EB05086948006800EB08074FF4F550B9
:1034800038800020788060687860BE60C4F804806E
:10349000012060808848796800680C30814205D03E
:1034A0005E49786809680844C0F808809648016851
:1034B00005F10C00084494490860944800680968C4
:1034C000884219D2904800689049086014E00120B1
:1034D0006080524960680968611A401A8A4909681F
:1034E000084489490860894800680968884203D20D
:1034F00085480068854908604FF4F5502080614890
:103500000068844224D107E05E480068406843496F
:10351000096808445B4908605A480068408828B137
:1035200058480068474909688842EDD15548006805
:103530004449096888420BD052480068408838B135
:103540004FF4C1726F4900E034E071A0FFF7F7FD5E
:103550006B48FDF761FC04F10C0028443949096807
:10356000884205D94FF4C37266497348FFF7E7FDF7
:1035700004F0030028B140F2871262496F48FFF758
:10358000DEFD04F0030028B14FF4C4725D496CA065
:10359000FFF7D5FD00BF00BF00BF1E48006828B17F
:1035A000294604F10C001B4A1268904700BF04F141
:1035B0000C000EE719480068304446683E48006831
:1035C000401BB0423FF63EAF4D48FDF725FC0020C2
:1035D000FFE670B5054605B970BD00BF09F0AEFE47
:1035E0000646FFF7C1F848B1614928A0FFF7A2FCE1
:1035F00040F229225E492FA0FFF7A1FD304609F0D5
:10360000A1FE00BF05F0030018B140F22B2258497B
:10361000B0E0B2E01C0000202000002024000020C8
:10362000124B01082872745F75696E74385F7420DC
:103630002A296D656D203E3D20686561705F70745C
:1036400072000000280000202872745F75696E7493
:10365000385F74202A296D656D203C202872745FC4
:1036600075696E74385F74202A29686561705F65BA
:103670006E6400006D656D2D3E75736564203D3D83
:10368000203000002C0000201D4B010846756E63A1
:1036900074696F6E5B25735D207368616C6C206E5E
:1036A0006F74206265207573656420696E204953CC
:1036B000520A000030000000300000206D656D20CF
:1036C000696E69742C206572726F72206265676919
:1036D0006E206164647265737320307825782C20C5
:1036E000616E6420656E642061646472657373202A
:1036F000307825780A0000006865617000000000DD
:1037000088040020314B01083400002038000020DC
:1037100028286C66726565203D3D20686561705F94
:10372000656E6429207C7C2028216C667265652D7D
:103730003E75736564292900546D0108AC6C01085D
:1037400028282872745F75626173655F74296D65DE
:103750006D292026202852545F414C49474E5F5323
:10376000495A45202D20312929203D3D2030000097
:10377000464B01089EA0FFF7E2FCA948006885427D
:1037800003D3A8480068854205D34FF40B72A649BD
:10379000A648FFF7D4FC00BFA548006818B128462A
:1037A000A3490968884700BF9D480068854203D344
:1037B0009C480068854202D300BF00BF0CE7A5F11A
:1037C0000C0400BF00BF4FF0FF319A48FDF78DFA9F
:1037D000608818B12088B0F5F55F08D096A0FFF793
:1037E000A9FB2388628821469AA0FFF7A3FB608883
:1037F00028B940F24B228C49A2A0FFF7A0FC2088F8
:10380000B0F5F55F05D04FF413728749A0A0FFF71C
:1038100096FC002060804FF4F5502080A34800689B
:10382000844201D2A14804607D4960680968611A38
:10383000401A9F490968081A9D4908602046FFF709
:103840000DFD7C48FDF7E8FA00BFC5E62DE9F84F0D
:1038500006460C4600BF09F071FD0090FEF784FF9C
:1038600058B19449AFF2DC10FFF764FB4FF4D67205
:103870009049AFF2C010FFF762FC009809F062FDBA
:1038800000BFE01C20F003048B480068844204D988
:1038900000BF00BF0020BDE8F88F24B93046FFF715
:1038A00098FE0020F7E71EB92046FFF78DFDF2E7EE
:1038B0004FF0FF315F48FDF718FA5948006886421B
:1038C00003D358480068864204D35A48FDF7A4FA47
:1038D0003046E0E7A6F10C0851480068A8EB000963
:1038E000D8F80400A0EB0900A0F10C07A74204D10E
:1038F0005048FDF791FA3046CDE704F11800B84280
:103900002DD2381B6A490968081A6949086009F10B
:103910000C0000EB040A4248006800EB0A054FF473
:10392000F550288000206880D8F804006860C5F849
:103930000890C8F804A06048696800680C308142AB
:1039400005D03749686809680844C0F808A02846C7
:10395000FFF784FC3748FDF75FFA30469BE73548B0
:10396000FDF75AFA2046FFF72FFD8346BBF1000F03
:103970000CD0A74201D2384600E02046024631462C
:103980005846FEF758FF3046FFF723FE584682E7B9
:1039900070B504460D4604FB05F0FFF715FD06461D
:1039A0002EB104FB05F200213046FEF720FF304621
:1039B00070BD10B1404B1B68036011B13C4B1B68DC
:1039C0000B6012B13D4B1B681360704710B53A484D
:1039D00001683BA0FFF7AEFA354801683DA0FFF74C
:1039E000A9FA3648016840A0FFF7A4FA10BD00000C
:1039F00028282872745F75626173655F7429726D1F
:103A0000656D292026202852545F414C49474E5F5E
:103A100053495A45202D20312929203D3D20300091
:103A20002400002028000020464B0108F86C010803
:103A30002000002088040020746F206672656520D5
:103A40006120626164206461746120626C6F636BE9
:103A50003A0A00006D656D3A203078253038782CB0
:103A6000207573656420666C61673A2025642C209C
:103A70006D6167696320636F64653A203078253033
:103A800034780A006D656D2D3E7573656400000025
:103A90006D656D2D3E6D61676963203D3D20484534
:103AA00041505F4D41474943000000002C00002079
:103AB000340000203B4B010830000020380000207B
:103AC000746F74616C206D656D6F72793A20256436
:103AD0000A00000075736564206D656D6F72792052
:103AE0003A2025640A0000006D6178696D756D20CB
:103AF000616C6C6F6361746564206D656D6F727964
:103B00003A2025640A0000000268516002680A60D9
:103B1000016048607047D0E900215160D0E900128F
:103B20001160406000607047A64908607047A64970
:103B300008607047A54908607047A549086070474C
:103B4000A449086070477047024600210AE0A24875
:103B500000EB01100078904203D19F4800EB011068
:103B60007047491C0A29F2DB0020F9E72DE9F041F2
:103B700004460D4616462846FFF7E6FF074627B9D6
:103B8000FA22964996A0FFF7DAFA45F080002072F3
:103B9000082231462046FEF7FEFE00BF8948006835
:103BA00018B1204687490968884700BF09F0C6FB5D
:103BB000804604F10C01381DFFF7A6FF404609F0CE
:103BC000C1FBBDE8F08170B504462CB940F2251266
:103BD00089498AA0FFF7B3FA00BF7B48006818B193
:103BE000204679490968884700BF0020207209F003
:103BF000A5FB054604F10C00FFF78DFF284609F0F0
:103C0000A1FB70BD2DE9F04706460F4600BF09F045
:103C100095FB8146FEF7A8FD48B17D497DA0FFF7E1
:103C200089F94FF4A4727A4984A0FFF788FA4846CC
:103C300009F088FB00BF3046FFF786FF05462DB927
:103C40004FF4A672724966A0FFF779FAE868FFF7A9
:103C5000BBFB044614B90020BDE8F08700212046D4
:103C6000EA68FEF7C4FD2672002060720822394619
:103C70002046FEF790FE00BF5248006818B120466B
:103C800050490968884700BF09F058FB804604F195
:103C90000C01281DFFF738FF404609F053FB204672
:103CA000DAE770B504462CB94FF4C372644953A0E7
:103CB000FFF745FA207A00F0800028B140F2871221
:103CC0005F4960A0FFF73BFA00BF3F48006818B1AA
:103CD00020463D490968884700BF0020207209F04E
:103CE0002DFB054604F10C00FFF715FF284609F0EF
:103CF00029FB2046FFF76DFC70BD10B504462CB9BA
:103D00004FF4D4725A493DA0FFF719FA207A00F017
:103D1000800008B1012010BD0020FCE710B504466A
:103D20002CB940F2BB12534934A0FFF708FA207AAD
:103D300020F0800010BD2DE9F04705460E464FF0FB
:103D40000008002700240DB10C2E02DD0020BDE884
:103D5000F08700BF09F0F2FA8146FEF705FD48B191
:103D600045492CA0FFF7E6F840F2D712424933A0AC
:103D7000FFF7E5F9484609F0E5FA00BF00F0C9F998
:103D800054B93046FFF7E0FE04462CB94FF4F07208
:103D9000394913A0FFF7D3F967680CE0A7F10C08C5
:103DA000082229464046FEF710FE18B900F0BFF978
:103DB0004046CCE73F68201D8742EFD100F0B7F9BD
:103DC0000020C4E7DC000020E0000020E400002028
:103DD000E8000020EC0000203C0000204E4B0108D1
:103DE000696E666F726D6174696F6E20213D20523D
:103DF000545F4E554C4C00005D4B01086F626A6584
:103E0000637420213D2052545F4E554C4C000000FD
:103E10006E4B010846756E6374696F6E5B25735D4A
:103E2000207368616C6C206E6F74206265207573FE
:103E3000656420696E204953520A0000300000007A
:103E4000814B010821286F626A6563742D3E747985
:103E5000706520262052545F4F626A6563745F4329
:103E60006C6173735F5374617469632900000000AF
:103E7000924B0108AC4B0108BF4B0108BD490860DB
:103E8000704770B5044624B95322BB49BBA0FFF765
:103E900056F9A06A0078232809D1A16AE06988420E
:103EA00005D9D4E90A010844E16988420CD22146C7
:103EB000B7A0FFF73FF80BF08BFE09F03FFA05467D
:103EC00000BF002DFDD108E0A06A2030E1698142E9
:103ED00003D82146B5A0FFF72DF870BD70B5044694
:103EE000C0480068FFF705F9451EBF4850F8350087
:103EF000A0F114062560304670BD10B50020BB4906
:103F0000088000BF00BF002405E0B74901EBC400F2
:103F100000F02CF9641C202CF7DB0020B14908606C
:103F2000B34800F023F910BD70B504462CB940F237
:103F3000F122B04991A0FFF702F909F0FFF9054617
:103F400000BF00BF04F11400D0E900215160D0E9A6
:103F5000001211604060006000BF94F83510A24A62
:103F600002EBC1000168814201D1012100E0002182
:103F700029B19C48A16B006888439A49086028468B
:103F800009F0E0F970BD38B56846FFF7A7FF0446B1
:103F9000994804602046FFF7C7FF032084F83400E7
:103FA00004F11C0009F017FA38BD70B504462CB9AD
:103FB0004FF42472914971A0FFF7C1F809F0BEF9DE
:103FC00005468D480068844208D194F8340020F0FA
:103FD0000F0040F0030084F834001DE014F8340FA3
:103FE00020F00F0040F0010020706278343C7E4BDE
:103FF00003EBC20004F114014268116042684A6098
:104000004160086000BF00BF00BF7649A06B09682F
:1040100008437449086000BF284609F093F970BD51
:10402000F8B509F08BF906467048008800286BD176
:104030006C480068002866D000276846FFF74EFFEE
:1040400004466D48006890F8340000F00F00032823
:104050000AD16948006890F835000099884202D278
:104060006548046800E0012763480068844239D04D
:1040700063490098087060480568046000BF3D48C7
:10408000006820B1214628463A4A1268904700BF8E
:1040900017B12846FFF789FF2046FFF745FF94F840
:1040A000340020F00F0040F0030084F8340000BF1B
:1040B00000BF2046FFF7E5FE5248007848B904F1FA
:1040C0001C0105F11C0009F040F9304609F03AF9ED
:1040D0001EE000BF00BF04F11C0105F11C0009F047
:1040E00034F90FE044480068FFF71EFF42480068BB
:1040F00090F8340020F00F0040F003003E490968BA
:1041000081F8340000BF00BF304609F01BF900BF42
:10411000F8BD10B509F012F9044634480088401C77
:1041200000B232490880204609F00CF910BD10B5E4
:1041300009F004F904462D480088401E00B22B49BE
:1041400008800846B0F90000002807DC002008803D
:10415000204609F0F7F8FFF763FF02E0204609F078
:10416000F1F810BD2148008880B2704740600060BF
:104170007047000008010020CE4B0108746872658A
:10418000616420213D2052545F4E554C4C0000008C
:104190007468726561643A257320737461636B207F
:1041A0006F766572666C6F770A0000007761726ED9
:1041B000696E673A20257320737461636B2069739D
:1041C00020636C6F736520746F20656E64206F666A
:1041D00020737461636B20616464726573732E0A6B
:1041E00000000000F0000020A8040020F4000020DF
:1041F00000010020024C0108F8000020E84B0108F3
:10420000FC0000200C0000200268516002680A6077
:10421000016048607047D0E900215160D0E9001288
:104220001160406000607047F74908607047F749C7
:1042300008607047F64908607047F64800687047A4
:1042400070B5FFF7FAFF044609F078F805462046F6
:10425000FFF76AFE042084F8340004F14C0000F0FB
:104260002DFC2046FFF749FD012805D1A06F18B9A4
:104270002046FFF7A8FC04E004F11401E648FFF72C
:10428000C3FF284609F05EF8FFF7CAFE70BD70B59F
:1042900005462C462CB940F2F322E049E0A0FEF797
:1042A0004EFF94F8340000F00F00022805D04FF4C0
:1042B0003D72DA49DFA0FEF742FF2046FFF72EFDF0
:1042C000012805D040F2F522D449E948FEF737FF2E
:1042D0006FF00100206304F11400FFF79CFF2046FB
:1042E000FFF763FEFFF79CFE70BD2DE9FC5F0446FF
:1042F0008B4616461F46DDE90C9ADDE90E5804F19F
:1043000014004060006000BF26626762C4F8289015
:10431000C4F82CA02321D4E90A02FEF768FAD4E9F4
:104320000A3C63441A1FAFF2E703D4E9080108F01E
:10433000FFFCE061202D04DB9522CE49CEA0FEF7E4
:10434000FEFE3034A57165710020A060C4F81480B1
:10435000C4F8188020602071A064E064303C0090B4
:104360002346AFF2D5022146019004F14C0000F043
:1043700088FB00BFA648006818B12046A449096818
:10438000884700BF0020BDE8FC9F2DE9FF5F044681
:104390000D46174698460EAE96E8400E24B9EF2219
:1043A000BE499FA0FEF7CBFE26B9F022BB49BCA0B8
:1043B000FEF7C5FE2A4601212046FFF7D7FB4346FC
:1043C0003A46294620468DE8400EFFF78EFF04B09E
:1043D000BDE8F09F70B504462CB940F2C622B6493C
:1043E0008FA0FEF7ACFE2046FFF798FC012805D011
:1043F00040F2C722B0499E48FEF7A1FE00BF00BFB1
:1044000094F8340000F00F00022804D000BF00BF71
:104410004FF0FF3070BD08F091FF054604F1140025
:10442000FFF7F9FE04F14C0000F055FC284608F0B7
:1044300089FF2046FFF7B9FD00BF7448006818B136
:10444000204672490968884700BF0020E2E710B59E
:1044500004462CB940F22112984971A0FEF76FFE74
:1044600094F8340000F00F0028B14FF49172934992
:1044700093A0FEF764FE2046FFF750FC012805D00C
:1044800040F223128D497A48FEF759FE94F836001F
:1044900084F8350094F8351001208840A06300BFEF
:1044A00000BF022084F834002046FFF793FFFFF797
:1044B000C4FE08B1FFF7B4FD002010BD70B504467E
:1044C0002CB94FF4A7728C4955A0FEF738FE204650
:1044D000FFF724FC012805D040F24F1286496448BA
:1044E000FEF72DFE2046FFF708FC28B94FF4A8720E
:1044F000814982A0FEF723FE94F8340000F00F00FB
:1045000010B12046FFF710FD04F14C0000F0D6FA80
:10451000042084F834002046FFF755FBA06F50B10B
:1045200008F00CFF054604F114013B48FFF76CFE50
:10453000284608F007FF002070BD2DE9FF5F064602
:104540000F4690461D46DDE90EAB31460120FFF7D0
:1045500059FB8146B9F1000F03D1002004B0BDE83A
:10456000F09F2846FEF730FF044624B94846FFF77F
:1045700098FB0020F2E743463A46314648468DE82C
:10458000300CFFF7B2FE4846E8E770B504462CB998
:104590004FF4D972654922A0FEF7D1FD2046FFF7FE
:1045A000BDFB012805D040F2B31260493048FEF748
:1045B000C6FD2046FFF7A1FB28B14FF4DA725B4934
:1045C0005BA0FEF7BCFD94F8340000F00F0010B1C2
:1045D0002046FFF7A9FC04F14C0000F06FFA04201C
:1045E00084F8340008F0AAFE054604F114010A48D4
:1045F000FFF70AFE284608F0A5FE002070BD10B5A2
:10460000FFF70EFD002010BD0C010020100100205E
:1046100014010020F800002000010020B44C010823
:1046200074687265616420213D2052545F4E554C80
:104630004C000000287468726561642D3E737461DB
:104640007420262052545F5448524541445F5354CD
:1046500041545F4D41534B29203D3D2052545F54FE
:1046600048524541445F53555350454E4400000065
:10467000986D01081C4C01087072696F7269747939
:10468000203C2052545F5448524541445F505249A7
:104690004F524954595F4D41580000002C4C0108BD
:1046A000737461636B5F737461727420213D205277
:1046B000545F4E554C4C0000A34C01083B4C010884
:1046C000287468726561642D3E73746174202620BD
:1046D00052545F5448524541445F535441545F4DD6
:1046E00041534B29203D3D2052545F54485245418F
:1046F000445F494E495400004D4C010872745F6F8D
:10470000626A6563745F69735F73797374656D6FF3
:10471000626A656374282872745F6F626A65637485
:104720005F74297468726561642900005E4C010839
:1047300072745F6F626A6563745F69735F737973C4
:1047400074656D6F626A656374282872745F6F6246
:104750006A6563745F742974687265616429203DB9
:104760003D2052545F46414C5345000070B504460D
:1047700034B940F296228649AFF25C10FEF7DFFCB6
:104780002046FFF7CBFA012805D040F29722804956
:104790008048FEF7D4FC00BF00BF94F8340000F05E
:1047A0000F05012D06D0032D04D000BF00BF4FF030
:1047B000FF3070BD08F0C2FD0646032D09D1FFF79A
:1047C0003CFDA04205D04FF42A72714972A0FEF759
:1047D000B6FC2046FFF7A8FB94F8340020F00F0049
:1047E00040F0020084F8340004F14C0000F073FA49
:1047F000304608F0A7FD00BF6E48006818B120469B
:104800006C490968884700BF0020D2E731B5FFF73F
:1048100014FD044634B940F2ED126749AFF20020AE
:10482000FEF78DFC2046FFF779FA012805D04FF4FA
:10483000F77261495748FEF782FC08F07FFD054694
:104840002046FFF793FF6A46002104F14C0000F078
:1048500075FA04F14C0000F0A1F9284608F072FD49
:10486000FFF7DEFB206B801C08B9002020630020CE
:1048700038BD10B504462046FFF7C8FF10BD70B51F
:1048800004462046FBF72AFD05462846FFF7BEFFF3
:1048900070BD2DE9F04104460E46154634B940F28C
:1048A00036224649AFF28820FEF749FC2046FFF742
:1048B00035FA012805D040F2372240493548FEF745
:1048C0003EFC3EB3012E2AD0022E2CD108F036FD3C
:1048D000074694F8340000F00F0001280ED120465E
:1048E000FFF722FB287884F8350094F83510012072
:1048F0008840A0632046FFF758FB07E0287884F83B
:10490000350094F8351001208840A063384608F03F
:1049100019FD09E02046FFF79AFDBDE8F081204629
:10492000FFF733FEF9E700BF00BF0020F5E72DE9F0
:10493000F0410646FFF781FC08B1FFF7EAFB0120D2
:10494000FFF702F904462CB940F21A321C491DA0A7
:10495000FEF7F5FB656810E0A5F10C07082231466B
:104960003846FEF732F838B9FFF767FC08B1FFF7B1
:10497000DEFB3846BDE8F0812D68201D8542EBD175
:10498000FFF75BFC08B1FFF7D2FB0020F2E7000065
:10499000914C0108986D0108746872656164203D4E
:1049A0003D2072745F7468726561645F73656C66E4
:1049B000282900000C0100206F4C01087F4C0108E1
:1049C000C64C0108696E666F726D6174696F6E2006
:1049D000213D2052545F4E554C4C000002685160FE
:1049E00002680A60016048607047FE4908607047CD
:1049F000FD49086070472DE9F04704460E4617460A
:104A00009846DDF8209084F80990607A20F0010043
:104A10006072E66127620020A062C4F8248000254D
:104A200006E004F1140101EBC50000F0A5FA6D1CCD
:104A3000012DF6DBBDE8F08770B50446204600F096
:104A40009EFA10B14FF0FF3070BD2068A0F1140540
:104A5000A86AF9E710B50246002001460EE002F10F
:104A6000140303EBC100D0E900436360D0E90034D4
:104A700023604060006000BF481C01460129EEDB56
:104A800010BD2DE9F84304460D4616461F46DDE9E4
:104A9000088924B9BA22D549D5A0FEF750FB2A4689
:104AA0000A212046FFF762F843463A46314620463F
:104AB000CDF80090FFF79FFFBDE8F88370B504467E
:104AC00024B9CF22CF49CAA0FEF739FB2046FFF711
:104AD00025F90A2804D0D022CA49CBA0FEF72FFB23
:104AE0002046FFF70AF920B9D122C649D5A0FEF722
:104AF00026FB08F023FC05462046FFF7ABFF2846BF
:104B000008F020FC2046FFF75EF8002070BD2DE97C
:104B1000F84304460E4617469846DDF82090214695
:104B20000A20FFF76FF8054615B90020BDE8F883A5
:104B300043463A4631462846CDF80090FFF75BFFE2
:104B40002846F3E770B504462CB94FF48772C8497C
:104B5000A7A0FEF7F4FA2046FFF7E0F80A2805D0F0
:104B600040F20F12C249A8A0FEF7E9FA2046FFF76B
:104B7000C4F828B14FF48872BD49BEA0FEF7DFFA31
:104B800008F0DCFB05462046FFF764FF284608F0E6
:104B9000D9FB2046FFF785F8002070BD2DE9F843CA
:104BA00005462DB94FF49972C04991A0FEF7C7FA96
:104BB0002846FFF7B3F80A2805D040F23312BB4964
:104BC00091A0FEF7BCFA08F0B9FB80462846FFF733
:104BD00041FF687A20F001006872404608F0B2FB9D
:104BE00000BFB348006818B12846B1490968884732
:104BF00000BF6FF00041686A884205D340F243125B
:104C0000AA49ACA0FEF79BFAFBF745FB696A08448A
:104C1000A86208F093FB8046AF4E009600242AE07D
:104C200019E05DF824201168142202EBC402881AEE
:104C3000826AAB6AD21A00D108E0826AAB6AD21AE1
:104C40006FF000439A4200D20CE000BF5DF82400F0
:104C500000684DF824005DF8240006EBC4014968A3
:104C60008842DED100BF2CB15DF824000830611C01
:104C70004DF82100641C002CD2D098480068401CDC
:104C8000964908600846076805F114010098FFF787
:104C9000A5FE022412E007F0030060B9C4F101038D
:104CA00005F1140202EBC301C4F101025DF8220018
:104CB000FFF794FE00E003E0BF08641C012CEAD972
:104CC00000BF687A40F001006872404608F03AFB85
:104CD0000020BDE8F88370B504462CB940F2AB1251
:104CE0007F4943A0FEF72BFA2046FFF717F80A2862
:104CF00005D04FF4D6727A4943A0FEF720FA607AC5
:104D000000F0010010B94FF0FF3070BD00BF7548D2
:104D1000006818B1204673490968884700BF08F049
:104D20000DFB05462046FFF795FE284608F00AFBD6
:104D3000607A20F0010060720020E6E770B504465A
:104D40000E4615462CB94FF4E772674928A0FEF7C6
:104D5000F6F92046FEF7E2FF0A2805D040F2CF120E
:104D6000614929A0FEF7EBF94EB1012E04D0022EC5
:104D700008D0032E10D10AE0606A28600CE0286891
:104D8000606209E0607A20F00200607204E0607AFC
:104D900040F00200607200BF00BF002070BD70B51F
:104DA00000BF00BFFBF777FA054608F0C7FA0646D2
:104DB000C3E049480068A0F11404A06A281A6FF003
:104DC000004188420CD200BF0648006818B1204656
:104DD00004490968884700BF2046FFF73BFE85E08D
:104DE000AAE000002001002024010020D54C010889
:104DF00074696D657220213D2052545F4E554C4CB4
:104E000000000000E34C010872745F6F626A656322
:104E1000745F6765745F74797065282674696D6561
:104E2000722D3E706172656E7429203D3D20525492
:104E30005F4F626A6563745F436C6173735F54694B
:104E40006D65720072745F6F626A6563745F697327
:104E50005F73797374656D6F626A65637428267415
:104E6000696D65722D3E706172656E742900000077
:104E7000F34C010872745F6F626A6563745F6973F3
:104E80005F73797374656D6F626A656374282674E5
:104E9000696D65722D3E706172656E7429203D3DAD
:104EA0002052545F46414C5345000000034D010819
:104EB000E800002074696D65722D3E696E69745F4B
:104EC0007469636B203C2052545F5449434B5F4DDF
:104ED0004158202F20320000180100202801002016
:104EE000124D0108EC000020204D0108D4E9071004
:104EF0008847FBF7D0F9054600BF2548006818B180
:104F0000204623490968884700BF00BF00BF607A78
:104F100000F0020058B1607A00F0010038B1607A08
:104F200020F0010060722046FFF738FE05E0607A4D
:104F300020F00100607200E005E0164800F01FF864
:104F400000283FF436AF00BF304608F0FBF900BF41
:104F500000BF70BD10B50F48FFF76EFD10BD10B556
:104F6000002405E00B4901EBC40000F005F8641CC7
:104F7000002CF7D010BD70474060006070470146BC
:104F80000868884201D1012070470020FCE700003A
:104F9000240100201801002000240021032008F033
:104FA00029FB81A0FBF718FA04461CB980A0FDF785
:104FB000C1FF03E0214682A0FDF7BCFF0DE0012107
:104FC000032008F02AFB1420FFF753FC00210320E4
:104FD00008F023FB1420FFF74CFCF0E786B000201C
:104FE0000590049001900290039000240025002673
:104FF0007AA0FBF7F1F9054615B97BA0FDF79AFFFA
:105000007FA0FBF7E9F9064616B981A0FDF792FFEC
:1050100017E004AA05A928460CF08FFD01A9304627
:105020000CF0EEFE002407E001A8025D21467FA0FF
:10503000FDF780FF601CC4B2092CF5DB3220FFF7BE
:1050400018FCE6E72DED068B8CB000BF00200A901F
:105050000B9008900990069007900021049105910B
:1050600000BF002675A0FBF7B7F9064616B950A099
:10507000FDF760FF5DE004A930460CF055FA1527F6
:10508000DDE904C0BCEB070260F1000110460FF03F
:10509000A5F99FED6C0B53EC102B0FF017F89FED5B
:1050A0006B0B53EC102B0EF069FF0FF067F9054600
:1050B000294668A0FDF73EFF06AB08AA0AA93046BC
:1050C0000CF0E7F8BDF92C30BDF92A20BDF9281005
:1050D00064A0FDF72FFFBDF92430BDF92220BDF9F2
:1050E000201069A0FDF726FFBDF91C30BDF91A207C
:1050F000BDF918106CA0FDF71DFF754A694602A89E
:105100000CF0FEFF04468CB9BDF90C30BDF90A2045
:10511000BDF908106FA0FDF70DFFBDF90430BDF912
:105120000220BDF9001075A0FDF704FF3220FFF743
:10513000A0FBA0E71FB5142003214FF40472784BA5
:10514000CDE90032CDE902100023764A76A17848F5
:10515000FFF71BF97648FFF77AF9142003214FF483
:105160000472744BCDE90032CDE902100023724A7B
:1051700072A17448FFF709F97248FFF768F9142023
:1051800004214FF40472704BCDE90032CDE90210D6
:1051900000236E4A6EA17048FFF7F7F86E48FFF7DC
:1051A00056F9002004B010BD737069310000000092
:1051B0006E6F742072656769737465720D0A000002
:1051C0007265676973746572207375636365737361
:1051D00066756C3A25640D0A000000006D73353663
:1051E00031315F73706900006D7335363131206E77
:1051F0006F742072656769737465720D0A00000030
:105200006D6C7839303339335F737069000000009A
:105210006D6C7839303339335F737069206E6F7419
:105220002072656769737465720D0A00706F735B35
:1052300025645D3A25640D0A000000006D70755FFD
:105240007370690052B81E85EBDD744000000000E9
:105250000000354074656D7065723A202564200D3C
:105260000A000000416363656C313A2564092041FE
:105270006363656C323A25640920416363656C336E
:105280003A25640D0A0000004779726F313A2564AF
:1052900009204779726F323A256409204779726F85
:1052A000333A25640D0A00004D61676E6574313A2A
:1052B000256409204D61676E6574323A25640920C2
:1052C0004D61676E6574333A25640D0A0000000075
:1052D0005002002042494D20416363656C313A25FC
:1052E000640920416363656C323A25640920416397
:1052F00063656C333A25640D0A00000042494D2075
:105300004779726F313A256409204779726F323AD2
:10531000256409204779726F333A25640D0A00002D
:1053200028070020994F00086C65643000000000D9
:10533000A805002038090020DD4F00086C656431A5
:105340000000000028060020480B002045500008FF
:105350007265636976650000A806002030B59FB0CD
:105360001825A82400BF002001908B48006840F059
:105370008050894908600846006800F0805001901C
:1053800000BF00BF00BF002001908448006840F4C7
:105390004040824908600846006800F4404001909F
:1053A00000BF00BF01201390139840F00800139035
:1053B00001201890000414900220199041051A91C0
:1053C00005F0010060BB69081B91A0003021B0FB13
:1053D000F1F201FB120020B961001C9104211D9122
:1053E0004BE004EB440040003021B0FBF1F201FB44
:1053F000120028B904EB44011C9106211D913CE0E8
:10540000E0003021B0FBF1F201FB120020B9A10055
:105410001C9108211D9130E01C9402211D912CE06B
:105420001B95A0003021B0FBF1F201FB120020B966
:10543000A1001C9104211D911FE004EB44004000D9
:105440003021B0FBF1F201FB120030B904EB440053
:1054500041001C9106211D910FE0E0003021B0FBBE
:10546000F1F201FB120020B9E1001C9108211D910D
:1054700003E061001C9102211D911B98B5FBF0F027
:105480001C9948433021B0FBF1F11E9113A802F0A2
:105490006BFB08B100BFFEE70F200E9002200F90BB
:1054A000002010904FF4A05011904FF480501290B3
:1054B00005210EA802F0B1FD08B100BFFEE70020F3
:1054C0000290029840F0200002904FF400700C907F
:1054D00002A802F095FF08B100BFFEE71FB030BD83
:1054E00010B5FDF713F901F0AAFAFAF7E2FEFDF79D
:1054F00024F910BD70B5044602F0A7FE6421B0FB8C
:10550000F1F5284601F0C0FB00222146501E01F0B3
:1055100045FB002070BD01B50098FFF7AAF908BD52
:105520007047704710B5032001F026FB002211469A
:105530006FF00B0001F032FB002211466FF00A0001
:1055400001F02CFB002211466FF0090001F026FB50
:1055500000221146501F01F021FB00221146101FAE
:1055600001F01CFB00220F21901E01F017FB00220E
:105570000F21501E01F012FB10BD10B5FFF7EEFE1B
:1055800001F021FA06490748FDF7B8FEFAF7C0FE18
:1055900005A0FDF744FD10BD4038024000700040FA
:1055A00000000320081700207561727432000000AB
:1055B000704700BFFEE700BFFEE700BFFEE7704791
:1055C000014601F47F40C2B202BB00120C281DD27A
:1055D000DFE800F01C06080A0C0E10121416181A48
:1055E000F8487047F848FCE7F848FAE7F848F8E761
:1055F000F848F6E7F848F4E7F848F2E7F848F0E743
:10560000F848EEE7F848ECE7F848EAE70020E8E772
:1056100008B500F47F41CAB2002A70D109120C29E2
:105620006DD2DFE801F0C2061728394A5B6D7E8F24
:10563000A0B100BF00210091ED49096841F00101CE
:10564000EB4A11601146096801F00101009100BFA9
:1056500000BFABE000BF00210091E549096841F0BF
:105660000201E34A11601146096801F0020100914C
:1056700000BF00BF9AE000BF00210091DC4909682B
:1056800041F00401DA4A11601146096801F0040191
:10569000009100BF00BF89E000BF00210091D44904
:1056A000096841F00801D24A11601146096801F009
:1056B0000801009100BF00BF78E000BF0021009109
:1056C000CB49096841F01001C94A116011460968C7
:1056D00001F01001009100BF00BF67E000BF002192
:1056E0000091C349096841F02001C14A1160114687
:1056F000096801F02001009100BF00BF56E054E0AE
:1057000000BF00210091BA49096841F04001B84A40
:1057100011601146096801F04001009100BF00BF0F
:1057200044E000BF00210091B149096841F08001C7
:10573000AF4A11601146096801F08001009100BF75
:1057400000BF33E000BF00210091A949096841F47E
:105750008071A74A11601146096801F480710091B7
:1057600000BF00BF22E000BF00210091A0490968EE
:1057700041F400719E4A11601146096801F40071FC
:10578000009100BF00BF11E000BF002100919849C7
:10579000096841F48061964A11601146096801F474
:1057A0008061009100BF00BF00E000BF00BF08BDE6
:1057B00001460020652902D28E4A32F81100704756
:1057C0002DE9F04180460C461546E0B2FFF7F0FFA8
:1057D00006463046FFF7F4FE08B9BDE8F0813046D2
:1057E000FFF7EEFE0746EAB20120B04081B238462C
:1057F00002F06DF900BFF0E72DE9F04107460C46D5
:10580000E0B2FFF7D5FF05462846FFF7D9FE10B9ED
:105810000020BDE8F0812846FFF7D2FE06460120B1
:10582000A84081B2304602F04AF9F2E72DE9F04192
:1058300086B080460D461446E8B2FFF7B9FF06462B
:105840003046FFF7BDFE10B906B0BDE8F081304626
:10585000FFF7DEFE0120B040019001200290002001
:10586000039003200490012C02D10020029011E04B
:10587000022C04D100200290012003900AE0032CA6
:1058800004D1002002900220039003E0042C01D1F7
:10589000112002903046FFF793FE074601A901F060
:1058A00073FF00BFD0E70246D1B2002901DB102907
:1058B00001D300207047504800EB8100FAE72DE942
:1058C000F05F83460D4616461F46DDF828804FF0F0
:1058D000FF34E8B2FFF76CFF81464846FFF770FEE1
:1058E00010B90620BDE8F09F09F0FF04002C01DB91
:1058F000102C01D30620F5E707F020FD824604EBCB
:1059000044003E4931F92000A84219D104EB44007B
:1059100001EB80004068B84212D104EB440001EB77
:1059200080004088B0420BD104EB440001EB8000C2
:105930008068404504D1504607F004FD0020D1E7BF
:1059400004EB44002D4931F92000401C20B15046A1
:1059500007F0F8FC0720C5E728B204EB4401274A0A
:1059600022F8210004EB4400114601EB800047605F
:1059700004EB440102EB81014E8004EB440011462C
:1059800001EB8000C0F80880504607F0DBFC0020E7
:10599000A8E72DE9F04180460D464FF0FF34E8B20C
:1059A000FFF706FF06463046FFF70AFE10B906204D
:1059B000BDE8F081F4B2002C01DB102C20D30620CE
:1059C000F6E7000000000240000402400008024028
:1059D000000C024000100240001402400018024077
:1059E000001C024000200240002402400028024027
:1059F00030380240344D0108FE4D01082C010020D2
:105A000007F09CFC074604EB44009B4931F9200059
:105A1000401C20B9384607F095FC0020C8E74FF03D
:105A2000FF3004EB4401944A22F82100002004EBEB
:105A3000440102EB8101486004EB440102EB810167
:105A4000488004EB440102EB81018860384607F08E
:105A500079FC0020ACE72DE9F04F85B082468846FE
:105A600016464FF0FF3508F0FF00FFF7A1FE07468E
:105A70003846FFF7A5FD18B9062005B0BDE8F08F40
:105A8000012E51D1FDB2002D01DB102D01D30620D6
:105A9000F3E707F053FC814605EB4500764931F901
:105AA0002000401C20B9484607F04CFC0620E4E7E3
:105AB000724800EB85043846FFF7AAFD0120B84084
:105AC00000900320039005EB45006B4901EB80003B
:105AD000408820B1012807D002280FD109E0022018
